:02000002D0002C
:1040000000400D00A4650D00000006000C00050135
:084010000401DE0500000000C0
:0440180080610D00B6
:1040200009480A49884208B505D0094A824202D0A7
:10403000121A02F061F80748074A0021121A02F02A
:1040400066F8014808BD00BF4CE3032014650D006D
:10405000B4E30320B4E30320F0E7032070B500F0DD
:10406000D3FD074C074BE41AA40800251E46A542C1
:1040700004D056F8253098470135F8E770BD00BFE9
:1040800008650D00D0640D0000F026B808B500F0FA
:1040900047F8BDE8084000F079BD00F035BB00F0FE
:1040A00033BB0078B0FA80F04009704701230370F9
:1040B00070470368C9B29B681847000010B5044CEC
:1040C00004490246204600F027FB204610BD00BFF1
:1040D000B8E3032094610D0008B500F095FE4FF49D
:1040E000165100F085FE01F069F900F06FFF01F054
:1040F00065F9682100F0A2FF01F060F96B21FFF77C
:10410000D8FF01F05BF90021FFF7D3FF01F056F96A
:104110000121BDE8084000F094BF0000000000004D
:104120002DE9F04F87B001F049F9682100F086FFD2
:1041300001F044F93B21FFF7BCFF01F03FF90021FA
:1041400000F07FFF01F03AF90E226821012300F010
:104150005FFF01F033F903688B4E5B698B4D8C4F29
:10416000DFF85882DFF85892DFF858B2DFF858A22B
:104170009847044601F022F903685B69984740EAD2
:104180000420308001F01AF903685B6998470446FF
:1041900001F014F903685B69984740EA042028801D
:1041A00001F00CF903685B699847044601F006F9D1
:1041B00003685B699847774B40EA042004B21C808F
:1041C000B6F90000744E01F0DBFB0022734B01F0E6
:1041D0003DFC69A3D3E9002301F038FC01F02EFF78
:1041E0003860B5F900006E4D01F0CAFB00226B4B40
:1041F00001F02CFC60A3D3E9002301F027FC01F0BF
:104200001DFFC8F80000204601F0BAFB0022634BF6
:1042100001F01CFC58A3D3E9002301F017FC01F0C6
:104220000DFFC9F8000001F0C9F803685B69984701
:10423000044601F0C3F803685B69984740EA04202C
:10424000ABF8000001F0BAF803685B6998470446D0
:1042500001F0B4F803685B69984740EA0420AAF8C3
:10426000000001F0ABF803685B699847044601F071
:10427000A5F803685B69984740EA0420308001F0A4
:104280009DF803685B699847044601F097F8036856
:104290005B69984740EA0420288000F0B5FD044699
:1042A000D9F8000001F07EFBCDE90401D8F8000048
:1042B00001F078FBCDE90201386801F073FB394A5F
:1042C000CDE900010021204600F0D5FB00F09CFD67
:1042D000354900F0DBFA00F097FD0446BBF9000019
:1042E00001F04EFB0022314B01F0DAFC24A3D3E9AC
:1042F000002301F0F9F941EC100B0221204600F0F7
:10430000B7FB00F081FD2A4900F0C0FA00F07CFD07
:104310000446BAF90000FFF7D1FE0146204600F03E
:10432000B5FA00F071FD234900F0B0FA00F06CFD21
:104330000446B6F90000FFF7C1FE0146204600F032
:10434000A5FA00F061FD1C4900F0A0FA00F05CFD48
:104350000446B5F90000FFF7B1FE0146204600F023
:1043600095FA00F051FD00F098FA4FF47A7007B01A
:10437000BDE8F04F00F0CCBBCC5D4BC8079D23409F
:10438000A4703D0AD7434240C0E30320C2E30320A8
:10439000D8E30320C4E30320D2E303200000103F4E
:1043A000D4E3032098610D00BD610D00004075400D
:1043B000C7610D00D0610D00D9610D00C8E3032075
:1043C000CCE30320D6E30320D0E3032000F010B8B1
:1043D00008B5024B1B689B68019308BD6802030087
:1043E00008B5024B1B68DB68019308BD6802030037
:1043F00008B5024B1B681B68019308BD2C02030023
:1044000008B5024B1B685B68019308BD18020300E6
:1044100008B5024B1B685B69019308BD18020300D5
:1044200008B5024B1B689B68019308BD4802030056
:1044300008B5024B1B681B69019308BD48020300C5
:1044400008B5024B1B685B69019308BD4802030075
:1044500008B5024B1B685B6C019308BD4802030062
:1044600008B5024B1B689B6C019308BD4802030012
:1044700008B5024B1B685B69019308BD6402030029
:1044800008B5024B1B681B68019308BD3C02030082
:1044900008B5024B1B68DB68019308BD3C020300B2
:1044A00008B5024B1B681B69019308BD3C02030061
:1044B00008B5024B1B685B69019308BD3C02030011
:1044C00008B5024B1B689B69019308BD3C020300C1
:1044D00008B5024B1B68DB69019308BD3C02030071
:1044E00008B5024B1B689B6A019308BD3C020300A0
:1044F00008B5024B1B68DB68019308BD2802030066
:1045000008B5024B1B689B69019308BD2802030094
:1045100008B5024B1B68DB69019308BD2802030044
:1045200008B5024B1B681B6A019308BD28020300F3
:1045300008B5024B1B685B6A019308BD28020300A3
:1045400008B5024B1B689B6A019308BD2802030053
:1045500008B5024B1B68DB6A019308BD2802030003
:1045600008B5024B1B681B6B019308BD28020300B2
:1045700008B5024B1B681B6C019308BD28020300A1
:1045800008B5024B1B681B6D019308BD2802030090
:1045900008B5024B1B681B68019308BD4C02030061
:1045A00008B5024B1B685B68019308BD4C02030011
:1045B00008B5024B1B681B69019308BD4C02030040
:1045C00008B5024B1B685B69019308BD4C020300F0
:1045D00008B5024B1B689B69019308BD4C020300A0
:1045E00008B5024B1B68DB69019308BD4C02030050
:1045F00008B5024B1B681B6A019308BD4C020300FF
:1046000008B5024B1B685B68019308BD20020300DC
:1046100008B5024B1B685B69019308BD20020300CB
:1046200008B5034B1B68D3F88830019308BD000020
:104630002002030008B5034B1B68D3F894300193A4
:1046400008BD00002002030008B5024B1B685B6830
:10465000019308BD4002030008B5024B1B689B682C
:10466000019308BD4002030008B5024B1B68DB68DC
:10467000019308BD4002030008B5024B1B681B698B
:10468000019308BD4002030008B5024B1B685B693B
:10469000019308BD4002030008B5024B1B689B69EB
:1046A000019308BD4002030008B5024B1B68DB699B
:1046B000019308BD4002030008B5024B1B681B6A4A
:1046C000019308BD4002030008B5024B1B681B6B39
:1046D000019308BD4002030008B5024B1B685B6BE9
:1046E000019308BD4002030008B5024B1B68DB6B59
:1046F000019308BD4402030008B5024B1B681B6808
:10470000019308BD1C02030008B5024B1B685B68DF
:10471000019308BD1C02030008B5024B1B68DB684F
:10472000019308BD1C02030008B5024B1B685B6ABD
:10473000019308BD1C020300002211464068FFF7E8
:10474000BBBF002211464068FFF7C6BF0022406889
:10475000FFF7BABF002281F001014068FFF7A4BF54
:1047600000231A4619464068FFF796BF00231A46F1
:1047700019464068FFF788BF002211464068FFF7DE
:104780007BBF002211464068FFF766BF002202216E
:104790004068FFF769BF00231A464068FFF754BF1F
:1047A000024B03225A60024A1A607047DCE303207E
:1047B000EC610D0010B50446006818B1FFF7A4FFC6
:1047C0000023236010BD10B50446FFF7F3FF204619
:1047D00010BD000010B5094C00204FF6FF7320609B
:1047E000A080A07120816381FFF70AFF2046044A60
:1047F0000449BDE8104000F007BE00BFE4E3032019
:10480000B4E30320C7470D0010B50446006808B1A3
:10481000FFF726FE204610BD10B5064C00232046AB
:104820002360FFF715FE2046034A0449BDE8104007
:1048300000F0EABDF0E30320B4E3032009480D00D3
:10484000F8B506460D468F180024BD420CD03368DB
:1048500015F8011B9B6830469847002801DB04448B
:10486000F3E7002C08BF04462046F8BD70B50546A6
:104870000C46084649B101F07BFC2B6802462146F4
:104880002846DB68BDE87040184770BD08B5FFF7E3
:10489000EDFF08BD03689B68184738B50D21054634
:1048A000FFF7F8FF0A2104462846FFF7F3FF2044EC
:1048B00038BD30B58BB00B4600218DF82410012A8D
:1048C00098BF0A220DF12304B3FBF2F505FB123366
:1048D00003F0FF03092B94BF30333733DBB221469B
:1048E00004F801392B46002DEED1FFF7BFFF0BB0C6
:1048F00030BD00002DE9F04757EC106B82460D46A5
:1049000010EE102A3B4610EE100A394601F038FB33
:1049100008B14E4912E027F000494FF0FF324C4BEE
:104920003046494601F02CFB68B94FF0FF32484B46
:104930003046494601F006FB28B946495046FFF784
:1049400095FFBDE8F0874FF06042434B3046394653
:1049500001F00CFB08B14149F0E74FF06042404BD9
:104960003046394601F0E4FA0028F4D10022002351
:104970003046394601F0DCFA40B12D215046FFF7B0
:1049800089FF07F1004304461F4600E0044635490D
:104990004FF0000800205FFA88F39D4206D90022FC
:1049A000314B01F07DF908F10108F4E732463B464E
:1049B00000F09AFE0F46064601F020FB0A2201464F
:1049C00080465046FFF775FF0444E5B3404600F0CB
:1049D000C7FF02460B463046394600F083FE0646C6
:1049E0000F4650462149FFF741FF044400221E4B69
:1049F0003046394601F02AF806460F4601F0D6FA4D
:104A0000B0F1000907DA2D215046FFF743FFC9F145
:104A10000001804602E049464FF000080A22504655
:104A2000FFF747FF40440444484600F0A9FF024610
:104A30000B463046394600F055FE013D15F0FF05A6
:104A400006460F46D2D12046BDE8F08718620D0019
:104A5000FFFFEF7F22620D00FFFFEF411C620D00A0
:104A6000FFFFEFC10000E03F0000244020620D0086
:104A7000C9B2FFF73FBF0CB42DE9F04387B000AFD8
:104A800007F13804054654F8049B3C600E46234663
:104A90004A461421381DFFF747FE132805D8391D53
:104AA0002846FFF7E3FE044613E000F1080323F075
:104AB0000703E846ADEB030D411C23464A46684612
:104AC0003C60FFF731FE69462846FFF7CFFE0446FB
:104AD000C5461EB12846FFF7E0FE044420461C37B9
:104AE000BD46BDE8F04302B070470000014B024AEA
:104AF0001A607047F4E3032099620D00024B1A68B4
:104B0000024B1A60704700BF4CE30320F8E3032018
:104B10000021FFF77DBD10B58368044613B1032261
:104B200001469847204610BD10B50446FFF7F3FF35
:104B3000204610BD0348044A04490023836000F066
:104B400063BC00BFFCE30320B4E30320294B0D004A
:104B500008B50C4B33B100F057F903681B6998474F
:104B6000002809DC084B63B100F0CCF903681B692D
:104B70009847002803DC08BDAFF30080F2E7AFF3ED
:104B8000008008BD000000000000000008B5FFF72D
:104B9000DFFFFFF73DFC014B186008BD30E7032045
:104BA0000248034A0349121A01F0A6BA00F403208E
:104BB00004F4032010650D0007B5002300931A4686
:104BC0006FF07701FFF736FD03B05DF804FB0000DE
:104BD00007B543880A2B08D0502B09D1094B1B6815
:104BE0003BB103B05DF804EB1847FFF7E5FF06E0C3
:104BF000002300931A466FF07701FFF71BFD03B007
:104C00005DF804FB0CE4032038B5104C104D23680C
:104C1000AB42104B0CBF012200221A7002D0FFF7EA
:104C2000BFFF2560FFF7ECFB044601F079FA0A4B61
:104C300013B12046AFF3008000210748FFF754FD71
:104C400000210648BDE83840FFF7EABC00F4032025
:104C50001E1C279A10E4032000000000D14B0D0019
:104C6000704710B51821044600F0DCFB204610BD4B
:104C7000F0B5037D062B8DB00E4600F104074FF012
:104C8000000402D000F1080518E00CAD394605F823
:104C9000304D2F232A460A20FFF7EAFB284601F071
:104CA00067FA33680246DB682946304698470FE0CA
:104CB00024B12E213046FFF7EDFD044415F8011D07
:104CC0000A223046FFF7F5FDBD420444F0D12046EC
:104CD0000DB0F0BD10B5054B0446112240F8043B61
:104CE000002101F014FA204610BD00BF38630D000A
:104CF0000346074A10B543F8042B01F1100251F89E
:104D0000044B43F8044B9142F9D10A781A7010BD54
:104D100038630D0010B59DF8084044EA032343EAC8
:104D2000024242EA016104234160037510BD37B5B8
:104D30000D788B784A78C97800912946FFF7EAFF09
:104D400003B030BD41747047704708B50021007C46
:104D5000FFF73EFC30EA200028BF4FF0FF3008BDCF
:104D600008B50121007CFFF733FC30EA200028BFA2
:104D70004FF0FF3008BD08B5007CFFF721FC20EAAA
:104D8000E07008BD08B5007CFFF712FC20EAE07077
:104D900008BD007CFFF72CBC10B51421044600F0C0
:104DA00041FB204610BD38B50446007C0D46FFF798
:104DB00007FC002801DC607C28B12946207CFFF735
:104DC0000FFC20EAE07038BD10B504460023636094
:104DD0004FF47A73A360054B2360012308462174C6
:104DE00063741146FFF7D4FB204610BD4C630D00E1
:104DF0000022007CFFF7D4BB10B51422044600212A
:104E000001F085F9204610BD30B50E4D87B001A8E0
:104E1000FFF7F2FF296811F0010410D12846FFF7CF
:104E200040F960B101AA21460748FFF7CDFF2846A7
:104E3000FFF73CF9054A0649034800F0E5FA024845
:104E400007B030BD14E4032018E40320B4E30320CA
:104E5000494D0D0070474174704708B5007CFFF75D
:104E60003FFB20EAE07008BD08B5007CFFF718FBA7
:104E700020EAE07008BD08B5007CFFF721FB30EAAE
:104E8000200028BF4FF0FF3008BD08B5007CFFF7B9
:104E90000FFB30EA200028BF4FF0FF3008BD007C38
:104EA000FFF716BB10B51421044600F0BBFA2046EC
:104EB00010BD70B5457C04460E4625B9007CFFF751
:104EC0000FFB002805DD3146207CBDE87040FFF770
:104ED000DFBA284670BD000010B5044608461146EA
:104EE000002262604FF47A72A260054A22600122B9
:104EF000207462741A46FFF7C3FA204610BD00BF43
:104F00007C630D0038B50C4D296811F0010411D1F6
:104F10002846FFF7C6F868B1084A094B09482146F8
:104F2000FFF7DAFF2846FFF7C1F8074A07490548A7
:104F300000F06AFA034838BDC4E40320C8E4032043
:104F400040E403202CE40320B4E30320554E0D007D
:104F50007047F8B5064615460C468F18BC4206D079
:104F6000336814F8011B9B6830469847F6E72846DB
:104F7000F8BD0022007CFFF7D3BA0021007CFFF7C8
:104F8000D7BA0021007CFFF7DBBA0021007CFFF7D5
:104F9000DFBA0021007CFFF7E3BA10B51421044604
:104FA00000F040FA204610BD10B5044600236360AF
:104FB0004FF47A73A360044B2174084623601146B2
:104FC000FFF7D6FA204610BDAC630D0000231A4649
:104FD0001946007CFFF78CBA70B50C4686B01425D4
:104FE00006462A46002101A801F091F823788DF8A1
:104FF000083063680393E36804930022237A307CCB
:10500000ADF8045001A90593FFF7BAFA06B070BDD8
:105010001FB500338DF800104FF06401039118BFE5
:105020000123694601928DF80830FFF7D5FF05B0DE
:105030005DF804FB0022007CFFF762BAC9B2FFF7FB
:10504000F9BF0022007CFFF763BA002211464068D6
:10505000FFF732BB002211464068FFF73DBB00223C
:105060004068FFF731BB002281F001014068FFF783
:105070001BBB00231A4601214068FFF70DBB00232C
:105080001A4619464068FFF7FFBA002211464068E9
:10509000FFF7F2BA002211464068FFF7DDBA00229E
:1050A00002214068FFF7E0BA00231A464068FFF784
:1050B000CBBA38B5054688B104684CB1A3681BB1BA
:1050C00003222146204698471021204600F0AAF9E5
:1050D00028461421BDE8384000F0A4B938BD10B10D
:1050E00003685B681847704710B503680446BBB196
:1050F0005868FFF795F978B923685A7C12B958684F
:10510000FFF796F923685868FFF79AF9206800239B
:10511000236028B1FFF7CDFF206808B1FFF7C9FF72
:10512000204610BD38B50446D0F8C40108B1FEF7DA
:10513000B6FFD4F8C00108B1FFF792F9D4F8BC511A
:1051400035B12846FFF7D0FF0421284600F06AF960
:10515000206808B1FFF7C3FF204638BD10B5044BE7
:10516000044640F8083BFFF7DDFF204610BD00BFB6
:10517000D4630D0038B50E4C0E4B2360002502237E
:1051800004F5E4706360A560C4F8C451C4F8C85164
:10519000FFF75EF9084BC4F8CC5184F8D051236076
:1051A0002046064A0649BDE8384000F02DB900BF48
:1051B0004CE503203C640D00D4630D00B4E30320F0
:1051C0005D510D00002211464068FFF755BA0022DC
:1051D00011464068FFF770BA002211464068FFF799
:1051E0007BBA00224068FFF76FBA002281F001010C
:1051F0004068FFF759BA00231A4619464068FFF77E
:105200004BBA00231A4619464068FFF73DBA002200
:1052100011464068FFF720BA002202214068FFF7DC
:1052200023BA00231A464068FFF70EBA024B042245
:105230005A60024A1A60704720E7032008640D0094
:1052400000231A464068FFF7FFB900220221406898
:10525000FFF70ABA002211464068FFF7FDB90022A5
:1052600011464068FFF708BA00231A4619464068FD
:10527000FFF70ABA00231A4619464068FFF70CBA2E
:10528000002281F001014068FFF70EBA0022406859
:10529000FFF71ABA002211464068FFF71DBA002234
:1052A00011464068FFF708BA2DE9F043002495B095
:1052B00016460D460746FFF70DFD214620220CA895
:1052C000009400F024FF40230C9321466B460CAA67
:1052D0003046FFF785F80446002844D102460121F4
:1052E0006868FFF7C9F90221804622466868FFF71F
:1052F000C3F9009E81462146002E34D0002932D1C8
:105300007368022B02D00A2B09D02AE0B8F1000FF3
:1053100027D0716938460431FFF709FD20E0B9F163
:10532000000F1ED07469112201A800F0F0FE0623C0
:105330008DF8143001AD04F1080318341868596869
:105340002A4603C20833A3421546F7D101A906A88D
:1053500007ADFFF7CDFC0FCD3C1D0FC42B682370AC
:105360000121F669C8E70098FFF732F8384615B012
:10537000BDE8F083024B034A1A6000225A6070476E
:1053800028E703203C640D0070B5044614252A4626
:10539000094E002100F0BBFE258020253146A56086
:1053A0002561284600F040F831466060284600F04C
:1053B0003BF8E060204670BD68640D0030B50E4DCE
:1053C000296811F0010487B013D12846FEF769FE61
:1053D00078B101A8FFF7D8FF01AA21460748FFF7D7
:1053E000E3FD2846FEF762FE054A0649034800F041
:1053F0000BF8024807B030BD34E7032038E703203C
:10540000B4E30320514F0D000B460146184600F04F
:1054100065BE0000024B1868BFF35F8F704700BF86
:105420004CE70320FEF739BE00F000B810B50028A5
:1054300014BF044601242046FFF75EF920B9FFF7A8
:10544000E9FF08B18047F6E710BD0000184B1A6865
:10545000D1075CBF01221A60164B1A68D2075CBFE5
:1054600001221A60144B1A68D0075CBF01221A602F
:10547000124B1A68D1075CBF01221A60104B1A68E0
:10548000D2075CBF01221A600E4B1A68D0075CBFBE
:1054900001221A600C4B1A68D1075CBF01221A6006
:1054A0000A4B1A68D2075CBF01221A60704700BF1E
:1054B0006CE7032068E7032064E7032060E703202C
:1054C0005CE7032058E7032054E7032050E703205C
:1054D000244B1A68D0075CBF01221A60224B1A685D
:1054E000D1075CBF01221A60204B1A68D2075CBF4B
:1054F00001221A601E4B1A68D0075CBF01221A6095
:105500001C4B1A68D1075CBF01221A601A4B1A683B
:10551000D2075CBF01221A60184B1A68D0075CBF23
:1055200001221A60164B1A68D1075CBF01221A606B
:10553000144B1A68D2075CBF01221A60124B1A681A
:10554000D0075CBF01221A60104B1A68D1075CBFFC
:1055500001221A600E4B1A68D2075CBF01221A6042
:10556000704700BF9CE7032098E7032094E70320DF
:1055700090E703208CE7032088E7032084E70320DB
:1055800080E703207CE7032078E7032074E703200B
:1055900070E70320244B1A68D0075CBF01221A6011
:1055A000224B1A68D1075CBF01221A60204B1A688F
:1055B000D2075CBF01221A601E4B1A68D0075CBF7D
:1055C00001221A601C4B1A68D1075CBF01221A60C5
:1055D0001A4B1A68D2075CBF01221A60184B1A686E
:1055E000D0075CBF01221A60164B1A68D1075CBF56
:1055F00001221A60144B1A68D2075CBF01221A609C
:10560000124B1A68D0075CBF01221A60104B1A684F
:10561000D1075CBF01221A600E4B1A68D2075CBF2B
:1056200001221A60704700BFCCE70320C8E70320BF
:10563000C4E70320C0E70320BCE70320B8E703204A
:10564000B4E70320B0E70320ACE70320A8E703207A
:10565000A4E70320A0E70320184B1A68D1075CBF1A
:1056600001221A60164B1A68D2075CBF01221A6029
:10567000144B1A68D0075CBF01221A60124B1A68DB
:10568000D1075CBF01221A60104B1A68D2075CBFB9
:1056900001221A600E4B1A68D0075CBF01221A6003
:1056A0000C4B1A68D1075CBF01221A600A4B1A68BA
:1056B000D2075CBF01221A60704700BFECE70320ED
:1056C000E8E70320E4E70320E0E70320DCE703202A
:1056D000D8E70320D4E70320D0E7032081F000417E
:1056E00002E000BF83F0004330B54FEA41044FEAC7
:1056F000430594EA050F08BF90EA020F1FBF54EA62
:10570000000C55EA020C7FEA645C7FEA655C00F0FD
:10571000E2804FEA5454D4EB5555B8BF6D420CDDCE
:105720002C4480EA020281EA030382EA000083EA51
:10573000010180EA020281EA0303362D88BF30BDF1
:1057400011F0004F4FEA01314FF4801C4CEA113147
:1057500002D0404261EB410113F0004F4FEA0333A6
:105760004CEA133302D0524263EB430394EA050F31
:1057700000F0A780A4F10104D5F1200E0DDB02FAA0
:105780000EFC22FA05F2801841F1000103FA0EF234
:10579000801843FA05F359410EE0A5F120050EF1FA
:1057A000200E012A03FA0EFC28BF4CF0020C43FA2B
:1057B00005F3C01851EBE37101F0004507D54FF038
:1057C000000EDCF1000C7EEB00006EEB0101B1F588
:1057D000801F1BD3B1F5001F0CD349085FEA3000CE
:1057E0004FEA3C0C04F101044FEA445212F5800FD9
:1057F00080F09A80BCF1004F08BF5FEA500C50F176
:10580000000041EB045141EA050130BD5FEA4C0C58
:10581000404141EB010111F4801FA4F10104E9D1E1
:1058200091F0000F04BF01460020B1FA81F308BFD8
:105830002033A3F10B03B3F120020CDA0C3208DDA4
:1058400002F1140CC2F10C0201FA0CF021FA02F17F
:105850000CE002F11402D8BFC2F1200C01FA02F1EF
:1058600020FA0CFCDCBF41EA0C019040E41AA2BF14
:1058700001EB0451294330BD6FEA04041F3C1CDADC
:105880000C340EDC04F11404C4F1200220FA04F0FC
:1058900001FA02F340EA030021FA04F345EA0301A6
:1058A00030BDC4F10C04C4F1200220FA02F001FA68
:1058B00004F340EA0300294630BD21FA04F02946EA
:1058C00030BD94F0000F83F4801306BF81F4801183
:1058D0000134013D4EE77FEA645C18BF7FEA655CF6
:1058E00029D094EA050F08BF90EA020F05D054EAC8
:1058F000000C04BF1946104630BD91EA030F1EBFCD
:105900000021002030BD5FEA545C05D140004941D0
:1059100028BF41F0004130BD14F580043CBF01F5C3
:10592000801130BD01F0004545F0FE4141F47001A9
:105930004FF0000030BD7FEA645C1ABF1946104684
:105940007FEA655C1CBF0B46024650EA013406BF85
:1059500052EA033591EA030F41F4002130BD00BF44
:1059600090F0000F04BF0021704730B54FF4806401
:1059700004F132044FF000054FF0000150E700BF82
:1059800090F0000F04BF0021704730B54FF48064E1
:1059900004F1320410F0004548BF40424FF00001CE
:1059A0003EE700BF42004FEAE2014FEA31014FEA11
:1059B00002701FBF12F07F4393F07F4F81F0605160
:1059C000704792F0000F14BF93F07F4F704730B5CF
:1059D0004FF4607401F0004521F0004120E700BF62
:1059E00050EA010208BF704730B54FF000050AE0E9
:1059F00050EA010208BF704730B511F0004502D5EA
:105A0000404261EB41014FF4806404F132045FEAEB
:105A1000915C3FF4DCAE4FF003025FEADC0C18BF90
:105A200003325FEADC0C18BF033202EBDC02C2F186
:105A3000200300FA03FC20FA02F001FA03FE40EA18
:105A40000E0021FA02F11444C1E600BF70B54FF018
:105A5000FF0C4CF4E06C1CEA11541DBF1CEA1355FA
:105A600094EA0C0F95EA0C0F00F0DEF82C4481EA62
:105A7000030621EA4C5123EA4C5350EA013518BF82
:105A800052EA033541F4801143F4801338D0A0FB6F
:105A900002CE4FF00005E1FB02E506F00042E0FB1C
:105AA00003E54FF00006E1FB03569CF0000F18BF22
:105AB0004EF0010EA4F1FF04B6F5007F64F54074CA
:105AC00004D25FEA4E0E6D4146EB060642EAC6215D
:105AD00041EA55514FEAC52040EA5E504FEACE2ECA
:105AE000B4F1FD0C88BFBCF5E06F1ED8BEF1004FCD
:105AF00008BF5FEA500E50F1000041EB045170BD49
:105B000006F0004646EA010140EA020081EA03018C
:105B1000B4EB5C04C2BFD4EB0C0541EA045170BD88
:105B200041F480114FF0000E013C00F3AB8014F102
:105B3000360FDEBF002001F0004170BDC4F100044B
:105B4000203C35DA0C341BDC04F11404C4F12005CC
:105B500000FA05F320FA04F001FA05F240EA020027
:105B600001F0004221F0004110EBD37021FA04F65D
:105B700042EB06015EEA430E08BF20EAD37070BD17
:105B8000C4F10C04C4F1200500FA04F320FA05F076
:105B900001FA04F240EA020001F0004110EBD37078
:105BA00041F100015EEA430E08BF20EAD37070BDE8
:105BB000C4F1200500FA05F24EEA020E20FA04F3C1
:105BC00001FA05F243EA020321FA04F001F0004170
:105BD00021FA04F220EA020000EBD3705EEA430EE1
:105BE00008BF20EAD37070BD94F0000F0FD101F010
:105BF0000046400041EB010111F4801F08BF013C49
:105C0000F7D041EA060195F0000F18BF704703F086
:105C10000046520043EB030313F4801F08BF013D0D
:105C2000F7D043EA0603704794EA0C0F0CEA1355C9
:105C300018BF95EA0C0F0CD050EA410618BF52EA83
:105C40004306D1D181EA030101F000414FF0000089
:105C500070BD50EA410606BF1046194652EA430697
:105C600019D094EA0C0F02D150EA013613D195EA0B
:105C70000C0F05D152EA03361CBF104619460AD153
:105C800081EA030101F0004141F0FE4141F470015D
:105C90004FF0000070BD41F0FE4141F4780170BD4D
:105CA00070B54FF0FF0C4CF4E06C1CEA11541DBFB2
:105CB0001CEA135594EA0C0F95EA0C0F00F0A7F8B4
:105CC000A4EB050481EA030E52EA03354FEA0131E1
:105CD00000F088804FEA03334FF0805545EA1313F4
:105CE00043EA12634FEA022245EA111545EA1065BC
:105CF0004FEA00260EF000419D4208BF964244F153
:105D0000FD0404F5407402D25B084FEA3202B61A71
:105D100065EB03055B084FEA32024FF480104FF445
:105D2000002CB6EB020E75EB030E22BFB61A7546B9
:105D300040EA0C005B084FEA3202B6EB020E75EB4C
:105D4000030E22BFB61A754640EA5C005B084FEAB4
:105D50003202B6EB020E75EB030E22BFB61A754681
:105D600040EA9C005B084FEA3202B6EB020E75EB8C
:105D7000030E22BFB61A754640EADC0055EA060E4D
:105D800018D04FEA051545EA16754FEA06164FEA90
:105D9000C30343EA52734FEAC2025FEA1C1CC0D13C
:105DA00011F4801F0BD141EA00014FF000004FF0C9
:105DB000004CB6E711F4801F04BF01430020B4F18A
:105DC000FD0C88BFBCF5E06F3FF6AFAEB5EB030C42
:105DD00004BFB6EB020C5FEA500C50F1000041EB3F
:105DE000045170BD0EF0004E4EEA113114EB5C040C
:105DF000C2BFD4EB0C0541EA045170BD41F48011DF
:105E00004FF0000E013C90E645EA060E8DE60CEAE6
:105E1000135594EA0C0F08BF95EA0C0F3FF43BAF03
:105E200094EA0C0F0AD150EA01347FF434AF95EABA
:105E30000C0F7FF425AF104619462CE795EA0C0F9E
:105E400006D152EA03353FF4FDAE1046194622E76B
:105E500050EA410618BF52EA43067FF4C5AE50EA45
:105E600041047FF40DAF52EA43057FF4EBAE12E735
:105E70004FF0FF3C06E000BF4FF0010C02E000BF16
:105E80004FF0010C4DF804CD4FEA410C7FEA6C5CF9
:105E90004FEA430C18BF7FEA6C5C1BD001B050EA9C
:105EA000410C0CBF52EA430C91EA030F02BF90EA87
:105EB000020F0020704710F1000F91EA030F58BF46
:105EC000994208BF90422CBFD8176FEAE37040F0A8
:105ED000010070474FEA410C7FEA6C5C02D150EA46
:105EE000013C07D14FEA430C7FEA6C5CD6D152EA01
:105EF000033CD3D05DF8040B704700BF84461046C6
:105F000062468C461946634600E000BF01B5FFF7C4
:105F1000B7FF002848BF10F1000F01BD4DF808ED94
:105F2000FFF7F4FF0CBF012000205DF808FB00BF65
:105F30004DF808EDFFF7EAFF34BF012000205DF8BF
:105F400008FB00BF4DF808EDFFF7E0FF94BF01200C
:105F500000205DF808FB00BF4DF808EDFFF7CEFF0D
:105F600094BF012000205DF808FB00BF4DF808ED4C
:105F7000FFF7C4FF34BF012000205DF808FB00BF1D
:105F80004FEA410C7FEA6C5C02D150EA013C0AD135
:105F90004FEA430C7FEA6C5C02D152EA033C02D127
:105FA0004FF0000070474FF0010070474FEA410288
:105FB00012F5001215D211D56FF47873B3EB62525B
:105FC00012D94FEAC12343F0004343EA505311F082
:105FD000004F23FA02F018BF404270474FF0000014
:105FE000704750EA013005D111F0004008BF6FF052
:105FF000004070474FF00000704700BF4A0011D2C8
:1060000012F5001211D20DD56FF47873B3EB625212
:106010000ED44FEAC12343F0004343EA505323FA1E
:1060200002F070474FF00000704750EA013002D193
:106030004FF0FF3070474FF0000070474FEA4102C9
:10604000B2F1E04324BFB3F5001CDCF1FE5C0DD9D6
:1060500001F0004C4FEAC0024CEA5070B2F1004F20
:1060600040EB830008BF20F00100704711F0804F23
:1060700021D113F13872BCBF01F00040704741F4E8
:1060800080114FEA5252C2F11802C2F1200C10FAEC
:106090000CF320FA02F018BF40F001004FEAC123D0
:1060A0004FEAD32303FA0CFC40EA0C0023FA02F374
:1060B0004FEA4303CCE77FEA625307D150EA01334A
:1060C0001EBF4FF0FE4040F44000704701F000401A
:1060D00040F0FE4040F40000704700BF10B5054C92
:1060E00013462CB10A4601460220AFF3008010BDD2
:1060F000204610BD0000000010B5431E0A44914226
:1061000004D011F8014B03F8014FF8E710BD024429
:106110000346934202D003F8011BFAE770470000E0
:1061200038B5124B1C68A36B0546D3B91820FEF78F
:10613000E3FA43F20E33A06303804AF6CD33438083
:1061400041F2342383804EF26D63C3804DF6EC63DD
:106150000381052343810B23838101220023C0E9AE
:106160000423A36B00221D615A6138BDB0E30320F4
:10617000034613F8012B002AFBD1181A0138704787
:1061800021400D005D400D0089400D008D400D0047
:1061900000000000253664006158203D2025302E87
:1061A0003266207C206158203D2025302E3266202A
:1061B0007C206158203D2025302E326600207C2036
:1061C000746D70203D2000207C206758203D200009
:1061D000207C206759203D2000207C20675A203DEC
:1061E00020000000000000000000000097470D00A4
:1061F0008D470D0083470D0079470D006D470D0059
:1062000061470D0055470D004D470D0043470D00F8
:1062100039470D00A9520D006E616E006F76660061
:106220002E00696E66006261756400536572696173
:106230006C0053657269616C31007479706500702F
:106240006172616D00636D6400696400686E640072
:106250007374726D0066696C74006C766C006164B6
:106260006448616E646C65720072656D6F76654836
:10627000616E646C657200656E756D48616E646C0C
:10628000657273004A534F4E53747265616D4C6F63
:106290006748616E646C6572006170700025303112
:1062A000307520005D20002564002C200028293A4C
:1062B0002000205B00636F6465203D20002569009D
:1062C00064657461696C73203D20000D0A006C6E7A
:1062D00000666E00636F64650064657461696C00DC
:1062E0006E6F6E6500747261636500696E666F0043
:1062F0007761726E006572726F720070616E6963B1
:1063000000616C6C005A00252B3033643A25303222
:10631000750025592D256D2D25645425483A254DA8
:106320003A2553257A0061736374696D6500000036
:106330000000000000000000714C0D00614C0D00D9
:10634000634C0D000000000000000000494D0D00EE
:10635000994D0D00A74D0D0041480D00854D0D00D4
:106360004B4D0D00614D0D00934D0D00774D0D000F
:10637000454D0D000000000000000000554E0D00CE
:10638000A54E0D00B34E0D0041480D00694E0D00A5
:106390008B4E0D00774E0D009F4E0D00574E0D0099
:1063A0005B4E0D000000000000000000514F0D008A
:1063B0009B4F0D00734F0D00534F0D007B4F0D0091
:1063C000834F0D008B4F0D00934F0D000000000018
:1063D00000000000A9500D009F500D0095500D00C9
:1063E0008B500D007F500D0073500D0067500D0055
:1063F0005F500D0055500D004B500D00A9520D007F
:10640000000000000000000023520D0019520D0092
:106410000F520D00C5510D0003520D00F7510D0034
:10642000EB510D00E3510D00D9510D00CF510D007E
:10643000A9520D00000000000000000041520D00B4
:106440004B520D0055520D005F520D0069520D0068
:1064500075520D0081520D008D520D0095520D00A8
:106460009F520D00A9520D00000000000000000026
:10647000000000000000000000000000000000001C
:10648000000000000000000000000000000000000C
:1064900000000000000000000000000000000000FC
:1064A00000000000000000000000000000000000EC
:1064B00000000000000000000000000000000000DC
:1064C0000000000000000000000000004300000089
:1064D000CD430D00A1470D00D5470D0019480D0013
:1064E000ED4A0D00FD4A0D00354B0D0075510D00B4
:1064F0002D520D0075530D004D540D00D1540D005B
:1065000095550D0059560D000000000000000000D8
:046510000000000087
:1065140026630D00000000006C640D008C640D0007
:10652400AC640D000000000000000000000000004A
:1065340000000000CC640D0000000000000000001A
:106544000000000000000000000000000000000047
:106554000000000000000000000000000000000037
:106564000000000000000000000000000000000027
:086574000000000050E30320C9
:10657C00FFFFFFFF00000102030405060708090ADC
:10658C000B0C0D0E0F101112131415161718191AD7
:08659C001B1C1D1E1F2028001E
:0465A40078563412DF
:04000003D0004020C9
:00000001FF
