:02000002D0002C
:1040000000400D00D45C0D00000006000C0005010E
:084010000401DE0500000000C0
:04401800AC580D0093
:10401C0009480A49884208B505D0094A824202D0AB
:10402C00121A01F0F9FB0748074A0021121A01F095
:10403C00FEFB014808BD00BF3CE30320445C0D00BF
:10404C00A4E30320A4E30320F0E7032070B500F001
:10405C008FFE074C074BE41AA40800251E46A54208
:10406C0004D056F8253098470135F8E770BD00BFED
:10407C003C5C0D00045C0D0000F01CB808B500F0B1
:10408C00B7F8BDE8084000F035BE00F0DBBA00F030
:10409C00D9BA0078B0FA80F0400970470123037058
:1040AC0070470368C9B29B68184713460A4600213B
:1040BC0000F005BFF8B501F059F800F0B1FC00F0C4
:1040CC0057FD4FF4165100F047FD01F04FF82A212F
:1040DC0000F0E1FC01F04AF89221FFF7E2FF01F059
:1040EC0045F86A21FFF7DDFF01F040F80221FFF7E8
:1040FC00D8FF01F03BF80021FFF7D3FF01F036F8B1
:10410C000021FFF7CEFF01F031F80021FFF7C9FFC6
:10411C0001F02CF80021FFF7C4FF01F027F8FE2175
:10412C00FFF7BFFF01F022F800F0BCFC01F01EF815
:10413C0006222A2100F0A8FC01F018F80368254C8F
:10414C001B699847062823D101F010F803685B69B6
:10415C009847207001F00AF803685B699847607013
:10416C0001F004F803685B699847A07000F0FEFF4B
:10417C0003685B699847E07000F0F8FF03685B69BF
:10418C009847207100F0F2FF03685B6998476071F3
:10419C00114F2378114E3B60114D63783360A37837
:1041AC002B6000F0E5FC3A680E49FFF77EFF00F04B
:1041BC00DFFC32680C49FFF778FF00F0D9FC2A6865
:1041CC000A49FFF772FF41F28830BDE8F84000F071
:1041DC0070BD00BFB8E30320B4E30320A8E30320C1
:1041EC00B0E30320C0580D00D4580D00E6580D0064
:1041FC002DE9F0412DED028B3E4F3F4E9FED3F8A56
:10420C0082B001243B689C426EDC00F0AFFF2A2197
:10421C0000F041FC00F0AAFF9221FFF742FF00F0F2
:10422C00A5FF6A21FFF73DFF00F0A0FF0121FFF77A
:10423C0038FF00F09BFF2146FFF733FF00F096FF9D
:10424C002146FFF72EFF00F091FF0021FFF729FF19
:10425C0000F08CFF0021FFF724FF00F087FF6100C6
:10426C00FD31C9B2FFF71DFF00F080FF00F01AFC12
:10427C004FF4FA7000F01DFD00F078FF03222A21A4
:10428C0000F002FC00F072FF03685B6998478046FF
:10429C0000F06CFF03685B699847054600F066FF09
:1042AC0003685B69984705EB082500EB052007EED2
:1042BC00900AF8EEE77A87EE887A86ED007A00F0BD
:1042CC0057FC22460E49FFF7F0FE00F051FC054664
:1042DC00306801F03FFA0B4ACDE900010021284675
:1042EC0000F0EDFD01348DE702B0BDEC028BBDE8B2
:1042FC00F08100BFB0E30320ACE3032000007A445C
:10430C00FD580D000B590D0000F000B908B5024B1B
:10431C001B681B68019308BD4C02030008B5024BD7
:10432C001B685B68019308BD4C02030008B5024B87
:10433C001B681B69019308BD4C02030008B5024BB6
:10434C001B685B69019308BD4C02030008B5024B66
:10435C001B689B69019308BD4C02030008B5024B16
:10436C001B68DB69019308BD4C02030008B5024BC6
:10437C001B681B6A019308BD4C02030008B5024B75
:10438C001B68DB68019308BD2802030008B5024BCB
:10439C001B689B69019308BD2802030008B5024BFA
:1043AC001B68DB69019308BD2802030008B5024BAA
:1043BC001B681B6A019308BD2802030008B5024B59
:1043CC001B685B6A019308BD2802030008B5024B09
:1043DC001B689B6A019308BD2802030008B5024BB9
:1043EC001B68DB6A019308BD2802030008B5024B69
:1043FC001B681B6B019308BD2802030008B5024B18
:10440C001B681B6C019308BD2802030008B5024B06
:10441C001B681B6D019308BD2802030008B5024BF5
:10442C001B681B68019308BD3C02030008B5024BD6
:10443C001B68DB68019308BD3C02030008B5024B06
:10444C001B681B69019308BD3C02030008B5024BB5
:10445C001B685B69019308BD3C02030008B5024B65
:10446C001B689B69019308BD3C02030008B5024B15
:10447C001B68DB69019308BD3C02030008B5024BC5
:10448C001B689B6A019308BD3C02030008B5024BF4
:10449C001B685B69019308BD6402030008B5024BFD
:1044AC001B689B68019308BD4802030008B5024BCA
:1044BC001B681B69019308BD4802030008B5024B39
:1044CC001B685B69019308BD4802030008B5024BE9
:1044DC001B685B6C019308BD4802030008B5024BD6
:1044EC001B689B6C019308BD4802030008B5024B86
:1044FC001B685B68019308BD1802030008B5024BEA
:10450C001B685B69019308BD1802030008B5024BD8
:10451C001B681B68019308BD2C02030008B5024BF5
:10452C001B689B68019308BD6802030008B5024B29
:10453C001B68DB68019308BD6802030008B5024BD9
:10454C001B68DB6B019308BD4402030008B5024BEA
:10455C001B685B68019308BD4002030008B5024B61
:10456C001B689B68019308BD4002030008B5024B11
:10457C001B68DB68019308BD4002030008B5024BC1
:10458C001B681B69019308BD4002030008B5024B70
:10459C001B685B69019308BD4002030008B5024B20
:1045AC001B689B69019308BD4002030008B5024BD0
:1045BC001B68DB69019308BD4002030008B5024B80
:1045CC001B681B6A019308BD4002030008B5024B2F
:1045DC001B681B6B019308BD4002030008B5024B1E
:1045EC001B685B6B019308BD4002030008B5024BCE
:1045FC001B685B68019308BD2002030008B5024BE1
:10460C001B685B69019308BD2002030008B5034BCE
:10461C001B68D3F88830019308BD0000200203000A
:10462C0008B5034B1B68D3F89430019308BD000008
:10463C002002030008B5024B1B681B68019308BDE0
:10464C001C02030008B5024B1B685B68019308BD94
:10465C001C02030008B5024B1B685B6A019308BD82
:10466C001C02030000231A464068FFF76FBF0022AC
:10467C0002214068FFF77ABF002211464068FFF71D
:10468C006DBF002211464068FFF778BF00231A4621
:10469C0019464068FFF77ABF00231A46194640684E
:1046AC00FFF77CBF002281F001014068FFF77EBF5D
:1046BC0000224068FFF78ABF002211464068FFF7CE
:1046CC008DBF002211464068FFF778BF2DE9F043FB
:1046DC00002495B016460D46074600F0A9FA21466F
:1046EC0020220CA8009401F0A2F840230C93214640
:1046FC006B460CAA3046FFF719FF0446002844D13C
:10470C00024601216868FFF739FF022180462246E4
:10471C006868FFF733FF009E81462146002E34D097
:10472C00002932D17368022B02D00A2B09D02AE05F
:10473C00B8F1000F27D071693846043100F0A5FAA2
:10474C0020E0B9F1000F1ED07469112201A801F00C
:10475C006EF806238DF8143001AD04F108031834FB
:10476C00186859682A4603C20833A3421546F7D184
:10477C0001A906A807AD00F069FA0FCD3C1D0FC4C6
:10478C002B6823700121F669C8E70098FFF7C6FE75
:10479C00384615B0BDE8F083024B034A1A6000227C
:1047AC005A607047DCE303202C590D00002211469F
:1047BC004068FFF7E3BE002211464068FFF7FEBEDB
:1047CC00002211464068FFF709BF00224068FFF73E
:1047DC00FDBE002281F001014068FFF7E7BE002317
:1047EC001A4619464068FFF7D9BE00231A461946E7
:1047FC004068FFF7CBBE002211464068FFF7AEBE03
:10480C00002202214068FFF7B1BE00231A4640681F
:10481C00FFF79CBE024B04225A60024A1A60704792
:10482C00E4E3032060590D00002211464068FFF7B5
:10483C00C5BE002211464068FFF7D0BE002240687A
:10484C00FFF7C4BE002281F001014068FFF7AEBE45
:10485C0000231A4601214068FFF7A0BE00231A4628
:10486C0019464068FFF792BE002211464068FFF7D8
:10487C0085BE002211464068FFF770BE002202215F
:10488C004068FFF773BE00231A464068FFF75EBE10
:10489C0038B5054688B104684CB1A3681BB1032236
:1048AC002146204698471021204600F093FC2846CC
:1048BC001421BDE8384000F08DBC38BD10B1036840
:1048CC005B681847704710B503680446BBB158685D
:1048DC00FFF7E4FD78B923685A7C12B95868FFF7E2
:1048EC00E5FD23685868FFF7E9FD20680023236085
:1048FC0028B1FFF7CDFF206808B1FFF7C9FF2046AC
:10490C0010BD38B50446D0F8C40108B1FFF7BFFBA1
:10491C00D4F8C00108B1FFF7E1FDD4F8BC5135B1B2
:10492C002846FFF7D0FF0421284600F053FC2068EE
:10493C0008B1FFF7C3FF204638BD000010B5044B8B
:10494C00044640F8083BFFF7DCFF204610BD00BFD3
:10495C0094590D0038B50E4C0E4B236000250223E4
:10496C0004F5E4706360A560C4F8C451C4F8C85180
:10497C00FFF7ACFD084BC4F8CC5184F8D051236040
:10498C002046064A0649BDE8384000F015BC00BF79
:10499C00ECE303202C590D0094590D00A4E30320E3
:1049AC0049490D007047F8B5064615460C468F1858
:1049BC00BC4206D0336814F8011B9B6830469847FC
:1049CC00F6E72846F8BD0022007CFFF7EFBC00217B
:1049DC00007CFFF7F3BC0021007CFFF7F7BC002143
:1049EC00007CFFF7FBBC0021007CFFF7FFBC10B57F
:1049FC001421044600F0EEFB204610BD10B5044611
:104A0C00002363604FF47A73A360044B217408464F
:104A1C0023601146FFF7F2FC204610BDC8590D006B
:104A2C0000231A461946007CFFF7A8BC70B50C464B
:104A3C0086B0142506462A46002101A800F0F7FE90
:104A4C0023788DF8083063680393E368049300229D
:104A5C00237A307CADF8045001A90593FFF7D6FCFE
:104A6C0006B070BD1FB500338DF800104FF0640117
:104A7C00039118BF0123694601928DF80830FFF7A6
:104A8C00D5FF05B05DF804FB0123FFF7EBBF002257
:104A9C00007CFFF77BBCC9B2FFF7F9BF0022007C9A
:104AAC00FFF77CBC0121FFF7F9BF417470477047D9
:104ABC0008B50021007CFFF749FC30EA200028BF34
:104ACC004FF0FF3008BD08B50121007CFFF73EFC1C
:104ADC0030EA200028BF4FF0FF3008BD08B5007C3D
:104AEC00FFF72CFC20EAE07008BD08B5007CFFF74E
:104AFC001DFC20EAE07008BD007CFFF737BC10B548
:104B0C001421044600F066FB204610BD38B504465F
:104B1C00007C0D46FFF712FC002801DC607C28B1FC
:104B2C002946207CFFF71AFC20EAE07038BD000013
:104B3C0010B50446002363604FF47A73A360054BF1
:104B4C00236001230846217463741146FFF7DEFBD2
:104B5C00204610BDF0590D000022007CFFF7DEBB93
:104B6C0010B514220446002100F061FE204610BD51
:104B7C0030B50E4D87B001A8FFF7F2FF296811F090
:104B8C00010410D12846FFF784FA60B101AA21462E
:104B9C000748FFF7CDFF2846FFF780FA054A06497C
:104BAC00034800F009FB024807B030BDC0E5032004
:104BBC00C4E50320A4E30320BB4A0D00704710B5E5
:104BCC001821044600F006FB204610BDF0B5037D0D
:104BDC00062B8DB00E4600F104074FF0000402D0F6
:104BEC0000F1080518E00CAD394605F8304D2F23BF
:104BFC002A460A20FFF74AFC284600F049FE336893
:104C0C000246DB682946304698470FE024B12E2136
:104C1C00304600F025F9044415F8011D0A223046EF
:104C2C0000F02DF9BD420444F0D120460DB0F0BD8A
:104C3C0010B5054B0446112240F8043B002100F04E
:104C4C00F6FD204610BD00BF205A0D000346074A52
:104C5C0010B543F8042B01F1100251F8044B43F842
:104C6C00044B9142F9D10A781A7010BD205A0D00EC
:104C7C0010B59DF8084044EA032343EA024242EA95
:104C8C00016104234160037510BD37B50D788B7835
:104C9C004A78C97800912946FFF7EAFF03B030BD86
:104CAC0010B58368044613B1032201469847204689
:104CBC0010BD0021FFF7A2BC08B50C4B33B1FFF7B8
:104CCC0057FF03681B699847002809DC084B63B140
:104CDC0000F0A4F903681B699847002803DC08BDA1
:104CEC00AFF30080F2E7AFF3008008BD00000000D6
:104CFC000000000008B5FFF7DFFFFFF7FFFB014BDB
:104D0C00186008BD48E703200248034A0349121AF9
:104D1C0000F082BD00F4032004F40320405C0D007D
:104D2C0007B5002300931A466FF07701FFF778FC64
:104D3C0003B05DF804FB000007B543880A2B08D0CC
:104D4C00502B09D1094B1B683BB103B05DF804EB48
:104D5C001847FFF7E5FF06E0002300931A466FF0B3
:104D6C007701FFF75DFC03B05DF804FBD8E5032089
:104D7C0038B5104C104D2368AB42104B0CBF0122C0
:104D8C0000221A7002D0FFF7BFFF2560FFF7AEFBC1
:104D9C00044600F055FD0A4B13B12046AFF30080DA
:104DAC0000210748FFF7CAFB00210648BDE8384040
:104DBC00FFF72CBC00F403201E1C279ADCE5032013
:104DCC0000000000454D0D0010B50446FFF768FFCC
:104DDC00204610BD0348044A04490023836000F0B8
:104DEC00EBB900BFE0E50320A4E30320D54D0D0093
:104DFC00024B1A68024B1A60704700BF3CE3032059
:104E0C00F0E50320014B024A1A607047F4E50320D9
:104E1C00C85A0D00F8B506460D468F180024BD4241
:104E2C000CD0336815F8011B9B6830469847002856
:104E3C0001DB0444F3E7002C08BF04462046F8BD10
:104E4C0070B505460C46084649B100F021FD2B68AB
:104E5C00024621462846DB68BDE87040184770BD05
:104E6C0003689B68184738B50D210546FFF7F8FF16
:104E7C000A2104462846FFF7F3FF204438BD30B51D
:104E8C008BB00B4600218DF82410012A98BF0A2202
:104E9C000DF12304B3FBF2F505FB123303F0FF0312
:104EAC00092B94BF30333733DBB2214604F8013978
:104EBC002B46002DEED1FFF7C3FF0BB030BD0CB469
:104ECC002DE9F04387B000AF07F13804054654F8DC
:104EDC00049B3C600E4623464A461421381DFFF7BE
:104EEC00B9FB132805D8391D2846FFF7A9FF04463E
:104EFC0013E000F1080323F00703E846ADEB030DC4
:104F0C00411C23464A4668463C60FFF7A3FB6946B2
:104F1C002846FFF795FF0446C5461EB12846FFF705
:104F2C00A2FF044420461C37BD46BDE8F04302B046
:104F3C00704710B50446006808B1FFF7CFFA204659
:104F4C0010BD000010B5064C002320462360FFF76F
:104F5C00BDFA2046034A0449BDE8104000F02CB9C4
:104F6C00F8E50320A4E303203F4F0D007047417484
:104F7C00704708B5007CFFF781FA20EAE07008BDA5
:104F8C0008B5007CFFF75AFA20EAE07008BD08B5B6
:104F9C00007CFFF763FA30EA200028BF4FF0FF30A7
:104FAC0008BD08B5007CFFF751FA30EA200028BF95
:104FBC004FF0FF3008BD007CFFF758BA10B5142134
:104FCC00044600F007F9204610BD70B5457C044638
:104FDC000E4625B9007CFFF751FA002805DD314655
:104FEC00207CBDE87040FFF721BA284670BD000058
:104FFC0010B5044608461146002262604FF47A72DE
:10500C00A260054A22600122207462741A46FFF7DE
:10501C0005FA204610BD00BF405B0D0038B50C4DA5
:10502C00296811F0010411D12846FFF732F868B154
:10503C00084A094B09482146FFF7DAFF2846FFF7D3
:10504C002DF8074A0749054800F0B6F8034838BD63
:10505C0094E6032098E6032010E60320FCE50320E9
:10506C00A4E30320794F0D0010B50446006818B175
:10507C00FFF7E8FA0023236010BD10B50446FFF7D4
:10508C00F3FF204610BD000010B5094C00204FF670
:10509C00FF732060A080A07120816381FFF7A6FAC6
:1050AC002046044A0449BDE8104000F085B800BF12
:1050BC001CE70320A4E3032087500D0000221146B7
:1050CC004068FFF77BBA002211464068FFF786BAAA
:1050DC0000224068FFF77ABA002281F00101406893
:1050EC00FFF764BA00231A4619464068FFF756BA10
:1050FC0000231A4619464068FFF748BA00221146A9
:10510C004068FFF73BBA002211464068FFF726BA09
:10511C00002202214068FFF729BA00231A46406892
:10512C00FFF714BA024B03225A60024A1A60704706
:10513C0028E70320705B0D0070B5044614252A4641
:10514C00094E002100F073FB258020253146A56017
:10515C002561284600F040F831466060284600F092
:10516C003BF8E060204670BD9C5B0D0030B50E4DE9
:10517C00296811F0010487B013D12846FEF789FF86
:10518C0078B101A8FFF7D8FF01AA21460748FFF71D
:10519C0035FC2846FEF782FF054A0649034800F015
:1051AC000BF8024807B030BD30E7032034E703208A
:1051BC00A4E30320B1490D000B460146184600F04C
:1051CC001DBB0000024B1868BFF35F8F704700BF18
:1051DC004CE70320FEF759BF00F000B810B50028CB
:1051EC0014BF044601242046FFF724FA20B9FFF728
:1051FC00E9FF08B18047F6E710BD0000184B1A68AC
:10520C00D1075CBF01221A60164B1A68D2075CBF2B
:10521C0001221A60144B1A68D0075CBF01221A6075
:10522C00124B1A68D1075CBF01221A60104B1A6826
:10523C00D2075CBF01221A600E4B1A68D0075CBF04
:10524C0001221A600C4B1A68D1075CBF01221A604C
:10525C000A4B1A68D2075CBF01221A60704700BF64
:10526C006CE7032068E7032064E7032060E7032072
:10527C005CE7032058E7032054E7032050E70320A2
:10528C00244B1A68D0075CBF01221A60224B1A68A3
:10529C00D1075CBF01221A60204B1A68D2075CBF91
:1052AC0001221A601E4B1A68D0075CBF01221A60DB
:1052BC001C4B1A68D1075CBF01221A601A4B1A6882
:1052CC00D2075CBF01221A60184B1A68D0075CBF6A
:1052DC0001221A60164B1A68D1075CBF01221A60B2
:1052EC00144B1A68D2075CBF01221A60124B1A6861
:1052FC00D0075CBF01221A60104B1A68D1075CBF43
:10530C0001221A600E4B1A68D2075CBF01221A6088
:10531C00704700BF9CE7032098E7032094E7032025
:10532C0090E703208CE7032088E7032084E7032021
:10533C0080E703207CE7032078E7032074E7032051
:10534C0070E70320244B1A68D0075CBF01221A6057
:10535C00224B1A68D1075CBF01221A60204B1A68D5
:10536C00D2075CBF01221A601E4B1A68D0075CBFC3
:10537C0001221A601C4B1A68D1075CBF01221A600B
:10538C001A4B1A68D2075CBF01221A60184B1A68B4
:10539C00D0075CBF01221A60164B1A68D1075CBF9C
:1053AC0001221A60144B1A68D2075CBF01221A60E2
:1053BC00124B1A68D0075CBF01221A60104B1A6896
:1053CC00D1075CBF01221A600E4B1A68D2075CBF72
:1053DC0001221A60704700BFCCE70320C8E7032006
:1053EC00C4E70320C0E70320BCE70320B8E7032091
:1053FC00B4E70320B0E70320ACE70320A8E70320C1
:10540C00A4E70320A0E70320184B1A68D1075CBF60
:10541C0001221A60164B1A68D2075CBF01221A606F
:10542C00144B1A68D0075CBF01221A60124B1A6821
:10543C00D1075CBF01221A60104B1A68D2075CBFFF
:10544C0001221A600E4B1A68D0075CBF01221A6049
:10545C000C4B1A68D1075CBF01221A600A4B1A6800
:10546C00D2075CBF01221A60704700BFECE7032033
:10547C00E8E70320E4E70320E0E70320DCE7032070
:10548C00D8E70320D4E70320D0E7032081F00041C4
:10549C0002E000BF83F0004330B54FEA41044FEA0D
:1054AC00430594EA050F08BF90EA020F1FBF54EAA8
:1054BC00000C55EA020C7FEA645C7FEA655C00F044
:1054CC00E2804FEA5454D4EB5555B8BF6D420CDD15
:1054DC002C4480EA020281EA030382EA000083EA98
:1054EC00010180EA020281EA0303362D88BF30BD38
:1054FC0011F0004F4FEA01314FF4801C4CEA11318E
:10550C0002D0404261EB410113F0004F4FEA0333EC
:10551C004CEA133302D0524263EB430394EA050F77
:10552C0000F0A780A4F10104D5F1200E0DDB02FAE6
:10553C000EFC22FA05F2801841F1000103FA0EF27A
:10554C00801843FA05F359410EE0A5F120050EF140
:10555C00200E012A03FA0EFC28BF4CF0020C43FA71
:10556C0005F3C01851EBE37101F0004507D54FF07E
:10557C00000EDCF1000C7EEB00006EEB0101B1F5CE
:10558C00801F1BD3B1F5001F0CD349085FEA300014
:10559C004FEA3C0C04F101044FEA445212F5800F1F
:1055AC0080F09A80BCF1004F08BF5FEA500C50F1BC
:1055BC00000041EB045141EA050130BD5FEA4C0C9F
:1055CC00404141EB010111F4801FA4F10104E9D128
:1055DC0091F0000F04BF01460020B1FA81F308BF1F
:1055EC002033A3F10B03B3F120020CDA0C3208DDEB
:1055FC0002F1140CC2F10C0201FA0CF021FA02F1C6
:10560C000CE002F11402D8BFC2F1200C01FA02F135
:10561C0020FA0CFCDCBF41EA0C019040E41AA2BF5A
:10562C0001EB0451294330BD6FEA04041F3C1CDA22
:10563C000C340EDC04F11404C4F1200220FA04F042
:10564C0001FA02F340EA030021FA04F345EA0301EC
:10565C0030BDC4F10C04C4F1200220FA02F001FAAE
:10566C0004F340EA0300294630BD21FA04F0294630
:10567C0030BD94F0000F83F4801306BF81F48011C9
:10568C000134013D4EE77FEA645C18BF7FEA655C3C
:10569C0029D094EA050F08BF90EA020F05D054EA0E
:1056AC00000C04BF1946104630BD91EA030F1EBF13
:1056BC000021002030BD5FEA545C05D14000494117
:1056CC0028BF41F0004130BD14F580043CBF01F50A
:1056DC00801130BD01F0004545F0FE4141F47001F0
:1056EC004FF0000030BD7FEA645C1ABF19461046CB
:1056FC007FEA655C1CBF0B46024650EA013406BFCC
:10570C0052EA033591EA030F41F4002130BD00BF8A
:10571C0090F0000F04BF0021704730B54FF4806447
:10572C0004F132044FF000054FF0000150E700BFC8
:10573C0090F0000F04BF0021704730B54FF4806427
:10574C0004F1320410F0004548BF40424FF0000114
:10575C003EE700BF42004FEAE2014FEA31014FEA57
:10576C0002701FBF12F07F4393F07F4F81F06051A6
:10577C00704792F0000F14BF93F07F4F704730B515
:10578C004FF4607401F0004521F0004120E700BFA8
:10579C0050EA010208BF704730B54FF000050AE02F
:1057AC0050EA010208BF704730B511F0004502D530
:1057BC00404261EB41014FF4806404F132045FEA32
:1057CC00915C3FF4DCAE4FF003025FEADC0C18BFD7
:1057DC0003325FEADC0C18BF033202EBDC02C2F1CD
:1057EC00200300FA03FC20FA02F001FA03FE40EA5F
:1057FC000E0021FA02F11444C1E600BF10B5054CAD
:10580C0013462CB10A4601460220AFF3008010BDAE
:10581C00204610BD0000000010B5431E0A44914202
:10582C0004D011F8014B03F8014FF8E710BD024406
:10583C000346934202D003F8011BFAE770470000BD
:10584C0038B5124B1C68A36B0546D3B91820FEF76C
:10585C00F1FE43F20E33A06303804AF6CD3343804E
:10586C0041F2342383804EF26D63C3804DF6EC63BA
:10587C000381052343810B23838101220023C0E98B
:10588C000423A36B00221D615A6138BDA0E30320E1
:10589C00034613F8012B002AFBD1181A0138704764
:1058AC001D400D0059400D0085400D0089400D0034
:1058BC000000000054797065206F662053656E738C
:1058CC006F72202569200A004D6178204375727231
:1058DC00656E743A202569200A004E6F2E206F6683
:1058EC00204368616E6E656C733A20256920276EC3
:1058FC00004368616E6E656C3A202569200A00438E
:10590C00757272656E742056616C75653A2025301F
:10591C002E3266200A00000000000000000000008B
:10592C0071460D007B460D0085460D008F460D001F
:10593C0099460D00A5460D00B1460D00BD460D0063
:10594C00C5460D00CF460D00D9460D0000000000E5
:10595C000000000017480D000D480D0003480D0015
:10596C00B9470D00F7470D00EB470D00DF470D0061
:10597C00D7470D00CD470D00C3470D00D9460D008C
:10598C00000000000000000093480D0089480D0045
:10599C007F480D0075480D0069480D005D480D00ED
:1059AC0051480D0049480D003F480D0035480D0089
:1059BC00D9460D000000000000000000B1490D00A8
:1059CC00FB490D00D3490D00B3490D00DB490D0017
:1059DC00E3490D00EB490D00F3490D0000000000F8
:1059EC0000000000BB4A0D000B4B0D00194B0D00C5
:1059FC00214E0D00F74A0D00BD4A0D00D34A0D0093
:105A0C00054B0D00E94A0D00B74A0D0000000000DF
:105A1C0000000000D94B0D00C94B0D00CB4B0D0005
:105A2C005A00252B3033643A253032750025592D18
:105A3C00256D2D25645425483A254D3A2553257A54
:105A4C000061736374696D65006261756400536510
:105A5C007269616C0053657269616C3100747970A4
:105A6C006500706172616D00636D6400696400684B
:105A7C006E64007374726D0066696C74006C766C85
:105A8C000061646448616E646C65720072656D6F70
:105A9C00766548616E646C657200656E756D486103
:105AAC006E646C657273004A534F4E537472656129
:105ABC006D4C6F6748616E646C657200617070004C
:105ACC00253031307520005D20002564002C20002D
:105ADC0028293A2000205B00636F6465203D20007C
:105AEC0025690064657461696C73203D20000D0AA2
:105AFC000066006C6E00666E00636F646500646522
:105B0C007461696C006E6F6E650074726163650020
:105B1C00696E666F007761726E006572726F7200EB
:105B2C0070616E696300616C6C0000000000000025
:105B3C0000000000794F0D00C94F0D00D74F0D002C
:105B4C00214E0D008D4F0D00AF4F0D009B4F0D00E2
:105B5C00C34F0D007B4F0D007F4F0D000000000068
:105B6C000000000027510D001D510D0013510D00B8
:105B7C0009510D00FD500D00F1500D00E5500D00C8
:105B8C00DD500D00D3500D00C9500D00D9460D004D
:105B9C0000000000000000000000000000000000F9
:105BAC0000000000000000000000000000000000E9
:105BBC0000000000000000000000000000000000D9
:105BCC0000000000000000000000000000000000C9
:105BDC0000000000000000000000000000000000B9
:105BEC0000000000000000000000000000000000A9
:105BFC00000000004300000015430D00A5470D00F8
:105C0C0021480D0061490D00E14D0D00FD4D0D00C9
:105C1C00114E0D00514F0D0095500D0031510D00DE
:105C2C0009520D008D520D0051530D0015540D00ED
:045C3C000000000064
:045C40000000000060
:105C44004D5A0D0000000000A05B0D00C05B0D006C
:105C5400E05B0D00000000000000000000000000F8
:105C640000000000005C0D000000000000000000C7
:105C74000000000000000000000000000000000020
:105C84000000000000000000000000000000000010
:105C94000000000000000000000000000000000000
:085CA4000000000040E30320B2
:105CAC00FFFFFFFF00000102030405060708090AB5
:105CBC000B0C0D0E0F101112131415161718191AB0
:085CCC001B1C1D1E1F202800F7
:045CD40078563412B8
:04000003D000401CCD
:00000001FF
