:02000002D0002C
:1040000000400D0084600D00000006000C0005015A
:084010000401DE0500000000C0
:04401800685C0D00D3
:1040200009480A49884208B505D0094A824202D0A7
:10403000121A01F0D5FD0748074A0021121A01F0B3
:10404000DAFD014808BD00BF5CE30320F45F0D000A
:10405000C4E30320C4E30320F0E7032070B500F0BD
:1040600009FE074C074BE41AA40800251E46A5428A
:1040700004D056F8253098470135F8E770BD00BFE9
:10408000F05F0D00B85F0D0000F013B808B500F048
:1040900033F8BDE8084000F0AFBD00F063BA00F0AF
:1040A00061BA0078B0FA80F04009704701230370CC
:1040B000704708B500F0DCFF00F042FC00F0DAFCCD
:1040C0004FF4165100F0CAFC4FF49670BDE808405A
:1040D00000F071BD37B5044610EE100A0D4601F030
:1040E000BBFA2A46CDE900010021204600F069FE16
:1040F00003B030BD00000000F8B500F0B9FF0422A5
:10410000782100F051FC00F0B3FF03681B69984769
:10411000042817D100F0ACFF03685B699847C7B269
:1041200000F0A6FF03685B699847C5B200F0A0FFE6
:1041300003685B699847C6B200F09AFF03685B6941
:104140009847C4B24FF4967000F035FD344B05EB40
:1041500007201860334B344D04EB06241C6001F03B
:1041600069FA27A3D3E9002301F016F926A3D3E9BE
:10417000002301F0EFFB01F0D5FC2860204601F0A0
:1041800059FA1FA3D3E9002301F006F920A3D3E9CC
:10419000002301F0DFFB0022244B254E254C01F0CB
:1041A000FBF801F0BFFC306001F056FA1AA3D3E926
:1041B000002301F0A5FA204B002201F0EFF801F0F6
:1041C000B1FC206000F056FC96ED000A1B49FFF799
:1041D00081FF00F04FFC94ED000A1949FFF77AFFC8
:1041E00000F048FC95ED000A1649FFF773FF42F214
:1041F0001070BDE8F84000F0DEBC00BFAFF30080F7
:1042000000000000009AA940CDCCCCCCCC7AB440C0
:104210002A419E12E4C96D40CDCCCCCCCCCCFC3F25
:10422000D0E30320D4E30320C8E303200000394097
:10423000D8E30320CCE30320000040407C5C0D0069
:104240009C5C0D00BF5C0D0000F0F0B808B5024B9F
:104250001B681B68019308BD4C02030008B5024BA4
:104260001B685B68019308BD4C02030008B5024B54
:104270001B681B69019308BD4C02030008B5024B83
:104280001B685B69019308BD4C02030008B5024B33
:104290001B689B69019308BD4C02030008B5024BE3
:1042A0001B68DB69019308BD4C02030008B5024B93
:1042B0001B681B6A019308BD4C02030008B5024B42
:1042C0001B68DB68019308BD2802030008B5024B98
:1042D0001B681B6A019308BD2802030008B5024B46
:1042E0001B685B6A019308BD2802030008B5024BF6
:1042F0001B689B6A019308BD2802030008B5024BA6
:104300001B68DB6A019308BD2802030008B5024B55
:104310001B681B6B019308BD2802030008B5024B04
:104320001B681B6C019308BD2802030008B5024BF3
:104330001B681B6D019308BD2802030008B5024BE2
:104340001B681B68019308BD3C02030008B5024BC3
:104350001B68DB68019308BD3C02030008B5024BF3
:104360001B681B69019308BD3C02030008B5024BA2
:104370001B685B69019308BD3C02030008B5024B52
:104380001B689B69019308BD3C02030008B5024B02
:104390001B68DB69019308BD3C02030008B5024BB2
:1043A0001B689B6A019308BD3C02030008B5024BE1
:1043B0001B685B69019308BD6402030008B5024BEA
:1043C0001B689B68019308BD4802030008B5024BB7
:1043D0001B681B69019308BD4802030008B5024B26
:1043E0001B685B69019308BD4802030008B5024BD6
:1043F0001B685B6C019308BD4802030008B5024BC3
:104400001B689B6C019308BD4802030008B5024B72
:104410001B685B68019308BD1802030008B5024BD6
:104420001B685B69019308BD1802030008B5024BC5
:104430001B681B68019308BD2C02030008B5024BE2
:104440001B689B68019308BD6802030008B5024B16
:104450001B68DB68019308BD6802030008B5024BC6
:104460001B68DB6B019308BD4402030008B5024BD7
:104470001B685B68019308BD4002030008B5024B4E
:104480001B689B68019308BD4002030008B5024BFE
:104490001B68DB68019308BD4002030008B5024BAE
:1044A0001B681B69019308BD4002030008B5024B5D
:1044B0001B685B69019308BD4002030008B5024B0D
:1044C0001B689B69019308BD4002030008B5024BBD
:1044D0001B68DB69019308BD4002030008B5024B6D
:1044E0001B681B6A019308BD4002030008B5024B1C
:1044F0001B681B6B019308BD4002030008B5024B0B
:104500001B685B6B019308BD4002030008B5024BBA
:104510001B685B68019308BD2002030008B5024BCD
:104520001B685B69019308BD2002030008B5034BBB
:104530001B68D3F88830019308BD000020020300F7
:1045400008B5034B1B68D3F89430019308BD0000F5
:104550002002030008B5024B1B681B68019308BDCD
:104560001C02030008B5024B1B685B68019308BD81
:104570001C02030008B5024B1B685B6A019308BD6F
:104580001C02030000231A464068FFF76FBF002299
:1045900002214068FFF77ABF002211464068FFF70A
:1045A0006DBF002211464068FFF778BF00231A460E
:1045B00019464068FFF77ABF00231A46194640683B
:1045C000FFF77CBF002281F001014068FFF77EBF4A
:1045D00000224068FFF78ABF002211464068FFF7BB
:1045E0008DBF002211464068FFF778BF2DE9F043E8
:1045F000002495B016460D46074600F09BFA21466A
:1046000020220CA8009401F0F6FA40230C932146D6
:104610006B460CAA3046FFF719FF0446002844D128
:10462000024601216868FFF739FF022180462246D1
:104630006868FFF733FF009E81462146002E34D084
:10464000002932D17368022B02D00A2B09D02AE04C
:10465000B8F1000F27D071693846043100F097FA9D
:1046600020E0B9F1000F1ED07469112201A801F0F9
:10467000C2FA06238DF8143001AD04F10803183492
:10468000186859682A4603C20833A3421546F7D171
:1046900001A906A807AD00F05BFA0FCD3C1D0FC4C1
:1046A0002B6823700121F669C8E70098FFF7C6FE62
:1046B000384615B0BDE8F083024B034A1A60002269
:1046C0005A607047DCE30320E05C0D0000221146D5
:1046D0004068FFF7E3BE002211464068FFF7FEBEC8
:1046E000002211464068FFF709BF00224068FFF72B
:1046F000FDBE002281F001014068FFF7E7BE002304
:104700001A4619464068FFF7D9BE00231A461946D3
:104710004068FFF7CBBE002211464068FFF7AEBEEF
:10472000002202214068FFF7B1BE00231A4640680C
:10473000FFF79CBE024B04225A60024A1A6070477F
:10474000E4E30320145D0D00002211464068FFF7EA
:10475000C5BE002211464068FFF7D0BE0022406867
:10476000FFF7C4BE002281F001014068FFF7AEBE32
:1047700000231A4601214068FFF7A0BE00231A4615
:1047800019464068FFF792BE002211464068FFF7C5
:1047900085BE002211464068FFF770BE002202214C
:1047A0004068FFF773BE00231A464068FFF75EBEFD
:1047B00038B5054688B104684CB1A3681BB1032223
:1047C0002146204698471021204600F085FC2846C7
:1047D0001421BDE8384000F07FBC38BD10B103683B
:1047E0005B681847704710B503680446BBB158684A
:1047F000FFF7E4FD78B923685A7C12B95868FFF7CF
:10480000E5FD23685868FFF7E9FD20680023236071
:1048100028B1FFF7CDFF206808B1FFF7C9FF204698
:1048200010BD38B50446D0F8C40108B1FFF737FC15
:10483000D4F8C00108B1FFF7E1FDD4F8BC5135B19F
:104840002846FFF7D0FF0421284600F045FC2068E9
:1048500008B1FFF7C3FF204638BD000010B5044B78
:10486000044640F8083BFFF7DCFF204610BD00BFC0
:10487000485D0D0038B50E4C0E4B23600025022319
:1048800004F5E4706360A560C4F8C451C4F8C8516D
:10489000FFF7ACFD084BC4F8CC5184F8D05123602D
:1048A0002046064A0649BDE8384000F007BC00BF74
:1048B000ECE30320E05C0D00485D0D00C4E3032041
:1048C0005D480D007047F8B5064615460C468F1832
:1048D000BC4206D0336814F8011B9B6830469847E9
:1048E000F6E72846F8BD0022007CFFF7EFBC002168
:1048F000007CFFF7F3BC0021007CFFF7F7BC002130
:10490000007CFFF7FBBC0021007CFFF7FFBC10B56B
:104910001421044600F0E0FB204610BD10B504460B
:10492000002363604FF47A73A360044B217408463C
:1049300023601146FFF7F2FC204610BD7C5D0D00A0
:1049400000231A461946007CFFF7B8BC70B50C4628
:1049500086B0142506462A46002101A801F04BF92D
:1049600023788DF8083063680393E368049300228A
:10497000237A307CADF8045001A90593FFF7D6FCEB
:1049800006B070BD1FB500338DF800104FF0640104
:10499000039118BF0123694601928DF80830FFF793
:1049A000D5FF05B05DF804FB0123FFF7EBBF4174B1
:1049B0007047704708B50021007CFFF767FC30EABC
:1049C000200028BF4FF0FF3008BD08B50121007C52
:1049D000FFF75CFC30EA200028BF4FF0FF3008BD35
:1049E00008B5007CFFF74AFC20EAE07008BD08B576
:1049F000007CFFF73BFC20EAE07008BD007CFFF77D
:104A000055BC10B51421044600F066FB204610BDCD
:104A100038B50446007C0D46FFF730FC002801DC69
:104A2000607C28B12946207CFFF738FC20EAE07042
:104A300038BD000010B50446002363604FF47A735C
:104A4000A360054B2360012308462174637411465B
:104A5000FFF7FCFB204610BDA45D0D000022007C8A
:104A6000FFF7FCBB10B514220446002101F0C3F887
:104A7000204610BD30B50E4D87B001A8FFF7F2FFFC
:104A8000296811F0010410D12846FFF70AFB60B134
:104A900001AA21460748FFF7CDFF2846FFF706FB8E
:104AA000054A0649034800F009FB024807B030BD3B
:104AB000C0E50320C4E50320C4E30320B3490D008F
:104AC000704710B51821044600F006FB204610BDC3
:104AD000F0B5037D062B8DB00E4600F104074FF0B4
:104AE000000402D000F1080518E00CAD394605F8C5
:104AF000304D2F232A460A20FFF758FC284601F0A4
:104B0000ABF833680246DB682946304698470FE029
:104B100024B12E21304600F025F9044415F8011D7A
:104B20000A22304600F02DF9BD420444F0D120465F
:104B30000DB0F0BD10B5054B0446112240F8043B02
:104B4000002101F058F8204610BD00BFD45D0D00D3
:104B50000346074A10B543F8042B01F1100251F83F
:104B6000044B43F8044B9142F9D10A781A7010BDF6
:104B7000D45D0D0010B59DF8084044EA032343EAD4
:104B8000024242EA016104234160037510BD37B55A
:104B90000D788B784A78C97800912946FFF7EAFFAB
:104BA00003B030BD10B58368044613B1032201463B
:104BB0009847204610BD0021FFF7B0BC08B50C4B4C
:104BC00033B1FFF757FF03681B699847002809DCDA
:104BD000084B63B100F0A4F903681B6998470028EB
:104BE00003DC08BDAFF30080F2E7AFF3008008BD3F
:104BF000000000000000000008B5FFF7DFFFFFF72E
:104C00000DFC014B186008BD48E703200248034A29
:104C10000349121A00F0E4BF00F4032004F4032057
:104C2000F05F0D0007B5002300931A466FF077017F
:104C3000FFF786FC03B05DF804FB000007B543886E
:104C40000A2B08D0502B09D1094B1B683BB103B08C
:104C50005DF804EB1847FFF7E5FF06E0002300933B
:104C60001A466FF07701FFF76BFC03B05DF804FBA9
:104C7000D8E5032038B5104C104D2368AB42104BDB
:104C80000CBF012200221A7002D0FFF7BFFF25607F
:104C9000FFF7BCFB044600F0B7FF0A4B13B12046F8
:104CA000AFF3008000210748FFF7D8FB002106483A
:104CB000BDE83840FFF73ABC00F403201E1C279AD9
:104CC000DCE50320000000003D4C0D0010B504465B
:104CD000FFF768FF204610BD0348044A044900233B
:104CE000836000F0EBB900BFE0E50320C4E30320DC
:104CF000CD4C0D00024B1A68024B1A60704700BF82
:104D00005CE30320F0E50320014B024A1A60704780
:104D1000F4E503207C5E0D00F8B506460D468F18BD
:104D20000024BD420CD0336815F8011B9B68304647
:104D30009847002801DB0444F3E7002C08BF044631
:104D40002046F8BD70B505460C46084649B100F04E
:104D500083FF2B68024621462846DB68BDE8704089
:104D6000184770BD03689B68184738B50D21054684
:104D7000FFF7F8FF0A2104462846FFF7F3FF204417
:104D800038BD30B58BB00B4600218DF82410012AB8
:104D900098BF0A220DF12304B3FBF2F505FB123391
:104DA00003F0FF03092B94BF30333733DBB22146C6
:104DB00004F801392B46002DEED1FFF7C3FF0BB0ED
:104DC00030BD0CB42DE9F04387B000AF07F13804D3
:104DD000054654F8049B3C600E4623464A4614217F
:104DE000381DFFF7C7FB132805D8391D2846FFF7E4
:104DF000A9FF044613E000F1080323F00703E84687
:104E0000ADEB030D411C23464A4668463C60FFF764
:104E1000B1FB69462846FFF795FF0446C5461EB11B
:104E20002846FFF7A2FF044420461C37BD46BDE8D4
:104E3000F04302B0704710B50446006808B1FFF7B0
:104E4000DDFA204610BD000010B5064C00232046B8
:104E50002360FFF7CBFA2046034A0449BDE810401F
:104E600000F02CB9F8E50320C4E30320374E0D0011
:104E700070474174704708B5007CFFF78FFA20EA4D
:104E8000E07008BD08B5007CFFF768FA20EAE07022
:104E900008BD08B5007CFFF771FA30EA200028BF92
:104EA0004FF0FF3008BD08B5007CFFF75FFA30EA2D
:104EB000200028BF4FF0FF3008BD007CFFF766BA26
:104EC00010B51421044600F007F9204610BD70B556
:104ED000457C04460E4625B9007CFFF75FFA0028A2
:104EE00005DD3146207CBDE87040FFF72FBA28462B
:104EF00070BD000010B504460846114600226260ED
:104F00004FF47A72A260054A226001222074627412
:104F10001A46FFF713FA204610BD00BFF45E0D00DD
:104F200038B50C4D296811F0010411D12846FFF75E
:104F3000B8F868B1084A094B09482146FFF7DAFF7B
:104F40002846FFF7B3F8074A0749054800F0B6F8C6
:104F5000034838BD94E6032098E6032010E60320BA
:104F6000FCE50320C4E30320714E0D0010B5044698
:104F7000006818B1FFF7F6FA0023236010BD10B5E2
:104F80000446FFF7F3FF204610BD000010B5094CA2
:104F900000204FF6FF732060A080A0712081638104
:104FA000FFF7B4FA2046044A0449BDE8104000F077
:104FB00085B800BF1CE70320C4E303207F4F0D002A
:104FC000002211464068FFF789BA00221146406866
:104FD000FFF794BA00224068FFF788BA002281F0F8
:104FE00001014068FFF772BA00231A46194640686B
:104FF000FFF764BA00231A4619464068FFF756BA0D
:10500000002211464068FFF749BA00221146406865
:10501000FFF734BA002202214068FFF737BA0023B5
:105020001A464068FFF722BA024B03225A60024A2E
:105030001A60704728E70320245F0D0070B504460E
:1050400014252A46094E002100F0D5FD2580202593
:105050003146A5602561284600F040F83146606081
:10506000284600F03BF8E060204670BD505F0D0020
:1050700030B50E4D296811F0010487B013D12846D0
:10508000FFF70FF878B101A8FFF7D8FF01AA214672
:105090000748FFF743FC2846FFF708F8054A06498A
:1050A000034800F00BF8024807B030BD30E703209A
:1050B00034E70320C4E30320C5480D000B46014636
:1050C000184600F07FBD0000024B1868BFF35F8FE9
:1050D000704700BF4CE70320FEF7DFBF00F000B8C9
:1050E00010B5002814BF044601242046FFF732FA09
:1050F00020B9FFF7E9FF08B18047F6E710BD0000CF
:10510000184B1A68D1075CBF01221A60164B1A6847
:10511000D2075CBF01221A60144B1A68D0075CBF2B
:1051200001221A60124B1A68D1075CBF01221A6073
:10513000104B1A68D2075CBF01221A600E4B1A6826
:10514000D0075CBF01221A600C4B1A68D1075CBF04
:1051500001221A600A4B1A68D2075CBF01221A604A
:10516000704700BF6CE7032068E7032064E7032073
:1051700060E703205CE7032058E7032054E703209F
:1051800050E70320244B1A68D0075CBF01221A6045
:10519000224B1A68D1075CBF01221A60204B1A68A3
:1051A000D2075CBF01221A601E4B1A68D0075CBF91
:1051B00001221A601C4B1A68D1075CBF01221A60D9
:1051C0001A4B1A68D2075CBF01221A60184B1A6882
:1051D000D0075CBF01221A60164B1A68D1075CBF6A
:1051E00001221A60144B1A68D2075CBF01221A60B0
:1051F000124B1A68D0075CBF01221A60104B1A6864
:10520000D1075CBF01221A600E4B1A68D2075CBF3F
:1052100001221A60704700BF9CE7032098E7032033
:1052200094E7032090E703208CE7032088E703201E
:1052300084E7032080E703207CE7032078E703204E
:1052400074E7032070E70320244B1A68D0075CBF83
:1052500001221A60224B1A68D1075CBF01221A6032
:10526000204B1A68D2075CBF01221A601E4B1A68D5
:10527000D0075CBF01221A601C4B1A68D1075CBFC3
:1052800001221A601A4B1A68D2075CBF01221A6009
:10529000184B1A68D0075CBF01221A60164B1A68B7
:1052A000D1075CBF01221A60144B1A68D2075CBF99
:1052B00001221A60124B1A68D0075CBF01221A60E3
:1052C000104B1A68D1075CBF01221A600E4B1A6896
:1052D000D2075CBF01221A60704700BFCCE70320F1
:1052E000C8E70320C4E70320C0E70320BCE703208E
:1052F000B8E70320B4E70320B0E70320ACE70320BE
:10530000A8E70320A4E70320A0E70320184B1A68AE
:10531000D1075CBF01221A60164B1A68D2075CBF26
:1053200001221A60144B1A68D0075CBF01221A6070
:10533000124B1A68D1075CBF01221A60104B1A6821
:10534000D2075CBF01221A600E4B1A68D0075CBFFF
:1053500001221A600C4B1A68D1075CBF01221A6047
:105360000A4B1A68D2075CBF01221A60704700BF5F
:10537000ECE70320E8E70320E4E70320E0E703206D
:10538000DCE70320D8E70320D4E70320D0E703209D
:1053900081F0004102E000BF83F0004330B54FEAE6
:1053A00041044FEA430594EA050F08BF90EA020F53
:1053B0001FBF54EA000C55EA020C7FEA645C7FEAE6
:1053C000655C00F0E2804FEA5454D4EB5555B8BF09
:1053D0006D420CDD2C4480EA020281EA030382EA7A
:1053E000000083EA010180EA020281EA0303362D0C
:1053F00088BF30BD11F0004F4FEA01314FF4801CDF
:105400004CEA113102D0404261EB410113F0004FF0
:105410004FEA03334CEA133302D0524263EB4303A7
:1054200094EA050F00F0A780A4F10104D5F1200E45
:105430000DDB02FA0EFC22FA05F2801841F10001A0
:1054400003FA0EF2801843FA05F359410EE0A5F174
:1054500020050EF1200E012A03FA0EFC28BF4CF0A5
:10546000020C43FA05F3C01851EBE37101F000455B
:1054700007D54FF0000EDCF1000C7EEB00006EEB68
:105480000101B1F5801F1BD3B1F5001F0CD34908F2
:105490005FEA30004FEA3C0C04F101044FEA445249
:1054A00012F5800F80F09A80BCF1004F08BF5FEAD0
:1054B000500C50F1000041EB045141EA050130BDB0
:1054C0005FEA4C0C404141EB010111F4801FA4F153
:1054D0000104E9D191F0000F04BF01460020B1FAA8
:1054E00081F308BF2033A3F10B03B3F120020CDAE0
:1054F0000C3208DD02F1140CC2F10C0201FA0CF0BE
:1055000021FA02F10CE002F11402D8BFC2F1200C22
:1055100001FA02F120FA0CFCDCBF41EA0C019040D8
:10552000E41AA2BF01EB0451294330BD6FEA040421
:105530001F3C1CDA0C340EDC04F11404C4F120020C
:1055400020FA04F001FA02F340EA030021FA04F31E
:1055500045EA030130BDC4F10C04C4F1200220FA75
:1055600002F001FA04F340EA0300294630BD21FAB3
:1055700004F0294630BD94F0000F83F4801306BF79
:1055800081F480110134013D4EE77FEA645C18BF6D
:105590007FEA655C29D094EA050F08BF90EA020F04
:1055A00005D054EA000C04BF1946104630BD91EAFC
:1055B000030F1EBF0021002030BD5FEA545C05D1FF
:1055C0004000494128BF41F0004130BD14F580043E
:1055D0003CBF01F5801130BD01F0004545F0FE41B2
:1055E00041F470014FF0000030BD7FEA645C1ABFE7
:1055F000194610467FEA655C1CBF0B46024650EA1E
:10560000013406BF52EA033591EA030F41F4002149
:1056100030BD00BF90F0000F04BF0021704730B5CF
:105620004FF4806404F132044FF000054FF00001A4
:1056300050E700BF90F0000F04BF0021704730B565
:105640004FF4806404F1320410F0004548BF40423A
:105650004FF000013EE700BF42004FEAE2014FEA8F
:1056600031014FEA02701FBF12F07F4393F07F4F6A
:1056700081F06051704792F0000F14BF93F07F4F9C
:10568000704730B54FF4607401F0004521F00041DF
:1056900020E700BF50EA010208BF704730B54FF065
:1056A00000050AE050EA010208BF704730B511F06A
:1056B000004502D5404261EB41014FF4806404F1A2
:1056C00032045FEA915C3FF4DCAE4FF003025FEA24
:1056D000DC0C18BF03325FEADC0C18BF033202EBAC
:1056E000DC02C2F1200300FA03FC20FA02F001FA06
:1056F00003FE40EA0E0021FA02F11444C1E600BFA5
:1057000070B54FF0FF0C4CF4E06C1CEA11541DBF57
:105710001CEA135594EA0C0F95EA0C0F00F0DEF822
:105720002C4481EA030621EA4C5123EA4C5350EA07
:10573000013518BF52EA033541F4801143F4801358
:1057400038D0A0FB02CE4FF00005E1FB02E506F0E9
:105750000042E0FB03E54FF00006E1FB03569CF03E
:10576000000F18BF4EF0010EA4F1FF04B6F5007F44
:1057700064F5407404D25FEA4E0E6D4146EB0606B6
:1057800042EAC62141EA55514FEAC52040EA5E503F
:105790004FEACE2EB4F1FD0C88BFBCF5E06F1ED8E9
:1057A000BEF1004F08BF5FEA500E50F1000041EB20
:1057B000045170BD06F0004646EA010140EA0200CD
:1057C00081EA0301B4EB5C04C2BFD4EB0C0541EAEF
:1057D000045170BD41F480114FF0000E013C00F304
:1057E000AB8014F1360FDEBF002001F0004170BD28
:1057F000C4F10004203C35DA0C341BDC04F1140441
:10580000C4F1200500FA05F320FA04F001FA05F2CC
:1058100040EA020001F0004221F0004110EBD37099
:1058200021FA04F642EB06015EEA430E08BF20EAC5
:10583000D37070BDC4F10C04C4F1200500FA04F368
:1058400020FA05F001FA04F240EA020001F00041FA
:1058500010EBD37041F100015EEA430E08BF20EA6D
:10586000D37070BDC4F1200500FA05F24EEA020EB5
:1058700020FA04F301FA05F243EA020321FA04F0E4
:1058800001F0004121FA04F220EA020000EBD3709B
:105890005EEA430E08BF20EAD37070BD94F0000F9B
:1058A0000FD101F00046400041EB010111F4801FCF
:1058B00008BF013CF7D041EA060195F0000F18BF80
:1058C000704703F00046520043EB030313F4801FBC
:1058D00008BF013DF7D043EA0603704794EA0C0F76
:1058E0000CEA135518BF95EA0C0F0CD050EA41068C
:1058F00018BF52EA4306D1D181EA030101F0004109
:105900004FF0000070BD50EA410606BF1046194630
:1059100052EA430619D094EA0C0F02D150EA01363C
:1059200013D195EA0C0F05D152EA03361CBF10467D
:1059300019460AD181EA030101F0004141F0FE411C
:1059400041F470014FF0000070BD41F0FE4141F4A0
:10595000780170BD70B54FF0FF0C4CF4E06C1CEAA0
:1059600011541DBF1CEA135594EA0C0F95EA0C0F55
:1059700000F0A7F8A4EB050481EA030E52EA033510
:105980004FEA013100F088804FEA03334FF0805531
:1059900045EA131343EA12634FEA022245EA11155E
:1059A00045EA10654FEA00260EF000419D4208BF0F
:1059B000964244F1FD0404F5407402D25B084FEABC
:1059C0003202B61A65EB03055B084FEA32024FF468
:1059D00080104FF4002CB6EB020E75EB030E22BFC5
:1059E000B61A754640EA0C005B084FEA3202B6EB85
:1059F000020E75EB030E22BFB61A754640EA5C0034
:105A00005B084FEA3202B6EB020E75EB030E22BFC3
:105A1000B61A754640EA9C005B084FEA3202B6EBC4
:105A2000020E75EB030E22BFB61A754640EADC0083
:105A300055EA060E18D04FEA051545EA16754FEAE5
:105A400006164FEAC30343EA52734FEAC2025FEA03
:105A50001C1CC0D111F4801F0BD141EA00014FF092
:105A600000004FF0004CB6E711F4801F04BF014363
:105A70000020B4F1FD0C88BFBCF5E06F3FF6AFAE7F
:105A8000B5EB030C04BFB6EB020C5FEA500C50F10F
:105A9000000041EB045170BD0EF0004E4EEA113192
:105AA00014EB5C04C2BFD4EB0C0541EA045170BD99
:105AB00041F480114FF0000E013C90E645EA060EDD
:105AC0008DE60CEA135594EA0C0F08BF95EA0C0F0B
:105AD0003FF43BAF94EA0C0F0AD150EA01347FF453
:105AE00034AF95EA0C0F7FF425AF104619462CE72A
:105AF00095EA0C0F06D152EA03353FF4FDAE10468D
:105B0000194622E750EA410618BF52EA43067FF4DD
:105B1000C5AE50EA41047FF40DAF52EA43057FF46D
:105B2000EBAE12E74FEA4102B2F1E04324BFB3F516
:105B3000001CDCF1FE5C0DD901F0004C4FEAC00204
:105B40004CEA5070B2F1004F40EB830008BF20F0E8
:105B50000100704711F0804F21D113F13872BCBFA2
:105B600001F00040704741F480114FEA5252C2F1F7
:105B70001802C2F1200C10FA0CF320FA02F018BF40
:105B800040F001004FEAC1234FEAD32303FA0CFC93
:105B900040EA0C0023FA02F34FEA4303CCE77FEA22
:105BA000625307D150EA01331EBF4FF0FE4040F46C
:105BB0004000704701F0004040F0FE4040F400001B
:105BC000704700BF10B5054C13462CB10A4601467C
:105BD0000220AFF3008010BD204610BD0000000081
:105BE00010B5431E0A44914204D011F8014B03F84A
:105BF000014FF8E710BD02440346934202D003F878
:105C0000011BFAE77047000038B5124B1C68A36B04
:105C10000546D3B91820FEF79DFC43F20E33A0636E
:105C200003804AF6CD33438041F2342383804EF221
:105C30006D63C3804DF6EC630381052343810B2321
:105C4000838101220023C0E90423A36B00221D618C
:105C50005A6138BDC0E30320034613F8012B002A24
:105C6000FBD1181A0138704721400D005D400D002E
:105C700089400D008D400D000000000054656D70DE
:105C80006572617475726520696E2043656C736915
:105C900075733A2025302E3266200A0054656D70E7
:105CA0006572617475726520696E204661687265FF
:105CB0006E686569743A2025302E3266200A0050DD
:105CC0007265737375726520696E207073693A200E
:105CD00025302E3266200A0000000000000000007F
:105CE00085450D008F450D0099450D00A3450D001C
:105CF000AD450D00B9450D00C5450D00D1450D0060
:105D0000D9450D00E3450D00ED450D0000000000F4
:105D1000000000002B470D0021470D0017470D0024
:105D2000CD460D000B470D00FF460D00F3460D005C
:105D3000EB460D00E1460D00D7460D00ED450D0088
:105D40000000000000000000A7470D009D470D0067
:105D500093470D0089470D007D470D0071470D00E9
:105D600065470D005D470D0053470D0049470D0085
:105D7000ED450D000000000000000000C5480D00CA
:105D80000F490D00E7480D00C7480D00EF480D0012
:105D9000F7480D00FF480D0007490D000000000006
:105DA00000000000B3490D00034A0D00114A0D0028
:105DB000194D0D00EF490D00B5490D00CB490D00FF
:105DC000FD490D00E1490D00AF490D000000000044
:105DD00000000000D14A0D00C14A0D00C34A0D0069
:105DE0005A00252B3033643A253032750025592D61
:105DF000256D2D25645425483A254D3A2553257A9D
:105E00000061736374696D65006261756400536558
:105E10007269616C0053657269616C3100747970EC
:105E20006500706172616D00636D64006964006893
:105E30006E64007374726D0066696C74006C766CCD
:105E40000061646448616E646C65720072656D6FB8
:105E5000766548616E646C657200656E756D48614B
:105E60006E646C657273004A534F4E537472656171
:105E70006D4C6F6748616E646C6572006170700094
:105E8000253031307520005D20002564002C200075
:105E900028293A2000205B00636F6465203D2000C4
:105EA00025690064657461696C73203D20000D0AEA
:105EB0000066006C6E00666E00636F64650064656A
:105EC0007461696C006E6F6E650074726163650069
:105ED000696E666F007761726E006572726F720034
:105EE00070616E696300616C6C000000000000006E
:105EF00000000000714E0D00C14E0D00CF4E0D0090
:105F0000194D0D00854E0D00A74E0D00934E0D004E
:105F1000BB4E0D00734E0D00774E0D0000000000CB
:105F2000000000001F500D0015500D000B500D001B
:105F300001500D00F54F0D00E94F0D00DD4F0D0034
:105F4000D54F0D00CB4F0D00C14F0D00ED450D009D
:105F50000000000000000000000000000000000041
:105F60000000000000000000000000000000000031
:105F70000000000000000000000000000000000021
:105F80000000000000000000000000000000000011
:105F90000000000000000000000000000000000001
:105FA00000000000000000000000000000000000F1
:105FB000000000004300000049420D00B9460D00FA
:105FC00035470D0075480D00D94C0D00F54C0D00FE
:105FD000094D0D00494E0D008D4F0D0029500D004B
:105FE00001510D0085510D0049520D000D530D005A
:045FF00000000000AD
:105FF400015E0D0000000000545F0D00745F0D0091
:10600400945F0D000000000000000000000000008C
:1060140000000000B45F0D0000000000000000005C
:10602400000000000000000000000000000000006C
:10603400000000000000000000000000000000005C
:10604400000000000000000000000000000000004C
:086054000000000060E30320DE
:10605C00FFFFFFFF00000102030405060708090A01
:10606C000B0C0D0E0F101112131415161718191AFC
:08607C001B1C1D1E1F20280043
:046084007856341204
:04000003D0004020C9
:00000001FF
