:02000002D0002C
:1040000000400D0064650D00000006000C00050175
:084010000401DE0500000000C0
:0440180000610D0036
:10401C0009480A49884208B505D0094A824202D0AB
:10402C00121A02F023F80748074A0021121A02F06C
:10403C0028F8014808BD00BF70E30320D4640D00CC
:10404C00D8E30320D8E30320F0E7032070B500F099
:10405C00C5FE074C074BE41AA40800251E46A542D2
:10406C0004D056F8253098470135F8E770BD00BFED
:10407C00C8640D0090640D0000F06CB908B500F038
:10408C0015F8BDE8084000F06BBE00F019BB00F05D
:10409C0017BB0078B0FA80F0400970470123037019
:1040AC0070470368C9B29B68184700002DE9F04FB0
:1040BC0085B001F03DF9392100F023FD01F038F90C
:1040CC009421FFF7EEFF01F033F900F021FD01F030
:1040DC002FF90922392100F00DFD01F029F90368AF
:1040EC001B699847092835D101F022F903685B69EF
:1040FC009847039001F01CF903685B69984702909C
:10410C0001F016F903685B699847804601F010F9D5
:10411C0003685B699847814601F00AF903685B699B
:10412C009847834601F004F903685B699847064693
:10413C0001F0FEF803685B699847044601F0F8F853
:10414C0003685B699847054601F0F2F803685B6900
:10415C009847019000F042FD4D4900F0B7FE00F089
:10416C003DFD8246304601F0B5FB0022494B01F083
:10417C0027FC064658460F4601F0ACFB02460B46A0
:10418C003046394601F06AFA01F012FF022100EEC6
:10419C00100A504600F0A1FF00F020FD3E4900F04F
:1041AC0095FE00F01BFD8246484601F093FB002271
:1041BC00384B01F005FC064640460F4601F08AFBE1
:1041CC0002460B463046394601F048FA01F0F0FE43
:1041DC00022100EE100A504600F07FFF00F0FEFCBA
:1041EC002E4900F073FE00F0F9FC8046284601F0E1
:1041FC0071FB0022274B01F0E3FB064620460F46DD
:10420C0001F068FB02460B463046394601F026FAAF
:10421C0001F0CEFE022100EE100A404600F05DFFD8
:10422C0000F0DCFC1E4900F051FE00F0D7FC044607
:10423C00029801F04FFB0022164B01F0C1FB064621
:10424C0003980F4601F046FB0B46024639463046B2
:10425C0001F004FA01F0ACFE022100EE100A204637
:10426C0000F03BFF00F0BAFC0E4900F02FFE00F00E
:10427C00B5FC0A220446019900F045FE204600F0E8
:10428C002CFE41F2883005B0BDE8F04F00F047BD80
:10429C0014610D00000070402D610D0044610D0093
:1042AC005C610D0072610D0008B500F097FC2849A7
:1042BC0000F01FFE01F03CF8392100F022FC01F067
:1042CC0037F88021FFF7EDFE01F032F80F21FFF7F0
:1042DC00E8FE01F02DF800F01BFC01F029F8392163
:1042EC0000F00FFC01F024F88121FFF7DAFE01F059
:1042FC001FF80021FFF7D5FE01F01AF800F008FCBA
:10430C0001F016F8392100F0FCFB01F011F88321C3
:10431C00FFF7C7FE01F00CF8FF21FFF7C2FE01F01A
:10432C0007F800F0F5FB01F003F8392100F0E9FB88
:10433C0000F0FEFF8F21FFF7B4FE00F0F9FF002123
:10434C00FFF7AFFE00F0F4FFBDE8084000F0E0BB63
:10435C008D610D0008B500F0EBFF00F097FB00F04D
:10436C003DFC4FF4165100F02DFC4FF4FA7000F0A8
:10437C00D6FCFFF799FF4FF47A70BDE8084000F0C7
:10438C00CEBC00F001B9000008B5024B1B681B68DD
:10439C00019308BD4C02030008B5024B1B685B6817
:1043AC00019308BD4C02030008B5024B1B681B6946
:1043BC00019308BD4C02030008B5024B1B685B69F6
:1043CC00019308BD4C02030008B5024B1B689B69A6
:1043DC00019308BD4C02030008B5024B1B68DB6956
:1043EC00019308BD4C02030008B5024B1B681B6A05
:1043FC00019308BD4C02030008B5024B1B68DB6837
:10440C00019308BD2802030008B5024B1B689B6989
:10441C00019308BD2802030008B5024B1B68DB6939
:10442C00019308BD2802030008B5024B1B681B6AE8
:10443C00019308BD2802030008B5024B1B685B6A98
:10444C00019308BD2802030008B5024B1B689B6A48
:10445C00019308BD2802030008B5024B1B68DB6AF8
:10446C00019308BD2802030008B5024B1B681B6BA7
:10447C00019308BD2802030008B5024B1B681B6C96
:10448C00019308BD2802030008B5024B1B681B6D85
:10449C00019308BD2802030008B5024B1B681B687A
:1044AC00019308BD3C02030008B5024B1B68DB6896
:1044BC00019308BD3C02030008B5024B1B681B6945
:1044CC00019308BD3C02030008B5024B1B685B69F5
:1044DC00019308BD3C02030008B5024B1B689B69A5
:1044EC00019308BD3C02030008B5024B1B68DB6955
:1044FC00019308BD3C02030008B5024B1B689B6A84
:10450C00019308BD3C02030008B5024B1B685B69B4
:10451C00019308BD6402030008B5024B1B689B683D
:10452C00019308BD4802030008B5024B1B681B69C8
:10453C00019308BD4802030008B5024B1B685B6978
:10454C00019308BD4802030008B5024B1B685B6C65
:10455C00019308BD4802030008B5024B1B689B6C15
:10456C00019308BD4802030008B5024B1B685B6849
:10457C00019308BD1802030008B5024B1B685B6968
:10458C00019308BD1802030008B5024B1B681B6899
:10459C00019308BD2C02030008B5024B1B689B68F5
:1045AC00019308BD6802030008B5024B1B68DB6869
:1045BC00019308BD6802030008B5024B1B68DB6B56
:1045CC00019308BD4402030008B5024B1B685B68ED
:1045DC00019308BD4002030008B5024B1B689B68A1
:1045EC00019308BD4002030008B5024B1B68DB6851
:1045FC00019308BD4002030008B5024B1B681B6900
:10460C00019308BD4002030008B5024B1B685B69AF
:10461C00019308BD4002030008B5024B1B689B695F
:10462C00019308BD4002030008B5024B1B68DB690F
:10463C00019308BD4002030008B5024B1B681B6ABE
:10464C00019308BD4002030008B5024B1B681B6BAD
:10465C00019308BD4002030008B5024B1B685B6B5D
:10466C00019308BD4002030008B5024B1B685B6850
:10467C00019308BD2002030008B5024B1B685B695F
:10468C00019308BD2002030008B5034B1B68D3F847
:10469C008830019308BD00002002030008B5034BCD
:1046AC001B68D3F89430019308BD0000200203006E
:1046BC0008B5024B1B681B68019308BD1C02030064
:1046CC0008B5024B1B685B68019308BD1C02030014
:1046DC0000231A464068FFF777BF0022022140688A
:1046EC00FFF782BF002211464068FFF775BF00221A
:1046FC0011464068FFF780BF00231A4619464068F0
:10470C00FFF782BF00231A4619464068FFF784BFA3
:10471C00002281F001014068FFF786BF002240684B
:10472C00FFF792BF002211464068FFF795BF0022A9
:10473C0011464068FFF780BF2DE9F043002495B087
:10474C0016460D46074600F0A9FA214620220CA871
:10475C00009401F096FC40230C9321466B460CAA66
:10476C003046FFF721FF0446002844D102460121C0
:10477C006868FFF741FF0221804622466868FFF710
:10478C003BFF009E81462146002E34D0002932D1B9
:10479C007368022B02D00A2B09D02AE0B8F1000F63
:1047AC0027D071693846043100F0A5FA20E0B9F140
:1047BC00000F1ED07469112201A801F062FC0623BF
:1047CC008DF8143001AD04F10803183418685968D9
:1047DC002A4603C20833A3421546F7D101A906A8FD
:1047EC0007AD00F069FA0FCD3C1D0FC42B68237088
:1047FC000121F669C8E70098FFF7CEFE384615B0E0
:10480C00BDE8F083024B034A1A6000225A607047DD
:10481C00DCE30320AC610D00002211464068FFF779
:10482C00EBBE002211464068FFF706BF002211467E
:10483C004068FFF711BF00224068FFF705BF002258
:10484C0081F001014068FFF7EFBE00231A461946BC
:10485C004068FFF7E1BE00231A4619464068FFF78F
:10486C00D3BE002211464068FFF7B6BE00220221DB
:10487C004068FFF7B9BE00231A464068FFF7A4BE94
:10488C00024B04225A60024A1A607047E4E3032088
:10489C00E0610D00002211464068FFF7CDBE0022FA
:1048AC0011464068FFF7D8BE00224068FFF7CCBE27
:1048BC00002281F001014068FFF7B6BE00231A46C2
:1048CC0001214068FFF7A8BE00231A46194640682C
:1048DC00FFF79ABE002211464068FFF78DBE0022FA
:1048EC0011464068FFF778BE002202214068FFF7AE
:1048FC007BBE00231A464068FFF766BE38B50546F6
:10490C0088B104684CB1A3681BB103222146204630
:10491C0098471021204600F03FFD28461421BDE8A1
:10492C00384000F039BD38BD10B103685B681847DA
:10493C00704710B503680446BBB15868FFF7ECFD2F
:10494C0078B923685A7C12B95868FFF7EDFD2368D3
:10495C005868FFF7F1FD20680023236028B1FFF7AA
:10496C00CDFF206808B1FFF7C9FF204610BD38B550
:10497C000446D0F8C40108B1FFF789FBD4F8C00194
:10498C0008B1FFF7E9FDD4F8BC5135B12846FFF763
:10499C00D0FF0421284600F0FFFC206808B1FFF787
:1049AC00C3FF204638BD000010B5044B044640F848
:1049BC00083BFFF7DCFF204610BD00BF14620D0062
:1049CC0038B50E4C0E4B23600025022304F5E47021
:1049DC006360A560C4F8C451C4F8C851FFF7B4FDB6
:1049EC00084BC4F8CC5184F8D05123602046064AB9
:1049FC000649BDE8384000F0C1BC00BFECE3032021
:104A0C00AC610D0014620D00D8E30320B5490D0014
:104A1C007047F8B5064615460C468F18BC4206D0B2
:104A2C00336814F8011B9B6830469847F6E7284614
:104A3C00F8BD0022007CFFF7F7BC0021007CFFF7DB
:104A4C00FBBC0021007CFFF7FFBC0021007CFFF7C2
:104A5C0003BD0021007CFFF707BD10B514210446EF
:104A6C0000F09AFC204610BD10B50446002363608C
:104A7C004FF47A73A360044B2174084623601146EB
:104A8C00FFF7FAFC204610BD48620D0000231A46C1
:104A9C001946007CFFF7B0BC70B50C4686B01425E7
:104AAC0006462A46002101A801F0EBFA23788DF87E
:104ABC00083063680393E36804930022237A307C04
:104ACC00ADF8045001A90593FFF7DEFC06B070BDEC
:104ADC001FB500338DF800104FF06401039118BF1F
:104AEC000123694601928DF80830FFF7D5FF05B018
:104AFC005DF804FB0123FFF7EBBF0022007CFFF7FE
:104B0C0083BCC9B2FFF7F9BF0022007CFFF784BC5D
:104B1C000121FFF7F9BF41747047704708B50021B8
:104B2C00007CFFF751FC30EA200028BF4FF0FF302B
:104B3C0008BD08B50121007CFFF746FC30EA2000D7
:104B4C0028BF4FF0FF3008BD08B5007CFFF734FCE0
:104B5C0020EAE07008BD08B5007CFFF725FC20EAD0
:104B6C00E07008BD007CFFF73FBC10B51421044673
:104B7C0000F012FC204610BD38B50446007C0D46F2
:104B8C00FFF71AFC002801DC607C28B12946207C48
:104B9C00FFF722FC20EAE07038BD000010B5044697
:104BAC00002363604FF47A73A360054B23600123E9
:104BBC000846217463741146FFF7E6FB204610BDCE
:104BCC0070620D000022007CFFF7E6BB10B51422CA
:104BDC000446002101F055FA204610BD30B50E4DAB
:104BEC0087B001A8FFF7F2FF296811F0010410D17A
:104BFC002846FFF74EFA60B101AA21460748FFF795
:104C0C00CDFF2846FFF74AFA054A0649034800F04B
:104C1C00B5FB024807B030BDC0E50320C4E5032056
:104C2C00D8E30320274B0D00704710B5182104461C
:104C3C0000F0B2FB204610BDF0B5037D062B8DB005
:104C4C000E4600F104074FF0000402D000F10805F5
:104C5C0018E00CAD394605F8304D2F232A460A20B2
:104C6C00FFF752FC284601F03DFA33680246DB6838
:104C7C002946304698470FE024B12E21304600F0EB
:104C8C0029F9044415F8011D0A22304600F03BF9BD
:104C9C00BD420444F0D120460DB0F0BD10B5054B1B
:104CAC000446112240F8043B002101F0EAF92046A9
:104CBC0010BD00BFA0620D000346074A10B543F8B3
:104CCC00042B01F1100251F8044B43F8044B9142B0
:104CDC00F9D10A781A7010BDA0620D0010B59DF8BC
:104CEC00084044EA032343EA024242EA01610423F6
:104CFC004160037510BD37B50D788B784A78C9784B
:104D0C0000912946FFF7EAFF03B030BD10B5836868
:104D1C00044613B1032201469847204610BD0021DA
:104D2C00FFF7AABC08B50C4B33B1FFF757FF03686C
:104D3C001B699847002809DC084B63B100F050FA56
:104D4C0003681B699847002803DC08BDAFF300809B
:104D5C00F2E7AFF3008008BD000000000000000087
:104D6C0008B5FFF7DFFFFFF707FC014B186008BD24
:104D7C0048E703200248034A0349121A01F076B9A6
:104D8C0000F4032004F40320D0640D0007B50023C5
:104D9C0000931A466FF07701FFF780FC03B05DF8C3
:104DAC0004FB000007B543880A2B08D0502B09D10F
:104DBC00094B1B683BB103B05DF804EB1847FFF7D8
:104DCC00E5FF06E0002300931A466FF07701FFF72A
:104DDC0065FC03B05DF804FBD8E5032038B5104C36
:104DEC00104D2368AB42104B0CBF012200221A70ED
:104DFC0002D0FFF7BFFF2560FFF7B6FB044601F0BA
:104E0C0049F90A4B13B12046AFF300800021074843
:104E1C00FFF7D2FB00210648BDE83840FFF734BC51
:104E2C0000F403201E1C279ADCE503200000000080
:104E3C00B14D0D0010B50446FFF768FF204610BDBC
:104E4C000348044A04490023836000F097BA00BF6A
:104E5C00E0E50320D8E30320414E0D00024B1A6815
:104E6C00024B1A60704700BF70E30320F0E503208B
:104E7C00014B024A1A607047F4E5032048630D00A9
:104E8C00F8B506460D468F180024BD420CD0336889
:104E9C0015F8011B9B6830469847002801DB044439
:104EAC00F3E7002C08BF04462046F8BD70B5054654
:104EBC000C46084649B101F015F92B68024621460B
:104ECC002846DB68BDE87040184770BD08B5FFF791
:104EDC00EDFF08BD03689B68184738B50D210546E2
:104EEC00FFF7F8FF0A2104462846FFF7F3FF20449A
:104EFC0038BD38B50546FFF7D9FF04462846FFF7FD
:104F0C00ECFF204438BD30B58BB00B4600218DF83A
:104F1C002410012A98BF0A220DF12304B3FBF2F5E9
:104F2C0005FB123303F0FF03092B94BF30333733E7
:104F3C00DBB2214604F801392B46002DEED1FFF7E8
:104F4C00B5FF0BB030BD00002DE9F04757EC106BEE
:104F5C0082460D4610EE102A3B4610EE100A3946DA
:104F6C0000F0C8FF08B14E4912E027F000494FF09D
:104F7C00FF324C4B3046494600F0BCFF68B94FF04D
:104F8C00FF32484B3046494600F096FF28B9464957
:104F9C005046FFF78BFFBDE8F0874FF06042434B64
:104FAC003046394600F09CFF08B14149F0E74FF01C
:104FBC006042404B3046394600F074FF0028F4D173
:104FCC00002200233046394600F06CFF40B12D2101
:104FDC005046FFF77FFF07F1004304461F4600E0F1
:104FEC00044635494FF0000800205FFA88F39D42D3
:104FFC0006D90022314B00F00DFE08F10108F4E750
:10500C0032463B4600F02AFB0F46064600F0B0FF46
:10501C000A22014680465046FFF775FF0444E5B36B
:10502C00404600F057FC02460B463046394600F02D
:10503C0013FB06460F4650462149FFF737FF044441
:10504C0000221E4B3046394600F0BAFC06460F468D
:10505C0000F066FFB0F1000907DA2D215046FFF78A
:10506C0039FFC9F10001804602E049464FF00008C3
:10507C000A225046FFF747FF40440444484600F0DC
:10508C0039FC02460B463046394600F0E5FA013D44
:10509C0015F0FF0506460F46D2D12046BDE8F08735
:1050AC00B4630D00FFFFEF7FBE630D00FFFFEF4108
:1050BC00B8630D00FFFFEFC10000E03F000024408B
:1050CC00BC630D0038B5C9B20546FFF73DFF044679
:1050DC002846FFF702FF204438BD38B5044610EED1
:1050EC00100A0D4600F018FC41EC100B2946204626
:1050FC00BDE83840FFF7E6BF10B50446006808B1BC
:10510C00FFF72AFA204610BD10B5064C00232046A6
:10511C002360FFF719FA2046034A0449BDE8104002
:10512C0000F02CB9F8E50320D8E3032005510D005D
:10513C0070474174704708B5007CFFF7DDF920EA31
:10514C00E07008BD08B5007CFFF7B6F920EAE07006
:10515C0008BD08B5007CFFF7BFF930EA200028BF76
:10516C004FF0FF3008BD08B5007CFFF7ADF930EA11
:10517C00200028BF4FF0FF3008BD007CFFF7B4B90A
:10518C0010B51421044600F007F9204610BD70B587
:10519C00457C04460E4625B9007CFFF7ADF9002886
:1051AC0005DD3146207CBDE87040FFF77DB928460F
:1051BC0070BD000010B5044608461146002262601E
:1051CC004FF47A72A260054A226001222074627444
:1051DC001A46FFF761F9204610BD00BFCC630D00E5
:1051EC0038B50C4D296811F0010411D12846FEF791
:1051FC0050FF68B1084A094B09482146FFF7DAFF0E
:10520C002846FEF74BFF074A0749054800F0B6F859
:10521C00034838BD94E6032098E6032010E60320EB
:10522C00FCE50320D8E303203D510D0010B50446E6
:10523C00006818B1FFF744FA0023236010BD10B5C5
:10524C000446FFF7F3FF204610BD000010B5094CD3
:10525C0000204FF6FF732060A080A0712081638135
:10526C00FFF702FA2046044A0449BDE8104000F05A
:10527C0085B800BF1CE70320D8E303204B520D0078
:10528C00002211464068FFF7D7B90022114640684A
:10529C00FFF7E2B900224068FFF7D6B9002281F08F
:1052AC0001014068FFF7C0B900231A46194640684F
:1052BC00FFF7B2B900231A4619464068FFF7A4B9A4
:1052CC00002211464068FFF797B90022114640684A
:1052DC00FFF782B9002202214068FFF785B900234D
:1052EC001A464068FFF770B9024B03225A60024A13
:1052FC001A60704728E70320FC630D0070B5044664
:10530C0014252A46094E002100F0BBFE25802025DD
:10531C003146A5602561284600F040F831466060B2
:10532C00284600F03BF8E060204670BD28640D0074
:10533C0030B50E4D296811F0010487B013D1284601
:10534C00FEF7A7FE78B101A8FFF7D8FF01AA214606
:10535C000748FFF789FB2846FEF7A0FE054A0649D9
:10536C00034800F00BF8024807B030BD30E70320CB
:10537C0034E70320D8E303201D4A0D000B460146F9
:10538C00184600F065BE0000024B1868BFF35F8F33
:10539C00704700BF4CE70320FEF777BE00F000B863
:1053AC0010B5002814BF044601242046FFF780F9ED
:1053BC0020B9FFF7E9FF08B18047F6E710BD000000
:1053CC00184B1A68D1075CBF01221A60164B1A6879
:1053DC00D2075CBF01221A60144B1A68D0075CBF5D
:1053EC0001221A60124B1A68D1075CBF01221A60A5
:1053FC00104B1A68D2075CBF01221A600E4B1A6858
:10540C00D0075CBF01221A600C4B1A68D1075CBF35
:10541C0001221A600A4B1A68D2075CBF01221A607B
:10542C00704700BF6CE7032068E7032064E70320A4
:10543C0060E703205CE7032058E7032054E70320D0
:10544C0050E70320244B1A68D0075CBF01221A6076
:10545C00224B1A68D1075CBF01221A60204B1A68D4
:10546C00D2075CBF01221A601E4B1A68D0075CBFC2
:10547C0001221A601C4B1A68D1075CBF01221A600A
:10548C001A4B1A68D2075CBF01221A60184B1A68B3
:10549C00D0075CBF01221A60164B1A68D1075CBF9B
:1054AC0001221A60144B1A68D2075CBF01221A60E1
:1054BC00124B1A68D0075CBF01221A60104B1A6895
:1054CC00D1075CBF01221A600E4B1A68D2075CBF71
:1054DC0001221A60704700BF9CE7032098E7032065
:1054EC0094E7032090E703208CE7032088E7032050
:1054FC0084E7032080E703207CE7032078E7032080
:10550C0074E7032070E70320244B1A68D0075CBFB4
:10551C0001221A60224B1A68D1075CBF01221A6063
:10552C00204B1A68D2075CBF01221A601E4B1A6806
:10553C00D0075CBF01221A601C4B1A68D1075CBFF4
:10554C0001221A601A4B1A68D2075CBF01221A603A
:10555C00184B1A68D0075CBF01221A60164B1A68E8
:10556C00D1075CBF01221A60144B1A68D2075CBFCA
:10557C0001221A60124B1A68D0075CBF01221A6014
:10558C00104B1A68D1075CBF01221A600E4B1A68C7
:10559C00D2075CBF01221A60704700BFCCE7032022
:1055AC00C8E70320C4E70320C0E70320BCE70320BF
:1055BC00B8E70320B4E70320B0E70320ACE70320EF
:1055CC00A8E70320A4E70320A0E70320184B1A68E0
:1055DC00D1075CBF01221A60164B1A68D2075CBF58
:1055EC0001221A60144B1A68D0075CBF01221A60A2
:1055FC00124B1A68D1075CBF01221A60104B1A6853
:10560C00D2075CBF01221A600E4B1A68D0075CBF30
:10561C0001221A600C4B1A68D1075CBF01221A6078
:10562C000A4B1A68D2075CBF01221A60704700BF90
:10563C00ECE70320E8E70320E4E70320E0E703209E
:10564C00DCE70320D8E70320D4E70320D0E70320CE
:10565C0081F0004102E000BF83F0004330B54FEA17
:10566C0041044FEA430594EA050F08BF90EA020F84
:10567C001FBF54EA000C55EA020C7FEA645C7FEA17
:10568C00655C00F0E2804FEA5454D4EB5555B8BF3A
:10569C006D420CDD2C4480EA020281EA030382EAAB
:1056AC00000083EA010180EA020281EA0303362D3D
:1056BC0088BF30BD11F0004F4FEA01314FF4801C10
:1056CC004CEA113102D0404261EB410113F0004F22
:1056DC004FEA03334CEA133302D0524263EB4303D9
:1056EC0094EA050F00F0A780A4F10104D5F1200E77
:1056FC000DDB02FA0EFC22FA05F2801841F10001D2
:10570C0003FA0EF2801843FA05F359410EE0A5F1A5
:10571C0020050EF1200E012A03FA0EFC28BF4CF0D6
:10572C00020C43FA05F3C01851EBE37101F000458C
:10573C0007D54FF0000EDCF1000C7EEB00006EEB99
:10574C000101B1F5801F1BD3B1F5001F0CD3490823
:10575C005FEA30004FEA3C0C04F101044FEA44527A
:10576C0012F5800F80F09A80BCF1004F08BF5FEA01
:10577C00500C50F1000041EB045141EA050130BDE1
:10578C005FEA4C0C404141EB010111F4801FA4F184
:10579C000104E9D191F0000F04BF01460020B1FAD9
:1057AC0081F308BF2033A3F10B03B3F120020CDA11
:1057BC000C3208DD02F1140CC2F10C0201FA0CF0EF
:1057CC0021FA02F10CE002F11402D8BFC2F1200C54
:1057DC0001FA02F120FA0CFCDCBF41EA0C0190400A
:1057EC00E41AA2BF01EB0451294330BD6FEA040453
:1057FC001F3C1CDA0C340EDC04F11404C4F120023E
:10580C0020FA04F001FA02F340EA030021FA04F34F
:10581C0045EA030130BDC4F10C04C4F1200220FAA6
:10582C0002F001FA04F340EA0300294630BD21FAE4
:10583C0004F0294630BD94F0000F83F4801306BFAA
:10584C0081F480110134013D4EE77FEA645C18BF9E
:10585C007FEA655C29D094EA050F08BF90EA020F35
:10586C0005D054EA000C04BF1946104630BD91EA2D
:10587C00030F1EBF0021002030BD5FEA545C05D130
:10588C004000494128BF41F0004130BD14F580046F
:10589C003CBF01F5801130BD01F0004545F0FE41E3
:1058AC0041F470014FF0000030BD7FEA645C1ABF18
:1058BC00194610467FEA655C1CBF0B46024650EA4F
:1058CC00013406BF52EA033591EA030F41F400217B
:1058DC0030BD00BF90F0000F04BF0021704730B501
:1058EC004FF4806404F132044FF000054FF00001D6
:1058FC0050E700BF90F0000F04BF0021704730B597
:10590C004FF4806404F1320410F0004548BF40426B
:10591C004FF000013EE700BF42004FEAE2014FEAC0
:10592C0031014FEA02701FBF12F07F4393F07F4F9B
:10593C0081F06051704792F0000F14BF93F07F4FCD
:10594C00704730B54FF4607401F0004521F0004110
:10595C0020E700BF50EA010208BF704730B54FF096
:10596C0000050AE050EA010208BF704730B511F09B
:10597C00004502D5404261EB41014FF4806404F1D3
:10598C0032045FEA915C3FF4DCAE4FF003025FEA55
:10599C00DC0C18BF03325FEADC0C18BF033202EBDD
:1059AC00DC02C2F1200300FA03FC20FA02F001FA37
:1059BC0003FE40EA0E0021FA02F11444C1E600BFD6
:1059CC0070B54FF0FF0C4CF4E06C1CEA11541DBF89
:1059DC001CEA135594EA0C0F95EA0C0F00F0DEF854
:1059EC002C4481EA030621EA4C5123EA4C5350EA39
:1059FC00013518BF52EA033541F4801143F480138A
:105A0C0038D0A0FB02CE4FF00005E1FB02E506F01A
:105A1C000042E0FB03E54FF00006E1FB03569CF06F
:105A2C00000F18BF4EF0010EA4F1FF04B6F5007F75
:105A3C0064F5407404D25FEA4E0E6D4146EB0606E7
:105A4C0042EAC62141EA55514FEAC52040EA5E5070
:105A5C004FEACE2EB4F1FD0C88BFBCF5E06F1ED81A
:105A6C00BEF1004F08BF5FEA500E50F1000041EB51
:105A7C00045170BD06F0004646EA010140EA0200FE
:105A8C0081EA0301B4EB5C04C2BFD4EB0C0541EA20
:105A9C00045170BD41F480114FF0000E013C00F335
:105AAC00AB8014F1360FDEBF002001F0004170BD59
:105ABC00C4F10004203C35DA0C341BDC04F1140472
:105ACC00C4F1200500FA05F320FA04F001FA05F2FE
:105ADC0040EA020001F0004221F0004110EBD370CB
:105AEC0021FA04F642EB06015EEA430E08BF20EAF7
:105AFC00D37070BDC4F10C04C4F1200500FA04F39A
:105B0C0020FA05F001FA04F240EA020001F000412B
:105B1C0010EBD37041F100015EEA430E08BF20EA9E
:105B2C00D37070BDC4F1200500FA05F24EEA020EE6
:105B3C0020FA04F301FA05F243EA020321FA04F015
:105B4C0001F0004121FA04F220EA020000EBD370CC
:105B5C005EEA430E08BF20EAD37070BD94F0000FCC
:105B6C000FD101F00046400041EB010111F4801F00
:105B7C0008BF013CF7D041EA060195F0000F18BFB1
:105B8C00704703F00046520043EB030313F4801FED
:105B9C0008BF013DF7D043EA0603704794EA0C0FA7
:105BAC000CEA135518BF95EA0C0F0CD050EA4106BD
:105BBC0018BF52EA4306D1D181EA030101F000413A
:105BCC004FF0000070BD50EA410606BF1046194662
:105BDC0052EA430619D094EA0C0F02D150EA01366E
:105BEC0013D195EA0C0F05D152EA03361CBF1046AF
:105BFC0019460AD181EA030101F0004141F0FE414E
:105C0C0041F470014FF0000070BD41F0FE4141F4D1
:105C1C00780170BD70B54FF0FF0C4CF4E06C1CEAD1
:105C2C0011541DBF1CEA135594EA0C0F95EA0C0F86
:105C3C0000F0A7F8A4EB050481EA030E52EA033541
:105C4C004FEA013100F088804FEA03334FF0805562
:105C5C0045EA131343EA12634FEA022245EA11158F
:105C6C0045EA10654FEA00260EF000419D4208BF40
:105C7C00964244F1FD0404F5407402D25B084FEAED
:105C8C003202B61A65EB03055B084FEA32024FF499
:105C9C0080104FF4002CB6EB020E75EB030E22BFF6
:105CAC00B61A754640EA0C005B084FEA3202B6EBB6
:105CBC00020E75EB030E22BFB61A754640EA5C0065
:105CCC005B084FEA3202B6EB020E75EB030E22BFF5
:105CDC00B61A754640EA9C005B084FEA3202B6EBF6
:105CEC00020E75EB030E22BFB61A754640EADC00B5
:105CFC0055EA060E18D04FEA051545EA16754FEA17
:105D0C0006164FEAC30343EA52734FEAC2025FEA34
:105D1C001C1CC0D111F4801F0BD141EA00014FF0C3
:105D2C0000004FF0004CB6E711F4801F04BF014394
:105D3C000020B4F1FD0C88BFBCF5E06F3FF6AFAEB0
:105D4C00B5EB030C04BFB6EB020C5FEA500C50F140
:105D5C00000041EB045170BD0EF0004E4EEA1131C3
:105D6C0014EB5C04C2BFD4EB0C0541EA045170BDCA
:105D7C0041F480114FF0000E013C90E645EA060E0E
:105D8C008DE60CEA135594EA0C0F08BF95EA0C0F3C
:105D9C003FF43BAF94EA0C0F0AD150EA01347FF484
:105DAC0034AF95EA0C0F7FF425AF104619462CE75B
:105DBC0095EA0C0F06D152EA03353FF4FDAE1046BE
:105DCC00194622E750EA410618BF52EA43067FF40F
:105DDC00C5AE50EA41047FF40DAF52EA43057FF49F
:105DEC00EBAE12E74FF0FF3C06E000BF4FF0010CAA
:105DFC0002E000BF4FF0010C4DF804CD4FEA410C0E
:105E0C007FEA6C5C4FEA430C18BF7FEA6C5C1BD0DA
:105E1C0001B050EA410C0CBF52EA430C91EA030F5B
:105E2C0002BF90EA020F0020704710F1000F91EAB8
:105E3C00030F58BF994208BF90422CBFD8176FEA86
:105E4C00E37040F0010070474FEA410C7FEA6C5C54
:105E5C0002D150EA013C07D14FEA430C7FEA6C5C5B
:105E6C00D6D152EA033CD3D05DF8040B704700BF87
:105E7C008446104662468C461946634600E000BFD5
:105E8C0001B5FFF7B7FF002848BF10F1000F01BDA7
:105E9C004DF808EDFFF7F4FF0CBF012000205DF872
:105EAC0008FB00BF4DF808EDFFF7EAFF34BF0120F7
:105EBC0000205DF808FB00BF4DF808EDFFF7E0FF90
:105ECC0094BF012000205DF808FB00BF4DF808EDE1
:105EDC00FFF7CEFF94BF012000205DF808FB00BF48
:105EEC004DF808EDFFF7C4FF34BF012000205DF82A
:105EFC0008FB00BF4FEA410C7FEA6C5C02D150EA10
:105F0C00013C0AD14FEA430C7FEA6C5C02D152EAA5
:105F1C00033C02D14FF0000070474FF00100704776
:105F2C004FEA410212F5001215D211D56FF47873B5
:105F3C00B3EB625212D94FEAC12343F0004343EA58
:105F4C00505311F0004F23FA02F018BF4042704733
:105F5C004FF00000704750EA013005D111F00040BD
:105F6C0008BF6FF0004070474FF00000704700BF53
:105F7C004A0011D212F5001211D20DD56FF47873BC
:105F8C00B3EB62520ED44FEAC12343F0004343EA11
:105F9C00505323FA02F070474FF00000704750EA5C
:105FAC00013002D14FF0FF3070474FF000007047C6
:105FBC004FEA4102B2F1E04324BFB3F5001CDCF11F
:105FCC00FE5C0DD901F0004C4FEAC0024CEA507057
:105FDC00B2F1004F40EB830008BF20F00100704786
:105FEC0011F0804F21D113F13872BCBF01F0004089
:105FFC00704741F480114FEA5252C2F11802C2F1BB
:10600C00200C10FA0CF320FA02F018BF40F001003B
:10601C004FEAC1234FEAD32303FA0CFC40EA0C00ED
:10602C0023FA02F34FEA4303CCE77FEA625307D12A
:10603C0050EA01331EBF4FF0FE4040F44000704761
:10604C0001F0004040F0FE4040F40000704700BFFB
:10605C0010B5054C13462CB10A4601460220AFF38D
:10606C00008010BD204610BD0000000010B5431E7E
:10607C000A44914204D011F8014B03F8014FF8E7A0
:10608C0010BD02440346934202D003F8011BFAE709
:10609C007047000038B5124B1C68A36B0546D3B98A
:1060AC001820FEF705FB43F20E33A06303804AF67B
:1060BC00CD33438041F2342383804EF26D63C38031
:1060CC004DF6EC630381052343810B23838101226D
:1060DC000023C0E90423A36B00221D615A6138BD63
:1060EC00D4E30320034613F8012B002AFBD1181A22
:1060FC00013870471D400D0059400D0085400D00C2
:10610C0089400D0000000000477265656E20436FEA
:10611C006C6F72204C756D696E616E6365203A20F0
:10612C000052656420436F6C6F72204C756D696E04
:10613C00616E6365203A2000426C756520436F6C7C
:10614C006F72204C756D696E616E6365203A20002C
:10615C00496E667261526564204C756D696E616E34
:10616C006365203A200050726F78696D69747920EC
:10617C006F662074686520646576696365203A20D3
:10618C0000496E697469616C697A696E6720544D57
:10619C0047333939330000000000000000000000D4
:1061AC00DD460D00E7460D00F1460D00FB460D00E7
:1061BC0005470D0011470D001D470D0029470D0027
:1061CC0031470D003B470D0045470D000000000016
:1061DC000000000083480D0079480D006F480D0049
:1061EC0025480D0063480D0057480D004B480D0025
:1061FC0043480D0039480D002F480D0045470D0050
:10620C000000000000000000FF480D00F5480D00E4
:10621C00EB480D00E1480D00D5480D00C9480D00B4
:10622C00BD480D00B5480D00AB480D00A1480D0050
:10623C0045470D0000000000000000001D4A0D0045
:10624C00674A0D003F4A0D001F4A0D00474A0D00DA
:10625C004F4A0D00574A0D005F4A0D000000000028
:10626C0000000000274B0D00774B0D00854B0D00F7
:10627C008D4E0D00634B0D00294B0D003F4B0D0057
:10628C00714B0D00554B0D00234B0D000000000011
:10629C0000000000454C0D00354C0D00374C0D0036
:1062AC005A00252B3033643A253032750025592D90
:1062BC00256D2D25645425483A254D3A2553257ACC
:1062CC000061736374696D65006261756400536588
:1062DC007269616C0053657269616C31007479701C
:1062EC006500706172616D00636D640069640068C3
:1062FC006E64007374726D0066696C74006C766CFD
:10630C000061646448616E646C65720072656D6FE7
:10631C00766548616E646C657200656E756D48617A
:10632C006E646C657273004A534F4E5374726561A0
:10633C006D4C6F6748616E646C65720061707000C3
:10634C00253031307520005D20002564002C2000A4
:10635C0028293A2000205B00636F6465203D2000F3
:10636C0025690064657461696C73203D20000D0A19
:10637C00006C6E00666E00636F646500646574612A
:10638C00696C006E6F6E6500747261636500696E96
:10639C00666F007761726E006572726F7200706169
:1063AC006E696300616C6C006E616E006F766600E6
:1063BC002E00696E66000000000000000000000066
:1063CC003D510D008D510D009B510D008D4E0D005A
:1063DC0051510D0073510D005F510D0087510D008F
:1063EC003F510D0043510D00000000000000000063
:1063FC00EB520D00E1520D00D7520D00CD520D00A5
:10640C00C1520D00B5520D00A9520D00A1520D0044
:10641C0097520D008D520D0045470D0000000000F5
:10642C000000000000000000000000000000000060
:10643C000000000000000000000000000000000050
:10644C000000000000000000000000000000000040
:10645C000000000000000000000000000000000030
:10646C000000000000000000000000000000000020
:10647C000000000000000000000000000000000010
:10648C00430000008F430D0011480D008D480D0096
:10649C00CD490D004D4E0D00694E0D007D4E0D0089
:1064AC0015510D0059520D00F5520D00CD530D0034
:1064BC0051540D0015550D00D9550D00000000006C
:0464CC0000000000CC
:0464D00000000000C8
:1064D400CD620D00000000002C640D004C640D0022
:1064E4006C640D00000000000000000000000000CB
:1064F400000000008C640D0000000000000000009B
:106504000000000000000000000000000000000087
:106514000000000000000000000000000000000077
:106524000000000000000000000000000000000067
:086534000000000074E30320E5
:10653C00FFFFFFFF00000102030405060708090A1C
:10654C000B0C0D0E0F101112131415161718191A17
:08655C001B1C1D1E1F2028005E
:04656400785634121F
:04000003D000401CCD
:00000001FF
