:02000002D0002C
:1040000000400D00F4760D00000006000C000501D4
:084010000401DE0500000000C0
:04401800F8700D002F
:10401C0009480A49884208B505D0094A824202D0AB
:10402C00121A03F020F80748074A0021121A03F06D
:10403C0025F8014808BD00BF7CDE032054760D0036
:10404C00F4DE0320F4DE0320F0E7032070B502F069
:10405C0023FA074C074BE41AA40800251E46A54278
:10406C0004D056F8253098470135F8E770BD00BFED
:10407C0048760D00D0750D0000F0B2B808B500F010
:10408C0027F9BDE8084002F0C9B901F061BF01F0A1
:10409C005FBF0078B0FA80F04009704701230370CD
:1040AC00704770477FB5024608461379956833B15F
:1040BC003DB90C4904B0BDE8704002F0E1B80A4BC0
:1040CC0000E00A4B167B0A4C0A49527B0292012EE5
:1040DC0008BF214601910095074A002102F013F90F
:1040EC0004B070BD41710D00D3730D0030710D0023
:1040FC0039710D003D710D0057710D00083000F045
:10410C0097BF10B52C21044602F034FE204610BD9A
:10411C0007B502AB012203F8011D0830194600F067
:10412C0087FF03B05DF804FB07B503468DE8060076
:10413C000348044A002102F0E6F803B05DF804FBE2
:10414C00F8DE032075710D0008B5044602F0A4FAE0
:10415C0094F8603405462BB31A4902F0B2F894F87F
:10416C006034202B03D11849284602F0AAF894F8A1
:10417C0060341BB31549284602F089F8102294F8D4
:10418C006014284602F09FF81149284602F07FF887
:10419C00102294F86914284602F095F8284602F08B
:1041AC007AF80BE0E3790BB90A4905E094F83C3452
:1041BC000BB9094900E0094902F083F801F05CFDF4
:1041CC00FCE700BF84710D00AB710D00DB710D00BD
:1041DC00EC710D00F0710D000D720D0028720D00C8
:1041EC0070B586B002F058FA4FF4165102F048FA46
:1041FC000021132002F0FCFC0021122002F0F8FC3C
:10420C000021022002F0F4FC274B00244FF47A70BA
:10421C001C7002F0C5F88DF80C408DF81540234C3D
:10422C00234B029304F58C66224B0493012502ABBD
:10423C000E2204F26C4130468DF8145001F040FA15
:10424C0070B3266004F23C4000F09CFE29462046E8
:10425C0001F0DFF8014640B1144C04F23C45214614
:10426C00284600F0BAFCD8B105E0204601F0D1F8A0
:10427C000028F1D114E094F83C3413F0700F0FD0F7
:10428C000D4B0E4A1D6012230093002113230C4882
:10429C0002F039F801F0D8FC0A4B186006B070BD7A
:1042AC000248FFF751FF00BF24DF032030DF03205B
:1042BC0014710D0080F0FA02BCE3032038720D007B
:1042CC00F8DE0320B4E303200A46002102F01BB8F9
:1042DC002DE9F04302208BB002F0B4FC554C0028C1
:1042EC0014BF01230023237046D002F0D5F95249A4
:1042FC00524DFFF7E9FF00260023504A50498DF834
:10430C00046001A88DF8056000F043FE98B16B794C
:10431C00392B02D001336B71EEE72B79392B04D09A
:10432C00302201336A712B71E6E702F0B5F9454989
:10433C0001F0BDFFFEE74449404A0968434840F696
:10434C00012300F026FE20B902F0A6F9404901F045
:10435C00AEFF02F0A1F9394B3E4A002101F0D3FF28
:10436C0001F072FC3C4B186001F06EFC3B4B18608A
:10437C004FF47A7002F014F8384D2F46384E2378EB
:10438C00002B53D02B6803F5434350332B6001F0C3
:10439C005BFC3B68C01A00283060F8DB01F054FC71
:1043AC002D4BDFF8D0801B68C01AC8F8000002F053
:1043BC0073F92C4901F064FF1320D8F8008002F047
:1043CC0054FC8146122002F050FC02464046DFF8B5
:1043DC00A8804946FFF7A8FE08F1080000F09CFDF4
:1043EC00F0B198F80930DB071AD4022002F02AFC4D
:1043FC0000280CBF012300232370C0D0134800F009
:10440C00C1FD02F049F91849FFF75EFF4FF4FA605D
:10441C0001F0C6FF02F040F91449FFF755FFADE774
:10442C0002F03AF91249FFF74FFFDEE70BB0BDE897
:10443C00F08300BF24DF032066720D007CDE0320B6
:10444C006CE303207E720D00BCE3032000DF03202D
:10445C0095720D009F720D00B8E30320B4E30320A6
:10446C002CDF03200B720D00B0720D00B7720D0023
:10447C00D1720D0028DF0320F8DE032038B5154C6F
:10448C0001F052FB642384F86034134BC4F870348D
:10449C000025012384F87434E57184F83C5484F8C5
:1044AC003D5484F86A54C4F8785484F87C5484F8E5
:1044BC007D5402F0F1FBC4F86C040848084B0572FB
:1044CC00457245600360074A0749BDE8384002F071
:1044DC0043BC00BF30DF032014710D00F8DE032055
:1044EC0020710D00F4DE0320AF400D0001F01CBB69
:1044FC0001F01ABB10B50446243000F07BFE28B145
:10450C0004F50C70BDE8104000F074BE10BD411EE7
:10451C0000F10A020020430843EAC01011F8013FE1
:10452C0053FA80F08A42C0B2F5D170472DE9F047BA
:10453C000378202B00F1010401D12046F8E7704FDD
:10454C00886005462C1A2E4615F8013B0BB32F2B11
:10455C0001D1031917E05C2B02D10020BDE8F087D4
:10456C00A3F12204E4B21D2C03D827FA04F4E407C7
:10457C00F3D403F0BF043C2CEFD0203B5E2BE1D9ED
:10458C00EBE72F2D05D11E4613F8015B202DF8D13A
:10459C00F9E7166003199842C0EB030809D013F829
:1045AC00012D2E2AF7D0202AF5D0B8F1FF0FD4DC3C
:1045BC0001E04FF00008C1F8048001F10C0301F197
:1045CC001702202403F8014F9342FBD103461A1A19
:1045DC0013F8014B2E2CFAD0202CF8D0B2FA82F41E
:1045EC00640908F1FF36731C07D100274FF0070E42
:1045FC003D46BA464FF0080909E0835D2E2BF4D0F6
:10460C00013EF0E7835C202B04D1002401324245AB
:10461C00F8DB4BE02E2B02D1B242F6D103E0222B79
:10462C0017D07C2B15D0A3F12A0CBCF1050F01D8A7
:10463C002D2B0ED1A3F13A0CBCF1050F09D9A3F126
:10464C005B0CBCF1020F04D9A3F1210CBCF15D0F82
:10465C0002D9B2420ED149E0B24247D0754521D8B9
:10466C00A3F1610CBCF1190F08D8203BDBB249EA6D
:10467C0007070AE0754515D800245F23A3F1410C08
:10468C00BCF1190F98BF49EA0A0A05F1010C5FFA4F
:10469C008CFC0D44BCF1060F6B7301D881F80CC077
:1046AC006546B3E7BEF10A0F17D100244B7B202BD4
:1046BC003FF453AF3CB11AEA070F18BF02270F7033
:1046CC000120BDE8F0870B7B0120087019447E2384
:1046DC004B7331238B73BDE8F087B242E5DC324675
:1046EC004FF00A0E08254FF010098EE7BEF10A0FA5
:1046FC00DBD032464FF00A0E08254FF0100985E743
:10470C00010100312DE9F84391F80C9006460D4655
:10471C0002247E2701F10D086968AA6863189BB210
:10472C001144914206D012F8010B03EB43134340A2
:10473C009BB2F6E7B9F1030F28BF4FF0030909F15B
:10474C000402D2B203F00F01A818013A0929D2B21F
:10475C0094BF30313731914541734FEA1313F1D384
:10476C0005EB090300215F73304600F01EFB0121AD
:10477C00304600F0FDFA014628B97078B0FA80F0A6
:10478C004009BDE8F88303784BB1C37A1B07EED41C
:10479C000B22404602F058FC0028E8D102E0012030
:1047AC00BDE8F8830134A4B2642CB5D1BDE8F8831C
:1047BC002DE9F04F9B460B7889B013F0700F0590E4
:1047CC000E46914601D10020A0E1059B1B78002BE1
:1047DC00F9D15368029313789B0700F08D81029BEB
:1047EC000D270C33B3FBF7F70137FFB2002130462E
:1047FC0000F0DBFA4FF0000809F10D02CDF80C8047
:10480C00434644464546CDF810800692726907939C
:10481C0001213046C2F34F1A00F0AAFA079B20B9C7
:10482C007378002B00F09080CDE70278E52A00D059
:10483C0042B9002C08BFD046BC423CBF0134E4B2A4
:10484C0022B981E0BC4238BF002403E0E52A01D143
:10485C000025DBE72E2AFBD0C17A0F2952D13DB9B6
:10486C005106D3D5437B039302F01F052B4607E07B
:10487C00013BDBB29A42EBD1427B03999142E7D1E7
:10488C005A1E4FF00D0C0CFB02FC029A6245DFD94C
:10489C004FF0000EBEF1040F5FFA8EF204D800EB5D
:1048AC004E02B2F801200CE00A2A95BF0EF1FF323D
:1048BC000EF1010200EB420200EB420294BFD288DF
:1048CC0092880299614503D1002A18BF00259DE703
:1048DC00FF2ABDD8D2B2A2F141011929D9F808108A
:1048EC0011F80C1098BF20320CF1010AA1F1410C07
:1048FC0098BFD2B2BCF1190F9CBF2031C9B2914202
:10490C00A6D1FBE00907A3D44DB1012B7FF45BAF1B
:10491C00FFF7FDFD039B83427FF455AF0FE00B22A5
:10492C000699079302F090FB079B00287FF46EAF6B
:10493C0099F80020D20702D50122049266E71BF4F5
:10494C00006F00F0D1803EE71BF4007F3FF43BAFDB
:10495C000BF00303013B012B3FF635AF002C08BFD6
:10496C00D046BC4202D3049BCBB91FE00021304699
:10497C0000F0FEF910B973785BB124E70134E4B2AE
:10498C00EFE7B3681B79012BEDD81034E4B2A742E2
:10499C00E9D9304600F0D2F80028F2D113E74946A5
:1049AC003046FFF7AFFE00283FF40DAF4FEA481139
:1049BC00304600F0FAF900283FF405AF7D1EEDB249
:1049CC002C464FF0000A4FF00F0841E00021304612
:1049DC0000F0CEF9074600283FF4F5AEB26892F825
:1049EC002430AC4243F0010382F824300CBF44F075
:1049FC0040022246027080F80B8080F80CA009F16E
:104A0C000D000392FFF783FD039A787387F81AA0C1
:104A1C0087F81BA002F01F020D23013AD9F808E019
:104A2C005A4300230299914215D91EF80210042B07
:104A3C005FFA83FC03F1010013D807EB4303A3F8DF
:104A4C0001100D2802F101020346EBD1013CE4B246
:104A5C00002CBBD10EE014BF4FF0FF31002189B206
:104A6C00E5E7BCF10A0F94BF07EB430307EB4003E8
:104A7C009980E6E7736921463046C3F34F1A00F07C
:104A8C0077F9074600283FF49EAE2022214602F01B
:104A9C00F5FA4B4653F80D2F3A605A687A601A892A
:104AAC003A819B7ABB7299F8003003F018033B7380
:104ABC00184B1B682BB107F10E0107F1100098473A
:104ACC0006E021233B7428237B740823BC73FB73FF
:104ADC003B8A7B823B83FB89FB82B26892F8243051
:104AEC0043F0010382F8243000955B465246314670
:104AFC00059800F0A3F909E0012777E60EF1010E05
:104B0C00BEF10D0F3FF482AED446C3E609B0BDE84A
:104B1C00F08F00BFC0E3032001F006B801F004B829
:104B2C0001F002B801F000B88378016943F0040386
:104B3C00837000F11002806800F012BC2DE9F04186
:104B4C00037803F02003044603F0FF050BB10026A5
:104B5C002EE04269184B9A42F9D8FFF7E5FF06465A
:104B6C000028F4D02169A06800F08FFB0746A068EC
:104B7C0005223946243000F064FB80460028E6D03C
:104B8C0029464FF4007202F079FA0125A3681A79CC
:104B9C00AA4209D94246E919186800F0CFFE00284C
:104BAC00D5D00135EDB2F1E7636903EB42236361C4
:104BBC003046BDE8F08100BFFFFD1F0010B5044674
:104BCC0080680A462430A16900F03BFB20B1A38821
:104BDC0003F00F0300EB431010BD70B504780546CD
:104BEC000E4684B92422214602F048FAAE60F379CD
:104BFC00102B03D0202B06D1402300E020230120D2
:104C0C002B70A87070BD002070BD2DE9F74F037894
:104C1C000446894615464BB18278D10706D50CE07F
:104C2C005A46216900F037FB00283DDA637843F0DF
:104C3C00020363704FF0FF3097E01A0703D5E36966
:104C4C0062699B1A07E09A0608D5A3681A896369FA
:104C5C00C3EB42139BB29D4228BF1D462E464FF01C
:104C6C00000804F1100B002E35D022786369A0687F
:104C7C0012F0200FC3F3080A4FEA532102D0036A43
:104C8C0019441DE090F8058001EA0808BAF1000FFC
:104C9C0010D1B8F1000F0DD1002BC1D153064CBF70
:104CAC00036A236A236105E004D1237813F0700FA3
:104CBC0011D1BBE72169A06800F0E7FA08EB00010D
:104CCC00A068BAF1000F35D1B6F5007F32D3C36AB4
:104CDC00994202D12EE0A81B47E0B6F5806F1BD39A
:104CEC00227897064FEA562A06D40279C8EB0202BC
:104CFC00D2B2924528BF924699424FEA4A2707D230
:104D0C00A06853464A46006800F0D6FD60B98DE7AE
:104D1C005344994221D3F3E74A46006800F084FDDE
:104D2C00002883D04FF4007763693B44B944636136
:104D3C00F61B98E70022243000F083FA00283FF499
:104D4C0075AFCAF50077B74228BF374600EB0A01AA
:104D5C003A46484602F087F9E6E72430019100F024
:104D6C0049FA01990028CBD160E703B0BDE8F08F78
:104D7C0037B54369C3F34315044605B169B901223C
:104D8C000DF107012046FFF740FF40B2012801D08A
:104D9C00002008E063691F3300E02033A0686361E2
:104DAC00303000EB451003B030BD2DE9F0410E461C
:104DBC00017807690446002939D04569B5423AD0D3
:104DCC000EB9066131E00B0703D5C3699E422ED89C
:104DDC0007E0880605D5A3681B89B6EB431F26D8C8
:104DEC0023E0D4F808E09EF806306A1E03F10900AF
:104DFC00731EC240C3409A4200D84DB94A064CBFFC
:104E0C00DEF82020226A22611D4604F110080AE017
:104E1C009B1AF9E742462169A06800F03CFA002889
:104E2C0005F1FF3503DD002DF4D1666103E0276148
:104E3C000020BDE8F0810120BDE8F081F8B50F46F7
:104E4C0015460021242204461E4602F017F9B868C4
:104E5C00A06005F00F02A58000F1300152013B6A01
:104E6C00E3601144CB7A1D074CD4831893F83B3084
:104E7C0003F017032370C97A11F0180F04BF43F025
:104E8C00080323709DF81830E37006F00303012B20
:104E9C0009D0022B05D0002B34D1710532D401235B
:104EAC0002E0032300E00223A370A1788B0703D553
:104EBC00237813F0110F25D14BB216F4005F06F0D6
:104ECC00080114BF6FF07F07002719433943A17005
:104EDC00C36AA36102447505B2F84410B2F84A30B3
:104EEC0043EA014104D581B100F075FA68B909E0D3
:104EFC002162D36CE36173040CD5E1692046FFF7A2
:104F0C0054FF38B900202070F8BDA37843F0040397
:104F1C00A370F0E70120F8BD38B5037804460BB94F
:104F2C00012038BD83785A0723D50121FFF746FEAF
:104F3C00054628B9637843F001036370002038BD3F
:104F4C000378E52BF6D023781B0744BFE369C361D4
:104F5C00238C4383638C8382094B1B682BB100F138
:104F6C001601183098472B8B6B82A37823F004031F
:104F7C00A370A068FFF7BEFA0028DBD0D0E700BF13
:104F8C00C0E3032010B50446FFF7C6FF00232370CF
:104F9C0010BDF0B593B01F4600238DF824308DF86A
:104FAC0025300378019206460C460BB100203DE0FB
:104FBC000B7813F0700FF9D013782F2B12D1019BB3
:104FCC001A782F2A02D101330193F8E7A1681AB994
:104FDC003046FFF702FE29E009A8FFF7FEFD002886
:104FEC00E4D009AC01AA03A90198FFF79FFA0028A5
:104FFC00DCD0019B1B789BB1002303AA21463046D1
:10500C00FFF7D6FB0028D1D035460FCD09AC0FC425
:10501C000FCD0FC42B6823603046FFF7B3FFE0E7DA
:10502C003B4603AA21463046FFF7C2FB13B0F0BD46
:10503C002DE9F0470378894619070446904608D5B0
:10504C0083789A0705D51B070BD5E169FFF7ADFEF1
:10505C0038B9637843F0010363704FF0FF30BDE85B
:10506C00F0876369DB439845F3D846464FF0000A56
:10507C006369002E00F08180A068427912EA532502
:10508C00C3F308071CD1DFB9216971B104F1100217
:10509C0000F001F90028DCDB40F08E802046FFF7A1
:1050AC0043FD002840F08880D3E7236A3BB92046B3
:1050BC00FFF73AFD0028CCD02369236200E023617E
:1050CC002169A06800F0E1F8291817B9B6F5007F3E
:1050DC0021D2C7F50075B54228BF354637B963698B
:1050EC00E269934234BF0122052200E00122A0684C
:1050FC00243000F0A6F80028ABD038442A464946A4
:10510C002F4401F0B0FFB7F5007F30D1A0682430F8
:10511C0000F070F817E0B6F5806FA06815D302792F
:10512C00521B730AD2B2934228BF1346C26A9142F1
:10513C004FEA432502D31A44914237D3A7684A4613
:10514C00386800F06DFC90B983E7C36A994202BFDE
:10515C004FF0FF3380F824A0C362A3684A46186856
:10516C0000F0ECFB00283FF474AF4FF4007563695A
:10517C002B446361A944761B7AE7E269934201D917
:10518C00E36102E00F4B1B681BB1A37843F00403EF
:10519C00A37094F90230002B02DB4046BDE8F08787
:1051AC002046FFF7B9FE0028F7D152E74FF0FF3247
:1051BC0080F824A0C262C1E72169A06800F065F8FC
:1051CC00014683E7C0E3032000F0AEBC70B5054692
:1051DC000C46084649B101F081FF2B680246214676
:1051EC002846DB68BDE87040184770BD00F09CBCD9
:1051FC0000F09ABC70B50378DA0704461ED54368F4
:10520C00816800F10C063246186800F097FB0546E1
:10521C0008B9002513E023789B0704D4237823F0E6
:10522C00010323700BE06368A068196932460144DE
:10523C00186800F083FB0028F0D1EAE70125284626
:10524C0070BD70B583688B4204460E46154614D06B
:10525C00FFF7D0FF08B9002070BD6B0703D5002302
:10526C002370A66009E0636804F10C0231461868EB
:10527C0000F0DAFA0028F2D1EDE72378204605F0A9
:10528C0003051D4300F80C5B70BD8379406902393E
:10529C00994008447047012970B505460C461646DE
:1052AC0002D84FF0FF3070BDC3699942F9D8C37969
:1052BC00202B10D18169022201EBD41100F50C7066
:1052CC00FFF7BFFF0028ECD004F07F0450F8243027
:1052DC0023F070430FE0102BE3D18369C1F3072156
:1052EC000222194400F50C70FFF7ABFF0028D8D050
:1052FC00E4B230F81430EA6993429ABF336001206B
:10530C00002070BD012938B50C46154601D8002087
:10531C0038BDC3699942FAD8C379202B0ED1816963
:10532C00032201EBD41100F50C70FFF78AFF002863
:10533C00EDD004F07F0440F824500FE0102BE6D1A0
:10534C008369C1F307210322194400F50C70FFF7A0
:10535C0078FF0028DBD0E4B220F81450012038BDCF
:10536C002DE9F341C4688C4205460E46904607D29F
:10537C000C460027EB6901349C4203D9CFB9EC6889
:10538C000127F7E7A64214D001AA21462846FFF7C9
:10539C0082FF00280DDBEDD0019B002BEAD107B179
:1053AC00EC606FF0704221462846FFF7ABFF0746D2
:1053BC0008B900270BE016B9C8F8004007E02246F0
:1053CC0031462846FFF79EFF0028F5D1F1E7384615
:1053DC0002B0BDE8F08173B505460C4601AA214622
:1053EC002846FFF758FF061E01DA00200FE00022C6
:1053FC0021462846FFF786FF0028F6D0EB689C4232
:10540C009CBF04F1FF34EC60019C002EE6D102B08D
:10541C0070BD70B5012304460022C3604FF0FF330A
:10542C00C2710D46A06280F82420C362C4F8340215
:10543C0080F83022C0F83832A1B104295DD8114669
:10544C002430FFF7FEFE002857D000EB051393F82D
:10545C00AE315B0651D11B3500EB0515D5F8065066
:10546C00002D4AD00022294604F12400FFF7E9FE62
:10547C00002842D0B0F80B30B3F5007F3DD1037C4F
:10548C00022B3AD1C389002B37D0417B21714B1EA3
:10549C0063710023A371092601238B4207D0013EBF
:1054AC002BD0A2795B000132DBB2A271F5E7C28A84
:1054BC0002B9426A2261C6892E44A661B0F8113045
:1054CC00238106EB42012162B0F81120520102F255
:1054DC00FF1201EB62226261B0F8133003B9036A68
:1054EC00AD1A2B44A57923FA05F56B1CE36140F644
:1054FC00F4739D4203D80C23E371002070BD4FF66A
:10550C00F4739D4285BFC36A236210232023E37189
:10551C00012070BD00F008BB00F006BB00F004BB1E
:10552C0070B50E4C0E46154600F08EFB2368C01A63
:10553C000B4B984208D900F08FFB0A4B186000F017
:10554C00EFFC00F081FB206000F086FB80B2801B3A
:10555C00A842D4BF0020012070BD00BFC4E30320CB
:10556C00A086010030E7032038B5057A04464DB912
:10557C00406800F07DFA63682946187D01F049FB0C
:10558C000123237238BD10B5037A04466BB143680E
:10559C000121187D01F03DFBFF21606800F09AFAB3
:1055AC00606800F079FA0023237210BDF8B5044648
:1055BC000D46164600F050FB87B2606800F06FFA9B
:1055CC00FF28607209D14FF47A7239462046FFF7F2
:1055DC00A7FF0028F1D055230BE0FE2801D0502363
:1055EC0007E032462946606800F05EFA607230B11E
:1055FC00602320462370FFF7C6FF0020F8BD6068CB
:10560C0000F04DFA606800F04AFA0120F8BD70B560
:10561C0004460E4600F020FB85B232462946204651
:10562C00FFF77EFF30B9606800F039FAFF28F4D13B
:10563C00012070BD002070BDF7B5037A01920446BD
:10564C000D460BB9FFF790FF25B14FF4967120462C
:10565C00FFF7DDFF45F04001606800F03BFA0DF10B
:10566C0007060DF1030716F80119606800F032FA0D
:10567C00BE42F8D1002D0CBF95218721606800F047
:10568C0029FA606800F00BFA0B25606800F007FA45
:10569C000306607203D5013D15F0FF05F5D103B08B
:1056AC00F0BD70B504460D46164637210022FFF7B3
:1056BC00C3FF324629462046BDE87040FFF7BCBF09
:1056CC002DE9F04100250572057085724160044694
:1056DC0090461E4600F0C0FA41460746606800F04E
:1056EC00CBF963684F4A1D724FF00108DA605D74A4
:1056FC0083F810802046FFF737FF63684146187D1A
:10570C0001F087FA0A25FF216068013D00F0E2F9FB
:10571C0015F0FF05F7D163682946187D01F079FA79
:10572C000A25002211462046FFF786FF01288046F5
:10573C0012D0013D15F0FF0501D1202357E0FD21CA
:10574C00606800F0C7F94FF40278606800F0A7F9C0
:10575C00B8F10108F9D1E4E74FF4D57208212046DD
:10576C00FFF76AFF052802D184F80A800FE00425B0
:10577C00606800F094F9013D15F0FF056072F7D1F7
:10578C00AA2802D10223A37201E025232FE0A37AD9
:10579C00022B0CBF4FF080450025BFB22A462921B1
:1057AC002046FFF77EFF024648B14FF4FA623946B5
:1057BC002046FFF7B5FE0028F0D0432317E0A37A6C
:1057CC00022B0ED02046FFF7DEFE6368B0683479FA
:1057DC00317B727B5A74D8601C7219740120BDE83D
:1057EC00F0813A212046FFF727FF38B137232046B6
:1057FC002370FFF7C8FE0020BDE8F081606800F060
:10580C004EF900F0C000C02804BF0323A3726068E7
:10581C0000F045F9606800F042F9606800F03FF96B
:10582C00D0E700BF90D0030038B5837A032B18BFA4
:10583C00490215460A4611210446FFF7FDFE10B138
:10584C00302323700BE029464FF400722046FFF7FB
:10585C00ADFE054618B12046FFF795FE03E0204645
:10586C00FFF791FE0025284638BD10B5837A032B2F
:10587C000A4618BF4A0212210446FFF7DDFE30B17A
:10588C00312320462370FFF77EFE002010BD01203F
:10589C0010BD10B500220C210446FFF7CDFE30B12F
:1058AC00282320462370FFF76EFE002010BD2046F3
:1058BC00FFF769FE012010BDF8B5054616461F46D8
:1058CC00FFF7D3FF98B10024A3B29F4206EB44210B
:1058DC0008D94FF400722846FFF768FE01340028FF
:1058EC00F2D104E02846BDE8F840FFF7D2BF002013
:1058FC00F8BD38B504461546406800F0EBF84FF497
:10590C0000722946606800F0E9F8FF21606800F039
:10591C00E1F8FF21606800F0DDF8606800F0BFF886
:10592C00607200F01F00052806D057232046237014
:10593C00FFF729FE002038BD012038BD70B5837AF1
:10594C00032B18BF490215460A4618210446FFF7D7
:10595C0073FE064608B132231DE02A46FE2120467E
:10596C00FFF7C7FFC0B14FF4FA612046FFF74FFEB7
:10597C00054608B95A230EE032460D212046FFF7A2
:10598C005BFE38B9606800F08AF818B92046FFF75A
:10599C00FAFD05E0292323702046FFF7F4FD0025CE
:1059AC00284670BD38B50D464FF4FA610446FFF732
:1059BC002EFE10B95B23237005E02A46FC212046FD
:1059CC00FFF797FF18B92046FFF7DDFD002038BD23
:1059DC0010B5837A032B0A4618BF4A0219210446D4
:1059EC00FFF72AFE30B1332320462370FFF7CBFD9F
:1059FC00002010BD012010BD38B54FF4FA610446EB
:105A0C00FFF705FE054620B1FD21606800F062F845
:105A1C0001E0562323702046FFF7B5FD284638BD1C
:105A2C00F8B5054616461F46FFF7D2FF70B10024A5
:105A3C00BC4206EB4421284604D0FFF7B3FF28B143
:105A4C000134F5E7BDE8F840FFF7D6BF2846FFF76D
:105A5C009AFD0020F8BD00F067B800F065B800F0C2
:105A6C0063B80000014B01221A707047C8E3032091
:105A7C00011D006800F000BB10B5044601750068FC
:105A8C0000F0D0FA207D012101F0B2F8207D012137
:105A9C00BDE8104001F0BDB8006800F0D4BAFF2199
:105AAC00006800F059BB000037B5084B0093002587
:105ABC00074C0068257013460A46294600F05FFB28
:105ACC002378002BFCD0002003B030BD715A0D00A0
:105ADC00C8E30320006800F03FBB000037B5074B5C
:105AEC0000930025064C0068257013462A4600F0EA
:105AFC0046FB2378002BFCD003B030BD715A0D004F
:105B0C00C8E3032000F010B808B5024B1B689B6873
:105B1C00019308BD6802030008B5024B1B68DB68E3
:105B2C00019308BD6802030008B5024B1B681B6893
:105B3C00019308BD2C02030008B5024B1B685B687F
:105B4C00019308BD2C02030008B5024B1B689B682F
:105B5C00019308BD2C02030008B5024B1B68DB68DF
:105B6C00019308BD2C02030008B5024B1B681B698E
:105B7C00019308BD2C02030008B5024B1B685B693E
:105B8C00019308BD2C02030008B5024B1B681B6B6C
:105B9C00019308BD2C02030008B5024B1B681B685F
:105BAC00019308BD3002030008B5024B1B685B690A
:105BBC00019308BD3002030008B5024B1B68DB697A
:105BCC00019308BD3002030008B5024B1B681B6A29
:105BDC00019308BD3002030008B5024B1B685B6AD9
:105BEC00019308BD3002030008B5024B1B689B6A89
:105BFC00019308BD3002030008B5024B1B689B6B78
:105C0C00019308BD3002030008B5024B1B68DB6B27
:105C1C00019308BD3002030008B5024B1B681B6CD6
:105C2C00019308BD3002030008B5024B1B685B6C86
:105C3C00019308BD3002030008B5024B1B685B687A
:105C4C00019308BD1802030008B5024B1B681B69C1
:105C5C00019308BD1802030008B5024B1B685B6971
:105C6C00019308BD1802030008B5024B1B689B6822
:105C7C00019308BD4802030008B5024B1B68DB68A2
:105C8C00019308BD4802030008B5024B1B681B6951
:105C9C00019308BD4802030008B5024B1B685B6901
:105CAC00019308BD4802030008B5024B1B685B6CEE
:105CBC00019308BD4802030008B5024B1B689B6C9E
:105CCC00019308BD4802030008B5024B1B685B69D1
:105CDC00019308BD6402030008B5024B1B681B68E6
:105CEC00019308BD3C02030008B5024B1B68DB683E
:105CFC00019308BD3C02030008B5024B1B681B69ED
:105D0C00019308BD3C02030008B5024B1B685B699C
:105D1C00019308BD3C02030008B5024B1B689B694C
:105D2C00019308BD3C02030008B5024B1B68DB69FC
:105D3C00019308BD3C02030008B5024B1B681B6AAB
:105D4C00019308BD3C02030008B5024B1B689B6A1B
:105D5C00019308BD3C02030008B5024B1B681B6A8B
:105D6C00019308BD2802030008B5024B1B685B6A4F
:105D7C00019308BD2802030008B5024B1B689B6AFF
:105D8C00019308BD2802030008B5024B1B68DB6AAF
:105D9C00019308BD2802030008B5024B1B681B6B5E
:105DAC00019308BD2802030008B5024B1B685B6B0E
:105DBC00019308BD2802030008B5024B1B681B6C3D
:105DCC00019308BD2802030008B5024B1B681B6831
:105DDC00019308BD4C02030008B5024B1B685B68BD
:105DEC00019308BD4C02030008B5024B1B681B69EC
:105DFC00019308BD4C02030008B5024B1B685B699C
:105E0C00019308BD4C02030008B5024B1B689B694B
:105E1C00019308BD4C02030008B5024B1B68DB69FB
:105E2C00019308BD4C02030008B5024B1B681B6AAA
:105E3C00019308BD4C02030008B5024B1B685B685C
:105E4C00019308BD2002030008B5024B1B685B6977
:105E5C00019308BD2002030008B5034B1B68D3F85F
:105E6C008830019308BD00002002030008B5034BE5
:105E7C001B68D3F89430019308BD00002002030086
:105E8C0008B5024B1B685B68019308BD4002030018
:105E9C0008B5024B1B689B68019308BD40020300C8
:105EAC0008B5024B1B68DB68019308BD4002030078
:105EBC0008B5024B1B681B69019308BD4002030027
:105ECC0008B5024B1B685B69019308BD40020300D7
:105EDC0008B5024B1B689B69019308BD4002030087
:105EEC0008B5024B1B68DB69019308BD4002030037
:105EFC0008B5024B1B681B6A019308BD40020300E6
:105F0C0008B5024B1B681B6B019308BD40020300D4
:105F1C0008B5024B1B685B6B019308BD4002030084
:105F2C0008B5024B1B689B68019308BD4402030033
:105F3C0008B5024B1B68DB6B019308BD44020300E0
:105F4C0008B5024B1B681B68019308BD1C020300BB
:105F5C0008B5024B1B685B68019308BD1C0203006B
:105F6C0008B5024B1B685B6A019308BD1C02030059
:105F7C00002211464068FFF7BBBF00221146406863
:105F8C00FFF7C6BF00224068FFF7BABF002281F0BE
:105F9C0001014068FFF7A4BF00231A461946406868
:105FAC00FFF796BF00231A4619464068FFF788BFD3
:105FBC00002211464068FFF77BBF00221146406863
:105FCC00FFF766BF002202214068FFF769BF00237C
:105FDC001A464068FFF754BF024B03225A60024A2C
:105FEC001A607047CCE30320E8720D00704710B5BF
:105FFC000C21044600F0BEFE204610BD0021FFF728
:10600C000BBE0021FFF710BE10B5054B0360044614
:10601C0001710846FFF7D0FD0023A360204610BD98
:10602C001C730D0010B504460079FFF7E7FF48B963
:10603C0020794FF6FF71FFF7AFFD2079BDE81040D6
:10604C00FFF7DFBF10BD0079FFF7DBBF400830B5AD
:10605C001860002418688842E5B206D90134082C6F
:10606C0002D040081860F5E70725024B5B5D137002
:10607C0030BD00BF24730D002DE9F04307468FB0EF
:10608C0000790E46FFF7BAFF002862DB3C79142238
:10609C00002109A800F0F2FF0B232046002209A9D9
:1060AC00ADF82430FFF798FD9DF82D4054B19DF8C4
:1060BC002C5035B9DDF830809DF834909DF8354082
:1060CC0003E00024A146A0460125337905B1BBB9F4
:1060DC009D420BD1B268424508D18DF820908DF8C5
:1060EC002140BDF82010B289914209D053B100244F
:1060FC00387901940094234622460121FFF784FD50
:10610C00002026E08DF80F30B1680A9804AB0DF131
:10611C000F02FFF79BFF317905B1B1B9A94208D045
:10612C00002438790194747B337B9DF80F20009404
:10613C00E4E7B3684345F3D38DF820908DF8214004
:10614C00BDF82020B3899A42EAD1049B4345E7D19C
:10615C00D6E70FB0BDE8F08338B5044600790D469C
:10616C00FFF74CFF40B929462079FFF71DFD054686
:10617C002079FFF746FF00E00025E8B238BD2DE995
:10618C00F04186B0044600790C9D0E4617469846A1
:10619C00FFF734FF90B92079009543463A463146D3
:1061AC00FFF722FD3DB902A92079FFF725FD9DF8E7
:1061BC001430DB07F7D42079FFF723FF06B0BDE8D6
:1061CC00F0810079FFF700BD10B50446006818B1E6
:1061DC00FFF7BEFE0023236010BD10B50446FFF789
:1061EC00F3FF204610BD000010B5094C00204FF6FF
:1061FC00FF732060A080A07120816381FFF71CFEDB
:10620C002046044A0449BDE8104000F0A5BD00BF7B
:10621C00D4E30320F4DE0320E7610D0010B504463F
:10622C00006808B1FFF748FD204610BD10B5064CBC
:10623C00002320462360FFF737FD2046034A04491C
:10624C00BDE8104000F088BDE0E30320F4DE03203D
:10625C0029620D00F8B506460D468F180024BD4284
:10626C000CD0336815F8011B9B6830469847002802
:10627C0001DB0444F3E7002C08BF04462046F8BDBC
:10628C0008B5FEF7A3FF08BD03689B68184708B55F
:10629C00FEF79CFF08BD38B50D210546FFF7F4FF4E
:1062AC000A2104462846FFF7EFFF204438BD38B5D5
:1062BC000546FEF78BFF04462846FFF7ECFF20440B
:1062CC0038BDFFF7F4BF30B58BB00B4600218DF80D
:1062DC002410012A98BF0A220DF12304B3FBF2F516
:1062EC0005FB123303F0FF03092B94BF3033373314
:1062FC00DBB2214604F801392B46002DEED1FEF716
:10630C0065FF0BB030BD0CB42DE9F04387B000AF86
:10631C0007F13804054654F8049B3C600E462346AE
:10632C004A461421381DFFF71BFE132805D8391DCA
:10633C002846FEF74BFF044613E000F1080323F058
:10634C000703E846ADEB030D411C23464A4668465D
:10635C003C60FFF705FE69462846FEF737FF04460A
:10636C00C5461EB12846FFF796FF044420461C374D
:10637C00BD46BDE8F04302B070470000014B024A35
:10638C001A607047E4E303209F730D00024B1A68F8
:10639C00024B1A60704700BF8CDE0320E8E3032039
:1063AC000021FFF751BD10B58368044613B10322D9
:1063BC0001469847204610BD10B50446FFF7F3FF81
:1063CC00204610BD0348044A04490023836000F0B2
:1063DC00C3BC00BFECE30320F4DE0320C5630D0057
:1063EC0008B50C4B33B100F057F903681B6998479B
:1063FC00002809DC084B63B100F0D0F903681B6975
:10640C009847002803DC08BDAFF30080F2E7AFF338
:10641C00008008BD000000000000000008B5FFF778
:10642C00DFFFFFF719FC014B186008BD30E70320B4
:10643C000248034A0349121A00F015BE00F4032067
:10644C0004F4032050760D0007B5002300931A4680
:10645C006FF07701FFF70AFD03B05DF804FB000055
:10646C0007B543880A2B08D0502B09D1094B1B6860
:10647C003BB103B05DF804EB1847FFF7E5FF06E00E
:10648C00002300931A466FF07701FFF7EFFC03B07F
:10649C005DF804FBFCE3032038B5104C104D236869
:1064AC00AB42104B0CBF012200221A7002D0FFF736
:1064BC00BFFF2560FFF7C0FB044600F0E7FD0A4B69
:1064CC0013B12046AFF3008000210748FFF730FDE1
:1064DC0000210648BDE83840FFF7BEBC00F403209D
:1064EC001E1C279A00E40320000000006D640D00C0
:1064FC00704710B51821044600F03CFC204610BD36
:10650C00F0B5037D062B8DB00E4600F104074FF05D
:10651C00000402D000F1080518E00CAD394605F86E
:10652C00304D2F232A460A20FFF7CEFB284600F0D9
:10653C00D5FD33680246DB682946304698470FE0A4
:10654C0024B12E213046FFF79FFE044415F8011D9F
:10655C000A223046FFF7B7FEBD420444F0D1204674
:10656C000DB0F0BD10B5054B0446112240F8043BAC
:10657C00002100F083FD204610BD00BF38740D00D3
:10658C000346074A10B543F8042B01F1100251F8E9
:10659C00044B43F8044B9142F9D10A781A7010BDA0
:1065AC0038740D0010B59DF8084044EA032343EA03
:1065BC00024242EA016104234160037510BD37B504
:1065CC000D788B784A78C97800912946FFF7EAFF55
:1065DC0003B030BD41747047704708B50021007C92
:1065EC00FFF712FC30EA200028BF4FF0FF3008BD47
:1065FC0008B50121007CFFF707FC30EA200028BF1A
:10660C004FF0FF3008BD08B5007CFFF7F5FB20EA22
:10661C00E07008BD08B5007CFFF7E6FB20EAE070EF
:10662C0008BD007CFFF700BC10B51421044600F037
:10663C00A1FB204610BD38B50446007C0D46FFF783
:10664C00DBFB002801DC607C28B12946207CFFF7AD
:10665C00E3FB20EAE07038BD10B50446002363600C
:10666C004FF47A73A360054B236001230846217411
:10667C0063741146FFF7A8FB204610BD4C740D0047
:10668C000022007CFFF7A8BB10B5142204460021A1
:10669C0000F0F4FC204610BD30B50E4D87B001A8BB
:1066AC00FFF7F2FF296811F0010410D12846FDF71D
:1066BC00F0FC60B101AA21460748FFF7CDFF284640
:1066CC00FDF7ECFC054A0649034800F045FB02487F
:1066DC0007B030BD04E4032008E40320F4DE0320FB
:1066EC00E5650D0070474174704708B5007CFFF7F5
:1066FC002BFB20EAE07008BD08B5007CFFF7FCFA24
:10670C0020EAE07008BD08B5007CFFF705FB30EA15
:10671C00200028BF4FF0FF3008BD08B5007CFFF704
:10672C00F3FA30EA200028BF4FF0FF3008BD007CA0
:10673C00FFF7FABA10B51421044600F01BFB2046F3
:10674C0010BD70B5457C04460E4625B9007CFFF79C
:10675C00FBFA002805DD3146207CBDE87040FFF7D0
:10676C00C3BA284670BD000010B504460846114651
:10677C00002262604FF47A72A260054A2260012204
:10678C00207462741A46FFF7A7FA204610BD00BFAA
:10679C007C740D00007CFFF7CFBA000038B50C4DAF
:1067AC00296811F0010411D12846FDF772FC68B17B
:1067BC00084A094B09482146FFF7D6FF2846FDF742
:1067CC006DFC074A0749054800F0C6FA034838BD76
:1067DC00B4E40320B8E4032030E403201CE40320D9
:1067EC00F4DE0320F1660D007047F8B50646154639
:1067FC000C468F18BC4206D0336814F8011B9B68FA
:10680C0030469847F6E72846F8BD0022007CFFF793
:10681C00A3BA0021007CFFF7A7BA0021007CFFF788
:10682C00ABBA0021007CFFF7AFBA0021007CFFF768
:10683C00B3BA10B51421044600F09CFA204610BDE2
:10684C0010B50446002363604FF47A73A360044BC5
:10685C002174084623601146FFF7AEFA204610BD9E
:10686C00AC740D000021007CFFF79EBA002211468B
:10687C004068FFF73DBB002211464068FFF748BB5C
:10688C0000224068FFF73CBB002281F00101406808
:10689C00FFF726BB00231A4601214068FFF718BBFF
:1068AC0000231A4619464068FFF70ABB002211461E
:1068BC004068FFF7FDBA002211464068FFF7E8BABE
:1068CC00002202214068FFF7EBBA00231A46406809
:1068DC00FFF7D6BA38B5054688B104684CB1A36841
:1068EC001BB103222146204698471021204600F078
:1068FC0041FA28461421BDE8384000F03BBA38BDB7
:10690C0010B103685B681847704710B503680446FC
:10691C00BBB15868FFF7A8F978B923685A7C12B94B
:10692C005868FFF7B1F923685868FFF7B5F9206884
:10693C000023236028B1FFF7CDFF206808B1FFF7D3
:10694C00C9FF204610BD38B50446D0F8C40108B1C3
:10695C00FDF79DFBD4F8C00108B1FFF7ADF9D4F8F1
:10696C00BC5135B12846FFF7D0FF0421284600F072
:10697C0001FA206808B1FFF7C3FF204638BD0000BC
:10698C0010B5044B044640F8083BFFF7DCFF2046EB
:10699C0010BD00BFD4740D0038B50E4C0E4B2360E7
:1069AC000025022304F5E4706360A560C4F8C451AB
:1069BC00C4F8C851FFF778F9084BC4F8CC5184F8E7
:1069CC00D05123602046064A0649BDE8384000F005
:1069DC00C3B900BF3CE503203C750D00D4740D0019
:1069EC00F4DE03208D690D00002211464068FFF78C
:1069FC005FBA002211464068FFF77ABA00221146AE
:106A0C004068FFF785BA00224068FFF779BA002288
:106A1C0081F001014068FFF763BA00231A4619465A
:106A2C004068FFF755BA00231A4619464068FFF72D
:106A3C0047BA002211464068FFF72ABA0022022109
:106A4C004068FFF72DBA00231A464068FFF718BAC2
:106A5C00024B04225A60024A1A60704710E7032066
:106A6C0008750D0000231A464068FFF709BA00228A
:106A7C0002214068FFF714BA002211464068FFF764
:106A8C0007BA002211464068FFF712BA00231A46D3
:106A9C0019464068FFF714BA00231A461946406895
:106AAC00FFF716BA002281F001014068FFF718BA0F
:106ABC0000224068FFF724BA002211464068FFF715
:106ACC0027BA002211464068FFF712BA2DE9F043AD
:106ADC00002495B016460D460746FFF743FD2146A8
:106AEC0020220CA8009400F0C9FA40230C932146F4
:106AFC006B460CAA3046FFF70FF80446002844D129
:106B0C00024601216868FFF7D3F90221804622462C
:106B1C006868FFF7CDF9009E81462146002E34D0DF
:106B2C00002932D17368022B02D00A2B09D02AE03B
:106B3C00B8F1000F27D0716938460431FFF73FFDDB
:106B4C0020E0B9F1000F1ED07469112201A800F0E9
:106B5C0095FA06238DF8143001AD04F108031834AE
:106B6C00186859682A4603C20833A3421546F7D160
:106B7C0001A906A807ADFFF703FD0FCD3C1D0FC4FF
:106B8C002B6823700121F669C8E70098FEF7BCFF5B
:106B9C00384615B0BDE8F083024B034A1A60002258
:106BAC005A60704718E703203C750D0010B5044679
:106BBC0000F072F8FFF705FB28B1A4F10B03022BD0
:106BCC0001D8002010BD00F0A1F8FFF74BFE08B172
:106BDC00012CF6D9FFF7E2FDFFF7DCFD18B1A4F1AB
:106BEC000903012BEDD9232C8CBF0020012010BDF3
:106BFC00232838B504460D460AD8FF2908D0FFF7DC
:106C0C00D5FF28B129462046BDE83840FEF79CBF89
:106C1C0038BD38B504460D46FEF79EFFFF2810D050
:106C2C00062804D84D2323FA00F0C30709D42046C4
:106C3C00FFF7BCFF28B129462046BDE83840FEF7D7
:106C4C0093BF38BD10B50446FEF786FF0438C0B2BA
:106C5C00012808D92046FFF7A9FF20B12046BDE83E
:106C6C001040FEF789BF002010BD0D2810B504465A
:106C7C009CBF0E34A4B22046FFF798FF50B10321FD
:106C8C002046FEF759FF032804D12046BDE81040EA
:106C9C00FEF77ABF002010BD38B50B4D296811F0F6
:106CAC0001040FD12846FDF7F4F958B121460748E5
:106CBC00FFF7AAF92846FDF7F1F9054A05490348FB
:106CCC0000F04AF8014838BD2CE7032020E70320E8
:106CDC00F4DE0320F95F0D0070B5044614252A4636
:106CEC00094E002100F0CAF9258020253146A56007
:106CFC002561284600F040F831466060284600F0D7
:106D0C003BF8E060204670BD68750D0030B50E4D47
:106D1C00296811F0010487B013D12846FDF7B9F9A1
:106D2C0078B101A8FFF7D8FF01AA21460748FFF761
:106D3C0087FD2846FDF7B2F9054A0649034800F0DD
:106D4C000BF8024807B030BD34E7032038E70320C6
:106D5C00F4DE0320F5670D000B460146184600F0E3
:106D6C0065B90000024B1868BFF35F8F704700BF16
:106D7C004CE70320FDF789B900F000B810B50028E6
:106D8C0014BF044601242046FFF7DAF820B9FFF7B8
:106D9C00E9FF08B18047F6E710BD0000184B1A68F0
:106DAC00D1075CBF01221A60164B1A68D2075CBF70
:106DBC0001221A60144B1A68D0075CBF01221A60BA
:106DCC00124B1A68D1075CBF01221A60104B1A686B
:106DDC00D2075CBF01221A600E4B1A68D0075CBF49
:106DEC0001221A600C4B1A68D1075CBF01221A6091
:106DFC000A4B1A68D2075CBF01221A60704700BFA9
:106E0C006CE7032068E7032064E7032060E70320B6
:106E1C005CE7032058E7032054E7032050E70320E6
:106E2C00244B1A68D0075CBF01221A60224B1A68E7
:106E3C00D1075CBF01221A60204B1A68D2075CBFD5
:106E4C0001221A601E4B1A68D0075CBF01221A601F
:106E5C001C4B1A68D1075CBF01221A601A4B1A68C6
:106E6C00D2075CBF01221A60184B1A68D0075CBFAE
:106E7C0001221A60164B1A68D1075CBF01221A60F6
:106E8C00144B1A68D2075CBF01221A60124B1A68A5
:106E9C00D0075CBF01221A60104B1A68D1075CBF87
:106EAC0001221A600E4B1A68D2075CBF01221A60CD
:106EBC00704700BF9CE7032098E7032094E703206A
:106ECC0090E703208CE7032088E7032084E7032066
:106EDC0080E703207CE7032078E7032074E7032096
:106EEC0070E70320244B1A68D0075CBF01221A609C
:106EFC00224B1A68D1075CBF01221A60204B1A681A
:106F0C00D2075CBF01221A601E4B1A68D0075CBF07
:106F1C0001221A601C4B1A68D1075CBF01221A604F
:106F2C001A4B1A68D2075CBF01221A60184B1A68F8
:106F3C00D0075CBF01221A60164B1A68D1075CBFE0
:106F4C0001221A60144B1A68D2075CBF01221A6026
:106F5C00124B1A68D0075CBF01221A60104B1A68DA
:106F6C00D1075CBF01221A600E4B1A68D2075CBFB6
:106F7C0001221A60704700BFCCE70320C8E703204A
:106F8C00C4E70320C0E70320BCE70320B8E70320D5
:106F9C00B4E70320B0E70320ACE70320A8E7032005
:106FAC00A4E70320A0E70320184B1A68D1075CBFA5
:106FBC0001221A60164B1A68D2075CBF01221A60B4
:106FCC00144B1A68D0075CBF01221A60124B1A6866
:106FDC00D1075CBF01221A60104B1A68D2075CBF44
:106FEC0001221A600E4B1A68D0075CBF01221A608E
:106FFC000C4B1A68D1075CBF01221A600A4B1A6845
:10700C00D2075CBF01221A60704700BFECE7032077
:10701C00E8E70320E4E70320E0E70320DCE70320B4
:10702C00D8E70320D4E70320D0E7032010B5054CA4
:10703C0013462CB10A4601460220AFF3008010BD66
:10704C00204610BD0000000010B5013902449042EA
:10705C0007D010F8013B11F8014FA342F7D0181BD1
:10706C0010BD002010BD10B5431E0A44914204D03F
:10707C0011F8014B03F8014FF8E710BD0244034629
:10708C00934202D003F8011BFAE7704738B5124B54
:10709C001C68A36B0546D3B91820FEF751FF43F2C9
:1070AC000E33A06303804AF6CD33438041F2342380
:1070BC0083804EF26D63C3804DF6EC630381052330
:1070CC0043810B23838101220023C0E90423A36B9A
:1070DC0000221D615A6138BDF0DE0320034613F80F
:1070EC00012B002AFBD1181A013870471D400D00E6
:1070FC0059400D0085400D0089400D000000000036
:10710C000000000000000000B1400D000000000075
:10711C0000000000AF400D000F410D001D410D009F
:10712C0009410D0064656661756C7420004D534215
:10713C00004C5342003C53504953657474696E675C
:10714C00732064656661756C743E003C5350495302
:10715C00657474696E6773202573256C75202573AF
:10716C00204D4F444525643E002569202C2025697F
:10717C00202C202569200A0043616E27742061634E
:10718C006365737320534420636172642E20446FD3
:10719C00206E6F74207265666F726D61742E004E76
:1071AC006F20636172642C2077726F6E6720636846
:1071BC0069702073656C6563742070696E2C206F28
:1071CC0072205350492070726F626C656D3F005392
:1071DC0044206572726F72436F64653A20305800B8
:1071EC002C305800496E76616C696420666F726D44
:1071FC0061742C207265666F726D61742053442E1D
:10720C000043616E2774206F70656E20726F6F740F
:10721C00206469726563746F72792E004E6F2065FD
:10722C0072726F7220666F756E642E0054696D6594
:10723C005374616D702C2044617461204368616EDD
:10724C006E656C2025692C20446174612043686153
:10725C006E6E656C202569200A0053746172746926
:10726C006E672044617461204C6F6767696E67209C
:10727C000A0043616E277420637265617465206631
:10728C00696C65206E616D650066696C652E6F704A
:10729C00656E004C6F6767696E6720746F3A2025C6
:1072AC0073200A00446F6E65200A00526561647990
:1072BC0020666F72206E6578742064617461206C36
:1072CC006F67200A007772697465206572726F723D
:1072DC00000000000000000000000000DB5F0D005B
:1072EC00D15F0D00C75F0D00BD5F0D00B15F0D00DC
:1072FC00A55F0D00995F0D00915F0D00875F0D007C
:10730C007D5F0D00D96A0D00000000000000000038
:10731C00F95F0D00FB5F0D000008101820283038B5
:10732C00626175640053657269616C0053657269C2
:10733C00616C31007479706500706172616D00630D
:10734C006D6400696400686E64007374726D00662D
:10735C00696C74006C766C0061646448616E646C7A
:10736C0065720072656D6F766548616E646C6572EE
:10737C0000656E756D48616E646C657273004A537E
:10738C004F4E53747265616D4C6F6748616E646CDF
:10739C0065720061707000253031307520005D2001
:1073AC00002564002C200028293A2000205B006373
:1073BC006F6465203D200025690064657461696C0B
:1073CC0073203D20000D0A0066006C6E00666E0096
:1073DC00636F64650064657461696C006E6F6E65E3
:1073EC0000747261636500696E666F007761726E1E
:1073FC000070616E696300616C6C005A00252B3063
:10740C0033643A253032750025592D256D2D2564B0
:10741C005425483A254D3A2553257A0061736374F7
:10742C00696D650000000000000000000D650D0096
:10743C00FD640D00FF640D00000000000000000062
:10744C00E5650D0035660D0043660D0061620D00AB
:10745C0021660D00E7650D00FD650D002F660D0022
:10746C0013660D00E1650D00000000000000000037
:10747C00F1660D0041670D004F670D0061620D0054
:10748C0005670D0027670D0013670D003B670D00A6
:10749C00F3660D00F7660D00000000000000000010
:1074AC00F5670D003F680D0017680D00F7670D00BC
:1074BC001F680D0027680D002F680D0037680D0040
:1074CC000000000000000000D7680D00CD680D0022
:1074DC00C3680D00B9680D00AD680D00A1680D0002
:1074EC0095680D008D680D0083680D0079680D009E
:1074FC00D96A0D000000000000000000536A0D0066
:10750C00496A0D003F6A0D00F5690D00336A0D00E4
:10751C00276A0D001B6A0D00136A0D00096A0D0025
:10752C00FF690D00D96A0D0000000000000000008A
:10753C00716A0D007B6A0D00856A0D008F6A0D0063
:10754C00996A0D00A56A0D00B16A0D00BD6A0D00A7
:10755C00C56A0D00CF6A0D00D96A0D00000000004D
:10756C00000000000000000000000000000000000F
:10757C0000000000000000000000000000000000FF
:10758C0000000000000000000000000000000000EF
:10759C0000000000000000000000000000000000DF
:1075AC0000000000000000000000000000000000CF
:1075BC0000000000000000000000000000000000BF
:1075CC004300000089440D00F9440D00FD440D00FA
:1075DC00254B0D00294B0D002D4B0D00314B0D0093
:1075EC00D5510D00F9510D00FD510D0021550D0027
:1075FC0025550D0029550D00635A0D00675A0D00D5
:10760C006B5A0D00115B0D00E55F0D00F5610D006F
:10761C0039620D0089630D0099630D00D1630D0073
:10762C00A5690D005D6A0D00A56B0D00A96D0D001F
:10763C002D6E0D00F16E0D00B56F0D0000000000F9
:04764C00000000003A
:047650000000000036
:107654004461746130302E637376000000000000D2
:1076640028740D00000000006C750D008C750D0071
:10767400AC750D00000000000000000000000000D8
:1076840000000000CC750D000000000000000000A8
:1076940000000000000000000000000000000000E6
:1076A40000000000000000000000000000000000D6
:1076B40000000000000000000000000000000000C6
:0876C4000000000090DE03202D
:1076CC00FFFFFFFF00000102030405060708090A7B
:1076DC000B0C0D0E0F101112131415161718191A76
:0876EC001B1C1D1E1F202800BD
:0476F400785634127E
:04000003D000401CCD
:00000001FF
