:02000002D0002C
:1040000000400D0014660D00000006000C000501C4
:084010000401DE0500000000C0
:04401800D05F0D0068
:10401C0009480A49884208B505D0094A824202D0AB
:10402C00121A01F07DFB0748074A0021121A01F011
:10403C0082FB014808BD00BF0CE3032034650D0072
:10404C00C4E30320C4E30320F0E7032070B500F0C1
:10405C00BBFD074C074BE41AA40800251E46A542DD
:10406C0004D056F8253098470135F8E770BD00BFED
:10407C0024650D00EC640D0000F020B808B500F0CC
:10408C00A9F8BDE8084000F061BD00F04FBA00F09F
:10409C004DBA0078B0FA80F04009704701230370E4
:1040AC00704708B5002000F09DF928B100F08AF99E
:1040BC0080F00100C0B208BD012008BD08B500F0B9
:1040CC0083FC4FF4165100F06DFC00F07DFC00F009
:1040DC0070FC0028F9D000F077FC0249BDE80840DC
:1040EC0000F06DBEE45F0D0070B592B0364903A8C8
:1040FC0001F013F8344907A801F00FF8B9EE080ADB
:10410C0000F0B0FD00F026F9064600F05BF910B1A6
:10411C00002000F05FF9FFF7C4FF10B900F04AF976
:10412C00F9E712AC0025FFF7BCFF44F81C5D2946EB
:10413C00204600F05FF986423DD800F0F2FD0146C2
:10414C00204600F0ABFD214603A801F016F82046EE
:10415C0000F09CFF13230B2203A9204601F02EF83C
:10416C00214607A801F009F8204600F08FFF00F067
:10417C002BFC039900F023FE00F026FC079900F0BD
:10418C001EFE2B461922214603A800F0FEFF2B46EB
:10419C000922694607A800F0F8FF00F015FC234639
:1041AC000A4A294600F035FE00F00EFC6B46084A20
:1041BC00294600F02EFE07A800F068FF03A800F0C7
:1041CC0065FF12B070BD00BFF2610D0007600D00FD
:1041DC0029600D0008B5FFF787FF4EF6602142F20B
:1041EC00107000F07EFBBDE8084000F08EBC00F0C3
:1041FC00C9B8000008B5024B1B681B68019308BDC9
:10420C004C02030008B5024B1B685B68019308BDA8
:10421C004C02030008B5024B1B681B69019308BDD7
:10422C004C02030008B5024B1B685B69019308BD87
:10423C004C02030008B5024B1B689B69019308BD37
:10424C004C02030008B5024B1B68DB69019308BDE7
:10425C004C02030008B5024B1B681B6A019308BD96
:10426C004C02030008B5024B1B685B6A019308BD46
:10427C004C02030008B5024B1B681B68019308BD78
:10428C003C02030008B5024B1B68DB68019308BDB8
:10429C003C02030008B5024B1B681B69019308BD67
:1042AC003C02030008B5024B1B685B69019308BD17
:1042BC003C02030008B5024B1B689B69019308BDC7
:1042CC003C02030008B5024B1B68DB69019308BD77
:1042DC003C02030008B5024B1B689B6A019308BDA6
:1042EC003C02030008B5024B1B685B69019308BDD7
:1042FC006402030008B5024B1B689B68019308BD60
:10430C004802030008B5024B1B681B69019308BDEA
:10431C004802030008B5024B1B685B69019308BD9A
:10432C004802030008B5024B1B685B6C019308BD87
:10433C004802030008B5024B1B689B6C019308BD37
:10434C004802030008B5024B1B685B68019308BD6B
:10435C001802030008B5024B1B685B69019308BD8A
:10436C001802030008B5024B1B68DB69019308BDFA
:10437C001802030008B5024B1B689B6D019308BD26
:10438C001802030008B5024B1B681B68019308BD9B
:10439C002C02030008B5024B1B689B68019308BDF7
:1043AC006802030008B5024B1B68DB68019308BD6B
:1043BC006802030008B5024B1B689B68019308BD9B
:1043CC004402030008B5024B1B685B69019308BDEE
:1043DC004402030008B5024B1B68DB6A019308BD5D
:1043EC004402030008B5024B1B681B6B019308BD0C
:1043FC004402030008B5024B1B685B6B019308BDBC
:10440C004402030008B5024B1B68DB6B019308BD2B
:10441C004402030008B5024B1B685B68019308BD9E
:10442C004002030008B5024B1B689B68019308BD52
:10443C004002030008B5024B1B68DB68019308BD02
:10444C004002030008B5024B1B681B69019308BDB1
:10445C004002030008B5024B1B685B69019308BD61
:10446C004002030008B5024B1B689B69019308BD11
:10447C004002030008B5024B1B68DB69019308BDC1
:10448C004002030008B5024B1B681B6A019308BD70
:10449C004002030008B5024B1B681B6B019308BD5F
:1044AC004002030008B5024B1B685B6B019308BD0F
:1044BC004002030008B5024B1B681B68019308BD42
:1044CC002002030008B5024B1B685B68019308BD12
:1044DC002002030008B5024B1B685B69019308BD01
:1044EC002002030008B5024B1B689B6D019308BDAD
:1044FC002002030008B5034B1B68D3F888300193E6
:10450C0008BD00002002030008B5034B1B68D3F85C
:10451C009430019308BD00002002030008B5024B43
:10452C001B681B68019308BD1C02030008B5024BF5
:10453C001B685B68019308BD1C02030008B5024BA5
:10454C001B689B68019308BD1C02030008B5024B55
:10455C001B681B69019308BD1C02030008B5024BC4
:10456C001B689B69019308BD1C02030008B5024B34
:10457C001B685B6A019308BD1C02030008B5024B63
:10458C001B681B6B019308BD1C02030000231A4619
:10459C004068FFF73FBF002202214068FFF74ABF87
:1045AC00002211464068FFF73DBF002211464068CB
:1045BC00FFF748BF00231A4619464068FFF74ABF69
:1045CC0000231A4619464068FFF74CBF002281F0C1
:1045DC0001014068FFF74EBF00224068FFF75ABF49
:1045EC00002211464068FFF75DBF0022114640686B
:1045FC00FFF748BF2DE9F043002495B016460D4651
:10460C00074600F041FA214620220CA8009401F044
:10461C0092F840230C9321466B460CAA3046FFF7C8
:10462C00C1FE0446002844D1024601216868FFF708
:10463C0009FF0221804622466868FFF703FF009EAF
:10464C0081462146002E34D0002932D17368022BCA
:10465C0002D00A2B09D02AE0B8F1000F27D07169DB
:10466C003846043100F03DFA20E0B9F1000F1ED0BD
:10467C007469112201A801F05EF806238DF814303C
:10468C0001AD04F108031834186859682A4603C2AE
:10469C000833A3421546F7D101A906A807AD00F0CF
:1046AC0001FA0FCD3C1D0FC42B6823700121F66954
:1046BC00C8E70098FFF76EFE384615B0BDE8F083EA
:1046CC00024B034A1A6000225A607047C8E3032069
:1046DC004C600D00002211464068FFF7B3BE00226B
:1046EC0011464068FFF7CEBE002211464068FFF726
:1046FC00D9BE00224068FFF7CDBE002281F0010137
:10470C004068FFF7B7BE00231A4619464068FFF70A
:10471C00A9BE00231A4619464068FFF79BBE00222B
:10472C0011464068FFF77EBE002202214068FFF769
:10473C0081BE00231A464068FFF76CBE024B042270
:10474C005A60024A1A607047D0E3032080600D0063
:10475C00002211464068FFF795BE002211464068C2
:10476C00FFF7A0BE00224068FFF794BE002281F044
:10477C0001014068FFF77EBE00231A460121406804
:10478C00FFF770BE00231A4619464068FFF762BE59
:10479C00002211464068FFF755BE002211464068C2
:1047AC00FFF740BE002202214068FFF743BE002302
:1047BC001A464068FFF72EBE38B5054688B1046826
:1047CC004CB1A3681BB10322214620469847102107
:1047DC00204600F018FD28461421BDE8384000F0B2
:1047EC0012BD38BD10B103685B681847704710B52F
:1047FC0003680446BBB15868FFF77CFD78B92368A1
:10480C005A7C12B95868FFF77DFD23685868FFF78A
:10481C0081FD20680023236028B1FFF7CDFF2068BD
:10482C0008B1FFF7C9FF204610BD38B50446D0F8D3
:10483C00C40108B1FFF72BFCD4F8C00108B1FFF795
:10484C0079FDD4F8BC5135B12846FFF7D0FF0421CF
:10485C00284600F0D8FC206808B1FFF7C3FF2046BB
:10486C0038BD000010B5044B044640F8083BFFF778
:10487C00DCFF204610BD00BFB4600D0038B50E4CF7
:10488C000E4B23600025022304F5E4706360A560E1
:10489C00C4F8C451C4F8C851FFF744FD084BC4F820
:1048AC00CC5184F8D05123602046064A0649BDE815
:1048BC00384000F0A3BC00BFD8E303204C600D00CF
:1048CC00B4600D00C4E3032071480D0010B504461C
:1048DC0030B100F061FF90FBF4F303FB140010BD4A
:1048EC0010BD884210B5044604DA081AFFF7EEFF33
:1048FC00204410BD10BD41747047704708B50021AD
:10490C00007CFFF797FC30EA200028BF4FF0FF3007
:10491C0008BD08B50121007CFFF78CFC30EA2000B3
:10492C0028BF4FF0FF3008BD08B5007CFFF77AFCBC
:10493C0020EAE07008BD08B5007CFFF76BFC20EAAC
:10494C00E07008BD007CFFF785BC10B5142104464F
:10495C0000F059FC204610BD38B50446007C0D46CD
:10496C00FFF760FC002801DC607C28B12946207C24
:10497C00FFF768FC20EAE07038BD000010B5044673
:10498C00002363604FF47A73A360054B236001230B
:10499C000846217463741146FFF72CFC204610BDA9
:1049AC00E8600D000022007CFFF72CBC007CFFF7B8
:1049BC0059BCFFF7FBBF10B514220446002100F0D0
:1049CC00BAFE204610BD000030B50E4D87B001A8D0
:1049DC00FFF7F1FF296811F0010410D12846FFF709
:1049EC0058FB60B101AA21460748FFF7C7FF2846CC
:1049FC00FFF754FB054A0649034800F0FFFB024849
:104A0C0007B030BDACE50320B0E50320C4E30320C0
:104A1C0007490D00704710B51821044600F0F3FB50
:104A2C00204610BDF0B5037D062B8DB00E4600F16F
:104A3C0004074FF0000402D000F1080518E00CAD9B
:104A4C00394605F8304D2F232A460A20FFF74AFC39
:104A5C00284600F0EDFE33680246DB6829463046F6
:104A6C0098470FE024B12E21304600F099F9044408
:104A7C0015F8011D0A22304600F0ABF9BD42044482
:104A8C00F0D120460DB0F0BD10B5054B04461122F7
:104A9C0040F8043B002100F04EFE204610BD00BF44
:104AAC0018610D000346074A10B543F8042B01F1B9
:104ABC00100251F8044B43F8044B9142F9D10A7897
:104ACC001A7010BD18610D0010B59DF8084044EA2D
:104ADC00032343EA024242EA016104234160037565
:104AEC0010BD37B50D788B784A78C9780091294676
:104AFC00FFF7EAFF03B030BD10B58368044613B16D
:104B0C00032201469847204610BD0021FFF7E2BC66
:104B1C0008B50C4B33B1FFF757FF03681B69984777
:104B2C00002809DC084B63B100F022FA03681B690A
:104B3C009847002803DC08BDAFF30080F2E7AFF321
:104B4C00008008BD000000000000000008B5FFF761
:104B5C00DFFFFFF7FFFB014B186008BD24E70320C4
:104B6C000248034A0349121A00F0DABD00F403208C
:104B7C0004F4032030650D0007B5002300931A469A
:104B8C006FF07701FFF7C0FC03B05DF804FB000089
:104B9C0007B543880A2B08D0502B09D1094B1B6849
:104BAC003BB103B05DF804EB1847FFF7E5FF06E0F7
:104BBC00002300931A466FF07701FFF7A5FC03B0B2
:104BCC005DF804FBC4E5032038B5104C104D236888
:104BDC00AB42104B0CBF012200221A7002D0FFF71F
:104BEC00BFFF2560FFF7AEFB044600F0ADFD0A4B9E
:104BFC0013B12046AFF3008000210748FFF702FCF9
:104C0C0000210648BDE83840FFF774BC00F40320CF
:104C1C001E1C279AC8E50320000000009D4B0D00C8
:104C2C0010B50446FFF768FF204610BD0348044A40
:104C3C0004490023836000F0E1BA00BFCCE50320F7
:104C4C00C4E303202D4C0D0008B50020FFF7CAFB70
:104C5C0028B1FFF7B7FB80F00100C0B208BD0120FE
:104C6C0008BD0000FAEE087AB4EEE70AF1EE10FA8D
:104C7C000FD4F2EE0C7AB4EEE70AF1EE10FA08DC7F
:104C8C00DFED047A044B20EE270ABDEEC00A83ED5B
:104C9C00000A704700006145E4E5032037B50E4B70
:104CAC001B6819440D4B1B68044602A8194440F8B4
:104CBC00041D00F03DFC00F0F1FB054600F0B8FDD2
:104CCC002844002300F8013C2946204600F025FA30
:104CDC00204603B030BD00BFE4E50320E0E503202F
:104CEC0010B50020FFF746FB044668B9FFF7E2FB5E
:104CFC0001280BD12046FFF7F5FB38B9FFF7A4FFCD
:104D0C0030B9FFF757FBF9E7012010BD002010BDAB
:104D1C00FFF79AFF0020FFF72DFB003018BF012092
:104D2C0010BD08B5FFF7DCFFBDE80840FFF71ABB64
:104D3C00024B1A68024B1A60704700BF0CE3032049
:104D4C00DCE50320014B024A1A607047E8E50320BA
:104D5C00BE610D00F8B506460D468F180024BD4205
:104D6C000CD0336815F8011B9B6830469847002817
:104D7C0001DB0444F3E7002C08BF04462046F8BDD1
:104D8C0070B505460C46084649B100F051FD2B683C
:104D9C00024621462846DB68BDE87040184770BDC6
:104DAC0003689B68184738B50D210546FFF7F8FFD7
:104DBC000A2104462846FFF7F3FF204438BD38B5D6
:104DCC000546FFF7DDFF04462846FFF7ECFF2044BD
:104DDC0038BD30B58BB00B4600218DF82410012A5C
:104DEC0098BF0A220DF12304B3FBF2F505FB123335
:104DFC0003F0FF03092B94BF30333733DBB221466A
:104E0C0004F801392B46002DEED1FFF7B9FF0BB09A
:104E1C0030BD0CB42DE9F04387B000AF07F1380476
:104E2C00054654F8049B3C600E4623464A46142122
:104E3C00381DFFF79BFB132805D8391D2846FFF7B3
:104E4C009FFF044613E000F1080323F00703E84634
:104E5C00ADEB030D411C23464A4668463C60FFF708
:104E6C0085FB69462846FFF78BFF0446C5461EB1F5
:104E7C002846FFF798FF044420461C37BD46BDE882
:104E8C00F04302B0704710B50446006808B1FFF754
:104E9C0051FA204610BD000010B5064C00232046E8
:104EAC002360FFF73FFA2046034A0449BDE810404F
:104EBC0000F0A4B9ECE50320C4E30320934E0D00ED
:104ECC0070474174704708B5007CFFF703FA20EA7D
:104EDC00E07008BD08B5007CFFF7DCF920EAE07053
:104EEC0008BD08B5007CFFF7E5F930EA200028BFC3
:104EFC004FF0FF3008BD08B5007CFFF7D3F930EA5E
:104F0C00200028BF4FF0FF3008BD007CFFF7DAB956
:104F1C0010B51421044600F076F9204610BD70B58A
:104F2C00457C04460E4625B9007CFFF7D3F90028D2
:104F3C0005DD3146207CBDE87040FFF7A3B928465B
:104F4C0070BD000010B50446084611460022626090
:104F5C004FF47A72A260054A2260012220746274B6
:104F6C001A46FFF787F9204610BD00BF34620D00CA
:104F7C0038B50C4D296811F0010411D12846FFF702
:104F8C0088F868B1084A094B09482146FFF7DAFF4F
:104F9C002846FFF783F8074A0749054800F02EF921
:104FAC00034838BD88E603208CE6032004E6032082
:104FBC00F0E50320C4E30320CD4E0D0010B50446EC
:104FCC00006818B1FFF7B2FA0023236010BD10B5CA
:104FDC000446FFF7F3FF204610BD000010B5094C46
:104FEC0000204FF6FF732060A080A07120816381A8
:104FFC00FFF768FA2046044A0449BDE8104000F067
:10500C00FDB800BF10E70320C4E30320DB4F0D0005
:10501C00002211464068FFF735BA0022114640685D
:10502C00FFF740BA00224068FFF734BA002281F043
:10503C0001014068FFF71EBA00231A461946406862
:10504C00FFF710BA00231A4619464068FFF702BA58
:10505C00002211464068FFF7F5B90022114640685E
:10506C00FFF7E0B9002202214068FFF7E3B9002303
:10507C001A464068FFF7CEB9024B03225A60024A27
:10508C001A6070471CE7032064620D0010B50446DB
:10509C000068FFF74BFA204610BD10B504460068B7
:1050AC0008B1FFF743FA00232360A360636010BDCF
:1050BC0038B504460D4600680131FFF73FFA10B1D0
:1050CC0084E82100012038BD10B50368044613B1F3
:1050DC0043688B4207D22046FFF7EAFF20B1A36852
:1050EC000BB922681370012010BD70B50E46114625
:1050FC0004461546FFF7E8FF18B92046FFF7CDFF29
:10510C0009E02A463146A560206800F009FB2268B8
:10511C00A3680021D154204670BD38B50023044645
:10512C0003604360836003730D4639B1084600F099
:10513C007FFB294602462046FFF7D7FF204638BDA5
:10514C0038B5054600680C4660B16A688B689A42AF
:10515C0006D3096800F064FBA368AB6000230AE087
:10516C00FFF7E4F923682B6063686B60A368AB609E
:10517C00002323606360A36038BD884210B50446E9
:10518C0001D0FFF7DDFF204610BD70B50E469AB179
:10519C0091B185689D4202D800230B7070BD541EDE
:1051AC00ED1A0168AC4228BF2C4619442246304601
:1051BC0000F05BFB0023335570BD0000F8B59A423C
:1051CC000F461D460C4988BF13461446064684BF3D
:1051DC002C461D46FFF7A1FFBA6894420AD83968DD
:1051EC00954294BFC4EB0502C4EB02022144304645
:1051FC00FFF77BFF3046F8BDF2610D000B46014610
:10520C00184600F087B9FEF740BF0000184B1A682B
:10521C00D1075CBF01221A60164B1A68D2075CBF1B
:10522C0001221A60144B1A68D0075CBF01221A6065
:10523C00124B1A68D1075CBF01221A60104B1A6816
:10524C00D2075CBF01221A600E4B1A68D0075CBFF4
:10525C0001221A600C4B1A68D1075CBF01221A603C
:10526C000A4B1A68D2075CBF01221A60704700BF54
:10527C0044E7032040E703203CE7032038E7032002
:10528C0034E7032030E703202CE7032028E7032032
:10529C00244B1A68D0075CBF01221A60224B1A6893
:1052AC00D1075CBF01221A60204B1A68D2075CBF81
:1052BC0001221A601E4B1A68D0075CBF01221A60CB
:1052CC001C4B1A68D1075CBF01221A601A4B1A6872
:1052DC00D2075CBF01221A60184B1A68D0075CBF5A
:1052EC0001221A60164B1A68D1075CBF01221A60A2
:1052FC00144B1A68D2075CBF01221A60124B1A6851
:10530C00D0075CBF01221A60104B1A68D1075CBF32
:10531C0001221A600E4B1A68D2075CBF01221A6078
:10532C00704700BF74E7032070E703206CE703208D
:10533C0068E7032064E7032060E703205CE70320B1
:10534C0058E7032054E7032050E703204CE70320E1
:10535C0048E70320244B1A68D0075CBF01221A606F
:10536C00224B1A68D1075CBF01221A60204B1A68C5
:10537C00D2075CBF01221A601E4B1A68D0075CBFB3
:10538C0001221A601C4B1A68D1075CBF01221A60FB
:10539C001A4B1A68D2075CBF01221A60184B1A68A4
:1053AC00D0075CBF01221A60164B1A68D1075CBF8C
:1053BC0001221A60144B1A68D2075CBF01221A60D2
:1053CC00124B1A68D0075CBF01221A60104B1A6886
:1053DC00D1075CBF01221A600E4B1A68D2075CBF62
:1053EC0001221A60704700BFA4E70320A0E7032046
:1053FC009CE7032098E7032094E7032090E7032021
:10540C008CE7032088E7032084E7032080E7032050
:10541C007CE7032078E70320184B1A68D1075CBFA0
:10542C0001221A60164B1A68D2075CBF01221A605F
:10543C00144B1A68D0075CBF01221A60124B1A6811
:10544C00D1075CBF01221A60104B1A68D2075CBFEF
:10545C0001221A600E4B1A68D0075CBF01221A6039
:10546C000C4B1A68D1075CBF01221A600A4B1A68F0
:10547C00D2075CBF01221A60704700BFC4E703204B
:10548C00C0E70320BCE70320B8E70320B4E7032000
:10549C00B0E70320ACE70320A8E70320094B70B565
:1054AC001C68256C06463DB91A20FFF737F81A22FE
:1054BC002064294600F03FF9216C3046BDE870406D
:1054CC0000F002B874E3032010B50C46416903697F
:1054DC00826986B001F26C71049101680391416894
:1054EC00029181680191C1680091074903EB430364
:1054FC000B44064902EB42020A4420460449FFF7DA
:10550C0025F8204606B010BDA5620D0090620D0076
:10551C00C9620D0010B5054C13462CB10A46014664
:10552C000220AFF3008010BD204610BD000000002B
:10553C0038B5074B1C68E36B05461BB92420FEF7F6
:10554C00EDFFE063E16B2846BDE8384000F002B89F
:10555C0074E303202DE9F0410C46804600F094FCE6
:10556C0021460746404600F093FC466906F26C76ED
:10557C00B307044605D1642296FBF2F302FB1363D6
:10558C004BB94FF4C87596FBF5F305FB1365B5FAEB
:10559C0085F35B0900E001235F4A302505FB0325F9
:1055AC0000F0A6FA00F0A6FA5C4B1B68F3B17B681E
:1055BC009E4205D13968D8F80030FA6941B90AE041
:1055CC00304600F0EDF90028F4D14FF0FF330DE038
:1055DC00934208DB01E0934207DABA6B9342ACBF0B
:1055EC000023012302E0002300E001232362236A4D
:1055FC00012B0CBFF96B396A4FF461633C2091FBB2
:10560C00F3F603FB1613616893FBF0F200FB123008
:10561C002368891AA26861601B1A921B3B2B2360BA
:10562C00A26003DD013161603C3B04E0002B03DA36
:10563C00013961603C33236063683B2B03DD01322D
:10564C00A2603C3B04E0002B03DA013AA2603C333D
:10565C006360A368172B22DDE2690132E261A26963
:10566C000132062AC8BF0022A261E268183B01324F
:10567C00A3602369E26055F823108A4246DD0133AA
:10568C000C2B0CBF63692361A2EB0102E26001BF2A
:10569C00013300222261636108BFE26136E0002B16
:1056AC0034DAE269013AE261A269013A48BF0622A2
:1056BC00A261E2681833013AE260A36032BB23694D
:1056CC00013B01D423611DE00B23236163695A1E46
:1056DC0012F0030F626103F26B7305D1642193FB2B
:1056EC00F1F201FB12324AB94FF4C87193FBF1F29B
:1056FC0001FB1233B3FA83F35B0900E0012303F5DA
:10570C00B673E361236955F82330E36000F0F1F9D7
:10571C002046BDE8F08100BF50640D00E4E7032093
:10572C0010B5431E0A44914204D011F8014B03F802
:10573C00014FF8E710BD02440346934202D003F830
:10574C00011BFAE77047000038B5124B1C68A36BBD
:10575C000546D3B91820FEF7E1FE43F20E33A063E1
:10576C0003804AF6CD33438041F2342383804EF2DA
:10577C006D63C3804DF6EC630381052343810B23DA
:10578C00838101220023C0E90423A36B00221D6145
:10579C005A6138BD74E30320194B10B51C68A36B18
:1057AC00D3B91820FEF7BAFE43F20E33A063038080
:1057BC004AF6CD33438041F2342383804EF26D633D
:1057CC00C3804DF6EC630381052343810B23838156
:1057DC0001220023C0E90423A16B0A4C0B69486920
:1057EC00094A5C4302FB0040A3FB02230132034441
:1057FC0043F10003C1E9042323F0004010BD00BFB6
:10580C0074E303202DF451582D7F954C10F8012B87
:10581C0011F8013B012A28BF9A42F7D0D01A7047E1
:10582C00034611F8012B03F8012B002AF9D170471C
:10583C00034613F8012B002AFBD1181A01387047C4
:10584C0030B582B1451E013915F8013F11F8014FF1
:10585C00A34206D1EC431444E04201D0002BF3D117
:10586C001C46181B30BD104630BD10B5034642B166
:10587C0011F8014B03F8014B013A002CF7D11A44F3
:10588C0000E010BD934202D003F8014BFAE710BDC3
:10589C002DE9F04780463C48D0F800900E4635463E
:1058AC0015F8014B09EB0400407800F0080000F0FB
:1058BC00FF0708B12E46F2E72D2C03D1B51C7478E6
:1058CC00012703E02B2C04BF7478B51C13B1102BEB
:1058DC000AD153E0302C4FD1287800F0DF00582843
:1058EC0045D16C78102302354FF0FF3C0026BCFBF1
:1058FC00F3FC03FB0CFA6FEA0A0A304609EB040EC0
:10590C009EF801E01EF0040F01D0303C0BE01EF0BD
:10591C00030E1AD0BEF1010F0CBF4FF0370E4FF033
:10592C00570ECEEB0404A3420FDD002E08DB6045BE
:10593C0006D801D1544503DC03FB0040012601E0ED
:10594C004FF0FF3615F8014BD8E7002E07DA22236B
:10595C00C8F800304FF0FF302AB9BDE8F08707B126
:10596C00404272B106B1691E1160BDE8F087302467
:10597C00002BB9D10823B7E70A23B5E7302CABD0FD
:10598C00B2E7BDE8F08700BF10E3032013460A46D8
:10599C00014602480068FFF77BBF00BF74E3032099
:1059AC002DE9F74F044600F06FFA40F2B1739C42B8
:1059BC0040F396806FF4F663E318A4F2B2729B1076
:1059CC0040F26D1505FB0235A4F26D726FF06303A6
:1059DC0092FBF3F36FF4C8622B44A5184FF4C87212
:1059EC0095FBF2F51D44642394FBF2F794FBF3F65C
:1059FC0002FB174703FB164600F13803B7FA87FE84
:105A0C00019304F0030344604FEA5E1E01460093C9
:105A1C004FF0070C0B7A4A2B0ED14B69009AEC18FD
:105A2C0002B906B927B93B2BD4BF0023012300E0F0
:105A3C0000232344013B3FE0442B02D14B692B4410
:105A4C003AE0009B2BB9002E0CBFF0464FF001083A
:105A5C0000E0F046244BCC68302202FB0838A8F159
:105A6C00040AA9460123A34204DA5AF804BF0133FD
:105A7C00D944F8E709F1040393FBFCFBCBEBCB0A0D
:105A8C00012CCAEB030A4B69B8BF012404F1804412
:105A9C00B3EB0A0A0B6904F1FF3403F1FF3348BF7F
:105AAC000AF1070AC3EBC30358F824405344A3423A
:105ABC0001DB073BFBE74B448C690C4A02FB0343BD
:105ACC000C6A234441F81C3F019B9942A2D1C36943
:105ADC00826B9342ACBF002301230360012000E0E2
:105AEC00002003B0BDE8F08F50640D008051010020
:105AFC0070477047014B186800F002B874E303203C
:105B0C002DE9F04F8DB0074600F0BEF9B049B14E0B
:105B1C000446384600F0B0F9054660B9AE4BAF4AC2
:105B2C001860AF4B1860AF4B30681A605A60FEF7C4
:105B3C00FDFC356048E1316879B93068FEF7F6FC58
:105B4C002846FFF775FE411C3846FEF717FD3060FE
:105B5C0048B12946FFF764FE05E0FFF757FE002821
:105B6C0000F03281E9E72B789F4AA0493A2B08BF15
:105B7C0001350AAE33462846FEF7F0FC002840F308
:105B8C0023810A9BEF18EB5C2D2B03D101374FF0CF
:105B9C00FF3503E02B2B08BF013701250DF1200A3F
:105BAC000DF11E0B4FF000080396CDF808A00196DE
:105BBC00CDF800B0334607AA8D49ADF81E803846A3
:105BCC00ADF82080FEF7CAFC404540F3FD80BDF8DF
:105BDC001E20BDF82030DFF824923C2101FB02335B
:105BEC00BDF81C204FF4616101FB02335D4325625B
:105BFC007C4D7D4B2B600A9B7C491F444A463346A7
:105C0C003846FEF7ABFC404508DC2B686B60724BEA
:105C1C00226A1A60724BC3F80080D5E00A9BC5F863
:105C2C000490FD18FB5C2D2B03D101354FF0FF3791
:105C3C0003E02B2B08BF013501270023ADF81C30E6
:105C4C00ADF81E30ADF820300A930396CDF808A0BD
:105C5C000196CDF800B0334607AA65492846FEF7F1
:105C6C007DFC002804DC236AA3F56163E3630EE08A
:105C7C00BDF81E20BDF820303C2101FB0233BDF8DD
:105C8C001C204FF4616101FB02335F43E7630A9B05
:105C9C0027461D444FF000092B782C2B08BF0135EB
:105CAC0095F80080B8F14D0F26D10DF12603029323
:105CBC0009AB00930396019633460DF122024D4930
:105CCC002846FEF74BFC03287ED1BDF822104B1E54
:105CDC000B2B79D8BDF82420531E042B74D8BDF897
:105CEC002630062B70D887F80880F9603A617B6102
:105CFC000A9B05EB03082AE0B8F14A0F06BF0135F1
:105D0C00434644230A220BA928460593FFF73EFE7F
:105D1C00DDF82C80ADF826004545059B14D14D23AC
:105D2C00B9F1000F07D123720323E360022323612F
:105D3C00C4F814900BE084F824300B23A3620123E5
:105D4C00E3620023236302E080B23B72786102239A
:105D5C00ADF81C300023ADF81E30ADF820300A939E
:105D6C0098F800302F2B0BD10396CDF808A0019694
:105D7C00CDF800B0334607AA1F494046FEF7EEFBAC
:105D8C00BDF81E20BDF820303C2101FB0233BDF8CC
:105D9C001C204FF4616101FB0233BB610A9D09F1C8
:105DAC000109B9F1020F454407F11C077FF474AFE8
:105DBC006068FFF7F5FD084B226A1A60E36B9B1ACB
:105DCC00074A18BF012313600DB0BDE8F08F00BF68
:105DDC00B0640D00E0E70320E8E70320B3640D0096
:105DEC00E4E7032078E30320D3E70320B7640D0036
:105DFC00DA640D00C6640D00D9640D00C8E70320F9
:105E0C002DE9F84F07468B46904600F0D9F8194B10
:105E1C001D689A463DB15C46234613F8012B42B1EE
:105E2C003D2A1C46F8D1384600F0CBF80020BDE8DE
:105E3C00F88FCBEB0404A94659F8040B0028F2D0D8
:105E4C0022465946FFF7FCFC88B959F8043C1E1948
:105E5C001B5D3D2B0BD1DAF80030ED1AAD10384636
:105E6C00C8F8005000F0ADF8701CBDE8F88F4D4636
:105E7C00E1E700BFC0E3032007B501AAFFF7C0FFAD
:105E8C0003B05DF804FB00000048704780E303207A
:105E9C000268474BF0B592FBF3F403FB1422002A83
:105EAC00BCBF02F5A83202F5C0724FF4616004F574
:105EBC002F2492FBF0F300FB13224FF03C00ACBFFD
:105ECC0004F66C2404F66B248B6092FBF0F300FB5D
:105EDC0013224B600A600723E21C92FBF3F3C3EB23
:105EEC00C303D31A8B61334B334D94FBF5F503FB92
:105EFC00054448F6AC62B4FBF2F2224440F2B457CB
:105F0C00B4FBF7F3D21A2D48B4FBF0F048F69466C4
:105F1C00131AB3FBF6F6344440F26D12B3FBF2F0F5
:105F2C00B3FBF7F3E31A02FB1033992403EB830260
:105F3C000232B2FBF4F20A2A04FB02F404F1020668
:105F4C004FF00504B6FBF4F434BF02266FF00906DB
:105F5C0016444FF4C87202FB05055F1C012E98BF56
:105F6C000135B3F5997FA7EB040702D3A3F599721A
:105F7C0014E0820705D16424B0FBF4F204FB120296
:105F8C004AB94FF4C872B0FBF2F402FB1400B0FA39
:105F9C0080F2520900E001223B331A44A5F26C75E1
:105FAC000023CA614D610E61CF600B620846F0BDE3
:105FBC00805101004FC5FDFFB13A0200B03A02001A
:105FCC00704770471D400D0059400D0085400D0075
:105FDC0089400D0000000000202D2D2D2D2D2D2D84
:105FEC002D20426567696E2054696D652053796E6A
:105FFC0063202D2D2D2D2D2D2D2D00546865206306
:10600C00757272656E74206461746520616E6420B3
:10601C0074696D65206973202573200A00546865C6
:10602C002063757272656E742074696D6520697376
:10603C00202573200A000000000000000000000072
:10604C0099450D00A3450D00AD450D00B7450D005C
:10605C00C1450D00CD450D00D9450D00E5450D00A0
:10606C00ED450D00F7450D0001460D000000000048
:10607C00000000003F470D0035470D002B470D0079
:10608C00E1460D001F470D0013470D0007470D009B
:10609C00FF460D00F5460D00EB460D0001460D00C8
:1060AC000000000000000000BB470D00B1470D00D0
:1060BC00A7470D009D470D0091470D0085470D002A
:1060CC0079470D0071470D0067470D005D470D00C6
:1060DC0001460D00000000000000000007490D0003
:1060EC0057490D0065490D00614D0D0043490D00E8
:1060FC0009490D001F490D0051490D0035490D008E
:10610C0003490D000000000000000000314A0D00A2
:10611C00214A0D00234A0D00252B3033643A2530DB
:10612C0032750025592D256D2D25645425483A25A9
:10613C004D3A2553257A0061736374696D6500626D
:10614C006175640053657269616C005365726961B5
:10615C006C31007479706500706172616D00636DF3
:10616C006400696400686E64007374726D00666923
:10617C006C74006C766C0061646448616E646C6570
:10618C00720072656D6F766548616E646C65720045
:10619C00656E756D48616E646C657273004A534F21
:1061AC004E53747265616D4C6F6748616E646C65BB
:1061BC00720061707000253031307520005D200058
:1061CC002564002C200028293A2000205B00636FF6
:1061DC006465203D200025690064657461696C73F9
:1061EC00203D20000D0A0066006C6E00666E006398
:1061FC006F64650064657461696C006E6F6E650038
:10620C00747261636500696E666F007761726E000F
:10621C006572726F720070616E696300616C6C0004
:10622C000000000000000000CD4E0D001D4F0D00C1
:10623C002B4F0D00614D0D00E14E0D00034F0D0075
:10624C00EF4E0D00174F0D00CF4E0D00D34E0D002D
:10625C0000000000000000007B500D0071500D008C
:10626C0067500D005D500D0051500D0045500D0054
:10627C0039500D0031500D0027500D001D500D00F0
:10628C0001460D0053756E4D6F6E54756557656400
:10629C005468754672695361744A616E4665624D05
:1062AC0061724170724D61794A756E4A756C4175B7
:1062BC00675365704F63744E6F76446563252E3358
:1062CC007320252E337325336420252E32643A2512
:1062DC002E32643A252E32642025640A00002020D8
:1062EC00202020202020202828282828202020207A
:1062FC00202020202020202020202020202088103A
:10630C001010101010101010101010101010040499
:10631C0004040404040404041010101010101041A0
:10632C004141414141010101010101010101010111
:10633C0001010101010101010110101010101042A6
:10634C0042424242420202020202020202020202E1
:10635C0002020202020202020210101010200000BF
:10636C000000000000000000000000000000000021
:10637C000000000000000000000000000000000011
:10638C000000000000000000000000000000000001
:10639C0000000000000000000000000000000000F1
:1063AC0000000000000000000000000000000000E1
:1063BC0000000000000000000000000000000000D1
:1063CC0000000000000000000000000000000000C1
:1063DC0000000000000000000000000000000000B1
:1063EC0000000000000000000000000000000000A1
:1063FC000000000000000000000000000000000091
:10640C000000000000000000000000000000000080
:10641C000000000000000000000000000000000070
:10642C000000000000000000000000000000000060
:10643C000000000000000000000000000000000050
:10644C00430000001F0000001C0000001F000000A3
:10645C001E0000001F0000001E0000001F000000B6
:10646C001F0000001E0000001F0000001E000000A6
:10647C001F0000001F0000001D0000001F00000096
:10648C001E0000001F0000001E0000001F00000086
:10649C001F0000001E0000001F0000001E00000076
:1064AC001F000000545A00474D54002531305B5EEC
:1064BC00302D392C2B2D5D256E004D256875256EE4
:1064CC002E256875256E2E256875256E002F25687E
:1064DC0075256E3A256875256E3A256875256E000A
:1064EC00FB410D00CD460D0049470D0089480D00BC
:1064FC00394C0D003D4D0D00514D0D00A54E0D00BC
:10650C00E94F0D0085500D0019520D009D520D00E4
:10651C0061530D0025540D00000000000000000028
:04652C00000000006B
:046530000000000067
:1065340043610D00E9620D0000000000EC630D00F2
:106544000C640D002C640D0000000000000000002D
:1065540000000000000000004C640D00000000007A
:106564000000000000000000000000000000000027
:106574000000000000000000000000000000000017
:106584000000000000000000000000000000000007
:10659400000000000000000014E30320B3640D00B9
:1065A400B3640D0001000000000000004A00000078
:1065B40000000000000000000000000000000000D7
:1065C40000000000000000004A000000000000007D
:1065D40000000000000000000000000000000000B7
:0865E40000000000ECE70320B9
:1065EC00FFFFFFFF00000102030405060708090A6C
:1065FC000B0C0D0E0F101112131415161718191A67
:08660C001B1C1D1E1F202800AD
:04661400785634126E
:04000003D000401CCD
:00000001FF
