:02000002D0002C
:1040000000400D00CC6E0D00000006000C00050104
:084010000401E80500000000B6
:04401800706A0D00BD
:1040200009480A49884208B505D0094A824202D0A7
:10403000121A02F0BDFC0748074A0021121A02F0CA
:10404000C2FC014808BD00BF58E303203C6E0D00D0
:10405000C0E30320C0E30320F0E7032070B500F0C5
:10406000EBFD074C074BE41AA40800251E46A542A9
:1040700004D056F8253098470135F8E770BD00BFE9
:10408000306E0D00F86D0D0000F015B808B500F0A9
:1040900023F8BDE8084000F091BD00F0B7BA00F089
:1040A000BDBA00F0BBBA0078B0FA80F040097047A2
:1040B00001230370704708B501F068FC01F076FA3F
:1040C00001F07EF94FF4165101F06EF94FF496703D
:1040D000BDE8084000F024BD2DE9F0418AB001F0B0
:1040E00055FC0422782101F095FA01F04FFC036899
:1040F000634C1B699847042817D101F047FC0368FB
:104100005B699847207001F041FC03685B69984740
:10411000607001F03BFC03685B699847A07001F098
:1041200035FC03685B699847E07063782078A27873
:10413000544E554D554F43EA0020E37843EA02249C
:10414000534B24B21C8000B2308001F003FF44A323
:10415000D3E9002301F0B0FD43A3D3E9002302F02B
:1041600089F802F017FA2860204601F0F3FE3CA31C
:10417000D3E9002301F0A0FD3DA3D3E9002302F021
:1041800079F80022434B444C01F096FD02F002FA0C
:10419000386001F0F1FE38A3D3E9002301F040FFBD
:1041A0003E4B002201F08AFD02F0F4F9206001F09C
:1041B00007F98046386801F0DFFE394ACDE9000191
:1041C0000021404600F05FFC01F0FAF80746206845
:1041D00001F0D2FE334ACDE900010021384600F05B
:1041E00052FC01F0EDF8B6F900300293044628685D
:1041F00001F0C2FE2C4ACDE900010021204600F06A
:1042000042FC062195ED000A06A800F08DFB274B25
:10421000069A1B788DF8003025493C2304A800F04D
:1042200079FE059C7CB16368013B63605BB92368E0
:1042300020469B689847A368013BA3601BB923688D
:104240002046DB68984706A800F016FB42F2107083
:1042500000F066FC0AB0BDE8F08100BFAFF300805B
:1042600000000000009AA940CDCCCCCCCC7AB44060
:104270002A419E12E4C96D40CDCCCCCCCCCCFC3FC5
:10428000D0E30320CEE30320C4E30320D8E30320DC
:10429000D4E3032000003940C8E30320000040407D
:1042A000846A0D00A46A0D00C76A0D00CCE30320E8
:1042B000F06A0D00024B00221A7000F013B800BF24
:1042C000CCE3032008B5024B1B689B68019308BD33
:1042D0006802030008B5024B1B68DB68019308BD48
:1042E0006802030008B5024B1B681B68019308BDF8
:1042F0002C02030008B5024B1B685B68019308BDE4
:104300001802030008B5024B1B685B69019308BDE6
:104310001802030008B5024B1B689B68019308BD97
:104320004802030008B5024B1B681B69019308BDD6
:104330004802030008B5024B1B685B69019308BD86
:104340004802030008B5024B1B685B6C019308BD73
:104350004802030008B5024B1B689B6C019308BD23
:104360004802030008B5024B1B685B69019308BD56
:104370006402030008B5024B1B681B68019308BD6B
:104380003C02030008B5024B1B68DB68019308BDC3
:104390003C02030008B5024B1B681B69019308BD72
:1043A0003C02030008B5024B1B685B69019308BD22
:1043B0003C02030008B5024B1B689B69019308BDD2
:1043C0003C02030008B5024B1B68DB69019308BD82
:1043D0003C02030008B5024B1B689B6A019308BDB1
:1043E0003C02030008B5024B1B68DB68019308BD63
:1043F0002802030008B5024B1B681B6A019308BD25
:104400002802030008B5024B1B685B6A019308BDD4
:104410002802030008B5024B1B689B6A019308BD84
:104420002802030008B5024B1B68DB6A019308BD34
:104430002802030008B5024B1B681B6B019308BDE3
:104440002802030008B5024B1B681B6C019308BDD2
:104450002802030008B5024B1B681B6D019308BDC1
:104460002802030008B5024B1B681B68019308BDB6
:104470004C02030008B5024B1B685B68019308BD42
:104480004C02030008B5024B1B681B69019308BD71
:104490004C02030008B5024B1B685B69019308BD21
:1044A0004C02030008B5024B1B689B69019308BDD1
:1044B0004C02030008B5024B1B68DB69019308BD81
:1044C0004C02030008B5024B1B681B6A019308BD30
:1044D0004C02030008B5024B1B685B68019308BDE2
:1044E0002002030008B5024B1B685B69019308BDFD
:1044F0002002030008B5024B1B68DB6C019308BD6A
:104500002002030008B5024B1B685B6D019308BDD8
:104510002002030008B5034B1B68D3F888300193D1
:1045200008BD00002002030008B5034B1B68D3F848
:104530009430019308BD00002002030008B5024B2F
:104540001B685B68019308BD4002030008B5024B7D
:104550001B689B68019308BD4002030008B5024B2D
:104560001B68DB68019308BD4002030008B5024BDD
:104570001B681B69019308BD4002030008B5024B8C
:104580001B685B69019308BD4002030008B5024B3C
:104590001B689B69019308BD4002030008B5024BEC
:1045A0001B68DB69019308BD4002030008B5024B9C
:1045B0001B681B6A019308BD4002030008B5024B4B
:1045C0001B681B6B019308BD4002030008B5024B3A
:1045D0001B685B6B019308BD4002030008B5024BEA
:1045E0001B685B69019308BD4402030008B5024BD8
:1045F0001B681B6A019308BD4402030008B5024B07
:104600001B68DB6B019308BD4402030008B5024B35
:104610001B681B68019308BD1C02030008B5024B10
:104620001B685B68019308BD1C02030008B5024BC0
:104630001B689B68019308BD1C02030008B5024B70
:104640001B685B6A019308BD1C02030008B5024B9E
:104650001B68DB6A019308BD1C02030008B5024B0E
:104660001B681B6B019308BD1C020300002211464E
:104670004068FFF79BBF002211464068FFF7A6BFC6
:1046800000224068FFF79ABF002281F001014068D4
:10469000FFF784BF00231A4619464068FFF776BF2C
:1046A00000231A4619464068FFF768BF00221146EA
:1046B0004068FFF75BBF002211464068FFF746BF26
:1046C000002202214068FFF749BF00231A464068D4
:1046D000FFF734BF024B03225A60024A1A60704748
:1046E000DCE30320046B0D0010B50446006818B12C
:1046F000FFF794FF0023236010BD10B50446FFF7B9
:10470000F3FF204610BD000010B5094C00204FF605
:10471000FF732060A080A07120816381FFF7DAFE23
:104720002046044A0449BDE8104001F055B900BFD5
:10473000E4E30320C0E30320FB460D0010B504466C
:1047400002F08DF9013823182046984206D20278EB
:10475000197800F8011B03F80129F6E710BD70B5C0
:104760000C46911E222920D82546294610B92344FB
:1047700030220EE0B0FBF2F602FB1600C1B205F8E3
:10478000011B092894BF3031573105F8011C304610
:10479000EBE7994202D201F8012BFAE70023204609
:1047A0000B70FFF7CBFF204670BD002070BD0000EE
:1047B0002DE9F14F59EC108B07460E4600220023DD
:1047C00010EE100A494601F09DFE28B109F10043A0
:1047D00099462D2333700136002301240A22D9B2D1
:1047E0008F4202D954430133F9E7204601F0B2FB6E
:1047F00042464B4601F014FC82468B4601F032FFE4
:104800008046894601F0D6FB02460B465046594683
:1048100001F052FA0022174B01F088FE18B118F18E
:10482000010849F10009E51722462B464046494652
:1048300001F000FF01230A223146FFF790FFAFB1DC
:10484000304602F00CF92E23335401300644224640
:104850002B464046494601F0EDFE3B4610463146A8
:104860000A2201B0BDE8F04FFFF779BF01B0BDE803
:10487000F08F00BF0000E03F10B504460068FFF76E
:10488000CDFE204610BD10B50446006808B1FFF704
:10489000C5FE00232360A360636010BD38B50446E5
:1048A0000D4600680131FFF7C1FE10B184E8210018
:1048B000012038BD10B50368044613B143688B422C
:1048C00007D22046FFF7EAFF20B1A3680BB92268A0
:1048D0001370012010BD70B50E46114604461546F2
:1048E000FFF7E8FF18B92046FFF7CDFF09E02A4699
:1048F0003146A560206802F05BF82268A3680021B9
:10490000D154204670BD38B505460C4641B1084625
:1049100002F0A5F8214602462846FFF7DCFF01E039
:10492000FFF7B1FF284638BD30B500238BB00360D8
:10493000436083600373044610EE100ACDB201F0A9
:104940001BFB41EC100B01A92846FFF731FF01A921
:104950002046FFF7D8FF20460BB030BD10B5044607
:10496000006808B1FFF7F6FC204610BD10B50368DB
:1049700004469B689847A368013BA3602BB9236852
:104980002046DB68BDE81040184710BD0B68036087
:1049900013B15A6801325A60704710B50446006876
:1049A00028B14368013B43600BB9FFF7DFFF2046A6
:1049B00010BD000010B5064C002320462360FFF711
:1049C000C1FC2046034A0449BDE8104001F004B888
:1049D000F0E30320C0E303205D490D00F8B506466F
:1049E0000D468F180024BD420CD0336815F8011B0A
:1049F0009B6830469847002801DB0444F3E7002C0D
:104A000008BF04462046F8BD70B505460C4608466A
:104A100049B102F024F82B68024621462846DB689B
:104A2000BDE87040184770BD03689B68184738B5EB
:104A30000D210546FFF7F8FF0A2104462846FFF737
:104A4000F3FF204438BD30B58BB00B4600218DF804
:104A50002410012A98BF0A220DF12304B3FBF2F5BA
:104A600005FB123303F0FF03092B94BF30333733B8
:104A7000DBB2214604F801392B46002DEED1FFF7B9
:104A8000C3FF0BB030BD0CB42DE9F04387B000AFCD
:104A900007F13804054654F8049B3C600E46234653
:104AA0004A461421381DFFF7C9FD132805D8391DC2
:104AB0002846FFF7A9FF044613E000F1080323F09E
:104AC0000703E846ADEB030D411C23464A46684602
:104AD0003C60FFF7B3FD69462846FFF795FF0446A3
:104AE000C5461EB12846FFF7A2FF044420461C37E6
:104AF000BD46BDE8F04302B070470000014B024ADA
:104B00001A607047F4E30320A36B0D00024B1A6890
:104B1000024B1A60704700BF58E30320F8E30320FC
:104B20000021FFF7DFBC10B58368044613B10322F0
:104B300001469847204610BD10B50446FFF7F3FF25
:104B4000204610BD13B50B46044603C88DE803008C
:104B500093E8030084E803009DE8030083E8030072
:104B600002B010BD0348044A04490023836000F0EA
:104B700033BF00BFFCE30320C0E30320394B0D002B
:104B800008B50C4B33B100F01BFC03681B69984758
:104B9000002809DC084B63B100F090FC03681B6936
:104BA0009847002803DC08BDAFF30080F2E7AFF3BD
:104BB000008008BD000000000000000008B5FFF7FD
:104BC000DFFFFFF79FFB014B186008BD30E70320B4
:104BD0000248034A0349121A01F0EABE00F4032016
:104BE00004F40320386E0D0007B5002300931A4625
:104BF0006FF07701FFF798FC03B05DF804FB00004D
:104C000007B543880A2B08D0502B09D1094B1B68E4
:104C10003BB103B05DF804EB1847FFF7E5FF06E092
:104C2000002300931A466FF07701FFF77DFC03B075
:104C30005DF804FB0CE4032038B5104C104D2368DC
:104C4000AB42104B0CBF012200221A7002D0FFF7BA
:104C5000BFFF2560FFF74EFB044601F0BDFE0A4B87
:104C600013B12046AFF3008000210748FFF7C6FCD0
:104C700000210648BDE83840FFF74CBC00F4032093
:104C80001E1C279A10E4032000000000014C0D00B8
:104C900070470020704710B51021044600F0AAFEAE
:104CA000204610BD08B508B1FFF7F5FF08BD00228A
:104CB000026010B54FF69C728280B1F90440848086
:104CC0008A8002680C6804600A6010BD10B5044652
:104CD0000068FFF7A3FC204610BD38B5C468F4B1E6
:104CE0002378022B03D104F10C00FFF7EFFF656876
:104CF00035B12846FFF717FF1021284600F07AFE4D
:104D0000A56835B12846FFF70EFF1021284600F0B0
:104D100071FE20461421BDE8384000F06BBE38BD5E
:104D200013B5044691E8050000234B600B6020603A
:104D3000626001A801930093FFF72FFE204602B0A6
:104D400010BDF7B50C4602AD54F8043B45F8083DDC
:104D500006460F4601A82146FFF718FE29463046B1
:104D6000FFF7DEFF01A8FFF718FE2046FFF715FE4C
:104D70003846082100F03EFE304603B0F0BD00008A
:104D800038B500230446036010200D46FFF785F96F
:104D900028B1012343608360024B0360C56020603B
:104DA000204638BD446C0D00826810B50AB900F089
:104DB00034FEC368BDE81040184708B5006800F12C
:104DC0001001FFF7F1FF08BD826810B50AB900F0C5
:104DD00024FEC368BDE81040184708B5006800F11C
:104DE0001001FFF7F1FF08BD38B5002383608B6821
:104DF00004460D462BB102229847EB68E360AB688E
:104E0000A360204638BD0000F0B589B0046868464C
:104E1000FFF74DFF00238DF808304FF00202D4E871
:104E20004F3F002B03D1C4E8412F0029F7D102D016
:104E30008DF8083063E014F10C0503D0694628466C
:104E4000FFF735FFBFF35F8F01236370002004F18C
:104E50000803BFF35F8F53E8006F43E80002002AA6
:104E6000F9D1BFF35F8F002E49D0FFF743FB20B18C
:104E700029463046FFF798FF3AE0314602A8FFF78F
:104E8000B3FFE068B4F9105008B101F0CDFD069011
:104E90001020ADF81C50FFF700F90546E8B10027D7
:104EA00087601820FFF7F9F8044688B1014687604B
:104EB00002A8FFF747FE049BA268A360059B04922B
:104EC00006A9E268E36004F110000592FFF7EFFE27
:104ED0000D4BEB600D4B2C60AB6006A8FFF7F6FEA8
:104EE00002A8FFF720FE002229460948FFF70AFB27
:104EF0003046FFF718FE1021304600F07BFD684673
:104F0000FFF7E4FE09B0F0BDBB4D0D0031500D00C0
:104F100009550D002DE9F04F8BB006460F4690461F
:104F200099469DF850A0FFF759FB07AD834630BB6B
:104F30004FF62E73059005A92846ADF81830FFF7F7
:104F4000B6FE1420FFF7A9F8044658B102230370F7
:104F500001234370C0F804B0C0F808B029460C30F3
:104F6000FFF7A5FE3046214640F8044BFFF708FF47
:104F70002846FFF7ABFE05A8FFF7A8FE52E0002485
:104F80000C2314206C60AC600793FFF786F8014691
:104F900018B1047044704460846004A80391FFF762
:104FA000EFFE224B08930820FFF777F8044628B15C
:104FB000039B40F8043B04A9FFF7E8FC00955FFA67
:104FC0008AF34A46414638460994FFF70FFB20B959
:104FD000039B5B7803F0FF0283B1039B059304A955
:104FE00006A8FFF7D3FC05A93046FFF799FE06A8EF
:104FF000FFF7D3FC04A8FFF7D0FC13E04FF69C7337
:1050000005A903A80592ADF81830FFF7FDFE05A825
:10501000FFF75CFE05A80999FFF793FE06A8FFF7C6
:10502000BCFCDAE730460BB0BDE8F08FA1510D00B3
:10503000022AF8B5044606D0032A17D0012A22D145
:105040000B6803601FE018200E68FFF726F805467E
:1050500050B13146FFF7C8FE3069B6F9147008B197
:1050600001F0E2FC2861AF8225600CE0046854B1D5
:1050700004F11000FFF72AFE2046FFF754FD182127
:10508000204600F0B7FC0020F8BD38B5002383604F
:105090008B6804460D462BB102229847EB68E3600B
:1050A000AB68A360204638BD022A70B5044606D01E
:1050B000032A11D0012A18D10B68036015E01420CF
:1050C0000E68FEF7EAFF054620B13146FFF7DDFF27
:1050D000337C2B74256008E0046834B12046FFF768
:1050E00022FD1421204600F085FC002070BD000048
:1050F000F0B5002387B00C46BFF35F8F50E8006F18
:1051000040E80032002AF9D1BFF35F8F002E3FD074
:105110001846FFF7EFF9074620B121463046FFF762
:1051200053FE2EE0314601A8FFF7AFFF23788DF83C
:1051300014301020FEF7B1FF0546D0B1876014206F
:10514000FEF7ABFF044678B18760014601A8FFF780
:10515000F9FC039BA268A360049B0392E268E360EE
:105160009DF81430049223740A4BEB600A4B2C60B8
:10517000AB6001A8FFF7D7FC002229460748FFF7DC
:10518000C1F93046FFF7CFFC1021304600F032FC69
:1051900007B0F0BDDB4D0D00A9500D0009550D0005
:1051A00030B585B004460D4668461146FFF7C9FD87
:1051B0007CB124B228460DB101F036FC029002A960
:1051C0006846ADF80C40FFF71FFE02A8FFF77EFD12
:1051D0001DE000988DF808404FF00102D0E84F3FE5
:1051E000A34203D1C0E8412F0029F7D102D08DF8A6
:1051F00008300CE010F10C014FF0010318BF0373ED
:10520000BFF35F8F043000F8033CFFF771FF01A884
:10521000FFF7C3FB05B030BD704710B51821044639
:1052200000F0E8FB204610BDF0B5037D062B8DB0E5
:105230000E4600F104074FF0000402D000F108050B
:1052400018E00CAD394605F8304D2F232A460A20C8
:10525000FFF788F8284601F002FC33680246DB6855
:105260002946304698470FE024B12E213046FFF7FB
:10527000DBFB044415F8011D0A223046FFF7E3FB6F
:10528000BD420444F0D120460DB0F0BD10B5054B31
:105290000446112240F8043B002101F094FB204613
:1052A00010BD00BF606C0D000346074A10B543F8FF
:1052B000042B01F1100251F8044B43F8044B9142C6
:1052C000F9D10A781A7010BD606C0D0010B59DF808
:1052D000084044EA032343EA024242EA016104230C
:1052E0004160037510BD37B50D788B784A78C97861
:1052F00000912946FFF7EAFF03B030BD41747047C3
:10530000704708B50021007CFFF7CCF830EA200098
:1053100028BF4FF0FF3008BD08B50121007CFFF722
:10532000C1F830EA200028BF4FF0FF3008BD08B5B3
:10533000007CFFF7AFF820EAE07008BD08B5007CFC
:10534000FFF7A0F820EAE07008BD007CFFF7BAB8CC
:1053500010B51421044600F04DFB204610BD38B5B1
:105360000446007C0D46FFF795F8002801DC607CC0
:1053700028B12946207CFFF79DF820EAE07038BD6F
:1053800010B50446002363604FF47A73A360054BA5
:10539000236001230846217463741146FFF762F805
:1053A000204610BD746C0D000022007CFFF762B82F
:1053B00010B514220446002101F005FB204610BD63
:1053C00030B50E4D87B001A8FFF7F2FF296811F044
:1053D000010410D12846FEF766FE60B101AA2146FD
:1053E0000748FFF7CDFF2846FEF762FE054A06494B
:1053F000034800F0F1FA024807B030BD14E403207E
:1054000018E40320C0E3032001530D0070474174EA
:10541000704708B5007CFEF7DDFF20EAE07008BDAC
:1054200008B5007CFEF7B6FF20EAE07008BD08B5BD
:10543000007CFEF7BFFF30EA200028BF4FF0FF30AE
:1054400008BD08B5007CFEF7ADFF30EA200028BF9C
:105450004FF0FF3008BD007CFEF7B4BF10B514213B
:10546000044600F0C7FA204610BD70B5457C0446DE
:105470000E4625B9007CFEF7ADFF002805DD31465C
:10548000207CBDE87040FEF77DBF284670BD00005F
:1054900010B5044608461146002262604FF47A7245
:1054A000A260054A22600122207462741A46FEF747
:1054B00061FF204610BD00BFA46C0D0038B50C4D37
:1054C000296811F0010411D12846FEF7ECFD68B1FE
:1054D000084A094B09482146FFF7DAFF2846FEF73C
:1054E000E7FD074A0749054800F076FA034838BD4A
:1054F000C4E40320C8E4032040E403202CE4032098
:10550000C0E303200D540D0010B5836804460BB9A9
:1055100000F083FAC3689847A3681BB103222146B1
:105520002046984720461021BDE8104000F062BA9E
:105530007047F8B5064615460C468F18BC4206D093
:10554000336814F8011B9B6830469847F6E72846F5
:10555000F8BD0022007CFEF74DBF0021007CFEF765
:1055600051BF0021007CFEF755BF0021007CFEF7F3
:1055700059BF0021007CFEF75DBF10B51421044621
:1055800000F038FA204610BD10B5044600236360D1
:105590004FF47A73A360044B2174084623601146CC
:1055A000FEF750FF204610BDD46C0D0000231A46B4
:1055B0001946007CFEF716BF70B50C4686B0142560
:1055C00006462A46002101A801F0FDF923788DF84E
:1055D000083063680393E36804930022237A307CE5
:1055E000ADF8045001A90593FEF734FF06B070BD75
:1055F0001FB500338DF800104FF06401039118BF00
:105600000123694601928DF80830FFF7D5FF05B0F8
:105610005DF804FB0123FFF7EBBF00221146406851
:10562000FEF7C4BF002211464068FEF7CFBF00223C
:105630004068FEF7C3BF002281F001014068FEF719
:10564000ADBF00231A4601214068FEF79FBF00232B
:105650001A4619464068FEF791BF0022114640687D
:10566000FEF784BF002211464068FEF76FBF00229C
:1056700002214068FEF772BF00231A464068FEF719
:105680005DBF38B5054688B104684CB1A3681BB14D
:1056900003222146204698471021204600F0AAF90F
:1056A00028461421BDE8384000F0A4B938BD10B137
:1056B00003685B681847704710B503680446BBB1C0
:1056C0005868FEF727FE78B923685A7C12B95868E3
:1056D000FEF728FE23685868FEF72CFE206800239A
:1056E000236028B1FFF7CDFF206808B1FFF7C9FF9D
:1056F000204610BD38B50446D0F8C40108B1FEF705
:10570000D0FCD4F8C00108B1FEF724FED4F8BC5197
:1057100035B12846FFF7D0FF0421284600F06AF98A
:10572000206808B1FFF7C3FF204638BD10B5044B11
:10573000044640F8083BFFF7DDFF204610BD00BFE0
:10574000FC6C0D0038B50E4C0E4B23600025022377
:1057500004F5E4706360A560C4F8C451C4F8C8518E
:10576000FEF7F0FD084BC4F8CC5184F8D05123600B
:105770002046064A0649BDE8384000F02DB900BF72
:105780004CE50320646D0D00FC6C0D00C0E30320AC
:105790002D570D00002211464068FEF7E7BE00229B
:1057A00011464068FEF702BF002211464068FEF72E
:1057B0000DBF00224068FEF701BF002281F0010109
:1057C0004068FEF7EBBE00231A4619464068FEF714
:1057D000DDBE00231A4619464068FEF7CFBE002200
:1057E00011464068FEF7B2BE002202214068FEF773
:1057F000B5BE00231A464068FEF7A0BE024B042245
:105800005A60024A1A60704720E70320306D0D008D
:1058100000231A464068FEF791BE0022022140682C
:10582000FEF79CBE002211464068FEF78FBE0022A4
:1058300011464068FEF79ABE00231A461946406892
:10584000FEF79CBE00231A4619464068FEF79EBE2E
:10585000002281F001014068FEF7A0BE00224068EE
:10586000FEF7ACBE002211464068FEF7AFBE002234
:1058700011464068FEF79ABE2DE9F043002495B02A
:1058800016460D460746FFF701FD214620220CA8CB
:10589000009401F098F840230C9321466B460CAA23
:1058A0003046FEF717FD0446002844D10246012188
:1058B0006868FEF75BFE0221804622466868FEF7B4
:1058C00055FE009E81462146002E34D0002932D15B
:1058D0007368022B02D00A2B09D02AE0B8F1000F1E
:1058E00027D0716938460431FFF7FDFC20E0B9F19B
:1058F000000F1ED07469112201A801F064F806237C
:105900008DF8143001AD04F1080318341868596893
:105910002A4603C20833A3421546F7D101A906A8B7
:1059200007ADFFF7C1FC0FCD3C1D0FC42B682370E2
:105930000121F669C8E70098FEF7C4FC384615B0A7
:10594000BDE8F083024B034A1A6000225A60704798
:1059500028E70320646D0D0070B5044614252A461F
:10596000094E002101F02FF8258020253146A56041
:105970002561284600F040F831466060284600F076
:105980003BF8E060204670BD906D0D0030B50E4DC7
:10599000296811F0010487B013D12846FEF783FB74
:1059A00078B101A8FFF7D8FF01AA21460748FFF701
:1059B000EBFD2846FEF77CFB054A0649034800F04C
:1059C0000BF8024807B030BD34E7032038E7032066
:1059D000C0E3032031550D000B460146184600F088
:1059E000D9BF0000024B1868BFF35F8F704700BF3C
:1059F0004CE70320FEF753BB00F000B810B50028B9
:105A000014BF044601242046FEF700FE20B9FFF72C
:105A1000E9FF08B18047F6E710BD08B5FEF716FEAE
:105A2000184B1A68D1075CBF01221A60164B1A681E
:105A3000D2075CBF01221A60144B1A68D0075CBF02
:105A400001221A60124B1A68D1075CBF01221A604A
:105A5000104B1A68D2075CBF01221A600E4B1A68FD
:105A6000D0075CBF01221A600C4B1A68D1075CBFDB
:105A700001221A600A4B1A68D2075CBF01221A6021
:105A8000704700BF6CE7032068E7032064E703204A
:105A900060E703205CE7032058E7032054E7032076
:105AA00050E70320244B1A68D0075CBF01221A601C
:105AB000224B1A68D1075CBF01221A60204B1A687A
:105AC000D2075CBF01221A601E4B1A68D0075CBF68
:105AD00001221A601C4B1A68D1075CBF01221A60B0
:105AE0001A4B1A68D2075CBF01221A60184B1A6859
:105AF000D0075CBF01221A60164B1A68D1075CBF41
:105B000001221A60144B1A68D2075CBF01221A6086
:105B1000124B1A68D0075CBF01221A60104B1A683A
:105B2000D1075CBF01221A600E4B1A68D2075CBF16
:105B300001221A60704700BF9CE7032098E703200A
:105B400094E7032090E703208CE7032088E70320F5
:105B500084E7032080E703207CE7032078E7032025
:105B600074E7032070E70320244B1A68D0075CBF5A
:105B700001221A60224B1A68D1075CBF01221A6009
:105B8000204B1A68D2075CBF01221A601E4B1A68AC
:105B9000D0075CBF01221A601C4B1A68D1075CBF9A
:105BA00001221A601A4B1A68D2075CBF01221A60E0
:105BB000184B1A68D0075CBF01221A60164B1A688E
:105BC000D1075CBF01221A60144B1A68D2075CBF70
:105BD00001221A60124B1A68D0075CBF01221A60BA
:105BE000104B1A68D1075CBF01221A600E4B1A686D
:105BF000D2075CBF01221A60704700BFCCE70320C8
:105C0000C8E70320C4E70320C0E70320BCE7032064
:105C1000B8E70320B4E70320B0E70320ACE7032094
:105C2000A8E70320A4E70320A0E70320184B1A6885
:105C3000D1075CBF01221A60164B1A68D2075CBFFD
:105C400001221A60144B1A68D0075CBF01221A6047
:105C5000124B1A68D1075CBF01221A60104B1A68F8
:105C6000D2075CBF01221A600E4B1A68D0075CBFD6
:105C700001221A600C4B1A68D1075CBF01221A601E
:105C80000A4B1A68D2075CBF01221A60704700BF36
:105C9000ECE70320E8E70320E4E70320E0E7032044
:105CA000DCE70320D8E70320D4E70320D0E7032074
:105CB00081F0004102E000BF83F0004330B54FEABD
:105CC00041044FEA430594EA050F08BF90EA020F2A
:105CD0001FBF54EA000C55EA020C7FEA645C7FEABD
:105CE000655C00F0E2804FEA5454D4EB5555B8BFE0
:105CF0006D420CDD2C4480EA020281EA030382EA51
:105D0000000083EA010180EA020281EA0303362DE2
:105D100088BF30BD11F0004F4FEA01314FF4801CB5
:105D20004CEA113102D0404261EB410113F0004FC7
:105D30004FEA03334CEA133302D0524263EB43037E
:105D400094EA050F00F0A780A4F10104D5F1200E1C
:105D50000DDB02FA0EFC22FA05F2801841F1000177
:105D600003FA0EF2801843FA05F359410EE0A5F14B
:105D700020050EF1200E012A03FA0EFC28BF4CF07C
:105D8000020C43FA05F3C01851EBE37101F0004532
:105D900007D54FF0000EDCF1000C7EEB00006EEB3F
:105DA0000101B1F5801F1BD3B1F5001F0CD34908C9
:105DB0005FEA30004FEA3C0C04F101044FEA445220
:105DC00012F5800F80F09A80BCF1004F08BF5FEAA7
:105DD000500C50F1000041EB045141EA050130BD87
:105DE0005FEA4C0C404141EB010111F4801FA4F12A
:105DF0000104E9D191F0000F04BF01460020B1FA7F
:105E000081F308BF2033A3F10B03B3F120020CDAB6
:105E10000C3208DD02F1140CC2F10C0201FA0CF094
:105E200021FA02F10CE002F11402D8BFC2F1200CF9
:105E300001FA02F120FA0CFCDCBF41EA0C019040AF
:105E4000E41AA2BF01EB0451294330BD6FEA0404F8
:105E50001F3C1CDA0C340EDC04F11404C4F12002E3
:105E600020FA04F001FA02F340EA030021FA04F3F5
:105E700045EA030130BDC4F10C04C4F1200220FA4C
:105E800002F001FA04F340EA0300294630BD21FA8A
:105E900004F0294630BD94F0000F83F4801306BF50
:105EA00081F480110134013D4EE77FEA645C18BF44
:105EB0007FEA655C29D094EA050F08BF90EA020FDB
:105EC00005D054EA000C04BF1946104630BD91EAD3
:105ED000030F1EBF0021002030BD5FEA545C05D1D6
:105EE0004000494128BF41F0004130BD14F5800415
:105EF0003CBF01F5801130BD01F0004545F0FE4189
:105F000041F470014FF0000030BD7FEA645C1ABFBD
:105F1000194610467FEA655C1CBF0B46024650EAF4
:105F2000013406BF52EA033591EA030F41F4002120
:105F300030BD00BF90F0000F04BF0021704730B5A6
:105F40004FF4806404F132044FF000054FF000017B
:105F500050E700BF90F0000F04BF0021704730B53C
:105F60004FF4806404F1320410F0004548BF404211
:105F70004FF000013EE700BF42004FEAE2014FEA66
:105F800031014FEA02701FBF12F07F4393F07F4F41
:105F900081F06051704792F0000F14BF93F07F4F73
:105FA000704730B54FF4607401F0004521F00041B6
:105FB00020E700BF50EA010208BF704730B54FF03C
:105FC00000050AE050EA010208BF704730B511F041
:105FD000004502D5404261EB41014FF4806404F179
:105FE00032045FEA915C3FF4DCAE4FF003025FEAFB
:105FF000DC0C18BF03325FEADC0C18BF033202EB83
:10600000DC02C2F1200300FA03FC20FA02F001FADC
:1060100003FE40EA0E0021FA02F11444C1E600BF7B
:1060200070B54FF0FF0C4CF4E06C1CEA11541DBF2E
:106030001CEA135594EA0C0F95EA0C0F00F0DEF8F9
:106040002C4481EA030621EA4C5123EA4C5350EADE
:10605000013518BF52EA033541F4801143F480132F
:1060600038D0A0FB02CE4FF00005E1FB02E506F0C0
:106070000042E0FB03E54FF00006E1FB03569CF015
:10608000000F18BF4EF0010EA4F1FF04B6F5007F1B
:1060900064F5407404D25FEA4E0E6D4146EB06068D
:1060A00042EAC62141EA55514FEAC52040EA5E5016
:1060B0004FEACE2EB4F1FD0C88BFBCF5E06F1ED8C0
:1060C000BEF1004F08BF5FEA500E50F1000041EBF7
:1060D000045170BD06F0004646EA010140EA0200A4
:1060E00081EA0301B4EB5C04C2BFD4EB0C0541EAC6
:1060F000045170BD41F480114FF0000E013C00F3DB
:10610000AB8014F1360FDEBF002001F0004170BDFE
:10611000C4F10004203C35DA0C341BDC04F1140417
:10612000C4F1200500FA05F320FA04F001FA05F2A3
:1061300040EA020001F0004221F0004110EBD37070
:1061400021FA04F642EB06015EEA430E08BF20EA9C
:10615000D37070BDC4F10C04C4F1200500FA04F33F
:1061600020FA05F001FA04F240EA020001F00041D1
:1061700010EBD37041F100015EEA430E08BF20EA44
:10618000D37070BDC4F1200500FA05F24EEA020E8C
:1061900020FA04F301FA05F243EA020321FA04F0BB
:1061A00001F0004121FA04F220EA020000EBD37072
:1061B0005EEA430E08BF20EAD37070BD94F0000F72
:1061C0000FD101F00046400041EB010111F4801FA6
:1061D00008BF013CF7D041EA060195F0000F18BF57
:1061E000704703F00046520043EB030313F4801F93
:1061F00008BF013DF7D043EA0603704794EA0C0F4D
:106200000CEA135518BF95EA0C0F0CD050EA410662
:1062100018BF52EA4306D1D181EA030101F00041DF
:106220004FF0000070BD50EA410606BF1046194607
:1062300052EA430619D094EA0C0F02D150EA013613
:1062400013D195EA0C0F05D152EA03361CBF104654
:1062500019460AD181EA030101F0004141F0FE41F3
:1062600041F470014FF0000070BD41F0FE4141F477
:10627000780170BD70B54FF0FF0C4CF4E06C1CEA77
:1062800011541DBF1CEA135594EA0C0F95EA0C0F2C
:1062900000F0A7F8A4EB050481EA030E52EA0335E7
:1062A0004FEA013100F088804FEA03334FF0805508
:1062B00045EA131343EA12634FEA022245EA111535
:1062C00045EA10654FEA00260EF000419D4208BFE6
:1062D000964244F1FD0404F5407402D25B084FEA93
:1062E0003202B61A65EB03055B084FEA32024FF43F
:1062F00080104FF4002CB6EB020E75EB030E22BF9C
:10630000B61A754640EA0C005B084FEA3202B6EB5B
:10631000020E75EB030E22BFB61A754640EA5C000A
:106320005B084FEA3202B6EB020E75EB030E22BF9A
:10633000B61A754640EA9C005B084FEA3202B6EB9B
:10634000020E75EB030E22BFB61A754640EADC005A
:1063500055EA060E18D04FEA051545EA16754FEABC
:1063600006164FEAC30343EA52734FEAC2025FEADA
:106370001C1CC0D111F4801F0BD141EA00014FF069
:1063800000004FF0004CB6E711F4801F04BF01433A
:106390000020B4F1FD0C88BFBCF5E06F3FF6AFAE56
:1063A000B5EB030C04BFB6EB020C5FEA500C50F1E6
:1063B000000041EB045170BD0EF0004E4EEA113169
:1063C00014EB5C04C2BFD4EB0C0541EA045170BD70
:1063D00041F480114FF0000E013C90E645EA060EB4
:1063E0008DE60CEA135594EA0C0F08BF95EA0C0FE2
:1063F0003FF43BAF94EA0C0F0AD150EA01347FF42A
:1064000034AF95EA0C0F7FF425AF104619462CE700
:1064100095EA0C0F06D152EA03353FF4FDAE104663
:10642000194622E750EA410618BF52EA43067FF4B4
:10643000C5AE50EA41047FF40DAF52EA43057FF444
:10644000EBAE12E74FF0FF3C06E000BF4FF0010C4F
:1064500002E000BF4FF0010C4DF804CD4FEA410CB3
:106460007FEA6C5C4FEA430C18BF7FEA6C5C1BD080
:1064700001B050EA410C0CBF52EA430C91EA030F01
:1064800002BF90EA020F0020704710F1000F91EA5E
:10649000030F58BF994208BF90422CBFD8176FEA2C
:1064A000E37040F0010070474FEA410C7FEA6C5CFA
:1064B00002D150EA013C07D14FEA430C7FEA6C5C01
:1064C000D6D152EA033CD3D05DF8040B704700BF2D
:1064D0008446104662468C461946634600E000BF7B
:1064E00001B5FFF7B7FF002848BF10F1000F01BD4D
:1064F0004DF808EDFFF7F4FF0CBF012000205DF818
:1065000008FB00BF4DF808EDFFF7EAFF34BF01209C
:1065100000205DF808FB00BF4DF808EDFFF7E0FF35
:1065200094BF012000205DF808FB00BF4DF808ED86
:10653000FFF7CEFF94BF012000205DF808FB00BFED
:106540004DF808EDFFF7C4FF34BF012000205DF8CF
:1065500008FB00BF4A0011D212F5001211D20DD56E
:106560006FF47873B3EB62520ED44FEAC12343F059
:10657000004343EA505323FA02F070474FF0000003
:10658000704750EA013002D14FF0FF3070474FF0B2
:10659000000070474FEA4102B2F1E04324BFB3F577
:1065A000001CDCF1FE5C0DD901F0004C4FEAC0028A
:1065B0004CEA5070B2F1004F40EB830008BF20F06E
:1065C0000100704711F0804F21D113F13872BCBF28
:1065D00001F00040704741F480114FEA5252C2F17D
:1065E0001802C2F1200C10FA0CF320FA02F018BFC6
:1065F00040F001004FEAC1234FEAD32303FA0CFC19
:1066000040EA0C0023FA02F34FEA4303CCE77FEAA7
:10661000625307D150EA01331EBF4FF0FE4040F4F1
:106620004000704701F0004040F0FE4040F40000A0
:10663000704700BF53B94AB9002908BF00281CBFE2
:106640004FF0FF314FF0FF3000F0A2B9ADF1080C70
:106650006DE904CE00F02AF8DDF804E0DDE902235C
:1066600004B07047D0B500220E4B06460F46FFF728
:10667000D7FCFFF76FFF0446FFF75CFC00220A4BD4
:10668000FFF7CEFC02460B4630463946FFF714FBB7
:10669000FFF760FF2346002242EA00021046194637
:1066A000D0BD00BF0000F03D0000F0412DE9F047F3
:1066B0008C460E460446089D002B50D18A42174650
:1066C0006CD9B2FA82FEBEF1000F0BD0CEF12004DD
:1066D00020FA04F401FA0EF644EA060C02FA0EF768
:1066E00000FA0EF44FEA1749220CBCFBF9F01FFA2E
:1066F00087F809FB10C642EA064600FB08F3B342DE
:1067000009D9F61900F1FF3280F02281B34240F23C
:106710001F8102383E44F61AA2B2B6FBF9F309FB18
:10672000136642EA064403FB08F8A04509D9E419B8
:1067300003F1FF3280F00A81A04540F20781023B5D
:106740003C44C8EB040443EA00400021002D62D021
:1067500024FA0EF400232C606B60BDE8F0878B42B6
:1067600007D9002D55D0002185E841000846BDE835
:10677000F087B3FA83F1002940F09080B34202D34E
:10678000824200F2F880841A66EB03060120B446C8
:10679000002D40D085E81010BDE8F08712B9012720
:1067A000B7FBF2F7B7FA87FEBEF1000F35D1F31B46
:1067B0004FEA17481FFA87FC0121B3FBF8F0220CBF
:1067C00008FB103642EA06460CFB00F3B34207D939
:1067D000F61900F1FF3202D2B34200F2CE80104629
:1067E000F61AA2B2B6FBF8F308FB136642EA0644B7
:1067F0000CFB03FCA44507D9E41903F1FF3202D2D4
:10680000A44500F2B5801346CCEB040443EA0040F3
:106810009CE729462846BDE8F087CEF1200106FA1C
:106820000EF307FA0EF720FA01F94FEA1748CE40A7
:1068300049EA0309B6FBF8FA4FEA194408FB1A665D
:106840001FFA87FC44EA06430AFB0CF29A4200FA5C
:106850000EF40AD9DB190AF1FF3180F087809A42E1
:1068600040F28480AAF1020A3B449B1A1FFA89F97C
:10687000B3FBF8F108FB113349EA034301FB0CF6C3
:106880009E4207D9DB1901F1FF326BD29E4269D9D2
:1068900002393B449B1B41EA0A418EE7C1F1200EBD
:1068A00022FA0EF48B40234320FA0EF706FA01F485
:1068B0004FEA134C26FA0EF63C43B6FBFCF9270CC4
:1068C0000CFB19661FFA83F847EA064609FB08F72E
:1068D000B74202FA01F200FA01FA08D9F61809F1F2
:1068E000FF3041D2B7423FD9A9F102091E44F61B3D
:1068F000A0B2B6FBFCF40CFB146640EA064704FBAE
:1069000008F8B84507D9FF1804F1FF3028D2B84578
:1069100026D9023C1F4444EA0940C8EB0707A0FB04
:1069200002894F4544464E4614D329D065B3BAEB8D
:10693000040367EB060707FA0EFECB40CF404EEA92
:10694000030385E888000021BDE8F0871346F8E6D8
:106950001046E0E6B8EB020469EB03060138E5E710
:106960000446D8E7114695E78146C0E78A467CE7AA
:10697000023B3C4448E708460AE702383E442FE71A
:10698000C245E7D33E46D1E72946BDE8F08700BFC0
:10699000704700BF10B5054C13462CB10A4601469E
:1069A0000220AFF3008010BD204610BD00000000A3
:1069B00010B5431E0A44914204D011F8014B03F86C
:1069C000014FF8E710BD02440346934202D003F89A
:1069D000011BFAE77047000038B5124B1C68A36B27
:1069E0000546D3B91820FDF711FE43F20E33A0631C
:1069F00003804AF6CD33438041F2342383804EF244
:106A00006D63C3804DF6EC630381052343810B2343
:106A1000838101220023C0E90423A36B00221D61AE
:106A20005A6138BDBCE30320024B0146186800F0F0
:106A300003B800BFBCE3032070B5064608460C4609
:106A400000F00DF8451C29463046FDF707FE0646C6
:106A500018B12A462146FFF7ABFF304670BD03460A
:106A600013F8012B002AFBD1181A013870470000D7
:106A700021400D005D400D0089400D008D400D004E
:106A80000000000054656D70657261747572652058
:106A9000696E2043656C736975733A2025302E3218
:106AA00066200A0054656D706572617475726520A8
:106AB000696E2046616872656E686569743A202562
:106AC000302E3266200A005072657373757265202D
:106AD000696E207073693A2025302E32662C205260
:106AE00061772052656164696E673A2025690A0002
:106AF000507265737375726500000000000000003D
:106B000000000000CB460D00C1460D00B7460D0049
:106B1000AD460D00A1460D0095460D0089460D00BD
:106B200081460D0077460D006D460D0079580D0029
:106B3000626175640053657269616C0053657269C6
:106B4000616C31007479706500706172616D006311
:106B50006D6400696400686E64007374726D006631
:106B6000696C74006C766C0061646448616E646C7E
:106B700065720072656D6F766548616E646C6572F2
:106B800000656E756D48616E646C657273004A5382
:106B90004F4E53747265616D4C6F6748616E646CE3
:106BA00065720061707000253031307520005D2005
:106BB000002564002C200028293A2000205B006377
:106BC0006F6465203D200025690064657461696C0F
:106BD00073203D20000D0A0066006C6E00666E009A
:106BE000636F64650064657461696C006E6F6E65E7
:106BF00000747261636500696E666F007761726E22
:106C0000006572726F720070616E696300616C6C16
:106C1000005A00252B3033643A253032750025594F
:106C20002D256D2D25645425483A254D3A255325AB
:106C30007A0061736374696D6500000000000000F4
:106C400000000000914C0D00974C0D00DB4C0D0036
:106C5000A54C0D00934C0D0000000000000000004A
:106C600029520D0019520D001B520D0000000000AA
:106C70000000000001530D0051530D005F530D0043
:106C8000DD490D003D530D0003530D0019530D0058
:106C90004B530D002F530D00FD520D00000000005E
:106CA000000000000D540D005D540D006B540D00EC
:106CB000DD490D0021540D0043540D002F540D00EB
:106CC00057540D000F540D0013540D000000000028
:106CD0000000000031550D007B550D0053550D008F
:106CE00033550D005B550D0063550D006B550D00C0
:106CF00073550D00000000000000000079560D00E3
:106D00006F560D0065560D005B560D004F560D0079
:106D100043560D0037560D002F560D0025560D0019
:106D20001B560D0079580D00000000000000000007
:106D3000F3570D00E9570D00DF570D0095570D0073
:106D4000D3570D00C7570D00BB570D00B3570D00AB
:106D5000A9570D009F570D0079580D000000000045
:106D60000000000011580D001B580D0025580D00A3
:106D70002F580D0039580D0045580D0051580D0081
:106D80005D580D0065580D006F580D0079580D00C5
:106D900000000000000000000000000000000000F3
:106DA00000000000000000000000000000000000E3
:106DB00000000000000000000000000000000000D3
:106DC00000000000000000000000000000000000C3
:106DD00000000000000000000000000000000000B3
:106DE00000000000000000000000000000000000A3
:106DF0000000000043000000B5420D00D5460D0024
:106E000009470D00B5490D00FD4A0D000D4B0D0061
:106E1000654B0D0045570D00FD570D0045590D0000
:106E2000215A0D00A55A0D00695B0D002D5C0D0067
:086E30007CF8FF7F0100000067
:046E38000000000056
:106E3C00326C0D0000000000946D0D00B46D0D005F
:106E4C00D46D0D00000000000000000000000000E8
:106E5C0000000000F46D0D000000000000000000B8
:106E6C000000000000000000000000000000000016
:106E7C000000000000000000000000000000000006
:106E8C0000000000000000000000000000000000F6
:086E9C00000000005CE303208C
:106EA400FFFFFFFF00000102030405060708090AAB
:106EB4000B0C0D0E0F101112131415161718191AA6
:086EC4001B1C1D1E1F202800ED
:046ECC0078563412AE
:04000003D0004020C9
:00000001FF
