:02000002D0002C
:1040000000400D00A8650D00000006000C00050131
:084010000401E80500000000B6
:044018002C610D000A
:1040200009480A49884208B505D0094A824202D0A7
:10403000121A02F037F80748074A0021121A02F054
:104040003CF8014808BD00BF4CE3032014650D0097
:10405000B8E30320B8E30320F0E7032070B500F0D5
:10406000B9FC074C074BE41AA40800251E46A542DC
:1040700004D056F8253098470135F8E770BD00BFE9
:1040800004650D00CC640D0000F017B808B500F011
:104090005BF8BDE8084000F05FBC00F0E1BA00F05A
:1040A000DFBA0078B0FA80F040097047012303704E
:1040B00070470368C9B29B68184708B501F06AF8F1
:1040C00000F06AFE00F086FD4FF4165100F076FD18
:1040D00001F060F8182100F09AFE01F05BF8202151
:1040E000FFF7E7FF01F056F82721FFF7E2FF01F0A5
:1040F00051F800F093FE01F04DF8182100F087FE12
:1041000001F048F82321FFF7D4FF01F043F8002124
:10411000FFF7CFFF01F03EF800F080FE4FF49670FD
:10412000BDE8084000F0DABB37B5044610EE100ACF
:104130000D4601F055FC2A46CDE90001002120463C
:1041400000F07FFB03B030BD2DE9F74F684D282408
:1041500001F020F8182100F05AFE01F01BF821466A
:10416000FFF7A7FF01F016F800F058FE01F012F873
:104170000122182100F044FE01F00CF803681B69CD
:104180009847012807D101F005F803685B69984753
:104190002B1903F8280C4FF49670013400F09EFBA5
:1041A0002E2CD5D1524A534E13785078D578547965
:1041B00043EA0020504B00B21880937843EA05256B
:1041C0004E4B2DB21D80137943EA04244C4B24B28C
:1041D0001C8001F0F3FB44A3D3E9002301F07EFD32
:1041E00001F002FF80463060284601F0E7FB3EA365
:1041F000D3E9002301F072FD01F0F6FE414D824645
:104200002860204601F0DAFB37A3D3E9002301F050
:1042100065FD01F0E9FE3C4C07462060404601F098
:10422000DFFB80465046894601F0DAFB824638467D
:104230008B4601F0D5FB4246CDE900014B46404696
:10424000494601F021FC5246804689465B4650466D
:10425000594601F019FC02460B464046494601F01A
:1042600061FADDE90023804689461046194601F0CF
:104270000BFC0B4602464946404601F053FA41EC1E
:10428000100B01F017F951EC100B01F0ADFE1F4FB0
:10429000386000F09FFC1E4A002100F0D2FA00F0C6
:1042A00099FC96ED000A1B49FFF73EFF00F092FCD7
:1042B00095ED000A1849FFF737FF00F08BFC94EDED
:1042C000000A1649FFF730FF00F084FC97ED000A62
:1042D0001349FFF729FFFA2003B0BDE8F04F00F0C3
:1042E000FDBA00BFAFF30080000000000082B440C0
:1042F000C4E30320C0E30320BCE30320CAE303209C
:10430000D0E30320CCE30320D4E30320D8E303204D
:1043100040610D0068610D0088610D00A8610D000D
:10432000C8610D0000F010B808B5024B1B689B680F
:10433000019308BD6802030008B5024B1B68DB68E7
:10434000019308BD6802030008B5024B1B681B6897
:10435000019308BD2C02030008B5024B1B685B6883
:10436000019308BD1802030008B5024B1B685B6986
:10437000019308BD1802030008B5024B1B689B6837
:10438000019308BD4802030008B5024B1B681B6976
:10439000019308BD4802030008B5024B1B685B6926
:1043A000019308BD4802030008B5024B1B685B6C13
:1043B000019308BD4802030008B5024B1B689B6CC3
:1043C000019308BD4802030008B5024B1B685B69F6
:1043D000019308BD6402030008B5024B1B681B680B
:1043E000019308BD3C02030008B5024B1B68DB6863
:1043F000019308BD3C02030008B5024B1B681B6912
:10440000019308BD3C02030008B5024B1B685B69C1
:10441000019308BD3C02030008B5024B1B689B6971
:10442000019308BD3C02030008B5024B1B68DB6921
:10443000019308BD3C02030008B5024B1B689B6A50
:10444000019308BD3C02030008B5024B1B68DB6802
:10445000019308BD2802030008B5024B1B689B6945
:10446000019308BD2802030008B5024B1B68DB69F5
:10447000019308BD2802030008B5024B1B681B6AA4
:10448000019308BD2802030008B5024B1B685B6A54
:10449000019308BD2802030008B5024B1B689B6A04
:1044A000019308BD2802030008B5024B1B68DB6AB4
:1044B000019308BD2802030008B5024B1B681B6B63
:1044C000019308BD2802030008B5024B1B681B6C52
:1044D000019308BD2802030008B5024B1B681B6D41
:1044E000019308BD2802030008B5024B1B681B6836
:1044F000019308BD4C02030008B5024B1B685B68C2
:10450000019308BD4C02030008B5024B1B681B69F0
:10451000019308BD4C02030008B5024B1B685B69A0
:10452000019308BD4C02030008B5024B1B689B6950
:10453000019308BD4C02030008B5024B1B68DB6900
:10454000019308BD4C02030008B5024B1B681B6AAF
:10455000019308BD4C02030008B5024B1B685B6861
:10456000019308BD2002030008B5024B1B685B697C
:10457000019308BD2002030008B5034B1B68D3F864
:104580008830019308BD00002002030008B5034BEA
:104590001B68D3F89430019308BD0000200203008B
:1045A00008B5024B1B685B68019308BD400203001D
:1045B00008B5024B1B689B68019308BD40020300CD
:1045C00008B5024B1B68DB68019308BD400203007D
:1045D00008B5024B1B681B69019308BD400203002C
:1045E00008B5024B1B685B69019308BD40020300DC
:1045F00008B5024B1B689B69019308BD400203008C
:1046000008B5024B1B68DB69019308BD400203003B
:1046100008B5024B1B681B6A019308BD40020300EA
:1046200008B5024B1B681B6B019308BD40020300D9
:1046300008B5024B1B685B6B019308BD4002030089
:1046400008B5024B1B68DB6B019308BD44020300F5
:1046500008B5024B1B681B68019308BD1C020300D0
:1046600008B5024B1B685B68019308BD1C02030080
:1046700008B5024B1B685B6A019308BD1C0203006E
:1046800008B5024B1B68DB6B019308BD1C020300DD
:10469000002211464068FFF7BBBF00221146406868
:1046A000FFF7C6BF00224068FFF7BABF002281F0C3
:1046B00001014068FFF7A4BF00231A46194640686D
:1046C000FFF796BF00231A4619464068FFF788BFD8
:1046D000002211464068FFF77BBF00221146406868
:1046E000FFF766BF002202214068FFF769BF002381
:1046F0001A464068FFF754BF024B03225A60024A31
:104700001A607047DCE30320EC610D0010B504462D
:10471000006818B1FFF7A4FF0023236010BD10B597
:104720000446FFF7F3FF204610BD000010B5094C0A
:1047300000204FF6FF732060A080A071208163816C
:10474000FFF70AFF2046044A0449BDE8104000F084
:1047500047BD00BFE4E30320B8E303201F470D007B
:1047600010B50446006808B1FFF726FE204610BDCC
:1047700010B5064C002320462360FFF715FE2046A7
:10478000034A0449BDE8104000F02ABDF0E30320CD
:10479000B8E3032061470D00F8B506460D468F18B3
:1047A0000024BD420CD0336815F8011B9B683046CD
:1047B0009847002801DB0444F3E7002C08BF0446B7
:1047C0002046F8BD70B505460C46084649B101F0D3
:1047D000A5FC2B68024621462846DB68BDE87040F0
:1047E000184770BD03689B68184738B50D2105460A
:1047F000FFF7F8FF0A2104462846FFF7F3FF20449D
:1048000038BD30B58BB00B4600218DF82410012A3D
:1048100098BF0A220DF12304B3FBF2F505FB123316
:1048200003F0FF03092B94BF30333733DBB221464B
:1048300004F801392B46002DEED1FFF7C3FF0BB072
:1048400030BD0CB42DE9F04387B000AF07F1380458
:10485000054654F8049B3C600E4623464A46142104
:10486000381DFFF705FF132805D8391D2846FFF727
:10487000A9FF044613E000F1080323F00703E8460C
:10488000ADEB030D411C23464A4668463C60FFF7EA
:10489000EFFE69462846FFF795FF0446C5461EB160
:1048A0002846FFF7A2FF044420461C37BD46BDE85A
:1048B000F04302B070470000014B024A1A60704793
:1048C000F4E303208B620D00024B1A68024B1A605E
:1048D000704700BF4CE30320F8E303200021FFF7FB
:1048E00043BE10B58368044613B1032201469847BE
:1048F000204610BD10B50446FFF7F3FF204610BD5B
:104900000348044A04490023836000F069BC00BFE7
:10491000FCE30320B8E30320F5480D0008B50C4B79
:1049200033B100F057F903681B699847002809DC88
:10493000084B63B100F0CCF903681B699847002865
:1049400003DC08BDAFF30080F2E7AFF3008008BDE1
:10495000000000000000000008B5FFF7DFFFFFF7D0
:1049600003FD014B186008BD30E703200248034AED
:104970000349121A01F096BB00F4032004F403204B
:1049800010650D0007B5002300931A466FF07701FC
:10499000FFF7FCFD03B05DF804FB000007B543889A
:1049A0000A2B08D0502B09D1094B1B683BB103B02F
:1049B0005DF804EB1847FFF7E5FF06E000230093DE
:1049C0001A466FF07701FFF7E1FD03B05DF804FBD5
:1049D0000CE4032038B5104C104D2368AB42104B4B
:1049E0000CBF012200221A7002D0FFF7BFFF256022
:1049F000FFF7B2FC044601F069FB0A4B13B12046F5
:104A0000AFF3008000210748FFF71AFE0021064897
:104A1000BDE83840FFF7B0BD00F403201E1C279A04
:104A200010E40320000000009D490D00704710B500
:104A30001821044600F0E2FB204610BDF0B5037DCE
:104A4000062B8DB00E4600F104074FF0000402D093
:104A500000F1080518E00CAD394605F8304D2F235C
:104A60002A460A20FFF7B0FC284601F057FB3368BE
:104A70000246DB682946304698470FE024B12E21D4
:104A80003046FFF7AFFE044415F8011D0A223046F8
:104A9000FFF7B7FEBD420444F0D120460DB0F0BD93
:104AA00010B5054B0446112240F8043B002101F0EB
:104AB00004FB204610BD00BF2C630D000346074ACF
:104AC00010B543F8042B01F1100251F8044B43F8E0
:104AD000044B9142F9D10A781A7010BD2C630D0075
:104AE00010B59DF8084044EA032343EA024242EA33
:104AF000016104234160037510BD37B50D788B78D3
:104B00004A78C97800912946FFF7EAFF03B030BD23
:104B100041747047704708B50021007CFFF704FD21
:104B200030EA200028BF4FF0FF3008BD08B5012152
:104B3000007CFFF7F9FC30EA200028BF4FF0FF307F
:104B400008BD08B5007CFFF7E7FC20EAE07008BD6F
:104B500008B5007CFFF7D8FC20EAE07008BD007CB7
:104B6000FFF7F2BC10B51421044600F047FB2046C5
:104B700010BD38B50446007C0D46FFF7CDFC00287B
:104B800001DC607C28B12946207CFFF7D5FC20EAB7
:104B9000E07038BD10B50446002363604FF47A73AB
:104BA000A360054B236001230846217463741146FA
:104BB000FFF79AFC204610BD40630D000022007CE8
:104BC000FFF79ABC10B514220446002101F075FAD3
:104BD000204610BD30B50E4D87B001A8FFF7F2FF9B
:104BE000296811F0010410D12846FFF75AFA60B184
:104BF00001AA21460748FFF7CDFF2846FFF756FADE
:104C0000054A0649034800F0EBFA024807B030BDF8
:104C100014E4032018E40320B8E30320154B0D002F
:104C200070474174704708B5007CFFF705FC20EA27
:104C3000E07008BD08B5007CFFF7DEFB20EAE070FD
:104C400008BD08B5007CFFF7E7FB30EA200028BF6D
:104C50004FF0FF3008BD08B5007CFFF7D5FB30EA08
:104C6000200028BF4FF0FF3008BD007CFFF7DCBB01
:104C700010B51421044600F0C1FA204610BD70B5ED
:104C8000457C04460E4625B9007CFFF7D5FB00287D
:104C900005DD3146207CBDE87040FFF7A5BB284606
:104CA00070BD000010B5044608461146002262603F
:104CB0004FF47A72A260054A226001222074627465
:104CC0001A46FFF789FB204610BD00BF70630D0038
:104CD00038B50C4D296811F0010411D12846FFF7B1
:104CE000E0F968B1084A094B09482146FFF7DAFFA5
:104CF0002846FFF7DBF9074A0749054800F070FA34
:104D0000034838BDC4E40320C8E4032040E4032082
:104D10002CE40320B8E30320214C0D007047F8B5C4
:104D2000064615460C468F18BC4206D0336814F868
:104D3000011B9B6830469847F6E72846F8BD0022DD
:104D4000007CFFF799BB0021007CFFF79DBB002191
:104D5000007CFFF7A1BB0021007CFFF7A5BB002171
:104D6000007CFFF7A9BB10B51421044600F046FAF9
:104D7000204610BD10B50446002363604FF47A73DB
:104D8000A360044B2174084623601146FFF79CFB87
:104D9000204610BDA0630D0000231A461946007C72
:104DA000FFF752BB70B50C4686B0142506462A465E
:104DB000002101A801F081F923788DF8083063689B
:104DC0000393E36804930022237A307CADF8045007
:104DD00001A90593FFF780FB06B070BD1FB5003336
:104DE0008DF800104FF06401039118BF012369464C
:104DF00001928DF80830FFF7D5FF05B05DF804FB90
:104E00000123FFF7EBBF0022007CFFF725BBC9B2EF
:104E1000FFF7F9BF0022007CFFF726BB0121FFF757
:104E2000F9BF002211464068FFF7F2BB002211468D
:104E30004068FFF7FDBB00224068FFF7F1BB00228E
:104E400081F001014068FFF7DBBB00231A46012116
:104E50004068FFF7CDBB00231A4619464068FFF7AC
:104E6000BFBB002211464068FFF7B2BB00221146CB
:104E70004068FFF79DBB002202214068FFF7A0BBFE
:104E800000231A464068FFF78BBB38B5054688B14A
:104E900004684CB1A3681BB1032221462046984701
:104EA0001021204600F0AAF928461421BDE8384018
:104EB00000F0A4B938BD10B103685B6818477047AB
:104EC00010B503680446BBB15868FFF755FA78B9C6
:104ED00023685A7C12B95868FFF756FA2368586855
:104EE000FFF75AFA20680023236028B1FFF7CDFFAF
:104EF000206808B1FFF7C9FF204610BD38B5044649
:104F0000D0F8C40108B1FFF7CAF8D4F8C00108B15D
:104F1000FFF752FAD4F8BC5135B12846FFF7D0FF5D
:104F20000421284600F06AF9206808B1FFF7C3FFA2
:104F3000204638BD10B5044B044640F8083BFFF747
:104F4000DDFF204610BD00BFC8630D0038B50E4C14
:104F50000E4B23600025022304F5E4706360A56016
:104F6000C4F8C451C4F8C851FFF71EFA084BC4F87E
:104F7000CC5184F8D05123602046064A0649BDE84A
:104F8000384000F02DB900BF4CE5032030640D001F
:104F9000C8630D00B8E30320354F0D000022114611
:104FA0004068FFF715BB002211464068FFF730BB91
:104FB000002211464068FFF73BBB00224068FFF724
:104FC0002FBB002281F001014068FFF719BB0023CD
:104FD0001A4619464068FFF70BBB00231A461946CC
:104FE0004068FFF7FDBA002211464068FFF7E0BABB
:104FF000002202214068FFF7E3BA00231A46406806
:10500000FFF7CEBA024B04225A60024A1A60704778
:1050100020E70320FC630D0000231A464068FFF7D9
:10502000BFBA002202214068FFF7CABA0022114627
:105030004068FFF7BDBA002211464068FFF7C8BAC2
:1050400000231A4619464068FFF7CABA00231A46D9
:1050500019464068FFF7CCBA002281F00101406890
:10506000FFF7CEBA00224068FFF7DABA00221146F5
:105070004068FFF7DDBA002211464068FFF7C8BA62
:105080002DE9F043002495B016460D460746FFF77C
:1050900007FD214620220CA8009401F00EF84023C1
:1050A0000C9321466B460CAA3046FFF745F904469F
:1050B000002844D1024601216868FFF789FA0221DD
:1050C000804622466868FFF783FA009E81462146A3
:1050D000002E34D0002932D17368022B02D00A2B63
:1050E00009D02AE0B8F1000F27D0716938460431A1
:1050F000FFF703FD20E0B9F1000F1ED07469112203
:1051000001A800F0DAFF06238DF8143001AD04F198
:1051100008031834186859682A4603C20833A342A2
:105120001546F7D101A906A807ADFFF7C7FC0FCDBB
:105130003C1D0FC42B6823700121F669C8E7009855
:10514000FFF7F2F8384615B0BDE8F083024B034A8A
:105150001A6000225A60704728E7032030640D006F
:1051600070B5044614252A46094E002100F0A5FF1B
:10517000258020253146A5602561284600F040F8AD
:1051800031466060284600F03BF8E060204670BD84
:105190005C640D0030B50E4D296811F0010487B034
:1051A00013D12846FEF77DFF78B101A8FFF7D8FF9D
:1051B00001AA21460748FFF7DDFD2846FEF776FFE6
:1051C000054A0649034800F00BF8024807B030BD15
:1051D00034E7032038E70320B8E303201D4D0D001A
:1051E0000B460146184600F04FBF0000024B1868FE
:1051F000BFF35F8F704700BF4CE70320FEF74DBF42
:1052000000F000B810B5002814BF04460124204661
:10521000FFF71EFA20B9FFF7E9FF08B18047F6E76C
:1052200010BD0000184B1A68D1075CBF01221A603C
:10523000164B1A68D2075CBF01221A60144B1A6819
:10524000D0075CBF01221A60124B1A68D1075CBFFD
:1052500001221A60104B1A68D2075CBF01221A6043
:105260000E4B1A68D0075CBF01221A600C4B1A68FB
:10527000D1075CBF01221A600A4B1A68D2075CBFD3
:1052800001221A60704700BF6CE7032068E7032023
:1052900064E7032060E703205CE7032058E703206E
:1052A00054E7032050E70320244B1A68D0075CBF63
:1052B00001221A60224B1A68D1075CBF01221A60D2
:1052C000204B1A68D2075CBF01221A601E4B1A6875
:1052D000D0075CBF01221A601C4B1A68D1075CBF63
:1052E00001221A601A4B1A68D2075CBF01221A60A9
:1052F000184B1A68D0075CBF01221A60164B1A6857
:10530000D1075CBF01221A60144B1A68D2075CBF38
:1053100001221A60124B1A68D0075CBF01221A6082
:10532000104B1A68D1075CBF01221A600E4B1A6835
:10533000D2075CBF01221A60704700BF9CE70320C0
:1053400098E7032094E7032090E703208CE70320ED
:1053500088E7032084E7032080E703207CE703201D
:1053600078E7032074E7032070E70320244B1A68D2
:10537000D0075CBF01221A60224B1A68D1075CBFBC
:1053800001221A60204B1A68D2075CBF01221A6002
:105390001E4B1A68D0075CBF01221A601C4B1A68AA
:1053A000D1075CBF01221A601A4B1A68D2075CBF92
:1053B00001221A60184B1A68D0075CBF01221A60DC
:1053C000164B1A68D1075CBF01221A60144B1A6889
:1053D000D2075CBF01221A60124B1A68D0075CBF6B
:1053E00001221A60104B1A68D1075CBF01221A60B3
:1053F0000E4B1A68D2075CBF01221A60704700BFCB
:10540000CCE70320C8E70320C4E70320C0E703205C
:10541000BCE70320B8E70320B4E70320B0E703208C
:10542000ACE70320A8E70320A4E70320A0E70320BC
:10543000184B1A68D1075CBF01221A60164B1A6814
:10544000D2075CBF01221A60144B1A68D0075CBFF8
:1054500001221A60124B1A68D1075CBF01221A6040
:10546000104B1A68D2075CBF01221A600E4B1A68F3
:10547000D0075CBF01221A600C4B1A68D1075CBFD1
:1054800001221A600A4B1A68D2075CBF01221A6017
:10549000704700BFECE70320E8E70320E4E70320C0
:1054A000E0E70320DCE70320D8E70320D4E703206C
:1054B000D0E703202DE9F0432DED028B8BB055ECA6
:1054C000104B00F057F8294BB0EE408AF0EE608A9E
:1054D00093F90060731C12D022462B4620462946C1
:1054E00000F06CFD074650B94FF000084FF000097E
:1054F0002046294642464B4600F038FD40B9B0EE02
:10550000480AF0EE680A0BB0BDEC028BBDE8F083F0
:10551000174B08970122CDE90445CDE902458DE8F6
:105520000C00B6B142464B464046494600F0D6FB19
:10553000022ECDE906010ED1FFF7A2F82123036068
:10554000089B73B99DED060B0BB0BDEC028BBDE85B
:10555000F083CDE90689684600F0DCF80028EFD139
:10556000EAE7FFF78DF8089B0360EBE750E30320C1
:1055700060640D002DE9F041654955EC104B0E4675
:105580002940B14200F09780002D2B4610EE102AE2
:1055900074DD2F157FD0A7F2FF37C3F31303F9078C
:1055A00043F4801365D403EBD27100260B447F10C3
:1055B0005200B64616204FF400110EEB01049C4237
:1055C0004FEAD2754FEA420203DC1B1B04EB010ECB
:1055D0000E44013805EB43034FEA5101EDD18446F7
:1055E00020244FF0004109E020D003EBD275013CAC
:1055F0004FEA51012B444FEA420220D09E4501EB75
:105600000C05F1DA002D05EB010C09DBF0469542A3
:10561000CEEB030300D9013B521B0844C646E4E726
:10562000BCF1000FF2DB0EF10108F0E795421ED845
:10563000002D05EB010C50DB98460023ECE71343EB
:1056400004D0421C4DD000F00103184440087110F2
:10565000F30701F17F5101F5001148BF40F0004010
:1056600001EB0753024643EC102BBDE8F081734673
:10567000BBE75B0003EBD273520094E725F00041D7
:10568000214328D0ADBB2F46D30A153F5205002B2E
:10569000FAD0DD0228D4002100E001465B00DC02E4
:1056A00001F10100F9D5C0F1200422FA04F42343EA
:1056B0007F1A82406FE710EE102A2B4610EE100A78
:1056C000294600F0E1F922462B4600F02BF841EC88
:1056D000100BBDE8F081BDE8F081BCF1000FA2DA4B
:1056E000AAE701362046B2E720244FF0FF31002020
:1056F000DBE710EE102A2B462046294600F010F872
:1057000002460B4600F0EAFA41EC100BBDE8F081CE
:105710000000F07F0020704781F0004102E000BFF0
:1057200083F0004330B54FEA41044FEA430594EA61
:10573000050F08BF90EA020F1FBF54EA000C55EA9C
:10574000020C7FEA645C7FEA655C00F0E2804FEA6D
:105750005454D4EB5555B8BF6D420CDD2C4480EA4F
:10576000020281EA030382EA000083EA010180EA7F
:10577000020281EA0303362D88BF30BD11F0004FCD
:105780004FEA01314FF4801C4CEA113102D0404203
:1057900061EB410113F0004F4FEA03334CEA13333E
:1057A00002D0524263EB430394EA050F00F0A78056
:1057B000A4F10104D5F1200E0DDB02FA0EFC22FA51
:1057C00005F2801841F1000103FA0EF2801843FA45
:1057D00005F359410EE0A5F120050EF1200E012A36
:1057E00003FA0EFC28BF4CF0020C43FA05F3C01874
:1057F00051EBE37101F0004507D54FF0000EDCF1ED
:10580000000C7EEB00006EEB0101B1F5801F1BD395
:10581000B1F5001F0CD349085FEA30004FEA3C0C99
:1058200004F101044FEA445212F5800F80F09A808F
:10583000BCF1004F08BF5FEA500C50F1000041EB93
:10584000045141EA050130BD5FEA4C0C404141EB97
:10585000010111F4801FA4F10104E9D191F0000FBE
:1058600004BF01460020B1FA81F308BF2033A3F141
:105870000B03B3F120020CDA0C3208DD02F1140C38
:10588000C2F10C0201FA0CF021FA02F10CE002F173
:105890001402D8BFC2F1200C01FA02F120FA0CFC6C
:1058A000DCBF41EA0C019040E41AA2BF01EB0451B5
:1058B000294330BD6FEA04041F3C1CDA0C340EDCB3
:1058C00004F11404C4F1200220FA04F001FA02F3F6
:1058D00040EA030021FA04F345EA030130BDC4F1B4
:1058E0000C04C4F1200220FA02F001FA04F340EAA9
:1058F0000300294630BD21FA04F0294630BD94F05A
:10590000000F83F4801306BF81F480110134013D40
:105910004EE77FEA645C18BF7FEA655C29D094EAB1
:10592000050F08BF90EA020F05D054EA000C04BF2F
:105930001946104630BD91EA030F1EBF002100201A
:1059400030BD5FEA545C05D14000494128BF41F0B9
:10595000004130BD14F580043CBF01F5801130BD1D
:1059600001F0004545F0FE4141F470014FF00000A8
:1059700030BD7FEA645C1ABF194610467FEA655C59
:105980001CBF0B46024650EA013406BF52EA0335FB
:1059900091EA030F41F4002130BD00BF90F0000FE9
:1059A00004BF0021704730B54FF4806404F1320425
:1059B0004FF000054FF0000150E700BF90F0000FDE
:1059C00004BF0021704730B54FF4806404F1320405
:1059D00010F0004548BF40424FF000013EE700BFD5
:1059E00042004FEAE2014FEA31014FEA02701FBF65
:1059F00012F07F4393F07F4F81F06051704792F037
:105A0000000F14BF93F07F4F704730B54FF46074B0
:105A100001F0004521F0004120E700BF50EA0102FB
:105A200008BF704730B54FF000050AE050EA0102A8
:105A300008BF704730B511F0004502D5404261EB18
:105A400041014FF4806404F132045FEA915C3FF459
:105A5000DCAE4FF003025FEADC0C18BF03325FEAF2
:105A6000DC0C18BF033202EBDC02C2F1200300FAA7
:105A700003FC20FA02F001FA03FE40EA0E0021FACC
:105A800002F11444C1E600BF70B54FF0FF0C4CF4B6
:105A9000E06C1CEA11541DBF1CEA135594EA0C0F6C
:105AA00095EA0C0F00F0DEF82C4481EA030621EAA7
:105AB0004C5123EA4C5350EA013518BF52EA0335E2
:105AC00041F4801143F4801338D0A0FB02CE4FF094
:105AD0000005E1FB02E506F00042E0FB03E54FF0C4
:105AE0000006E1FB03569CF0000F18BF4EF0010EBC
:105AF000A4F1FF04B6F5007F64F5407404D25FEAB8
:105B00004E0E6D4146EB060642EAC62141EA55516A
:105B10004FEAC52040EA5E504FEACE2EB4F1FD0CAC
:105B200088BFBCF5E06F1ED8BEF1004F08BF5FEA2A
:105B3000500E50F1000041EB045170BD06F00046DC
:105B400046EA010140EA020081EA0301B4EB5C0489
:105B5000C2BFD4EB0C0541EA045170BD41F4801181
:105B60004FF0000E013C00F3AB8014F1360FDEBFA6
:105B7000002001F0004170BDC4F10004203C35DA82
:105B80000C341BDC04F11404C4F1200500FA05F305
:105B900020FA04F001FA05F240EA020001F00042A6
:105BA00021F0004110EBD37021FA04F642EB06011C
:105BB0005EEA430E08BF20EAD37070BDC4F10C0446
:105BC000C4F1200500FA04F320FA05F001FA04F20A
:105BD00040EA020001F0004110EBD37041F10001F6
:105BE0005EEA430E08BF20EAD37070BDC4F1200501
:105BF00000FA05F24EEA020E20FA04F301FA05F269
:105C000043EA020321FA04F001F0004121FA04F210
:105C100020EA020000EBD3705EEA430E08BF20EAE0
:105C2000D37070BD94F0000F0FD101F0004640001A
:105C300041EB010111F4801F08BF013CF7D041EA9C
:105C4000060195F0000F18BF704703F000465200A0
:105C500043EB030313F4801F08BF013DF7D043EA71
:105C60000603704794EA0C0F0CEA135518BF95EA27
:105C70000C0F0CD050EA410618BF52EA4306D1D1AE
:105C800081EA030101F000414FF0000070BD50EACD
:105C9000410606BF1046194652EA430619D094EA57
:105CA0000C0F02D150EA013613D195EA0C0F05D141
:105CB00052EA03361CBF104619460AD181EA030195
:105CC00001F0004141F0FE4141F470014FF000004D
:105CD00070BD41F0FE4141F4780170BD70B54FF0E8
:105CE000FF0C4CF4E06C1CEA11541DBF1CEA135568
:105CF00094EA0C0F95EA0C0F00F0A7F8A4EB05044A
:105D000081EA030E52EA03354FEA013100F0888040
:105D10004FEA03334FF0805545EA131343EA126309
:105D20004FEA022245EA111545EA10654FEA0026BE
:105D30000EF000419D4208BF964244F1FD0404F577
:105D4000407402D25B084FEA3202B61A65EB0305D3
:105D50005B084FEA32024FF480104FF4002CB6EB90
:105D6000020E75EB030E22BFB61A754640EA0C0010
:105D70005B084FEA3202B6EB020E75EB030E22BF50
:105D8000B61A754640EA5C005B084FEA3202B6EB91
:105D9000020E75EB030E22BFB61A754640EA9C0050
:105DA0005B084FEA3202B6EB020E75EB030E22BF20
:105DB000B61A754640EADC0055EA060E18D04FEADE
:105DC000051545EA16754FEA06164FEAC30343EA7E
:105DD00052734FEAC2025FEA1C1CC0D111F4801F4B
:105DE0000BD141EA00014FF000004FF0004CB6E744
:105DF00011F4801F04BF01430020B4F1FD0C88BFE3
:105E0000BCF5E06F3FF6AFAEB5EB030C04BFB6EBED
:105E1000020C5FEA500C50F1000041EB045170BDE0
:105E20000EF0004E4EEA113114EB5C04C2BFD4EB0D
:105E30000C0541EA045170BD41F480114FF0000E91
:105E4000013C90E645EA060E8DE60CEA135594EA0D
:105E50000C0F08BF95EA0C0F3FF43BAF94EA0C0F10
:105E60000AD150EA01347FF434AF95EA0C0F7FF485
:105E700025AF104619462CE795EA0C0F06D152EAD9
:105E800003353FF4FDAE1046194622E750EA4106BD
:105E900018BF52EA43067FF4C5AE50EA41047FF4CE
:105EA0000DAF52EA43057FF4EBAE12E74FF0FF3C33
:105EB00006E000BF4FF0010C02E000BF4FF0010C04
:105EC0004DF804CD4FEA410C7FEA6C5C4FEA430C7D
:105ED00018BF7FEA6C5C1BD001B050EA410C0CBFCC
:105EE00052EA430C91EA030F02BF90EA020F00202E
:105EF000704710F1000F91EA030F58BF994208BF95
:105F000090422CBFD8176FEAE37040F00100704751
:105F10004FEA410C7FEA6C5C02D150EA013C07D1A8
:105F20004FEA430C7FEA6C5CD6D152EA033CD3D0F3
:105F30005DF8040B704700BF8446104662468C46ED
:105F40001946634600E000BF01B5FFF7B7FF002820
:105F500048BF10F1000F01BD4DF808EDFFF7F4FF49
:105F60000CBF012000205DF808FB00BF4DF808EDD4
:105F7000FFF7EAFF34BF012000205DF808FB00BFF7
:105F80004DF808EDFFF7E0FF94BF012000205DF819
:105F900008FB00BF4DF808EDFFF7CEFF94BF0120CE
:105FA00000205DF808FB00BF4DF808EDFFF7C4FFC7
:105FB00034BF012000205DF808FB00BF4FEA410C10
:105FC0007FEA6C5C02D150EA013C0AD14FEA430CF3
:105FD0007FEA6C5C02D152EA033C02D14FF0000030
:105FE00070474FF0010070474FEA4102B2F1E043C1
:105FF00024BFB3F5001CDCF1FE5C0DD901F0004CB0
:106000004FEAC0024CEA5070B2F1004F40EB8300FF
:1060100008BF20F00100704711F0804F21D113F12B
:106020003872BCBF01F00040704741F480114FEA64
:106030005252C2F11802C2F1200C10FA0CF320FAED
:1060400002F018BF40F001004FEAC1234FEAD3230A
:1060500003FA0CFC40EA0C0023FA02F34FEA430374
:10606000CCE77FEA625307D150EA01331EBF4FF0FD
:10607000FE4040F44000704701F0004040F0FE4018
:1060800040F40000704700BF10B5054C13462CB11A
:106090000A4601460220AFF3008010BD204610BD25
:1060A0000000000010B5431E0A44914204D011F8CC
:1060B000014B03F8014FF8E710BD02440346934239
:1060C00002D003F8011BFAE77047000038B5124B05
:1060D0001C68A36B0546D3B91820FEF7B9FA43F242
:1060E0000E33A06303804AF6CD33438041F234235C
:1060F00083804EF26D63C3804DF6EC63038105230C
:1061000043810B23838101220023C0E90423A36B75
:1061100000221D615A6138BDB4E30320034613F821
:10612000012B002AFBD1181A0138704721400D00BD
:106130005D400D0089400D008D400D000000000005
:106140002D2D2D2D2D2D2D2D2D2D2D416363656C88
:1061500065726174696F6E2D2D2D2D2D2D2D2D2DB8
:106160002D2D2D2D2D2D0A00416363656C65726107
:1061700074696F6E20696E20582D417869733A20DA
:1061800025302E3266200A00416363656C657261BA
:1061900074696F6E20696E20592D417869733A20B9
:1061A00025302E3266200A00416363656C6572619A
:1061B00074696F6E20696E205A2D417869733A2098
:1061C00025302E3266200A00546F74616C204163C2
:1061D00063656C65726174696F6E3A2025302E328A
:1061E00066200A000000000000000000EF460D00DD
:1061F000E5460D00DB460D00D1460D00C5460D00FD
:10620000B9460D00AD460D00A5460D009B460D009C
:1062100091460D0081500D006261756400536572F6
:1062200069616C0053657269616C310074797065E5
:1062300000706172616D00636D6400696400686E76
:1062400064007374726D0066696C74006C766C0027
:1062500061646448616E646C65720072656D6F762E
:106260006548616E646C657200656E756D48616E3F
:10627000646C657273004A534F4E53747265616D5E
:106280004C6F6748616E646C6572006170700025C8
:106290003031307520005D20002564002C2000285E
:1062A000293A2000205B00636F6465203D200025B3
:1062B000690064657461696C73203D20000D0A00FB
:1062C00066006C6E00666E00636F646500646574E2
:1062D00061696C006E6F6E65007472616365006960
:1062E0006E666F007761726E006572726F72007019
:1062F000616E696300616C6C005A00252B30336459
:106300003A253032750025592D256D2D25645425EB
:10631000483A254D3A2553257A0061736374696DB7
:106320006500000000000000000000003D4A0D0074
:106330002D4A0D002F4A0D00000000000000000053
:10634000154B0D00654B0D00734B0D0099470D006B
:10635000514B0D00174B0D002D4B0D005F4B0D00E9
:10636000434B0D00114B0D00000000000000000029
:10637000214C0D00714C0D007F4C0D0099470D0014
:10638000354C0D00574C0D00434C0D006B4C0D006F
:10639000234C0D00274C0D00000000000000000001
:1063A0001D4D0D00674D0D003F4D0D001F4D0D00A3
:1063B000474D0D004F4D0D00574D0D005F4D0D0029
:1063C0000000000000000000814E0D00774E0D001F
:1063D0006D4E0D00634E0D00574E0D004B4E0D00DF
:1063E0003F4E0D00374E0D002D4E0D00234E0D007B
:1063F00081500D000000000000000000FB4F0D0068
:10640000F14F0D00E74F0D009D4F0D00DB4F0D00CC
:10641000CF4F0D00C34F0D00BB4F0D00B14F0D000E
:10642000A74F0D0081500D0000000000000000008B
:1064300019500D0023500D002D500D0037500D0048
:1064400041500D004D500D0059500D0065500D008C
:106450006D500D0077500D0081500D0000000000C0
:106460007371727400000000000000000000000062
:10647000000000000000000000000000000000001C
:10648000000000000000000000000000000000000C
:1064900000000000000000000000000000000000FC
:1064A00000000000000000000000000000000000EC
:1064B00000000000000000000000000000000000DC
:1064C00000000000000000004300000025430D0014
:1064D000F9460D002D470D0071470D00B9480D001C
:1064E000C9480D0001490D004D4F0D0005500D002C
:1064F0004D510D0025520D00A9520D006D530D0098
:1065000031540D00000000000000000000000000F9
:046510000000000087
:106514001A630D00010000000000000068640D0013
:1065240088640D00A8640D00000000000000000055
:106534000000000000000000C8640D00000000001E
:106544000000000000000000000000000000000047
:106554000000000000000000000000000000000037
:106564000000000000000000000000000000000027
:0C657400000000000000000054E30320C1
:10658000FFFFFFFF00000102030405060708090AD8
:106590000B0C0D0E0F101112131415161718191AD3
:0865A0001B1C1D1E1F2028001A
:0465A80078563412DB
:04000003D0004020C9
:00000001FF
