:02000002D0002C
:1040000000400D00388C0D00000006000C0005017A
:084010000401E80500000000B6
:0440180028780D00F7
:1040200009480A49884208B505D0094A824202D0A7
:10403000121A03F0FFFA0748074A0021121A03F088
:1040400004FB014808BD00BFB0DB032094870D00CE
:104050002CE003202CE00320F0E7032070B502F0F1
:10406000EBF8074C074BE41AA40800251E46A542AE
:1040700004D056F8253098470135F8E770BD00BFE9
:104080008C870D002C870D0000F052B908B500F0A8
:1040900015F9BDE8084002F091B801F0D9BD01F072
:1040A000D7BD000008B5034A00210C2001F03CFDFB
:1040B000FEE700BFF9580D000078B0FA80F0400923
:1040C0007047012303707047704700002DE9F04FDF
:1040D0006C4CADB001F018FC2368C01A41F2873374
:1040E000984240F2CB80684DDFF8A4A101F00CFCAF
:1040F0002B7820603BB101F007FC6B6BC01A42F2D9
:104100000F73984210D961490CA803F0D9FA9AF8B4
:104110000030002B40F0B2805D4B01221A7001F09C
:10412000F3FB5C4B1860A9E0284600F049FA51EC1B
:10413000100B03F01DFA8346284600F069FA51EC93
:10414000100B03F015FA002485F879408146D5F864
:10415000800002F095FF504B002203F021F903F09C
:1041600007FA804605F1480000F09EFA069005F136
:10417000480000F0A3FA064605F1480000F0ACFA4A
:10418000069B85F89940072B0746D5F8A05001D922
:104190009C1F01E003F11204EDB202F04DF9E4B20C
:1041A0002B463E4A002101F086FF02F045F92346E6
:1041B0003B4A00218DE8C00001F07DFF02F03CF990
:1041C0000B90584602F06EFFCDE90601484602F01A
:1041D00069FFCDE90801404602F064FF9DED087BD0
:1041E0008DED027B9DED067B0B9B2E4A804689461A
:1041F0001846CDE904898DED007B002101F05BFFBD
:104200009AF800307BB1224B00221A7001F07CFB3F
:10421000204B1B68C3EB000A02F00EF95346224AFA
:10422000012101F048FF214800F052FF0022114611
:104230001E4801F0BCFA23468DE8C0001C4A1B480A
:10424000002101F038FF9DED087B8DED027B9DED97
:10425000067BCDE904898DED007B164A13480021C9
:1042600001F029FF2B46144A1048002101F023FFDA
:104270000E482DB0BDE8F04F01F064B82DB0BDE898
:10428000F08F00BFF4E1032030E00320F8780D0048
:10429000FCE10320F8E10320000059403C780D00C8
:1042A00057780D0071780D008E780D00D0E1032055
:1042B000AE780D00C5780D00DF780D0008B502F06E
:1042C00043F903681B69984700280DDD02F03CF9AB
:1042D00003685B699847C1B2044800F09FFB00285F
:1042E000EDD0FFF7F3FEEAE708BD00BF30E00320A2
:1042F00010B50D4C204600F0EBFE2046012101F0E8
:1043000059FA2046012101F05AFA204605221421CB
:1043100001F04DFA2046054901F0A3FE2046BDE814
:10432000104001F00FB800BFD0E1032004790D0068
:1043300008B502F081F84FF4165102F071F802F05E
:1043400003F94FF4165102F0F9F801F0DDFA074BCA
:104350001860074B074801221A7002213C2200F026
:104360001FFFBDE80840FFF7C3BF00BFF8E103200F
:10437000FCE10320D0E1032010B52421044602F023
:10438000D1FB204610BD000010B50A4C01F034FAF4
:104390000421204600F086FE074A0849204602F024
:1043A000B3FB0120002101F0D7FB0548BDE8104018
:1043B00000F060B8D0E103202CE00320C9400D00DC
:1043C00030E0032001F018BA0022027042708280AF
:1043D000826002730282426102768283026280F806
:1043E00024200285C26280F83020426380F83820A1
:1043F00080F83920C2630264426480F8482080F863
:104400004920C2640265426580F8582080F859202E
:10441000C2650266426680F8682080F86920C2663C
:104420000267426780F8782080F87920C267C0F878
:104430008020C0F8842080F8882080F88920C0F887
:104440008C20C0F89020C0F8942080F8982080F844
:104450009920C0F89C20C0F8A020C0F8A42080F8C3
:10446000A82080F8A920C0F8AC20C0F8B020C0F87F
:10447000B420704710B50446FFF7A6FF04F1B8005A
:10448000FFF7A2FF0023022284F8703184F8713113
:1044900084F8812184F8823184F8833184F884316E
:1044A000C4F88831C4F88C31C4F89031C4F8943120
:1044B000C4F89831C4F89C3184F87231204610BD9C
:1044C000A1F14103052B02D8A1F137007047A1F1FA
:1044D0006103052B94BFA1F15700A1F13000704793
:1044E00038B5057804462D2D08BF0134204603F069
:1044F0008FF864235843224614F8013BA3F130019E
:104500000929F8D92E2B0BD15378303B092B07D82A
:104510000A2101FB03009378303B092B98BFC01898
:104520002D2D08BF404238BD38B504460D4603F076
:104530006FF86423B0FBF3F203FB1200114B2A80E7
:10454000434320460278A2F130010929044600F1D4
:104550000100F7D92E2A0BD10A490A2014F8012F9D
:10456000303A092A04D8B1FBF0F101FB0233F5E738
:1045700003EB830301330322B3FBF2F36B600023ED
:104580002B7238BD8096980010B50346044653F848
:104590001C2F42605A6882601B7A0373034653F8EB
:1045A000282F02615A6842611B7A037601F0ACF948
:1045B000012360636370237010BD000000000000E1
:1045C000D0B5002304464370806802F049FD0EA375
:1045D000D3E9002302F0E4FE0646A0880F4602F06D
:1045E0004FFD0B4602463946304602F0FDFB237B69
:1045F0001BB1024601F1004301E002460B4643ECC9
:10460000102BD0BDAFF300800000000065CDCD4180
:10461000D0B5002304464370406902F021FD0EA38B
:10462000D3E9002302F0BCFE0646208A0F4602F0C2
:1046300027FD0B4602463946304602F0D5FB237E65
:104640001BB1024601F1004301E002460B4643EC78
:10465000102BD0BDAFF300800000000065CDCD4130
:1046600010B583684360044601F04EF90123E06011
:104670006370237010BD10B583684360044601F079
:1046800043F90123E0606370237010BD10B5044648
:104690000846FFF725FFA06010BD10B50446084688
:1046A00002F0B6FFA06010BD0023437043680248CB
:1046B000B3FBF0F0C0B2704740420F0000234370DC
:1046C000436842F21070B3FBF0F36420B3FBF0F2E6
:1046D00000FB1230C0B2704700234370436864206F
:1046E000B3FBF0F3B3FBF0F200FB1230C0B2704743
:1046F00010B5C3688360044601F006F901236060C9
:104700006370237010BD10B504460846FFF7E8FE3D
:10471000E06010BD10B5C3688360044601F0F4F892
:10472000012360606370237010BD10B50446084615
:1047300002F06EFFE06010BD10B501460446103077
:1047400002F0BEFF01F0E0F80123206284F825307A
:1047500084F8243010BD102202F0C2BFF8B590F8E2
:1047600071510446002D00F08B8090F87211FFF714
:10477000A7FE94F8731102462046FFF7A1FE94F8B5
:10478000703100EB0210C0B2834272D1D4F89C3178
:104790000133C4F89C3194F8843123B1D4F89431B6
:1047A0000133C4F8943194F88131FBB1012B4DD120
:1047B00004F1F000FFF754FF04F58070FFF75BFF92
:1047C00094F8843104F1B8064BB13046FFF7DCFEB3
:1047D00004F58870FFF78CFF04F5907027E084F8EB
:1047E000B83084F8103184F8203122E004F580706C
:1047F000FFF741FF94F8843104F1B8065BB130460D
:10480000FFF7C2FE04F59870FFF772FF04F5A07081
:10481000FFF76EFF05E084F8B83084F8303184F893
:10482000403104F5A870FFF775FF04F5B070FFF78D
:104830005FFF0021084601F087F83146B822204684
:1048400002F0F8FE0021012001F07EF8D4F88C611E
:10485000002E00F0D980D4F88C31B06A996A02F049
:1048600025FF002840F0D0803046FFF765FF366B0B
:10487000EEE7D4F898310133C4F898310025C3E04D
:1048800090F8822172BB00F5B9766049304602F09B
:104890000DFF20B15E49304602F008FF08B9012340
:1048A0000CE05C49304602F001FF20B15A49304625
:1048B00002F0FCFE08B9002300E0022384F88131F5
:1048C000D4F88831C4F88C31D4F88C71002F00F002
:1048D0009B803146B86A02F0E9FE002880F29080A1
:1048E0003B6BEFE790F88111022971D090F872319B
:1048F000002B6DD042EA4112013A282A68D8DFE83D
:1049000002F01521242B324950575C6761676767B5
:104910006767676767676767676767676767676727
:104920006767151C21242B32393E430000F5B9710D
:1049300000F58070FFF7AAFE4AE0A3F14100434270
:1049400043412BE000F1D40108E0A3F153014B42B5
:104950004B4180F8DC303BE000F1E00104F5B97038
:10496000FFF7E2FD34E0A3F157025342534180F8D0
:10497000E8302DE000F5B97100F5887026E000F50B
:10498000B97100F5907021E000F5B971F030FFF7D2
:1049900084FE1DE0302B94BF0023012384F8843172
:1049A00016E000F5B97100F5A870FFF7BEFE0FE044
:1049B00000F5B97100F5B07008E000F5B97100F5C7
:1049C000987003E000F5B97100F5A070FFF79BFE49
:1049D000D4F88C6104F5B977B6B1D4F88C31B06AEB
:1049E000996A02F063FE78B9F26A94F882319A42C9
:1049F0000ADC03D139463046FFF7ADFE366BEBE7F4
:104A000002D00023C4F88C312846F8BD15790D007A
:104A10001B790D0021790D0027790D0038B5D0F8EC
:104A20009031242903F1010304460D46C0F890316A
:104A30002AD090F8833104D80A290CD00D2932D11C
:104A400009E02A2907D02C292DD190F8702182F075
:104A50002C0280F870210E2B4FF0000005D8234463
:104A600083F872012046FFF779FE94F88231013312
:104A700084F88231002384F88331A5F12A035D4252
:104A80005D4184F8715138BD0020022384F8830110
:104A900084F8820184F8700184F8813184F871010E
:104AA00084F8840138BD0D2B9FBF5A1C1B1984F854
:104AB000832183F8725194F8710128B994F8701128
:104AC0004D4084F8705138BD002038BD00F094BED0
:104AD0007FB5024608461379956833B13DB90C4954
:104AE00004B0BDE8704001F0A9BA0A4B00E00A4BDF
:104AF000167B0A4C0A49527B0292012E08BF2146BE
:104B000001910095074A002101F0D5FA04B070BD6B
:104B100071790D00FC7C0D0060790D0069790D0044
:104B20006D790D0087790D0010B58368044613B1C7
:104B3000032201469847204610BD000070B5194C6D
:104B4000194E00F059FE0821204600F0AFF83168F8
:104B5000164B236011F001050AD13046FFF7ACFA7D
:104B600030B12946124801F0C7F83046FFF7A9FADC
:104B7000104AA2610E4B104AE36022621123012207
:104B8000236184F8242000230C4A0D49054823752D
:104B9000237784F8253001F0B7FF0A48BDE870405C
:104BA000FFF768BC0CE2032000E20320A87D0D00A3
:104BB00004E203205C790D00809698002CE003202D
:104BC000ED4B0D0034E2032000F016BE08B5044B97
:104BD00001221A7000F010FE024B034A1A6008BD51
:104BE000D8E30320D4E30320937D0D00704710B574
:104BF0002821044601F096FF204610BD10B504465A
:104C000000F11801C06801F0DFF8208A0021BDE83A
:104C1000104001F0FCBE10B504460121008A01F0ED
:104C2000F6FEE068BDE8104001F0B4B8F8B51E46E5
:104C300003685B690F46144605469847012E88BFF6
:104C400047F0400747F08001E86801F083F9264407
:104C5000B44206D00021E86801F07CF904F8010BA9
:104C6000F6E72B6828469B6998470120F8BDF8B500
:104C70001E4603685B690F46144605469847012E99
:104C800088BF47F040073946E86801F063F92644D9
:104C9000B44205D014F8011BE86801F05BF9F7E7AE
:104CA0002B6828469B6998470120F8BD024A02609C
:104CB0000022416002727047CC7D0D0013B503687D
:104CC00001AADC680123A0479DF8040002B010BDD2
:104CD00038B505460A240F212846FFF7EFFF332891
:104CE0004FF0010005D001F033FA013CF3D120462A
:104CF00038BD38BD10B50446018AC06801F017F808
:104D00002046BDE81040FFF7E3BF00F075BD00008E
:104D1000024B01221A7000F06FBD00BFD9E30320DF
:104D200000F06ABDF0B5447EBDF81450022C08D0E6
:104D3000032C0FD0012C70D10489013CA21A12B2AD
:104D40000CE04489013CA21A0489E41A611A12B2E7
:104D500009B262E04489E41A611A09B2002A5BDBF5
:104D6000B0F90840944240F390800029BEBF5B1820
:104D70001BB20021B0F90A00CC188442C4BF431A08
:104D80001BB2002B40F38180C9B2C8083F4F02EB31
:104D9000C01211F00701DBB207EB020417D0C1F11A
:104DA0000801C8B23A4983420E5C3FBFC3EB000E14
:104DB000FF2141FA0EF10E40B95C012D0CBF3143C9
:104DC000B1438342B95460D3181AC3B28034072B5D
:104DD00017D9012D0CBFFF20002004F180011A46D5
:104DE000083AD2B2072A01F8800C01F18001F7D805
:104DF000A3F10802C2F3C402013204EBC21403F0AF
:104E00000703002B41D0234AD25C2378012D0CBF2D
:104E1000134393432370F0BDF0BD002A35DBB0F996
:104E20000A40944231DD0029BCBFC9180BB2B0F969
:104E30000870B8BF0021CE18BE42C4BF631A1BB2AF
:104E4000002B22DDD01001EBC011104802F0070248
:104E50000144012000FA02F28542D2B209D1013B9D
:104E60001BB25C1C11D011F8010B104301F8010CAE
:104E7000F5E7D243D2B2013B1BB2581C05D011F862
:104E8000010B104001F8010CF5E7F0BDC0DB032079
:104E9000B8DB0320B0DB0320F0B5447EBDF814502E
:104EA000022C08D0032C0FD0012C12D10489E41A53
:104EB000A21A12B26DE00489013C611A4489E41A15
:104EC000A21A09B212B204E04489013C611A09B283
:104ED0005FE000295CDBB0F908408C4240F3918030
:104EE000002ABCBFD21813B2B0F90A00B8BF002222
:104EF000D4188442C4BF831A1BB2002B40F38180B4
:104F0000D4B2404EDAB2E30801EBC31114F0070447
:104F100006EB010317D0C4F10804E0B23A4C824218
:104F2000275C3FBFC2EB000EFF2444FA0EF427407B
:104F3000745C012D0CBF3C43BC438242745460D36B
:104F4000101AC2B28033072A17D9012D0CBFFF24D3
:104F5000002403F1800011460839C9B2072900F87E
:104F6000804C00F18000F7D8A2F10801C1F3C40120
:104F7000013103EBC11302F00702002A41D023499B
:104F8000895C1A78012D0CBF0A438A431A70F0BD60
:104F9000F0BD002935DBB0F90A408C4231DD002A32
:104FA000BCBFD21813B2B0F90870B8BF0022D6182F
:104FB000BE42C4BFA31A1BB2002B22DDC81002EBF5
:104FC000C012104801F007011044012202FA01F159
:104FD0009542C9B209D15A1E13B25C1C11D010F807
:104FE000012B0A4300F8012CF5E7C943C9B25A1E48
:104FF00013B25A1C05D010F8012B0A4000F8012CFE
:10500000F5E7F0BDC0DB0320B8DB0320B0DB0320F5
:10501000F8B50D1E064614461F463FDB00F0D4FBD4
:1050200085423BDA002C39DB304600F0D0FB84426D
:1050300034DA304600F0C6FB022827D13189708966
:1050400001390138491B001B0DB204B206E00128EA
:1050500004D13389013B1B1B2C461DB20820012FB4
:1050600094FBF0F000B20E4B04F0070205EBC01108
:1050700004D197405A5C17435F54F8BD585C012730
:1050800007FA02F220EA02025A54F8BD0328DED1E0
:105090007389013B5B1B25461CB2DFE7F8BD00BFEF
:1050A000C0DB032038B5402204460D46802100F0C5
:1050B0009FFA064B2360FF23637784F82130E37760
:1050C000A37784F82050204638BD00BFE87D0D004E
:1050D0004FF480620021014802F0B7BAC0DB032020
:1050E00038B5094D296811F001040AD12846FEF7A8
:1050F000E3FF30B12146054800F0FEFD2846FEF7EB
:10510000E0FF024838BD00BF00E2032004E20320B4
:1051100038B590F91D30013304460D4628D090F97A
:105120002100012180B201F072FC94F91F000021DE
:1051300080B201F06CFC94F92100002180B201F0F2
:1051400066FC94F822302BB1FFF7CAFF294600F025
:1051500001FF05E02B460122A17F607F01F070FC7A
:1051600094F92100012180B2BDE8384001F04FBC24
:1051700001F0A4FC94F91B1001F054FA01F09EFC1C
:10518000036800219B68984701F098FC0368294652
:105190009B68984701F092FCBDE8384001F049BA9D
:1051A00038B504460D46217790F91D30C27601339B
:1051B00037D090F91F00012180B201F017FC94F95B
:1051C0002100012180B201F011FC94F822305BB97A
:1051D00094F91D00012180B201F008FC94F91E0031
:1051E000012180B201F002FC94F82230EBB194F975
:1051F0002100012180B201F00AFCFFF771FF0121BB
:1052000000F0A6FDFFF76CFF102100F07FFEFFF716
:1052100067FF002100F0ADFDFFF762FF00F076FDB3
:1052200003E001F04BFC01F0F3F994F920000121B7
:1052300080B201F0DBFB94F92000012180B201F083
:10524000E6FB012000F084FF94F92000002180B2E9
:1052500001F0DDFB0A2000F07BFF94F92000012122
:1052600080B201F0D4FB2046AE21FFF751FF20466B
:10527000D521FFF74DFF20468021FFF749FF20464B
:10528000A821FFF745FF20463F21FFF741FF2046B9
:10529000D321FFF73DFF20460021FFF739FF2046CD
:1052A0004021FFF735FF8D212046FFF731FF012D0B
:1052B0000CBF102114212046FFF72AFF2046202191
:1052C000FFF726FF20460021FFF722FF2046A121FD
:1052D000FFF71EFF2046C821FFF71AFF2046DA21FC
:1052E000FFF716FF20461221FFF712FF812120460B
:1052F000FFF70EFF012D0CBF9F21CF212046FFF7A6
:1053000007FFD9212046FFF703FF012D0CBF222103
:10531000F1212046FFF7FCFE2046DB21FFF7F8FED7
:1053200020464021FFF7F4FE2046A421FFF7F0FEBF
:105330002046A621FFF7ECFE2046AF21BDE838400D
:10534000FFF7E6BE2DE9F04121210446FFF7E0FE1C
:1053500000212046FFF7DCFE7F212046FFF7D8FE24
:1053600022212046FFF7D4FE00212046FFF7D0FE81
:1053700007212046FFF7CCFE94F91D30DFF8BC80F2
:10538000013335D094F92100012180B201F03FFBB7
:1053900094F91F00012180B201F039FB94F921003A
:1053A000002180B201F033FB012000F0A5FA0025B6
:1053B00094F8223018F805602BB1FFF791FE3146C2
:1053C00000F0C8FD05E033460122A17F607F01F0B7
:1053D00037FB0135B5F5806FEAD1012000F08CFA7A
:1053E00094F92100012180B2BDE8F04101F00FBB2A
:1053F000002501F063FB94F91B1001F013F901F093
:105400005DFB036840219B689847002601F056FB2E
:10541000AF190368BFB29B6818F8071001369847A8
:10542000102EF3D1103501F049FBADB201F001F9B6
:10543000B5F5806FDDD1BDE8F08100BFC0DB032092
:1054400000F0DAB92DE9F04F85B01E46BDF93830CD
:10545000BDF83CA015469A1A002AB8BF52420092E5
:10546000721A002AB8BF524201920C46009A019962
:105470008A42814605DD32461E46134622462C46A8
:105480001546B44205DD2A461D46134622463446DB
:1054900016465A1B002AB8BF5242C4EB06089D426A
:1054A000B4BF01234FF0FF331FFA88F80293039231
:1054B0000FFA88F7022297FBF2F7B4421FDC019A39
:1054C000009B9342D9F80030C8BF2246D3F810B0F1
:1054D000C8BF29465346DCBF2A4621464846D8471E
:1054E000039BFF1ABBB21FB2002F05DA029A08EB2A
:1054F000030715442DB23FB2013424B2DDE705B0F5
:10550000BDE8F08F2DE9F347BDF82C600768BDF9C1
:1055100028A000960446FF6991460D469846B84774
:10552000236800960AF1FF324A44DF692946434660
:10553000204612B2B847236800969F694A465346F0
:1055400029462046B84723680A9608F1FF312944C6
:105550009D694A46534609B22046AC4602B0BDE8B2
:10556000F047604737B5013B13440468BDF8185055
:1055700001951BB2009364690B46A04703B030BD90
:1055800037B5BDF8185004688DE82400013B0B4482
:1055900064691BB2A04703B030BD2DE9F347BDF9E4
:1055A0002880BDF82C90054617460C4601EB030AEF
:1055B00054450BDA2B68CDF800909E69214643468E
:1055C0003A4628460134B04724B2F1E702B0BDE8BC
:1055D000F08713B5B0F90E20046801910092002203
:1055E000B0F90C30646A1146A04702B010BD704794
:1055F00030B501810024084D42818181C2814FF67E
:10560000FF71012244600560447604824482027680
:10561000C1828182827630BD207E0D002DE9F04F5F
:105620008FB005460691BDF860100791BDF8641073
:105630000891B0F90C1006989DF8688081427CDDD5
:10564000B5F90E10914278DD062111FB0800002803
:1056500073DD02EBC80000286FDD03EB830396B215
:105660000C9306F108039BB2099100240D93052CBD
:105670001CBF334B0C9A059616BF1B194FF000093F
:1056800013F8029004961FFA88F30393039ABDF867
:10569000183004FB023213FA84F312B21BB20A92DE
:1056A00037460FFA88FA0B9319F0010F11D0B8F1B1
:1056B000010F2B6803D1D3F810B0079B14E0079AB1
:1056C0000192CDF800A0D3F824B0BDF910205346C4
:1056D00018E0079B089A934217D0B8F1010F2B6886
:1056E00007D1D3F810B013463AB20B992846D847E1
:1056F0000BE0089A0192CDF800A0BDF91420D3F870
:1057000024B053460A992846D847049B039A134469
:105710009BB20493059B13449BB2013705930D9BE9
:10572000BFB29F424FEA5909BED1099B013B0134E8
:1057300013F0FF0364B2099399D10FB0BDE8F08F65
:10574000507E0D0030B50A2985B004460B4604D1C1
:10575000027E438A03EBC20323E00D2924D0057E99
:10576000B0F91220B0F910100295C58A0195858A0A
:105770000095FFF753FF227E238A91B201EB41008F
:1057800003EB4003A07E1BB2238268B1B4F90C0086
:105790006FF0050505FB0202934205DD638A03EB0A
:1057A000C103638200232382012005B030BD018242
:1057B00042827047002908BF012101767047C182EB
:1057C00081827047407E7047B0F90C007047B0F995
:1057D0000E00704700F010B808B5024B1B689B68BC
:1057E000019308BD6802030008B5024B1B68DB6823
:1057F000019308BD6802030008B5024B1B681B68D3
:10580000019308BD2C02030008B5024B1B689B687E
:10581000019308BD2C02030008B5024B1B68DB682E
:10582000019308BD2C02030008B5024B1B681B69DD
:10583000019308BD2C02030008B5024B1B681B68CE
:10584000019308BD3002030008B5024B1B689B683A
:10585000019308BD3002030008B5024B1B68DB68EA
:10586000019308BD3002030008B5024B1B681B6999
:10587000019308BD3002030008B5024B1B685B6949
:10588000019308BD3002030008B5024B1B68DB69B9
:10589000019308BD3002030008B5024B1B681B6A68
:1058A000019308BD3002030008B5024B1B685B6A18
:1058B000019308BD3002030008B5024B1B68DB6B87
:1058C000019308BD3002030008B5024B1B681B6C36
:1058D000019308BD3002030008B5024B1B685B6CE6
:1058E000019308BD3002030008B5024B1B685B68DA
:1058F000019308BD1802030008B5024B1B68DB6862
:10590000019308BD1802030008B5024B1B685B69D0
:10591000019308BD1802030008B5024B1B689B6881
:10592000019308BD4802030008B5024B1B681B69C0
:10593000019308BD4802030008B5024B1B685B6970
:10594000019308BD4802030008B5024B1B68DB69E0
:10595000019308BD4802030008B5024B1B685B6C4D
:10596000019308BD4802030008B5024B1B689B6CFD
:10597000019308BD4802030008B5024B1B685B6930
:10598000019308BD6402030008B5024B1B681B6845
:10599000019308BD3C02030008B5024B1B68DB689D
:1059A000019308BD3C02030008B5024B1B681B694C
:1059B000019308BD3C02030008B5024B1B685B69FC
:1059C000019308BD3C02030008B5024B1B689B69AC
:1059D000019308BD3C02030008B5024B1B68DB695C
:1059E000019308BD3C02030008B5024B1B681B6A0B
:1059F000019308BD3C02030008B5024B1B689B6A7B
:105A0000019308BD3C02030008B5024B1B68DB6A2A
:105A1000019308BD3C02030008B5024B1B68DB681C
:105A2000019308BD2802030008B5024B1B689B695F
:105A3000019308BD2802030008B5024B1B68DB690F
:105A4000019308BD2802030008B5024B1B681B6ABE
:105A5000019308BD2802030008B5024B1B685B6A6E
:105A6000019308BD2802030008B5024B1B689B6A1E
:105A7000019308BD2802030008B5024B1B68DB6ACE
:105A8000019308BD2802030008B5024B1B681B6B7D
:105A9000019308BD2802030008B5024B1B685B6B2D
:105AA000019308BD2802030008B5024B1B681B6C5C
:105AB000019308BD2802030008B5024B1B681B6850
:105AC000019308BD4C02030008B5024B1B685B68DC
:105AD000019308BD4C02030008B5024B1B681B690B
:105AE000019308BD4C02030008B5024B1B685B69BB
:105AF000019308BD4C02030008B5024B1B689B696B
:105B0000019308BD4C02030008B5024B1B68DB691A
:105B1000019308BD4C02030008B5024B1B681B6AC9
:105B2000019308BD4C02030008B5024B1B685B6B78
:105B3000019308BD6002030008B5024B1B685B6857
:105B4000019308BD2002030008B5024B1B685B6986
:105B5000019308BD2002030008B5024B1B68DB6AF5
:105B6000019308BD2002030008B5034B1B68D3F85E
:105B70008830019308BD00002002030008B5034BE4
:105B80001B68D3F89430019308BD00002002030085
:105B900008B5024B1B685B68019308BD4002030017
:105BA00008B5024B1B689B68019308BD40020300C7
:105BB00008B5024B1B68DB68019308BD4002030077
:105BC00008B5024B1B681B69019308BD4002030026
:105BD00008B5024B1B685B69019308BD40020300D6
:105BE00008B5024B1B689B69019308BD4002030086
:105BF00008B5024B1B68DB69019308BD4002030036
:105C000008B5024B1B681B6A019308BD40020300E4
:105C100008B5024B1B681B6B019308BD40020300D3
:105C200008B5024B1B685B6B019308BD4002030083
:105C300008B5024B1B68DB6B019308BD44020300EF
:105C400008B5024B1B681B68019308BD1C020300CA
:105C500008B5024B1B685B68019308BD1C0203007A
:105C600008B5024B1B685B6A019308BD1C02030068
:105C7000002211464068FFF7C3BF0022114640686A
:105C8000FFF7CEBF00224068FFF7C2BF002281F0BD
:105C900001014068FFF7ACBF00231A46194640686F
:105CA000FFF79EBF00231A4619464068FFF790BFD2
:105CB000002211464068FFF783BF0022114640686A
:105CC000FFF76EBF002202214068FFF771BF00237B
:105CD0001A464068FFF75CBF024B03225A60024A33
:105CE0001A607047DCE3032054830D000021FFF7A6
:105CF000EBBD0021FFF7F0BD10B50446017008466A
:105D0000FFF7C2FD00236360204610BD10B50446B6
:105D10000078FFF7EBFF48B920784FF6FF71FFF7E7
:105D20008BFD2078BDE81040FFF7E3BF10BD38B50C
:105D3000044600780D46FFF7D9FF40B92078294680
:105D4000FFF77AFD2078BDE83840FFF7D2BF38BDB5
:105D500038B5044600780D46FFF7C8FF40B92078F3
:105D60002946FFF771FD2078BDE83840FFF7C1BF35
:105D700038BD38B5044600780D46FFF7B7FF40B987
:105D800020782946FFF768FD2078BDE83840FFF706
:105D9000B0BF38BD0078FFF7ACBF0000400830B599
:105DA0001860002418688842E5B206D90134082C2E
:105DB00002D040081860F5E70725024B5B5D1370C1
:105DC00030BD00BF80830D002DE9F04307468FB042
:105DD00000780E46FFF78AFF002862DB3C78142229
:105DE000002109A801F031FC0B232046002209A95B
:105DF000ADF82430FFF758FD9DF82D4054B19DF8C3
:105E00002C5035B9DDF830809DF834909DF8354040
:105E100003E00024A146A0460125337905B1BBB9B2
:105E20009D420BD1B268424508D18DF820908DF883
:105E30002140BDF82010B289914209D053B100240D
:105E4000387801940094234622460121FFF734FD5F
:105E5000002026E08DF80F30B1680A9804AB0DF1F0
:105E60000F02FFF79BFF317905B1B1B9A94208D004
:105E7000002438780194747B337B9DF80F200094C4
:105E8000E4E7B3684345F3D38DF820908DF82140C3
:105E9000BDF82020B3899A42EAD1049B4345E7D15B
:105EA000D6E70FB0BDE8F0832DE9F04188B00023BC
:105EB0000446007802930E461746FFF717FF054683
:105EC00000BB94F800800146142203A801F0BDFB3A
:105ED0000B232A4603A94046ADF80C30FFF7E4FC3B
:105EE00002AB0DF1070207FB06F104988DF807508D
:105EF000FFF754FF20789DF80710FFF7B5FC2078D6
:105F0000FFF7F7FE029808B0BDE8F08138B5044607
:105F100000780D46FFF7EAFEC8B9616871B10C4B15
:105F2000C25CAA4202D001300828F9D10130C0B2C7
:105F3000C14001222046FFF7B7FF03E02946207841
:105F4000FFF792FC2078BDE83840FFF7D2BE38BD9D
:105F500080830D0008B50078FFF78EFCC0B208BD45
:105F60000078FFF799BC10B50446006818B1FFF738
:105F70006FFE0023236010BD10B50446FFF7F3FF4A
:105F8000204610BD10B5094C00204FF6FF7320606D
:105F9000A080A07120816381FFF7CEFD2046044AD6
:105FA0000449BDE8104000F0AFBD00BFE4E30320AA
:105FB0002CE00320795F0D0010B50446006808B19D
:105FC000FFF7D2FC204610BD10B5064C002320463A
:105FD0002360FFF7C1FC2046034A0449BDE8104096
:105FE00000F092BDF0E303202CE00320B95F0D0028
:105FF000F8B506460D468F180024BD420CD0336814
:1060000015F8011B9B6830469847002801DB0444C3
:10601000F3E7002C08BF04462046F8BD70B50546DE
:106020000C46084649B101F053FB2B680246214655
:106030002846DB68BDE87040184770BD08B5FFF71B
:10604000EDFF08BD03689B68184738B50D2105466C
:10605000FFF7F8FF0A2104462846FFF7F3FF204424
:1060600038BD38B50546FFF7D9FF04462846FFF787
:10607000ECFF204438BD30B58BB00B4600218DF8C5
:106080002410012A98BF0A220DF12304B3FBF2F574
:1060900005FB123303F0FF03092B94BF3033373372
:1060A000DBB2214604F801392B46002DEED1FFF773
:1060B000B5FF0BB030BD0CB42DE9F04387B000AF95
:1060C00007F13804054654F8049B3C600E4623460D
:1060D0004A461421381DFFF7C3FD132805D8391D82
:1060E0002846FFF79BFF044613E000F1080323F066
:1060F0000703E846ADEB030D411C23464A466846BC
:106100003C60FFF7ADFD69462846FFF787FF044670
:10611000C5461EB12846FFF798FF044420461C37A9
:10612000BD46BDE8F04302B070470000014B024A93
:106130001A607047F4E30320FB830D00024B1A68DA
:10614000024B1A60704700BFC0DF0320F8E3032052
:106150000021FFF7F9BC10B50446FEF7E5FC204628
:1061600010BD00000348044A04490023836000F086
:10617000CBBC00BFFCE303202CE0032057610D00E3
:1061800008B50C4B33B100F057F903681B69984709
:10619000002809DC084B63B100F0D6F903681B69DD
:1061A0009847002803DC08BDAFF30080F2E7AFF3A7
:1061B000008008BD000000000000000008B5FFF7E7
:1061C000DFFFFFF7A1FB014B186008BD30E703209C
:1061D0000248034A0349121A01F02CBA00F40320C2
:1061E00004F4032090870D0007B5002300931A469E
:1061F0006FF07701FFF7C2FC03B05DF804FB00000D
:1062000007B543880A2B08D0502B09D1094B1B68CE
:106210003BB103B05DF804EB1847FFF7E5FF06E07C
:10622000002300931A466FF07701FFF7A7FC03B035
:106230005DF804FB0CE4032038B5104C104D2368C6
:10624000AB42104B0CBF012200221A7002D0FFF7A4
:10625000BFFF2560FFF748FB044601F0FFF90A4B3A
:1062600013B12046AFF3008000210748FFF7E0FCA0
:1062700000210648BDE83840FFF776BC00F4032053
:106280001E1C279A10E403200000000001620D008C
:10629000704710B51821044600F044FC204610BD9C
:1062A000F0B5037D062B8DB00E4600F104074FF0CC
:1062B000000402D000F1080518E00CAD394605F8DD
:1062C000304D2F232A460A20FFF756FB284601F0BF
:1062D000FFF933680246DB682946304698470FE0ED
:1062E00024B12E213046FFF7ADFE044415F8011D00
:1062F0000A223046FFF7BFFEBD420444F0D12046DB
:106300000DB0F0BD10B5054B0446112240F8043B1A
:10631000002101F09AF9204610BD00BF98840D00BD
:106320000346074A10B543F8042B01F1100251F857
:10633000044B43F8044B9142F9D10A781A7010BD0E
:1063400098840D0010B59DF8084044EA032343EA01
:10635000024242EA016104234160037510BD37B572
:106360000D788B784A78C97800912946FFF7EAFFC3
:1063700003B030BD41747047704708B50021007C00
:10638000FFF7BAFB30EA200028BF4FF0FF3008BD0E
:1063900008B50121007CFFF7AFFB30EA200028BFE1
:1063A0004FF0FF3008BD08B5007CFFF79DFB20EAE9
:1063B000E07008BD08B5007CFFF78EFB20EAE070B6
:1063C00008BD007CFFF7A8BB10B51421044600F0FF
:1063D000A9FB204610BD38B50446007C0D46FFF7EA
:1063E00083FB002801DC607C28B12946207CFFF774
:1063F0008BFB20EAE07038BD10B5044600236360D3
:106400004FF47A73A360054B23600123084621747F
:1064100063741146FFF750FB204610BDAC840D009D
:106420000022007CFFF750BB10B514220446002167
:1064300001F00BF9204610BD30B50E4D87B001A814
:10644000FFF7F2FF296811F0010410D12846FDF78B
:1064500033FE60B101AA21460748FFF7CDFF284669
:10646000FDF72FFE054A0649034800F04DFB0248A0
:1064700007B030BD14E4032018E403202CE003200F
:1064800079630D0070474174704708B5007CFFF7D1
:10649000B3FA20EAE07008BD08B5007CFFF784FA83
:1064A00020EAE07008BD08B5007CFFF78DFA30EAFD
:1064B000200028BF4FF0FF3008BD08B5007CFFF773
:1064C0007BFA30EA200028BF4FF0FF3008BD007C87
:1064D000FFF782BA10B51421044600F023FB2046D2
:1064E00010BD70B5457C04460E4625B9007CFFF70B
:1064F00083FA002805DD3146207CBDE87040FFF7B7
:106500004BBA284670BD000010B504460846114637
:10651000002262604FF47A72A260054A2260012272
:10652000207462741A46FFF72FFA204610BD00BF90
:10653000DC840D000023007CFFF766BA0022FFF721
:10654000F9BF007CFFF750BA38B50C4D296811F03F
:10655000010411D12846FDF7AFFD68B1084A094B87
:1065600009482146FFF7D0FF2846FDF7AAFD074A54
:106570000749054800F0C8FA034838BDC4E40320C1
:10658000C8E4032040E403202CE403202CE0032093
:1065900085640D007047F8B5064615460C468F1801
:1065A000BC4206D0336814F8011B9B6830469847FC
:1065B000F6E72846F8BD0022007CFFF745BA002127
:1065C000007CFFF749BA0021007CFFF74DBA00219B
:1065D000007CFFF751BA0021007CFFF755BA10B5D7
:1065E0001421044600F09EFA204610BD10B5044662
:1065F000002363604FF47A73A360044B2174084650
:1066000023601146FFF750FA204610BD0C850D009F
:1066100000231A461946007CFFF7FEB90022007CD1
:10662000FFF702BAC9B2FFF7F9BF0022007CFFF7FB
:1066300003BA0121FFF7F9BF0021007CFFF72CBA54
:10664000002211464068FFF7DBBA0022114640687D
:10665000FFF7E6BA00224068FFF7DABA002281F0BD
:1066600001014068FFF7C4BA00231A4601214068BF
:10667000FFF7B6BA00231A4619464068FFF7A8BAD2
:10668000002211464068FFF79BBA0022114640687D
:10669000FFF786BA002202214068FFF789BA00237B
:1066A0001A464068FFF774BA38B5054688B10468E1
:1066B0004CB1A3681BB10322214620469847102104
:1066C000204600F02FFA28461421BDE8384000F09B
:1066D00029BA38BD10B103685B681847704710B518
:1066E00003680446BBB15868FFF716F978B9236808
:1066F0005A7C12B95868FFF717F923685868FFF7F2
:106700001BF920680023236028B1FFF7CDFF206824
:1067100008B1FFF7C9FF204610BD38B50446D0F8D0
:10672000C40108B1FDF7BBFCD4F8C00108B1FFF704
:106730001BF9D4F8BC5135B12846FFF7D0FF04212E
:10674000284600F0EFF9206808B1FFF7C3FF2046A4
:1067500038BD000010B5044B044640F8083BFFF775
:10676000DCFF204610BD00BF34850D0038B50E4C4F
:106770000E4B23600025022304F5E4706360A560DE
:10678000C4F8C451C4F8C851FFF7E6F8084BC4F880
:10679000CC5184F8D05123602046064A0649BDE812
:1067A000384000F0B1B900BF4CE503209C850D00D6
:1067B00034850D002CE0032055670D0000221146A2
:1067C0004068FFF7FDB9002211464068FFF718BA8C
:1067D000002211464068FFF723BA00224068FFF705
:1067E00017BA002281F001014068FFF701BA0023C7
:1067F0001A4619464068FFF7F3B900231A461946AE
:106800004068FFF7E5B9002211464068FFF7C8B9B4
:10681000002202214068FFF7CBB900231A464068E6
:10682000FFF7B6B9024B04225A60024A1A60704759
:1068300020E7032068850D0000231A464068FFF713
:10684000A7B9002202214068FFF7B2B90022114621
:106850004068FFF7A5B9002211464068FFF7B0B9BC
:1068600000231A4619464068FFF7B2B900231A46BA
:1068700019464068FFF7B4B9002281F00101406871
:10688000FFF7B6B900224068FFF7C2B900221146EF
:106890004068FFF7C5B9002211464068FFF7B0B95C
:1068A0002DE9F043002495B016460D460746FFF744
:1068B00029FD214620220CA8009400F0C6FE4023AA
:1068C0000C9321466B460CAA3046FEF78DFF04461A
:1068D000002844D1024601216868FFF771F90221BE
:1068E000804622466868FFF76BF9009E8146214684
:1068F000002E34D0002932D17368022B02D00A2B2B
:1069000009D02AE0B8F1000F27D071693846043168
:10691000FFF725FD20E0B9F1000F1ED074691122A8
:1069200001A800F092FE06238DF8143001AD04F1A9
:1069300008031834186859682A4603C20833A3426A
:106940001546F7D101A906A807ADFFF7E9FC0FCD61
:106950003C1D0FC42B6823700121F669C8E700981D
:10696000FEF73AFF384615B0BDE8F083024B034A04
:106970001A6000225A60704728E703209C850D00AA
:1069800070B5184E316811F0010504460AD1304641
:10699000FDF792FB30B129461348FFF7ADF93046B9
:1069A000FDF78FFB1048FFF7DBFA28B1A4F10B03CA
:1069B000022B01D8002070BD00F080F8FFF73CFEEC
:1069C00008B1012CF6D9FFF7BFFDFFF7BAFD18B1EA
:1069D000A4F10903012BEDD9232C8CBF0020012049
:1069E00070BD00BF00E2032004E20320232838B575
:1069F00004460D460AD8FF2908D0FFF7C1FF28B189
:106A000029462046BDE83840FEF7FEBE38BD38B501
:106A100004460D46FEF700FFFF2810D0062804D8D4
:106A20004D2323FA00F0C30709D42046FFF7A8FF3F
:106A300028B129462046BDE83840FEF7F5BE38BDEE
:106A40002DE9F04190461E46072407460D46B8F151
:106A5000000F04D1C4F1070146FA01F101E046FA42
:106A600004F101F001013846FFF7D1FF012128466A
:106A7000FFF7CDFF00212846FFF7C9FF14F1FF34CF
:106A8000E5D2BDE8F081000070B5044614252A4621
:106A9000094E002100F0D9FD258020253146A56052
:106AA0002561284600F040F831466060284600F035
:106AB0003BF8E060204670BDC8850D0030B50E4D36
:106AC000296811F0010487B013D12846FDF7F4FAC4
:106AD00078B101A8FFF7D8FF01AA21460748FFF7C0
:106AE00085FD2846FDF7EDFA054A0649034800F002
:106AF0000BF8024807B030BD34E7032038E7032025
:106B00002CE0032095650D000B460146184600F069
:106B100083BD0000024B1868BFF35F8F704700BF52
:106B20004CE70320FDF7B9BA00F000B810B5002813
:106B300014BF044601242046FFF782F820B9FFF76E
:106B4000E9FF08B18047F6E710BD0000184B1A684E
:106B5000D1075CBF01221A60164B1A68D2075CBFCE
:106B600001221A60144B1A68D0075CBF01221A6018
:106B7000124B1A68D1075CBF01221A60104B1A68C9
:106B8000D2075CBF01221A600E4B1A68D0075CBFA7
:106B900001221A600C4B1A68D1075CBF01221A60EF
:106BA0000A4B1A68D2075CBF01221A60704700BF07
:106BB0006CE7032068E7032064E7032060E7032015
:106BC0005CE7032058E7032054E7032050E7032045
:106BD000244B1A68D0075CBF01221A60224B1A6846
:106BE000D1075CBF01221A60204B1A68D2075CBF34
:106BF00001221A601E4B1A68D0075CBF01221A607E
:106C00001C4B1A68D1075CBF01221A601A4B1A6824
:106C1000D2075CBF01221A60184B1A68D0075CBF0C
:106C200001221A60164B1A68D1075CBF01221A6054
:106C3000144B1A68D2075CBF01221A60124B1A6803
:106C4000D0075CBF01221A60104B1A68D1075CBFE5
:106C500001221A600E4B1A68D2075CBF01221A602B
:106C6000704700BF9CE7032098E7032094E70320C8
:106C700090E703208CE7032088E7032084E70320C4
:106C800080E703207CE7032078E7032074E70320F4
:106C900070E70320244B1A68D0075CBF01221A60FA
:106CA000224B1A68D1075CBF01221A60204B1A6878
:106CB000D2075CBF01221A601E4B1A68D0075CBF66
:106CC00001221A601C4B1A68D1075CBF01221A60AE
:106CD0001A4B1A68D2075CBF01221A60184B1A6857
:106CE000D0075CBF01221A60164B1A68D1075CBF3F
:106CF00001221A60144B1A68D2075CBF01221A6085
:106D0000124B1A68D0075CBF01221A60104B1A6838
:106D1000D1075CBF01221A600E4B1A68D2075CBF14
:106D200001221A60704700BFCCE70320C8E70320A8
:106D3000C4E70320C0E70320BCE70320B8E7032033
:106D4000B4E70320B0E70320ACE70320A8E7032063
:106D5000A4E70320A0E70320184B1A68D1075CBF03
:106D600001221A60164B1A68D2075CBF01221A6012
:106D7000144B1A68D0075CBF01221A60124B1A68C4
:106D8000D1075CBF01221A60104B1A68D2075CBFA2
:106D900001221A600E4B1A68D0075CBF01221A60EC
:106DA0000C4B1A68D1075CBF01221A600A4B1A68A3
:106DB000D2075CBF01221A60704700BFECE70320D6
:106DC000E8E70320E4E70320E0E70320DCE7032013
:106DD000D8E70320D4E70320D0E7032081F0004167
:106DE00002E000BF83F0004330B54FEA41044FEAB0
:106DF000430594EA050F08BF90EA020F1FBF54EA4B
:106E0000000C55EA020C7FEA645C7FEA655C00F0E6
:106E1000E2804FEA5454D4EB5555B8BF6D420CDDB7
:106E20002C4480EA020281EA030382EA000083EA3A
:106E3000010180EA020281EA0303362D88BF30BDDA
:106E400011F0004F4FEA01314FF4801C4CEA113130
:106E500002D0404261EB410113F0004F4FEA03338F
:106E60004CEA133302D0524263EB430394EA050F1A
:106E700000F0A780A4F10104D5F1200E0DDB02FA89
:106E80000EFC22FA05F2801841F1000103FA0EF21D
:106E9000801843FA05F359410EE0A5F120050EF1E3
:106EA000200E012A03FA0EFC28BF4CF0020C43FA14
:106EB00005F3C01851EBE37101F0004507D54FF021
:106EC000000EDCF1000C7EEB00006EEB0101B1F571
:106ED000801F1BD3B1F5001F0CD349085FEA3000B7
:106EE0004FEA3C0C04F101044FEA445212F5800FC2
:106EF00080F09A80BCF1004F08BF5FEA500C50F15F
:106F0000000041EB045141EA050130BD5FEA4C0C41
:106F1000404141EB010111F4801FA4F10104E9D1CA
:106F200091F0000F04BF01460020B1FA81F308BFC1
:106F30002033A3F10B03B3F120020CDA0C3208DD8D
:106F400002F1140CC2F10C0201FA0CF021FA02F168
:106F50000CE002F11402D8BFC2F1200C01FA02F1D8
:106F600020FA0CFCDCBF41EA0C019040E41AA2BFFD
:106F700001EB0451294330BD6FEA04041F3C1CDAC5
:106F80000C340EDC04F11404C4F1200220FA04F0E5
:106F900001FA02F340EA030021FA04F345EA03018F
:106FA00030BDC4F10C04C4F1200220FA02F001FA51
:106FB00004F340EA0300294630BD21FA04F02946D3
:106FC00030BD94F0000F83F4801306BF81F480116C
:106FD0000134013D4EE77FEA645C18BF7FEA655CDF
:106FE00029D094EA050F08BF90EA020F05D054EAB1
:106FF000000C04BF1946104630BD91EA030F1EBFB6
:107000000021002030BD5FEA545C05D140004941B9
:1070100028BF41F0004130BD14F580043CBF01F5AC
:10702000801130BD01F0004545F0FE4141F4700192
:107030004FF0000030BD7FEA645C1ABF194610466D
:107040007FEA655C1CBF0B46024650EA013406BF6E
:1070500052EA033591EA030F41F4002130BD00BF2D
:1070600090F0000F04BF0021704730B54FF48064EA
:1070700004F132044FF000054FF0000150E700BF6B
:1070800090F0000F04BF0021704730B54FF48064CA
:1070900004F1320410F0004548BF40424FF00001B7
:1070A0003EE700BF42004FEAE2014FEA31014FEAFA
:1070B00002701FBF12F07F4393F07F4F81F0605149
:1070C000704792F0000F14BF93F07F4F704730B5B8
:1070D0004FF4607401F0004521F0004120E700BF4B
:1070E00050EA010208BF704730B54FF000050AE0D2
:1070F00050EA010208BF704730B511F0004502D5D3
:10710000404261EB41014FF4806404F132045FEAD4
:10711000915C3FF4DCAE4FF003025FEADC0C18BF79
:1071200003325FEADC0C18BF033202EBDC02C2F16F
:10713000200300FA03FC20FA02F001FA03FE40EA01
:107140000E0021FA02F11444C1E600BF70B54FF001
:10715000FF0C4CF4E06C1CEA11541DBF1CEA1355E3
:1071600094EA0C0F95EA0C0F00F0DEF82C4481EA4B
:10717000030621EA4C5123EA4C5350EA013518BF6B
:1071800052EA033541F4801143F4801338D0A0FB58
:1071900002CE4FF00005E1FB02E506F00042E0FB05
:1071A00003E54FF00006E1FB03569CF0000F18BF0B
:1071B0004EF0010EA4F1FF04B6F5007F64F54074B3
:1071C00004D25FEA4E0E6D4146EB060642EAC62146
:1071D00041EA55514FEAC52040EA5E504FEACE2EB3
:1071E000B4F1FD0C88BFBCF5E06F1ED8BEF1004FB6
:1071F00008BF5FEA500E50F1000041EB045170BD32
:1072000006F0004646EA010140EA020081EA030175
:10721000B4EB5C04C2BFD4EB0C0541EA045170BD71
:1072200041F480114FF0000E013C00F3AB8014F1EB
:10723000360FDEBF002001F0004170BDC4F1000434
:10724000203C35DA0C341BDC04F11404C4F12005B5
:1072500000FA05F320FA04F001FA05F240EA020010
:1072600001F0004221F0004110EBD37021FA04F646
:1072700042EB06015EEA430E08BF20EAD37070BD00
:10728000C4F10C04C4F1200500FA04F320FA05F05F
:1072900001FA04F240EA020001F0004110EBD37061
:1072A00041F100015EEA430E08BF20EAD37070BDD1
:1072B000C4F1200500FA05F24EEA020E20FA04F3AA
:1072C00001FA05F243EA020321FA04F001F0004159
:1072D00021FA04F220EA020000EBD3705EEA430ECA
:1072E00008BF20EAD37070BD94F0000F0FD101F0F9
:1072F0000046400041EB010111F4801F08BF013C32
:10730000F7D041EA060195F0000F18BF704703F06F
:107310000046520043EB030313F4801F08BF013DF6
:10732000F7D043EA0603704794EA0C0F0CEA1355B2
:1073300018BF95EA0C0F0CD050EA410618BF52EA6C
:107340004306D1D181EA030101F000414FF0000072
:1073500070BD50EA410606BF1046194652EA430680
:1073600019D094EA0C0F02D150EA013613D195EAF4
:107370000C0F05D152EA03361CBF104619460AD13C
:1073800081EA030101F0004141F0FE4141F4700146
:107390004FF0000070BD41F0FE4141F4780170BD36
:1073A00070B54FF0FF0C4CF4E06C1CEA11541DBF9B
:1073B0001CEA135594EA0C0F95EA0C0F00F0A7F89D
:1073C000A4EB050481EA030E52EA03354FEA0131CA
:1073D00000F088804FEA03334FF0805545EA1313DD
:1073E00043EA12634FEA022245EA111545EA1065A5
:1073F0004FEA00260EF000419D4208BF964244F13C
:10740000FD0404F5407402D25B084FEA3202B61A5A
:1074100065EB03055B084FEA32024FF480104FF42E
:10742000002CB6EB020E75EB030E22BFB61A7546A2
:1074300040EA0C005B084FEA3202B6EB020E75EB35
:10744000030E22BFB61A754640EA5C005B084FEA9D
:107450003202B6EB020E75EB030E22BFB61A75466A
:1074600040EA9C005B084FEA3202B6EB020E75EB75
:10747000030E22BFB61A754640EADC0055EA060E36
:1074800018D04FEA051545EA16754FEA06164FEA79
:10749000C30343EA52734FEAC2025FEA1C1CC0D125
:1074A00011F4801F0BD141EA00014FF000004FF0B2
:1074B000004CB6E711F4801F04BF01430020B4F173
:1074C000FD0C88BFBCF5E06F3FF6AFAEB5EB030C2B
:1074D00004BFB6EB020C5FEA500C50F1000041EB28
:1074E000045170BD0EF0004E4EEA113114EB5C04F5
:1074F000C2BFD4EB0C0541EA045170BD41F48011C8
:107500004FF0000E013C90E645EA060E8DE60CEACF
:10751000135594EA0C0F08BF95EA0C0F3FF43BAFEC
:1075200094EA0C0F0AD150EA01347FF434AF95EAA3
:107530000C0F7FF425AF104619462CE795EA0C0F87
:1075400006D152EA03353FF4FDAE1046194622E754
:1075500050EA410618BF52EA43067FF4C5AE50EA2E
:1075600041047FF40DAF52EA43057FF4EBAE12E71E
:107570004FEA4102B2F1E04324BFB3F5001CDCF155
:10758000FE5C0DD901F0004C4FEAC0024CEA50708D
:10759000B2F1004F40EB830008BF20F001007047BC
:1075A00011F0804F21D113F13872BCBF01F00040BF
:1075B000704741F480114FEA5252C2F11802C2F1F1
:1075C000200C10FA0CF320FA02F018BF40F0010072
:1075D0004FEAC1234FEAD32303FA0CFC40EA0C0024
:1075E00023FA02F34FEA4303CCE77FEA625307D161
:1075F00050EA01331EBF4FF0FE4040F44000704798
:1076000001F0004040F0FE4040F40000704700BF31
:107610000A22002100F0FEB810B5054C13462CB12B
:107620000A4601460220AFF3008010BD204610BD7F
:107630000000000010B5431E0A44914204D011F826
:10764000014B03F8014FF8E710BD02440346934293
:1076500002D003F8011BFAE77047000038B5124B5F
:107660001C68A36B0546D3B91820FEF7E9FA43F26C
:107670000E33A06303804AF6CD33438041F23423B6
:1076800083804EF26D63C3804DF6EC630381052366
:1076900043810B23838101220023C0E90423A36BD0
:1076A00000221D615A6138BD28E0032010F8012B2B
:1076B00011F8013B012A28BF9A42F7D0D01A70472F
:1076C000034611F8012B03F8012B002AF9D170476A
:1076D000034613F8012B002AFBD1181A0138704712
:1076E00010B5034642B111F8014B03F8014B013AC2
:1076F000002CF7D11A4400E010BD934202D003F8E9
:10770000014BFAE710BD00002DE9F04780464048E4
:10771000D0F800900F463D4615F8014B09EB0400E8
:10772000407800F0080000F0FF0608B12F46F2E7AD
:107730002D2C03D1BD1C7C78012603E02B2C04BF2B
:107740007C78BD1C13B1102B0AD15BE0302C57D1D3
:10775000287800F0DF0058284DD16C7810230235CE
:10776000002E14BF4FF0004C6FF0004C0027BCFB04
:10777000F3FA384603FB1ACC09EB040E9EF801E03D
:107780001EF0040F01D0303C0BE01EF0030E1BD0A6
:10779000BEF1010F0CBF4FF0370E4FF0570ECEEB7E
:1077A0000404A34210DDB7F1FF3F0AD0504506D8CC
:1077B00001D1644503DC03FB0040012701E04FF0E9
:1077C000FF3715F8014BD7E77B1C0CD1002E4FF08B
:1077D000220314BF4FF000406FF00040C8F80030A3
:1077E0002AB9BDE8F08706B1404272B107B1691EFF
:1077F0001160BDE8F0873024002BB1D10823AFE73A
:107800000A23ADE7302CA3D0AAE7BDE8F08700BF7C
:10781000C4DF032013460A46014602480068FFF70A
:1078200073BF00BF28E0032021400D005D400D0024
:1078300089400D008D400D00000000002569207377
:107840006174656C6C6974657320696E2076696516
:1078500077202D2D2D200054696D653A202530327A
:10786000693A253032693A25303269202D2D2D2094
:10787000006C61743A2025662C206C6F6E673A208C
:1078800025662C20616C743A202566200A00256C40
:1078900075206D696C6C697365636F6E64732074B9
:1078A0006F206765742047505320666978005469DB
:1078B0006D653A20253032693A253032693A2530F3
:1078C0003269200A006C617420202566200A6C6FE2
:1078D0006E67202566200A616C742025660A0053B5
:1078E0006174656C6C6974657320696E2076696576
:1078F000773A202569200A006E6F206C6F636174EF
:10790000696F6E0047505320496E697469616C69F4
:107910007A696E67004750524D4300474E524D43BF
:1079200000475047474100474E474741004E004EF1
:107930004E4500454E4500455345005353450053C1
:10794000005353570057535700574E57004E4E574A
:10795000000000000000000000000000D14A0D00FF
:1079600064656661756C7420004D5342004C53424F
:10797000003C53504953657474696E6773206465A5
:107980006661756C743E003C53504953657474696C
:107990006E6773202573256C75202573204D4F4429
:1079A0004525643E004173736574547261636B6571
:1079B00072007769726552656164427974657341DA
:1079C0007661696C61626C65204932432065727230
:1079D0006F7220257500776972655265616442791E
:1079E000746573417661696C61626C6520696E6370
:1079F0006F727265637420636F756E7420257500F5
:107A000077697265526561644279746573204932A1
:107A100043206572726F7220257500776972655216
:107A2000656164427974657320696E636F72726513
:107A3000637420636F756E74202575006F6E6C69BA
:107A40006E652D6C697665312E7365727669636536
:107A5000732E752D626C6F782E636F6D0064617488
:107A60006120746F6F206C6F6E67207061796C6F2E
:107A700061644C656E3D257500696E76616C696464
:107A80002043524300446F6E652073656E64696ED7
:107A90006720616964696E67206461746120746F36
:107AA00020475053210064617461206469646E272B
:107AB0007420626567696E20776974682073796ED7
:107AC00063206279746573206F66667365743D2503
:107AD00075007061796C6F61644C656E206F662013
:107AE0002575207365656D7320746F206265206352
:107AF0006F72727570746564002C007B226C617407
:107B0000223A25662C20226C6E67223A25667D007B
:107B100072657175657374696E6720656C657661F1
:107B200074696F6E20666F722025730041737369EC
:107B30007374456C65766174696F6E00656C65760B
:107B40006174696F6E3D256600736572766572209B
:107B5000646973636F6E6E656374656420756E65CA
:107B6000787065637465646C7900436F6E74656EDC
:107B7000742D4C656E6774683A00436F756C6420B1
:107B80006E6F7420706172736520436F6E74656EE2
:107B9000742D4C656E6774682C2065786974696E05
:107BA0006700436F6E74656E742D4C656E67746804
:107BB000206F66202575206973206C61726765727D
:107BC000207468616E20627566666572206C656EF1
:107BD0006774682025750054696D6564206F75743D
:107BE0002067657474696E67206C6F636174696F78
:107BF0006E20696E666F726D6174696F6E2C2064A1
:107C0000656661756C74696E6720746F206E6F2095
:107C10006C6F636174696F6E206D6F646500636F74
:107C20006E6E656374656420746F202573002F4742
:107C300065744F6E6C696E65446174612E61736822
:107C4000783F746F6B656E3D25733B676E73733D54
:107C50006770733B64617461747970653D657068C9
:107C60002C616C6D2C6175782C706F733B6C61743A
:107C70003D252E37663B6C6F6E3D252E37663B707B
:107C80006163633D25643B616C743D25643B6669BB
:107C90006C7465726F6E706F733B6C6174656E634C
:107CA000793D32002F4765744F6E6C696E65446193
:107CB00074612E617368783F746F6B656E3D2573D8
:107CC0003B676E73733D6770733B64617461747975
:107CD00070653D6570682C616C6D2C61757800472E
:107CE000455420257320485454502F312E310D0A0D
:107CF000486F73743A2025730D0A0D0A00636F6E86
:107D00006E656374696F6E20746F202573206661E1
:107D1000696C656400416C726561647920686176A4
:107D20006520475053206669782C20736B6970700A
:107D3000696E67204173736973744E6F77004E6F7D
:107D4000206B65792C2063616E2774207573652024
:107D50004173736973744E6F7700686F6F6B2D7228
:107D60006573706F6E73652F25732F2573006661C1
:107D7000696C656420746F20616C6C6F63617465FD
:107D8000204173736973744E6F77446F776E6C6FB5
:107D90006164006170702E75626C6F780000000085
:107DA0000000000000000000ED4B0D00EF4B0D0047
:107DB000F54C0D002D4C0D006F4C0D00FD4B0D00D2
:107DC000174C0D0000000000000000000000000043
:107DD00000000000D14C0D00A5400D00A5400D0095
:107DE0000000000000000000C9400D0079430D00B4
:107DF00045570D00F15F0D0011500D0045540D0069
:107E0000994E0D00254D0D0005550D009B550D009B
:107E1000D3550D00EF550D000000000000000000DC
:107E2000000000000000000045570D00F15F0D004C
:107E3000A5400D0045540D0065550D0081550D0000
:107E400005550D009B550D00D3550D00EF550D0048
:107E500000000000003E5B4F5B3E3E6B4F6B3E1CE4
:107E60003E7C3E1C183C7E3C181C577D571C1C5EFB
:107E70007F5E1C00183C1800FFE7C3E7FF001824D2
:107E80001800FFE7DBE7FF30483A060E262979297C
:107E900026407F050507407F05253F5A3CE73C5AB1
:107EA0007F3E1C1C08081C1C3E7F14227F22145F8E
:107EB0005F005F5F06097F017F006689956A6060E9
:107EC00060606094A2FFA29408047E040810207EE3
:107ED000201008082A1C08081C2A08081E10101068
:107EE000100C1E0C1E0C30383E3830060E3E0E06AE
:107EF000000000000000005F000000070007001401
:107F00007F147F14242A7F2A1223130864623649BF
:107F10005620500008070300001C224100004122A7
:107F20001C002A1C7F1C2A08083E080800807030AC
:107F3000000808080808000060600020100804021B
:107F40003E5149453E00427F400072494949462121
:107F500041494D331814127F1027454545393C4A95
:107F600049493141211109073649494936464949AC
:107F7000291E0000140000004034000000081422F4
:107F80004114141414140041221408020159090662
:107F90003E415D594E7C1211127C7F494949363E63
:107FA000414141227F4141413E7F494949417F0949
:107FB0000909013E414151737F0808087F00417F54
:107FC00041002040413F017F081422417F40404052
:107FD000407F021C027F7F0408107F3E4141413EEA
:107FE0007F090909063E4151215E7F09192946266C
:107FF0004949493203017F01033F4040403F1F2070
:1080000040201F3F4038403F631408146303047846
:1080100004036159494D43007F4141410204081066
:1080200020004141417F04020102044040404040A1
:10803000000307080020545478407F28444438380F
:1080400044444428384444287F3854545418000881
:108050007E090218A4A49C787F0804047800447D5B
:1080600040002040403D007F1028440000417F40F8
:10807000007C047804787C0804047838444444384C
:10808000FC1824241818242418FC7C08040408482C
:108090005454542404043F44243C4040207C1C207D
:1080A00040201C3C4030403C44281028444C9090D8
:1080B000907C4464544C4400083641000000770032
:1080C00000004136080002010204023C2623263C3F
:1080D0001EA1A161123A4040207A385454555921CA
:1080E00055557941215454784121555478402054B4
:1080F0005579400C1E527212395555555939545400
:10810000545939555454580000457C410002457D6E
:10811000420001457C40F0292429F0F0282528F070
:108120007C545545002054547C547C0A097F4932C4
:10813000494949323248484832324A4848303A413F
:1081400041217A3A42402078009DA0A07D394444E4
:1081500044393D4040403D3C24FF2424487E49436F
:10816000662B2FFC2F2BFF0929F620C0887E0903E0
:1081700020545479410000447D413048484A323807
:108180004040227A007A0A0A727D0D19317D262933
:10819000292F28262929292630484D40203808082B
:1081A000080808080808382F10C8ACBA2F1028345F
:1081B000FA00007B000008142A142222142A140852
:1081C000AA005500AAAA55AA55AA000000FF00104F
:1081D0001010FF00141414FF001010FF00FF101007
:1081E000F010F0141414FC001414F700FF0000FF4A
:1081F00000FF1414F404FC141417101F10101F10A7
:108200001F1414141F00101010F0000000001F10A5
:108210001010101F10101010F010000000FF1010B0
:1082200010101010101010FF10000000FF140000BC
:10823000FF00FF00001F10170000FC04F4141417C7
:1082400010171414F404F40000FF00F714141414AD
:10825000141414F700F7141414171410101F101F1F
:10826000141414F4141010F010F000001F101F006C
:1082700000001F14000000FC140000F010F01010AB
:10828000FF10FF141414FF141010101F0000000042
:10829000F010FFFFFFFFFFF0F0F0F0F0FFFFFF0036
:1082A00000000000FFFF0F0F0F0F0F384444384449
:1082B0007C2A2A3E147E02020606027E027E0263A9
:1082C000554941633844443C04407E201E20060248
:1082D0007E020299A5E7A5991C2A492A1C4C720125
:1082E000724C304A4D4D303048784830BC625A4666
:1082F0003D3E494949007E0101017E2A2A2A2A2A57
:1083000044445F444440514A444040444A51400040
:1083100000FF0103E080FF000008086B6B083612C5
:10832000362436060F090F0600001818000000104A
:1083300010003040FF0101001F01011E00191D1730
:1083400012003C3C3C3C000000000000000000002B
:1083500000000000CF5C0D00C55C0D00BB5C0D0093
:10836000B15C0D00A55C0D00995C0D008D5C0D00ED
:10837000855C0D007B5C0D00715C0D00A1680D003B
:108380000008101820283038626175640053657247
:1083900069616C0053657269616C31007479706554
:1083A00000706172616D00636D6400696400686EE5
:1083B00064007374726D0066696C74006C766C0096
:1083C00061646448616E646C65720072656D6F769D
:1083D0006548616E646C657200656E756D48616EAE
:1083E000646C657273004A534F4E53747265616DCD
:1083F0004C6F6748616E646C657200617070002537
:108400003031307520005D20002564002C200028CC
:10841000293A2000205B00636F6465203D20002521
:10842000690064657461696C73203D20006C6E00A6
:10843000666E00636F64650064657461696C006EEC
:108440006F6E6500747261636500696E666F0077B8
:1084500061726E006572726F720070616E696300A6
:10846000616C6C005A00252B3033643A253032752C
:108470000025592D256D2D25645425483A254D3A62
:108480002553257A0061736374696D6500000000EF
:108490000000000000000000A1620D0091620D00CC
:1084A00093620D00000000000000000079630D00E1
:1084B000C9630D00D7630D00F15F0D00B5630D00BA
:1084C0007B630D0091630D00C3630D00A7630D0076
:1084D00075630D00000000000000000085640D00C1
:1084E000D5640D00E3640D00F15F0D0099640D008B
:1084F000BB640D00A7640D00CF640D0087640D0000
:108500008B640D00000000000000000095650D0068
:10851000DF650D00B7650D0097650D00BF650D00A7
:10852000C7650D00CF650D00D7650D000000000088
:10853000000000009F660D0095660D008B660D0023
:1085400081660D0075660D0069660D005D660D00A3
:1085500055660D004B660D0041660D00A1680D00CB
:1085600000000000000000001B680D0011680D00F5
:1085700007680D00BD670D00FB670D00EF670D007C
:10858000E3670D00DB670D00D1670D00C7670D00C5
:10859000A1680D00000000000000000039680D0017
:1085A00043680D004D680D0057680D0061680D00AF
:1085B0006D680D0079680D0085680D008D680D00EF
:1085C00097680D00A1680D000000202020202020C9
:1085D0002020202828282828202020202020202073
:1085E0002020202020202020202088101010101073
:1085F00010101010101010101010040404040404C3
:1086000004040404101010101010104141414141A5
:10861000410101010101010101010101010101010A
:10862000010101010110101010101042424242429B
:1086300042020202020202020202020202020202DA
:1086400002020202021010101020000000000000C0
:10865000000000000000000000000000000000001A
:10866000000000000000000000000000000000000A
:1086700000000000000000000000000000000000FA
:1086800000000000000000000000000000000000EA
:1086900000000000000000000000000000000000DA
:1086A00000000000000000000000000000000000CA
:1086B00000000000000000000000000000000000BA
:1086C00000000000000000000000000000000000AA
:1086D000000000000000000000000000000000009A
:1086E000000000000000000000000000000000008A
:1086F000000000000000000000000000000000007A
:108700000000000000000000000000000000000069
:108710000000000000000000000000000000000059
:1087200000000000000000000000000089430D0070
:10873000C5430D00CD4A0D003D4B0D00C94B0D004A
:10874000CD4B0D000B4D0D00114D0D00214D0D00B9
:1087500041540D00D5570D00D95C0D00855F0D000B
:10876000C95F0D002D610D003D610D0065610D00BB
:108770006D670D0025680D006D690D004D6B0D00D6
:10878000D16B0D00956C0D00596D0D0000000000BF
:0487900000000000E5
:10879400000103070F1F3F7F0080C0E0F0F8FCFEDC
:1087A40000000000000000000000000000000000C5
:1087B40000000000000000000000000000000000B5
:1087C40000000000000000000000000000000000A5
:1087D4000000000000000000000000000000008015
:1087E4008080000000000000000000000000000085
:1087F400008080C0C00000000000000000000000F5
:108804000000000000000000000000000000000064
:108814000000000000000000000000000000000054
:108824000000000000000000000000000000000044
:108834000000000080C0E0F0F8FCF8E00000000058
:1088440000000000000000000000000000808080A4
:10885400808000808000000000808080808000FF95
:10886400FFFF000000008080808000008080000006
:1088740080FFFF8080008080008080808000808076
:108884000000000000808000008C8E84000080F8CE
:10889400F8F8800000000000000000000000000064
:1088A400F0F0F0F0F0F0F0F0F0F0F0F0E0E0C08084
:1088B40000E0FCFEFFFFFF7FFFFFFFFFFF00000063
:1088C4000000000000000000000000FEFFC70101DE
:1088D400010183FFFF00007CFEC70101010183FF4A
:1088E400FFFF0038FEC78301010183C7FFFF0000BB
:1088F40001FFFF010100FFFF0701010100007FFFED
:1089040080000000FFFF7F0000FFFFFF000001FF69
:10891400FFFF010000000000000000000000000054
:10892400030F3F7F7FFFFFFFFFFFFFFFE7C7C78FF7
:108934008F9FBFFFFFC3C0F0FFFFFFFFFFFCFCFCE6
:10894400FCFCFCFCFCF8F8F0F0E0C00001030303BD
:1089540003030103030000000001030303030101F7
:1089640003010000000103030303010103030000EA
:1089740000030300000003030000000000000001E6
:1089840003030303030100000001030100000003CB
:1089940003010000000000000000000000000000CF
:1089A40000000080C0E0F0F9FFFFFFFFFF3F1F0F52
:1089B40087C7F7FFFF1F1F3DFCF8F8F8F87C7DFF21
:1089C400FFFFFFFFFFFFFF7F3F0F07003030000076
:1089D4000000000000000000000000000000000093
:1089E40000000000FEFEFC0000000000000000008B
:1089F40000000000000000000000000000E0C000D3
:108A04000000000000000000000030300000000002
:108A14000000000000000000000000000000000052
:108A240000C0FEFFFFFFFFFFFFFFFFFF7F7F3F1F31
:108A34000F071F7FFFFFF8F8FFFFFFFFFFFEF8E0BF
:108A4400000000010000000000000000FEFE000025
:108A540000FCFEFC0C06060EFCF80000F0F81C0EF0
:108A64000606060CFFFFFF0000FEFE00000000FCEF
:108A7400FEFC00183C7E66E6CE84000006FFFF067E
:108A840006FCFEFC0C0606060000FEFE0000C0F814
:108A9400FC4E4646464E7C7840183C76E6CECC806A
:108AA40000000000000000000000000000000000C2
:108AB4000000000001070F1F1F3F3F3F3F1F0F0330
:108AC4000000000000000000000000000F0F000084
:108AD400000F0F0F000000000F0F000003070E0C23
:108AE40018180C060F0F0F0000010F0E0C180C0FB6
:108AF400070100040E0C180C0F070000000F0F00F4
:108B0400000F0F0F0000000000000F0F000000070F
:108B1400070C0C181C0C060600040E0C180C0F078E
:108B24000000000000000000000000000000000041
:108B34000000000000000000000000000000000031
:108B44000000000000000000000000000000000021
:108B54000000000000000000000000000000000011
:108B64000000000000000000000000000000000001
:108B740000000000000000000000000000000000F1
:108B840000000000000000000000000000000000E1
:108B940000000000000000000000000000000000D1
:108BA40085840D00C9850D0000000000CC860D00F1
:108BB400EC860D000C870D00000000000000000092
:108BC40000000000000000001F790D0000000000FC
:108BD4000000000000000000000000000000000091
:108BE4000000000000000000000000000000000081
:108BF4000000000000000000000000000000000071
:0C8C04000000000000000000C8DF03209A
:108C1000FFFFFFFF00000102030405060708090A21
:108C20000B0C0D0E0F101112131415161718191A1C
:088C30001B1C1D1E1F20280063
:048C38007856341224
:04000003D0004020C9
:00000001FF
