:02000002D0002C
:1040000000400D00D0530D00000006000C0005011B
:0840100004017E050000000020
:0440180020500D0027
:10401C0009480A49884208B505D0094A824202D0AB
:10402C00121A00F0B3FF0748074A0021121A00F0D9
:10403C00B8FF014808BD00BF6CE3032040530D00DE
:10404C00D4E30320D4E30320F0E7032070B500F0A1
:10405C00FBFA074C074BE41AA40800251E46A542A0
:10406C0004D056F8253098470135F8E770BD00BFED
:10407C0034530D00F8520D0000F014B808B500F0E0
:10408C0091FABDE8084000F0ADBA00F08DB900F02F
:10409C008BB90078B0FA80F04009704701230370A7
:1040AC007047000013B502A801220B4C00F8012D3B
:1040BC0041F6C67100F0BCF800231A461946606838
:1040CC0000F02AF900231A461946606800F004F93A
:1040DC0000F052F902B010BD1CE7032008B500F047
:1040EC001FF8064B00221A705A804FF6FF729A8006
:1040FC000220BDE8084000F0D3B800BFD8E303208D
:10410C0008B5024B1B689B68019308BD680203004D
:10411C0008B5024B1B68DB68019308BD68020300FD
:10412C0008B5024B1B681B68019308BD2C020300E9
:10413C0008B5024B1B68DB69019308BD3002030014
:10414C0008B5024B1B685B68019308BD180203009D
:10415C0008B5024B1B685B69019308BD180203008C
:10416C0008B5024B1B689B68019308BD480203000D
:10417C0008B5024B1B681B69019308BD480203007C
:10418C0008B5024B1B685B69019308BD480203002C
:10419C0008B5024B1B681B6B019308BD480203005A
:1041AC0008B5024B1B685B6C019308BD4802030009
:1041BC0008B5024B1B685B69019308BD64020300E0
:1041CC0008B5024B1B681B68019308BD3C02030039
:1041DC0008B5024B1B68DB68019308BD3C02030069
:1041EC0008B5024B1B681B69019308BD3C02030018
:1041FC0008B5024B1B685B69019308BD3C020300C8
:10420C0008B5024B1B689B69019308BD3C02030077
:10421C0008B5024B1B68DB69019308BD3C02030027
:10422C0008B5024B1B689B6A019308BD3C02030056
:10423C0008B5024B1B685B68019308BD580203006C
:10424C0008B5024B1B681B68019308BD4C020300A8
:10425C0008B5024B1B681B69019308BD4C02030097
:10426C0008B5024B1B685B69019308BD4C02030047
:10427C0008B5024B1B689B69019308BD4C020300F7
:10428C0008B5024B1B68DB69019308BD4C020300A7
:10429C0008B5024B1B681B6A019308BD4C02030056
:1042AC0008B5024B1B685B68019308BD2002030034
:1042BC0008B5034B1B68D3F88830019308BD000088
:1042CC002002030008B5034B1B68D3F8943001930C
:1042DC0008BD00002002030008B5024B1B685B6898
:1042EC00019308BD4002030008B5024B1B689B6894
:1042FC00019308BD4002030008B5024B1B68DB6844
:10430C00019308BD4002030008B5024B1B681B69F2
:10431C00019308BD4002030008B5024B1B685B69A2
:10432C00019308BD4002030008B5024B1B689B6952
:10433C00019308BD4002030008B5024B1B68DB6902
:10434C00019308BD4002030008B5024B1B681B6AB1
:10435C00019308BD4002030008B5024B1B681B6BA0
:10436C00019308BD4002030008B5024B1B685B6B50
:10437C00019308BD4002030008B5024B1B68DB68C3
:10438C00019308BD4402030008B5024B1B68DB6BAC
:10439C00019308BD4402030008B5024B1B681B685F
:1043AC00019308BD1C02030008B5024B1B685B6837
:1043BC00019308BD1C020300002211464068FFF760
:1043CC00C3BF002211464068FFF7CEBF00224068F1
:1043DC00FFF7C2BF002281F001014068FFF7ACBFBC
:1043EC0000231A4619464068FFF79EBF00231A4661
:1043FC0019464068FFF790BF002211464068FFF74E
:10440C0083BF002211464068FFF76EBF00220221D5
:10441C004068FFF771BF00231A464068FFF75CBF86
:10442C00024B03225A60024A1A607047E0E30320F1
:10443C003C500D00704710B51021044600F04DFCA7
:10444C00204610BD70B5084B0360044600250E468F
:10445C0040F80C5FFFF79CFE30462671FFF768FEB4
:10446C00A560204670BD00BF70500D00044B0020AD
:10447C004FF6FF72187058809A80FFF711BF00BF7B
:10448C00E8E30320024800230360FFF789BE00BF66
:10449C00F0E30320F8B506460D468F180024BD4204
:1044AC000CD0336815F8011B9B68304698470028E0
:1044BC0001DB0444F3E7002C08BF04462046F8BD9A
:1044CC0070B505460C46084649B100F09BFD2B68BB
:1044DC00024621462846DB68BDE87040184770BD8F
:1044EC0003689B68184730B58BB00B4600218DF8DC
:1044FC002410012A98BF0A220DF12304B3FBF2F514
:10450C0005FB123303F0FF03092B94BF3033373311
:10451C00DBB2214604F801392B46002DEED1FFF712
:10452C00CFFF0BB030BD10B42AB903685DF8044B53
:10453C009B68C9B21847D2B25DF8044BFFF7D3BFE2
:10454C00FFF7F1BF014B024A1A607047F4E30320F6
:10455C00EB500D00024B1A68024B1A60704700BFFB
:10456C006CE30320F8E3032010B58368044613B111
:10457C00032201469847204610BD10B50446FFF7AC
:10458C00F3FF204610BD00000348044A04490023F1
:10459C00836000F09DBB00BFFCE30320D4E3032049
:1045AC0087450D007047000008B50C4B33B100F087
:1045BC0035F903681B699847002809DC084B63B17F
:1045CC0000F0AAF903681B699847002803DC08BDB2
:1045DC00AFF30080F2E7AFF3008008BD00000000ED
:1045EC000000000008B5FFF7DFFFFFF7B1FD014B3E
:1045FC00186008BD4CE7032007B5002300931A464A
:10460C006FF07701FFF75EFE03B05DF804FB00006E
:10461C0007B543880A2B08D0502B09D1094B1B68CE
:10462C003BB103B05DF804EB1847FFF7E5FF06E07C
:10463C00002300931A466FF07701FFF743FE03B097
:10464C005DF804FB0CE4032010B5FFF779FD04467C
:10465C0000F0B0FC074B13B12046AFF300800021F3
:10466C000448FFF791FE00210348BDE81040FFF716
:10467C001FBE00BF000000001D460D00704710B5A6
:10468C001821044600F029FB204610BDF0B5037D2F
:10469C00062B8DB00E4600F104074FF0000402D03B
:1046AC0000F1080518E00CAD394605F8304D2F2304
:1046BC002A460A20FFF77CFD284600F0A3FC33684D
:1046CC000246DB682946304698470FE024B12E217C
:1046DC003046FFF705FF044415F8011D0A22304649
:1046EC00FFF72EFFBD420444F0D120460DB0F0BDC3
:1046FC0010B5054B0446112240F8043B002100F094
:10470C0050FC204610BD00BF8C510D000346074ADB
:10471C0010B543F8042B01F1100251F8044B43F887
:10472C00044B9142F9D10A781A7010BD8C510D00CE
:10473C0010B59DF8084044EA032343EA024242EADA
:10474C00016104234160037510BD37B50D788B787A
:10475C004A78C97800912946FFF7EAFF03B030BDCB
:10476C0041747047704708B50021007CFFF780FD4D
:10477C0030EA200028BF4FF0FF3008BD08B50121FA
:10478C00007CFFF775FD30EA200028BF4FF0FF30AA
:10479C0008BD08B5007CFFF763FD20EAE07008BD9A
:1047AC0008B5007CFFF754FD20EAE07008BD007CE2
:1047BC00FFF76EBD10B51421044600F08EFA2046AA
:1047CC0010BD38B50446007C0D46FFF749FD0028A6
:1047DC0001DC607C28B12946207CFFF751FD20EAE2
:1047EC00E07038BD10B50446002363604FF47A7353
:1047FC00A360054B236001230846217463741146A2
:10480C00FFF71EFD204610BDA0510D0010B514225F
:10481C000446002100F0C5FB204610BD30B50E4DFE
:10482C0087B001A8FFF7F2FF296811F0010410D13D
:10483C002846FFF72EFC60B101AA21460748FFF776
:10484C00D1FF2846FFF72AFC054A0649034800F029
:10485C003FFA024807B030BD10E4032014E40320F3
:10486C00D4E3032071470D0070474174704708B5BD
:10487C00007CFFF7D5FC20EAE07008BD08B5007C91
:10488C00FFF7AEFC20EAE07008BD08B5007CFFF72E
:10489C00B7FC30EA200028BF4FF0FF3008BD08B548
:1048AC00007CFFF7A5FC30EA200028BF4FF0FF305A
:1048BC0008BD007CFFF7ACBC10B51421044600F019
:1048CC000CFA204610BD70B5457C04460E4625B941
:1048DC00007CFFF7A5FC002805DD3146207CBDE8F7
:1048EC007040FFF775BC284670BD000010B504463B
:1048FC0008461146002262604FF47A72A260054AA3
:10490C0022600122207462741A46FFF759FC20467B
:10491C0010BD00BFD0510D0038B50C4D296811F0F9
:10492C00010411D12846FFF7B4FB68B1084A094BC2
:10493C0009482146FFF7DAFF2846FFF7AFFB074A85
:10494C000749054800F0C4F9034838BDC0E403200A
:10495C00C4E403203CE4032028E40320D4E3032034
:10496C0075480D00002211464068FFF7EDBC00228F
:10497C0011464068FFF7F8BC00224068FFF7ECBC1A
:10498C00002281F001014068FFF7D6BC00231A46D3
:10499C0001214068FFF7C8BC00231A46194640683D
:1049AC00FFF7BABC002211464068FFF7ADBC0022ED
:1049BC0011464068FFF798BC002202214068FFF7BF
:1049CC009BBC00231A464068FFF786BC38B50546E9
:1049DC0088B104684CB1A3681BB103222146204660
:1049EC0098471021204600F078F928461421BDE89C
:1049FC00384000F072B938BD10B103685B681847D5
:104A0C00704710B503680446BBB15868FFF7A8FBA4
:104A1C0078B923685A7C12B95868FFF7A9FB236848
:104A2C005868FFF7ADFB20680023236028B1FFF71F
:104A3C00CDFF206808B1FFF7C9FF204610BD00006C
:104A4C0038B50C4B03600446D0F8CC0108B1FFF725
:104A5C001EFBD4F8C45135B12846FFF7D2FF042110
:104A6C00284600F03AF9A06808B1FFF7C5FF2046C8
:104A7C0038BD00BF00520D0038B50E4C0E4B2360F4
:104A8C000025022304F5E4706360A560C4F8C451EA
:104A9C00C4F8C851FFF784FB084BC4F8CC5184F818
:104AAC00D05123602046064A0649BDE8384000F044
:104ABC000FB900BF48E5032068520D0000520D00ED
:104ACC00D4E303204D4A0D00002211464068FFF745
:104ADC001BBC002211464068FFF736BC0022114671
:104AEC004068FFF741BC00224068FFF735BC00224C
:104AFC0081F001014068FFF71FBC00231A461946DC
:104B0C004068FFF711BC00231A4619464068FFF7AE
:104B1C0003BC002211464068FFF7E6BB00220221CD
:104B2C004068FFF7E9BB00231A464068FFF7D4BB87
:104B3C00024B04225A60024A1A6070471CE7032099
:104B4C0034520D0000231A464068FFF7C5BB002203
:104B5C0002214068FFF7D0BB002211464068FFF7E6
:104B6C00C3BB002211464068FFF7CEBB00231A4698
:104B7C0019464068FFF7D0BB00231A461946406817
:104B8C00FFF7D2BB002281F001014068FFF7D4BBD4
:104B9C0000224068FFF7E0BB002211464068FFF797
:104BAC00E3BB002211464068FFF7CEBB2DE9F04372
:104BBC00002495B016460D460746FFF799FD214691
:104BCC0020220CA8009400F0ECF940230C93214611
:104BDC006B460CAA3046FFF79BFA0446002844D1DA
:104BEC00024601216868FFF78FFB022180462246AE
:104BFC006868FFF789FB009E81462146002E34D061
:104C0C00002932D17368022B02D00A2B09D02AE07A
:104C1C00B8F1000F27D0716938460431FFF795FDC4
:104C2C0020E0B9F1000F1ED07469112201A800F028
:104C3C00B8F906238DF8143001AD04F108031834CB
:104C4C00186859682A4603C20833A3421546F7D19F
:104C5C0001A906A807ADFFF759FD0FCD3C1D0FC4E8
:104C6C002B6823700121F669C8E70098FFF748FA12
:104C7C00384615B0BDE8F083024B034A1A60002297
:104C8C005A60704724E7032068520D0070B50C4C35
:104C9C000C4E0D4D00212046FFF7D4FB20460B4C4B
:104CAC003246294600F014F801212046FFF7CAFBD2
:104CBC00324629462046BDE8704000F009B800BFD6
:104CCC002CE70320D4E3032041440D003CE70320F0
:104CDC000B460146184600F04BB9FFF7D6B9000059
:104CEC00184B1A68D1075CBF01221A60164B1A6860
:104CFC00D2075CBF01221A60144B1A68D0075CBF44
:104D0C0001221A60124B1A68D1075CBF01221A608B
:104D1C00104B1A68D2075CBF01221A600E4B1A683E
:104D2C00D0075CBF01221A600C4B1A68D1075CBF1C
:104D3C0001221A600A4B1A68D2075CBF01221A6062
:104D4C00704700BF6CE7032068E7032064E703208B
:104D5C0060E703205CE7032058E7032054E70320B7
:104D6C0050E70320244B1A68D0075CBF01221A605D
:104D7C00224B1A68D1075CBF01221A60204B1A68BB
:104D8C00D2075CBF01221A601E4B1A68D0075CBFA9
:104D9C0001221A601C4B1A68D1075CBF01221A60F1
:104DAC001A4B1A68D2075CBF01221A60184B1A689A
:104DBC00D0075CBF01221A60164B1A68D1075CBF82
:104DCC0001221A60144B1A68D2075CBF01221A60C8
:104DDC00124B1A68D0075CBF01221A60104B1A687C
:104DEC00D1075CBF01221A600E4B1A68D2075CBF58
:104DFC0001221A60704700BF9CE7032098E703204C
:104E0C0094E7032090E703208CE7032088E7032036
:104E1C0084E7032080E703207CE7032078E7032066
:104E2C0074E7032070E70320244B1A68D0075CBF9B
:104E3C0001221A60224B1A68D1075CBF01221A604A
:104E4C00204B1A68D2075CBF01221A601E4B1A68ED
:104E5C00D0075CBF01221A601C4B1A68D1075CBFDB
:104E6C0001221A601A4B1A68D2075CBF01221A6021
:104E7C00184B1A68D0075CBF01221A60164B1A68CF
:104E8C00D1075CBF01221A60144B1A68D2075CBFB1
:104E9C0001221A60124B1A68D0075CBF01221A60FB
:104EAC00104B1A68D1075CBF01221A600E4B1A68AE
:104EBC00D2075CBF01221A60704700BFCCE7032009
:104ECC00C8E70320C4E70320C0E70320BCE70320A6
:104EDC00B8E70320B4E70320B0E70320ACE70320D6
:104EEC00A8E70320A4E70320A0E70320184B1A68C7
:104EFC00D1075CBF01221A60164B1A68D2075CBF3F
:104F0C0001221A60144B1A68D0075CBF01221A6088
:104F1C00124B1A68D1075CBF01221A60104B1A6839
:104F2C00D2075CBF01221A600E4B1A68D0075CBF17
:104F3C0001221A600C4B1A68D1075CBF01221A605F
:104F4C000A4B1A68D2075CBF01221A60704700BF77
:104F5C00ECE70320E8E70320E4E70320E0E7032085
:104F6C00DCE70320D8E70320D4E70320D0E70320B5
:104F7C0010B5054C13462CB10A4601460220AFF37E
:104F8C00008010BD204610BD0000000010B5431E6F
:104F9C000A44914204D011F8014B03F8014FF8E791
:104FAC0010BD02440346934202D003F8011BFAE7FA
:104FBC007047000038B5124B1C68A36B0546D3B97B
:104FCC001820FFF7E9F943F20E33A06303804AF689
:104FDC00CD33438041F2342383804EF26D63C38022
:104FEC004DF6EC630381052343810B23838101225E
:104FFC000023C0E90423A36B00221D615A6138BD54
:10500C00D0E30320034613F8012B002AFBD1181A16
:10501C00013870471D400D0059400D0085400D00B2
:10502C0089400D000000000000000000000000009E
:10503C0023440D0019440D000F440D0005440D00D0
:10504C00F9430D00ED430D00E1430D00D9430D0074
:10505C00CF430D00C5430D00B94B0D0000000000FF
:10506C000000000041440D0043440D006261756472
:10507C000053657269616C0053657269616C310033
:10508C007479706500706172616D00636D640069A4
:10509C006400686E64007374726D0066696C7400F1
:1050AC006C766C0061646448616E646C657200724D
:1050BC00656D6F766548616E646C657200656E75C2
:1050CC006D48616E646C657273004A534F4E537435
:1050DC007265616D4C6F6748616E646C65720061DE
:1050EC00707000253031307520005D200025640083
:1050FC002C200028293A2000205B00636F64652077
:10510C003D200025690064657461696C73203D2045
:10511C00000D0A0066006C6E00666E00636F6465BD
:10512C000064657461696C006E6F6E650074726109
:10513C00636500696E666F007761726E00657272EE
:10514C006F720070616E696300616C6C005A0025AF
:10515C002B3033643A253032750025592D256D2DB1
:10516C0025645425483A254D3A2553257A00617318
:10517C006374696D65000000000000000000000011
:10518C0099460D0089460D008B460D00000000006D
:10519C000000000071470D00C1470D00CF470D0006
:1051AC00A1440D00AD470D0073470D0089470D005C
:1051BC00BB470D009F470D006D470D000000000020
:1051CC000000000075480D00C5480D00D3480D00C7
:1051DC00A1440D0089480D00AB480D0097480D0007
:1051EC00BF480D0077480D007B480D000000000003
:1051FC0000000000CF490D00C5490D00BB490D0052
:10520C00B1490D00A5490D0099490D008D490D00BE
:10521C0085490D007B490D0071490D00B94B0D00FE
:10522C000000000000000000334B0D00294B0D0066
:10523C001F4B0D00D54A0D00134B0D00074B0D00F5
:10524C00FB4A0D00F34A0D00E94A0D00DF4A0D0040
:10525C00B94B0D000000000000000000514B0D0088
:10526C005B4B0D00654B0D006F4B0D00794B0D002A
:10527C00854B0D00914B0D009D4B0D00A54B0D006A
:10528C00AF4B0D00B94B0D000000000000000000FA
:10529C000000000000000000000000000000000002
:1052AC0000000000000000000000000000000000F2
:1052BC0000000000000000000000000000000000E2
:1052CC0000000000000000000000000000000000D2
:1052DC0000000000000000000000000000000000C2
:1052EC00000000000000000043000000E9400D0039
:1052FC002D440D0079440D0091440D0051450D00D5
:10530C0061450D0095450D00854A0D003D4B0D0086
:10531C00854C0D00994C0D00ED4C0D00714D0D00A0
:10532C00354E0D00F94E0D0000000000000000008D
:04533C00000000006D
:105340007A510D000000000094520D00B4520D007F
:10535000D4520D000000000000000000000000001A
:1053600000000000F4520D000000000000000000EA
:10537000000000000000000000000000000000002D
:10538000000000000000000000000000000000001D
:10539000000000000000000000000000000000000D
:0853A0000000000070E303208F
:1053A800FFFFFFFF00000102030405060708090AC2
:1053B8000B0C0D0E0F101112131415161718191ABD
:0853C8001B1C1D1E1F20280004
:0453D00078563412C5
:04000003D000401CCD
:00000001FF
