:02000002D0002C
:1040000000400D008C6D0D00000006000C00050145
:084010000401DE0500000000C0
:0440180058690D00D6
:10401C0009480A49884208B505D0094A824202D0AB
:10402C00121A02F033FC0748074A0021121A02F058
:10403C0038FC014808BD00BF60E30320FC6C0D0098
:10404C00C8E30320C8E30320F0E7032070B501F0B8
:10405C0055F9074C074BE41AA40800251E46A54247
:10406C0004D056F8253098470135F8E770BD00BFED
:10407C00F06C0D00B86C0D0000F016B808B500F02F
:10408C0035F8BDE8084001F0FBB800F077BA00F055
:10409C007DBA00F07BBA0078B0FA80F04009704726
:1040AC00012303707047000008B500F053FD4FF476
:1040BC00165100F043FD002304220849084800F083
:1040CC00B9F9002309220749074800F0B3F901F0B8
:1040DC001BFCBDE8084000F08FBC00BF6C690D00F4
:1040EC0078690D00D0E3032082690D0030B589B0EA
:1040FC0001F00AFC502100F0BAFC01F005FC036849
:10410C0000219B68984701F0FFFB00F0B7FC01F021
:10411C00FBFB0222502100F0A3FC01F0F5FB03682D
:10412C001B69984702280BD101F0EEFB03685B6911
:10413C009847054601F0E8FB03685B69984704461D
:10414C004FF4967001F07AF8234B05F00F0004EB56
:10415C000020186001F0BCFE0022204B204D01F025
:10416C001DFF00221F4B01F067FD41EC100BC5E950
:10417C000001062104A801F099FB1B4B049A1B7843
:10418C008DF8003019493C2302A800F0D5FE039CA1
:10419C007CB16368013B63605BB9236820469B6814
:1041AC009847A368013BA3601BB923682046DB68D2
:1041BC00984704A801F022FB00F0CCFCD5E90023C1
:1041CC000021CDE900230A4A01F03FF94EF66020A8
:1041DC0001F034F809B030BDD8E303200040CF3FE4
:1041EC00D0E3032000002440CCE3032086690D00BB
:1041FC00A7690D00024B00221A7000F003B900BF32
:10420C00CCE3032008B5024B1B681B68019308BD67
:10421C004C02030008B5024B1B685B68019308BD98
:10422C004C02030008B5024B1B681B69019308BDC7
:10423C004C02030008B5024B1B685B69019308BD77
:10424C004C02030008B5024B1B689B69019308BD27
:10425C004C02030008B5024B1B68DB69019308BDD7
:10426C004C02030008B5024B1B681B6A019308BD86
:10427C004C02030008B5024B1B68DB68019308BDB8
:10428C002802030008B5024B1B689B69019308BD0B
:10429C002802030008B5024B1B68DB69019308BDBB
:1042AC002802030008B5024B1B681B6A019308BD6A
:1042BC002802030008B5024B1B685B6A019308BD1A
:1042CC002802030008B5024B1B689B6A019308BDCA
:1042DC002802030008B5024B1B68DB6A019308BD7A
:1042EC002802030008B5024B1B681B6B019308BD29
:1042FC002802030008B5024B1B681B6C019308BD18
:10430C002802030008B5024B1B681B6D019308BD06
:10431C002802030008B5024B1B681B68019308BDFB
:10432C003C02030008B5024B1B68DB68019308BD17
:10433C003C02030008B5024B1B681B69019308BDC6
:10434C003C02030008B5024B1B685B69019308BD76
:10435C003C02030008B5024B1B689B69019308BD26
:10436C003C02030008B5024B1B68DB69019308BDD6
:10437C003C02030008B5024B1B689B6A019308BD05
:10438C003C02030008B5024B1B685B69019308BD36
:10439C006402030008B5024B1B689B68019308BDBF
:1043AC004802030008B5024B1B681B69019308BD4A
:1043BC004802030008B5024B1B685B69019308BDFA
:1043CC004802030008B5024B1B685B6C019308BDE7
:1043DC004802030008B5024B1B689B6C019308BD97
:1043EC004802030008B5024B1B685B68019308BDCB
:1043FC001802030008B5024B1B685B69019308BDEA
:10440C001802030008B5024B1B681B68019308BD1A
:10441C002C02030008B5024B1B689B68019308BD76
:10442C006802030008B5024B1B68DB68019308BDEA
:10443C006802030008B5024B1B681B68019308BD9A
:10444C004402030008B5024B1B685B69019308BD6D
:10445C004402030008B5024B1B681B6A019308BD9C
:10446C004402030008B5024B1B68DB6B019308BDCB
:10447C004402030008B5024B1B685B68019308BD3E
:10448C004002030008B5024B1B689B68019308BDF2
:10449C004002030008B5024B1B68DB68019308BDA2
:1044AC004002030008B5024B1B681B69019308BD51
:1044BC004002030008B5024B1B685B69019308BD01
:1044CC004002030008B5024B1B689B69019308BDB1
:1044DC004002030008B5024B1B68DB69019308BD61
:1044EC004002030008B5024B1B681B6A019308BD10
:1044FC004002030008B5024B1B681B6B019308BDFF
:10450C004002030008B5024B1B685B6B019308BDAE
:10451C004002030008B5024B1B685B68019308BDA1
:10452C002002030008B5024B1B685B69019308BDB0
:10453C002002030008B5024B1B68DB6C019308BD1D
:10454C002002030008B5024B1B685B6D019308BD8C
:10455C002002030008B5034B1B68D3F88830019385
:10456C0008BD00002002030008B5034B1B68D3F8FC
:10457C009430019308BD00002002030008B5024BE3
:10458C001B681B68019308BD1C02030008B5024B95
:10459C001B685B68019308BD1C02030008B5024B45
:1045AC001B689B68019308BD1C02030008B5024BF5
:1045BC001B685B6A019308BD1C02030008B5024B23
:1045CC001B68DB6A019308BD1C02030008B5024B93
:1045DC001B681B6B019308BD1C02030010B503681C
:1045EC0004469B689847A368013BA3602BB92368DA
:1045FC002046DB68BDE81040184710BD10B50446D6
:10460C00006828B14368013B43600BB9FFF7E6FF34
:10461C00204610BD00231A464068FFF72BBF00222E
:10462C0002214068FFF736BF002211464068FFF7B1
:10463C0029BF002211464068FFF734BF00231A46F9
:10464C0019464068FFF736BF00231A4619464068E2
:10465C00FFF738BF002281F001014068FFF73ABF35
:10466C0000224068FFF746BF002211464068FFF762
:10467C0049BF002211464068FFF734BF2DE9F043D3
:10468C00002495B016460D46074600F0C3FA2146A5
:10469C0020220CA8009402F004F940230C9321462C
:1046AC006B460CAA3046FFF7BDFE0446002844D1E9
:1046BC00024601216868FFF7F5FE0221804622467A
:1046CC006868FFF7EFFE009E81462146002E34D02D
:1046DC00002932D17368022B02D00A2B09D02AE0B0
:1046EC00B8F1000F27D071693846043100F0BFFAD9
:1046FC0020E0B9F1000F1ED07469112201A802F05C
:10470C00D0F806238DF8143001AD04F108031834E9
:10471C00186859682A4603C20833A3421546F7D1D4
:10472C0001A906A807AD00F083FA0FCD3C1D0FC4FC
:10473C002B6823700121F669C8E70098FFF76AFE21
:10474C00384615B0BDE8F083024B034A1A600022CC
:10475C005A607047DCE30320C4690D000022114647
:10476C004068FFF79FBE002211464068FFF7BABEB3
:10477C00002211464068FFF7C5BE00224068FFF7D3
:10478C00B9BE002281F001014068FFF7A3BE0023EF
:10479C001A4619464068FFF795BE00231A4619467B
:1047AC004068FFF787BE002211464068FFF76ABEDB
:1047BC00002202214068FFF76DBE00231A464068B4
:1047CC00FFF758BE024B04225A60024A1A60704727
:1047DC00E4E30320F8690D00002211464068FFF75E
:1047EC0081BE002211464068FFF78CBE0022406853
:1047FC00FFF780BE002281F001014068FFF76ABE1E
:10480C0000231A4601214068FFF75CBE00231A46BC
:10481C0019464068FFF74EBE002211464068FFF76C
:10482C0041BE002211464068FFF72CBE0022022137
:10483C004068FFF72FBE00231A464068FFF71ABEE8
:10484C0038B5054688B104684CB1A3681BB1032286
:10485C002146204698471021204601F089F8284629
:10486C001421BDE8384001F083B838BD10B103689D
:10487C005B681847704710B503680446BBB15868AD
:10488C00FFF788FD78B923685A7C12B95868FFF78E
:10489C0089FD23685868FFF78DFD2068002323608D
:1048AC0028B1FFF7CDFF206808B1FFF7C9FF2046FC
:1048BC0010BD38B50446D0F8C40108B1FFF7E9FBC8
:1048CC00D4F8C00108B1FFF785FDD4F8BC5135B15F
:1048DC002846FFF7D0FF0421284601F049F820684C
:1048EC0008B1FFF7C3FF204638BD000010B5044BDC
:1048FC00044640F8083BFFF7DCFF204610BD00BF24
:10490C002C6A0D0038B50E4C0E4B2360002502238B
:10491C0004F5E4706360A560C4F8C451C4F8C851D0
:10492C00FFF750FD084BC4F8CC5184F8D0512360EC
:10493C002046064A0649BDE8384001F00BB800BFD6
:10494C00ECE30320C4690D002C6A0D00C8E30320BE
:10495C00F9480D0010B5836804460BB901F01BF83B
:10496C00C3689847A3681BB1032221462046984789
:10497C0020461021BDE8104000F0FABF7047F8B592
:10498C00064615460C468F18BC4206D0336814F800
:10499C00011B9B6830469847F6E72846F8BD002275
:1049AC00007CFFF77FBC0021007CFFF783BC00215B
:1049BC00007CFFF787BC0021007CFFF78BBC00213B
:1049CC00007CFFF78FBC10B51421044600F0D0FF1B
:1049DC00204610BD10B50446002363604FF47A7373
:1049EC00A360044B2174084623601146FFF782FC38
:1049FC00204610BD606A0D0000231A461946007C43
:104A0C00FFF738BC70B50C4686B0142506462A460E
:104A1C00002101A801F045FF23788DF80830636868
:104A2C000393E36804930022237A307CADF804509E
:104A3C0001A90593FFF766FC06B070BD1FB50033E6
:104A4C008DF800104FF06401039118BF01236946E3
:104A5C0001928DF80830FFF7D5FF05B05DF804FB27
:104A6C000123FFF7EBBF0022007CFFF70BBCC9B2A0
:104A7C00FFF7F9BF0022007CFFF70CBC0121FFF708
:104A8C00F9BF0B68036013B15A6801325A60704762
:104A9C0041747047704708B50021007CFFF7D2FBCA
:104AAC0030EA200028BF4FF0FF3008BD08B50121C7
:104ABC00007CFFF7C7FB30EA200028BF4FF0FF3027
:104ACC0008BD08B5007CFFF7B5FB20EAE07008BD17
:104ADC0008B5007CFFF7A6FB20EAE07008BD007C5F
:104AEC00FFF7C0BB10B51421044600F041FF20466F
:104AFC0010BD38B50446007C0D46FFF79BFB002823
:104B0C0001DC607C28B12946207CFFF7A3FB20EA5E
:104B1C00E07038BD10B50446002363604FF47A731F
:104B2C00A360054B2360012308462174637411466E
:104B3C00FFF768FB204610BD886A0D000022007C40
:104B4C00FFF768BB10B514220446002101F0A9FE42
:104B5C00204610BD30B50E4D87B001A8FFF7F2FF0F
:104B6C00296811F0010410D12846FFF794FA60B1BE
:104B7C0001AA21460748FFF7CDFF2846FFF790FA18
:104B8C00054A0649034800F0E5FE024807B030BD6F
:104B9C00C0E50320C4E50320C8E30320A14A0D00AF
:104BAC00704710B51821044600F0E2FE204610BDF7
:104BBC00F0B5037D062B8DB00E4600F104074FF0C7
:104BCC00000402D000F1080518E00CAD394605F8D8
:104BDC00304D2F232A460A20FFF7D4FB284601F03C
:104BEC00ACFE33680246DB682946304698470FE036
:104BFC0024B12E21304600F0F9FB044415F8011DB8
:104C0C000A22304600F001FCBD420444F0D120469B
:104C1C000DB0F0BD10B5054B0446112240F8043B15
:104C2C00002101F03EFE204610BD00BFB86A0D0009
:104C3C000346074A10B543F8042B01F1100251F852
:104C4C00044B43F8044B9142F9D10A781A7010BD09
:104C5C00B86A0D0010B59DF8084044EA032343EAF6
:104C6C00024242EA016104234160037510BD37B56D
:104C7C000D788B784A78C97800912946FFF7EAFFBE
:104C8C0003B030BD70470020704710B510210446AA
:104C9C0000F06EFE204610BD08B508B1FFF7F5FF19
:104CAC0008BD10B58368044613B10322014698472A
:104CBC00204610BD0022026010B54FF69C72828017
:104CCC00B1F9044084808A8002680C6804600A6030
:104CDC0010BD10B504460068FFF758FC204610BD07
:104CEC0038B5C468F4B12378022B03D104F10C005D
:104CFC00FFF7EFFF656835B12846FFF7D2FF1021AB
:104D0C00284600F035FEA56835B12846FFF7C9FFE7
:104D1C001021284600F02CFE20461421BDE8384016
:104D2C0000F026BE38BD13B5044691E805000023FB
:104D3C004B600B602060626001A801930093FFF749
:104D4C005DFC204602B010BDF7B50C4602AD54F820
:104D5C00043B45F8083D06460F4601A82146FFF7DF
:104D6C0090FE29463046FFF7DEFF01A8FFF746FC10
:104D7C002046FFF743FC3846082100F0F9FD304689
:104D8C0003B0F0BD13B50B46044603C88DE8030011
:104D9C0093E8030084E803009DE8030083E8030024
:104DAC0002B010BD38B500230446036010200D4638
:104DBC00FFF76BF928B1012343608360024B03605A
:104DCC00C5602060204638BDCC6A0D00826810B5E5
:104DDC000AB900F0E0FDC368BDE81040184708B5FB
:104DEC00006800F11001FFF7F1FF08BD826810B5F3
:104DFC000AB900F0D0FDC368BDE81040184708B5EB
:104E0C00006800F11001FFF7F1FF08BD38B5002371
:104E1C0083608B6804460D462BB102229847EB68E1
:104E2C00E360AB68A360204638BD0000F0B589B0E4
:104E3C0004686846FFF73EFF00238DF808304FF0FA
:104E4C000202D4E84F3F002B03D1C4E8412F0029C4
:104E5C00F7D102D08DF8083063E014F10C0503D0C3
:104E6C0069462846FFF726FFBFF35F8F0123637067
:104E7C00002004F10803BFF35F8F53E8006F43E891
:104E8C000002002AF9D1BFF35F8F002E49D0FFF743
:104E9C0051FB20B129463046FFF798FF3AE03146E6
:104EAC0002A8FFF7B3FFE068B4F9105008B101F0A5
:104EBC0029FD06901020ADF81C50FFF7E6F80546CA
:104ECC00E8B1002787601820FFF7DFF8044688B1A7
:104EDC000146876002A8FFF755FF049BA268A360F8
:104EEC00059B049206A9E268E36004F110000592A8
:104EFC00FFF7E0FE0D4BEB600D4B2C60AB6006A892
:104F0C00FFF7E7FE02A8FFF7CCFE0022294609486E
:104F1C00FFF718FB3046FFF7C4FE1021304600F0B7
:104F2C0027FD6846FFF7D5FE09B0F0BDEB4D0D002F
:104F3C0061500D0061490D002DE9F04F8BB0064614
:104F4C000F46904699469DF850A0FFF77BFA07ADA7
:104F5C00834630BB4FF62E73059005A92846ADF855
:104F6C001830FFF7A7FE1420FFF78FF8044658B14E
:104F7C000223037001234370C0F804B0C0F808B0DA
:104F8C0029460C30FFF796FE3046214640F8044B7C
:104F9C00FFF708FF2846FFF79CFE05A8FFF799FED0
:104FAC0052E000240C2314206C60AC600793FFF7D4
:104FBC006CF8014618B1047044704460846004A815
:104FCC000391FFF7EFFE224B08930820FFF75DF8E3
:104FDC00044628B1039B40F8043B04A9FFF751FD9C
:104FEC0000955FFA8AF34A46414638460994FFF722
:104FFC0031FA20B9039B5B7803F0FF0283B1039B6A
:10500C00059304A906A8FFF73CFD05A93046FFF758
:10501C008AFE06A8FFF7F2FA04A8FFF7EFFA13E0EE
:10502C004FF69C7305A903A80592ADF81830FFF74D
:10503C00FDFE05A8FFF74DFE05A80999FFF784FEB4
:10504C0006A8FFF7DBFADAE730460BB0BDE8F08FC5
:10505C00D1510D00022AF8B5044606D0032A17D008
:10506C00012A22D10B6803601FE018200E68FFF79D
:10507C000CF8054650B13146FFF7C8FE3069B6F959
:10508C00147008B101F03EFC2861AF8225600CE081
:10509C00046854B104F11000FFF71BFE2046FFF723
:1050AC0000FE1821204600F063FC0020F8BD38B546
:1050BC00002383608B6804460D462BB1022298476F
:1050CC00EB68E360AB68A360204638BD022A70B57C
:1050DC00044606D0032A11D0012A18D10B680360AC
:1050EC0015E014200E68FEF7D0FF054620B13146BE
:1050FC00FFF7DDFF337C2B74256008E0046834B1C6
:10510C002046FFF7CEFD1421204600F031FC002094
:10511C0070BD0000F0B5002387B00C46BFF35F8F65
:10512C0050E8006F40E80032002AF9D1BFF35F8FDE
:10513C00002E3FD01846FFF7FDF9074620B1214657
:10514C003046FFF753FE2EE0314601A8FFF7AFFFC4
:10515C0023788DF814301020FEF797FF0546D0B158
:10516C0087601420FEF791FF044678B187600146F2
:10517C0001A8FFF707FE039BA268A360049B0392A0
:10518C00E268E3609DF81430049223740A4BEB60E0
:10519C000A4B2C60AB6001A8FFF783FD0022294667
:1051AC000748FFF7CFF93046FFF77BFD102130465B
:1051BC0000F0DEFB07B0F0BD0B4E0D00D9500D001A
:1051CC0061490D0030B585B004460D466846114660
:1051DC00FFF7BAFD7CB124B228460DB101F092FB69
:1051EC00029002A96846ADF80C40FFF71FFE02A81A
:1051FC00FFF76FFD1DE000988DF808404FF001029D
:10520C00D0E84F3FA34203D1C0E8412F0029F7D18A
:10521C0002D08DF808300CE010F10C014FF00103B6
:10522C0018BF0373BFF35F8F043000F8033CFFF724
:10523C0071FF01A8FFF7E2F905B030BD0021FFF7BF
:10524C0071B9000008B50C4B33B1FFF783FC036850
:10525C001B699847002809DC084B63B100F0A4F9DE
:10526C0003681B699847002803DC08BDAFF3008076
:10527C00F2E7AFF3008008BD000000000000000062
:10528C0008B5FFF7DFFFFFF7B5F8014B186008BD55
:10529C0048E703200248034A0349121A01F0F6BA00
:1052AC0000F4032004F40320F86C0D0007B5002370
:1052BC0000931A466FF07701FFF756F903B05DF8CB
:1052CC0004FB000007B543880A2B08D0502B09D1EA
:1052DC00094B1B683BB103B05DF804EB1847FFF7B3
:1052EC00E5FF06E0002300931A466FF07701FFF705
:1052FC003BF903B05DF804FBD8E5032038B5104C3E
:10530C00104D2368AB42104B0CBF012200221A70C7
:10531C0002D0FFF7BFFF2560FFF764F8044601F0E9
:10532C00C9FA0A4B13B12046AFF30080002107489D
:10533C00FFF798F800210648BDE83840FFF70AB996
:10534C0000F403201E1C279ADCE50320000000005B
:10535C00D1520D0010B50446FFF7A3FC204610BD3A
:10536C000348044A04490023836000F0F3BA00BFE9
:10537C00E0E50320C8E3032061530D00024B1A68DB
:10538C00024B1A60704700BF60E30320F0E5032076
:10539C00014B024A1A607047F4E503207C6B0D0048
:1053AC00F8B506460D468F180024BD420CD0336864
:1053BC0015F8011B9B6830469847002801DB044414
:1053CC00F3E7002C08BF04462046F8BD70B505462F
:1053DC000C46084649B101F0B0FA2B68024621464A
:1053EC002846DB68BDE87040184770BD03689B68B1
:1053FC00184738B50D210546FFF7F8FF0A2104467A
:10540C002846FFF7F3FF204438BD30B58BB00B4670
:10541C0000218DF82410012A98BF0A220DF12304D3
:10542C00B3FBF2F505FB123303F0FF03092B94BF1A
:10543C0030333733DBB2214604F801392B46002DCB
:10544C00EED1FFF7C3FF0BB030BD0CB42DE9F04328
:10545C0087B000AF07F13804054654F8049B3C6054
:10546C000E4623464A461421381DFFF79FF8132891
:10547C0005D8391D2846FFF7A9FF044613E000F1B3
:10548C00080323F00703E846ADEB030D411C23464C
:10549C004A4668463C60FFF789F869462846FFF79C
:1054AC0095FF0446C5461EB12846FFF7A2FF0444EB
:1054BC0020461C37BD46BDE8F04302B0704710B51E
:1054CC000446006808B1FEF785FF204610BD0000B9
:1054DC0010B5064C002320462360FEF773FF2046D0
:1054EC00034A0449BDE8104000F034BAF8E5032043
:1054FC00C8E30320CB540D0070474174704708B5C6
:10550C00007CFEF737FF20EAE07008BD08B5007C90
:10551C00FEF710FF20EAE07008BD08B5007CFEF72E
:10552C0019FF30EA200028BF4FF0FF3008BD08B546
:10553C00007CFEF707FF30EA200028BF4FF0FF3059
:10554C0008BD007CFEF70EBF10B51421044600F018
:10555C000FFA204610BD70B5457C04460E4625B9A1
:10556C00007CFEF707FF002805DD3146207CBDE8F6
:10557C007040FEF7D7BE284670BD000010B504463B
:10558C0008461146002262604FF47A72A260054A06
:10559C0022600122207462741A46FEF7BBFE20467C
:1055AC0010BD00BFF46B0D0038B50C4D296811F01F
:1055BC00010411D12846FEF76EFD68B1084A094B6B
:1055CC0009482146FFF7DAFF2846FEF769FD074A2E
:1055DC000749054800F0BEF9034838BD94E603209E
:1055EC0098E6032010E60320FCE50320C8E3032023
:1055FC0005550D0010B5044601F09FF9013823182C
:10560C002046984206D20278197800F8011B03F85C
:10561C000129F6E710BD70B50C46911E222920D841
:10562C002546294610B9234430220EE0B0FBF2F691
:10563C0002FB1600C1B205F8011B092894BF3031DA
:10564C00573105F8011C3046EBE7994202D201F8BC
:10565C00012BFAE7002320460B70FFF7CBFF204607
:10566C0070BD002070BD10B50446006818B1FEF77F
:10567C008DFF0023236010BD10B50446FFF7F3FF28
:10568C00204610BD10B5094C00204FF6FF7320606A
:10569C00A080A07120816381FEF73CFF2046044A64
:1056AC000449BDE8104000F055B900BF1CE70320C9
:1056BC00C8E3032085560D00002211464068FEF712
:1056CC0011BF002211464068FEF71CBF0022406843
:1056DC00FEF710BF002281F001014068FEF7FABE10
:1056EC0000231A4619464068FEF7ECBE00231A4602
:1056FC0019464068FEF7DEBE002211464068FEF7F0
:10570C00D1BE002211464068FEF7BCBE0022022129
:10571C004068FEF7BFBE00231A464068FEF7AABEDB
:10572C00024B03225A60024A1A60704728E7032092
:10573C00246C0D002DE9F14F59EC108B07460E46E9
:10574C000022002310EE100A494600F099FE28B101
:10575C0009F1004399462D233370013600230124AF
:10576C000A22D9B28F4202D954430133F9E72046B9
:10577C0000F0AEFB42464B4600F010FC82468B46D6
:10578C0000F0DEFE8046894600F0D2FB02460B4656
:10579C005046594600F04EFA0022174B00F084FE9A
:1057AC0018B118F1010849F10009E51722462B46FA
:1057BC004046494600F0ACFE01230A223146FFF771
:1057CC002AFFAFB1304601F0B8F82E233354013024
:1057DC00064422462B464046494600F099FE3B467D
:1057EC00104631460A2201B0BDE8F04FFFF713BF57
:1057FC0001B0BDE8F08F00BF0000E03F10B50446DB
:10580C000068FEF7C3FE204610BD10B504460068C4
:10581C0008B1FEF7BBFE00232360A360636010BDDC
:10582C0038B504460D4600680131FEF7B7FE10B1DD
:10583C0084E82100012038BD10B50368044613B17B
:10584C0043688B4207D22046FFF7EAFF20B1A368DA
:10585C000BB922681370012010BD70B50E461146AD
:10586C0004461546FFF7E8FF18B92046FFF7CDFFB1
:10587C0009E02A463146A560206801F007F8226845
:10588C00A3680021D154204670BD38B505460C469E
:10589C0041B1084601F051F8214602462846FFF76F
:1058AC00DCFF01E0FFF7B1FF284638BD10B500233F
:1058BC008AB004460360436083600373C8B201A9D5
:1058CC00FFF738FF01A92046FFF7DFFF20460AB09B
:1058DC0010BD000070B5044614252A46094E00215F
:1058EC0000F0DFFF258020253146A5602561284684
:1058FC0000F040F831466060284600F03BF8E0606C
:10590C00204670BD506C0D0030B50E4D296811F05D
:10591C00010487B013D12846FEF7BDFB78B101A86E
:10592C00FFF7D8FF01AA21460748FFF753F828468E
:10593C00FEF7B6FB054A0649034800F00BF802488F
:10594C0007B030BD30E7032034E70320C8E3032061
:10595C0089490D000B460146184600F089BF00002E
:10596C00024B1868BFF35F8F704700BF4CE70320F2
:10597C00FEF78DBB00F000B810B5002814BF04462C
:10598C0001242046FEF7FAFD20B9FFF7E9FF08B124
:10599C008047F6E710BD08B5FEF710FE184B1A68E5
:1059AC00D1075CBF01221A60164B1A68D2075CBF84
:1059BC0001221A60144B1A68D0075CBF01221A60CE
:1059CC00124B1A68D1075CBF01221A60104B1A687F
:1059DC00D2075CBF01221A600E4B1A68D0075CBF5D
:1059EC0001221A600C4B1A68D1075CBF01221A60A5
:1059FC000A4B1A68D2075CBF01221A60704700BFBD
:105A0C006CE7032068E7032064E7032060E70320CA
:105A1C005CE7032058E7032054E7032050E70320FA
:105A2C00244B1A68D0075CBF01221A60224B1A68FB
:105A3C00D1075CBF01221A60204B1A68D2075CBFE9
:105A4C0001221A601E4B1A68D0075CBF01221A6033
:105A5C001C4B1A68D1075CBF01221A601A4B1A68DA
:105A6C00D2075CBF01221A60184B1A68D0075CBFC2
:105A7C0001221A60164B1A68D1075CBF01221A600A
:105A8C00144B1A68D2075CBF01221A60124B1A68B9
:105A9C00D0075CBF01221A60104B1A68D1075CBF9B
:105AAC0001221A600E4B1A68D2075CBF01221A60E1
:105ABC00704700BF9CE7032098E7032094E703207E
:105ACC0090E703208CE7032088E7032084E703207A
:105ADC0080E703207CE7032078E7032074E70320AA
:105AEC0070E70320244B1A68D0075CBF01221A60B0
:105AFC00224B1A68D1075CBF01221A60204B1A682E
:105B0C00D2075CBF01221A601E4B1A68D0075CBF1B
:105B1C0001221A601C4B1A68D1075CBF01221A6063
:105B2C001A4B1A68D2075CBF01221A60184B1A680C
:105B3C00D0075CBF01221A60164B1A68D1075CBFF4
:105B4C0001221A60144B1A68D2075CBF01221A603A
:105B5C00124B1A68D0075CBF01221A60104B1A68EE
:105B6C00D1075CBF01221A600E4B1A68D2075CBFCA
:105B7C0001221A60704700BFCCE70320C8E703205E
:105B8C00C4E70320C0E70320BCE70320B8E70320E9
:105B9C00B4E70320B0E70320ACE70320A8E7032019
:105BAC00A4E70320A0E70320184B1A68D1075CBFB9
:105BBC0001221A60164B1A68D2075CBF01221A60C8
:105BCC00144B1A68D0075CBF01221A60124B1A687A
:105BDC00D1075CBF01221A60104B1A68D2075CBF58
:105BEC0001221A600E4B1A68D0075CBF01221A60A2
:105BFC000C4B1A68D1075CBF01221A600A4B1A6859
:105C0C00D2075CBF01221A60704700BFECE703208B
:105C1C00E8E70320E4E70320E0E70320DCE70320C8
:105C2C00D8E70320D4E70320D0E7032081F000411C
:105C3C0002E000BF83F0004330B54FEA41044FEA65
:105C4C00430594EA050F08BF90EA020F1FBF54EA00
:105C5C00000C55EA020C7FEA645C7FEA655C00F09C
:105C6C00E2804FEA5454D4EB5555B8BF6D420CDD6D
:105C7C002C4480EA020281EA030382EA000083EAF0
:105C8C00010180EA020281EA0303362D88BF30BD90
:105C9C0011F0004F4FEA01314FF4801C4CEA1131E6
:105CAC0002D0404261EB410113F0004F4FEA033345
:105CBC004CEA133302D0524263EB430394EA050FD0
:105CCC0000F0A780A4F10104D5F1200E0DDB02FA3F
:105CDC000EFC22FA05F2801841F1000103FA0EF2D3
:105CEC00801843FA05F359410EE0A5F120050EF199
:105CFC00200E012A03FA0EFC28BF4CF0020C43FACA
:105D0C0005F3C01851EBE37101F0004507D54FF0D6
:105D1C00000EDCF1000C7EEB00006EEB0101B1F526
:105D2C00801F1BD3B1F5001F0CD349085FEA30006C
:105D3C004FEA3C0C04F101044FEA445212F5800F77
:105D4C0080F09A80BCF1004F08BF5FEA500C50F114
:105D5C00000041EB045141EA050130BD5FEA4C0CF7
:105D6C00404141EB010111F4801FA4F10104E9D180
:105D7C0091F0000F04BF01460020B1FA81F308BF77
:105D8C002033A3F10B03B3F120020CDA0C3208DD43
:105D9C0002F1140CC2F10C0201FA0CF021FA02F11E
:105DAC000CE002F11402D8BFC2F1200C01FA02F18E
:105DBC0020FA0CFCDCBF41EA0C019040E41AA2BFB3
:105DCC0001EB0451294330BD6FEA04041F3C1CDA7B
:105DDC000C340EDC04F11404C4F1200220FA04F09B
:105DEC0001FA02F340EA030021FA04F345EA030145
:105DFC0030BDC4F10C04C4F1200220FA02F001FA07
:105E0C0004F340EA0300294630BD21FA04F0294688
:105E1C0030BD94F0000F83F4801306BF81F4801121
:105E2C000134013D4EE77FEA645C18BF7FEA655C94
:105E3C0029D094EA050F08BF90EA020F05D054EA66
:105E4C00000C04BF1946104630BD91EA030F1EBF6B
:105E5C000021002030BD5FEA545C05D1400049416F
:105E6C0028BF41F0004130BD14F580043CBF01F562
:105E7C00801130BD01F0004545F0FE4141F4700148
:105E8C004FF0000030BD7FEA645C1ABF1946104623
:105E9C007FEA655C1CBF0B46024650EA013406BF24
:105EAC0052EA033591EA030F41F4002130BD00BFE3
:105EBC0090F0000F04BF0021704730B54FF48064A0
:105ECC0004F132044FF000054FF0000150E700BF21
:105EDC0090F0000F04BF0021704730B54FF4806480
:105EEC0004F1320410F0004548BF40424FF000016D
:105EFC003EE700BF42004FEAE2014FEA31014FEAB0
:105F0C0002701FBF12F07F4393F07F4F81F06051FE
:105F1C00704792F0000F14BF93F07F4F704730B56D
:105F2C004FF4607401F0004521F0004120E700BF00
:105F3C0050EA010208BF704730B54FF000050AE087
:105F4C0050EA010208BF704730B511F0004502D588
:105F5C00404261EB41014FF4806404F132045FEA8A
:105F6C00915C3FF4DCAE4FF003025FEADC0C18BF2F
:105F7C0003325FEADC0C18BF033202EBDC02C2F125
:105F8C00200300FA03FC20FA02F001FA03FE40EAB7
:105F9C000E0021FA02F11444C1E600BF70B54FF0B7
:105FAC00FF0C4CF4E06C1CEA11541DBF1CEA135599
:105FBC0094EA0C0F95EA0C0F00F0DEF82C4481EA01
:105FCC00030621EA4C5123EA4C5350EA013518BF21
:105FDC0052EA033541F4801143F4801338D0A0FB0E
:105FEC0002CE4FF00005E1FB02E506F00042E0FBBB
:105FFC0003E54FF00006E1FB03569CF0000F18BFC1
:10600C004EF0010EA4F1FF04B6F5007F64F5407468
:10601C0004D25FEA4E0E6D4146EB060642EAC621FB
:10602C0041EA55514FEAC52040EA5E504FEACE2E68
:10603C00B4F1FD0C88BFBCF5E06F1ED8BEF1004F6B
:10604C0008BF5FEA500E50F1000041EB045170BDE7
:10605C0006F0004646EA010140EA020081EA03012B
:10606C00B4EB5C04C2BFD4EB0C0541EA045170BD27
:10607C0041F480114FF0000E013C00F3AB8014F1A1
:10608C00360FDEBF002001F0004170BDC4F10004EA
:10609C00203C35DA0C341BDC04F11404C4F120056B
:1060AC0000FA05F320FA04F001FA05F240EA0200C6
:1060BC0001F0004221F0004110EBD37021FA04F6FC
:1060CC0042EB06015EEA430E08BF20EAD37070BDB6
:1060DC00C4F10C04C4F1200500FA04F320FA05F015
:1060EC0001FA04F240EA020001F0004110EBD37017
:1060FC0041F100015EEA430E08BF20EAD37070BD87
:10610C00C4F1200500FA05F24EEA020E20FA04F35F
:10611C0001FA05F243EA020321FA04F001F000410E
:10612C0021FA04F220EA020000EBD3705EEA430E7F
:10613C0008BF20EAD37070BD94F0000F0FD101F0AE
:10614C000046400041EB010111F4801F08BF013CE7
:10615C00F7D041EA060195F0000F18BF704703F025
:10616C000046520043EB030313F4801F08BF013DAC
:10617C00F7D043EA0603704794EA0C0F0CEA135568
:10618C0018BF95EA0C0F0CD050EA410618BF52EA22
:10619C004306D1D181EA030101F000414FF0000028
:1061AC0070BD50EA410606BF1046194652EA430636
:1061BC0019D094EA0C0F02D150EA013613D195EAAA
:1061CC000C0F05D152EA03361CBF104619460AD1F2
:1061DC0081EA030101F0004141F0FE4141F47001FC
:1061EC004FF0000070BD41F0FE4141F4780170BDEC
:1061FC0070B54FF0FF0C4CF4E06C1CEA11541DBF51
:10620C001CEA135594EA0C0F95EA0C0F00F0A7F852
:10621C00A4EB050481EA030E52EA03354FEA01317F
:10622C0000F088804FEA03334FF0805545EA131392
:10623C0043EA12634FEA022245EA111545EA10655A
:10624C004FEA00260EF000419D4208BF964244F1F1
:10625C00FD0404F5407402D25B084FEA3202B61A10
:10626C0065EB03055B084FEA32024FF480104FF4E4
:10627C00002CB6EB020E75EB030E22BFB61A754658
:10628C0040EA0C005B084FEA3202B6EB020E75EBEB
:10629C00030E22BFB61A754640EA5C005B084FEA53
:1062AC003202B6EB020E75EB030E22BFB61A754620
:1062BC0040EA9C005B084FEA3202B6EB020E75EB2B
:1062CC00030E22BFB61A754640EADC0055EA060EEC
:1062DC0018D04FEA051545EA16754FEA06164FEA2F
:1062EC00C30343EA52734FEAC2025FEA1C1CC0D1DB
:1062FC0011F4801F0BD141EA00014FF000004FF068
:10630C00004CB6E711F4801F04BF01430020B4F128
:10631C00FD0C88BFBCF5E06F3FF6AFAEB5EB030CE0
:10632C0004BFB6EB020C5FEA500C50F1000041EBDD
:10633C00045170BD0EF0004E4EEA113114EB5C04AA
:10634C00C2BFD4EB0C0541EA045170BD41F480117D
:10635C004FF0000E013C90E645EA060E8DE60CEA85
:10636C00135594EA0C0F08BF95EA0C0F3FF43BAFA2
:10637C0094EA0C0F0AD150EA01347FF434AF95EA59
:10638C000C0F7FF425AF104619462CE795EA0C0F3D
:10639C0006D152EA03353FF4FDAE1046194622E70A
:1063AC0050EA410618BF52EA43067FF4C5AE50EAE4
:1063BC0041047FF40DAF52EA43057FF4EBAE12E7D4
:1063CC004FF0FF3C06E000BF4FF0010C02E000BFB5
:1063DC004FF0010C4DF804CD4FEA410C7FEA6C5C98
:1063EC004FEA430C18BF7FEA6C5C1BD001B050EA3B
:1063FC00410C0CBF52EA430C91EA030F02BF90EA26
:10640C00020F0020704710F1000F91EA030F58BFE4
:10641C00994208BF90422CBFD8176FEAE37040F046
:10642C00010070474FEA410C7FEA6C5C02D150EAE4
:10643C00013C07D14FEA430C7FEA6C5CD6D152EA9F
:10644C00033CD3D05DF8040B704700BF8446104664
:10645C0062468C461946634600E000BF01B5FFF763
:10646C00B7FF002848BF10F1000F01BD4DF808ED33
:10647C00FFF7F4FF0CBF012000205DF808FB00BF04
:10648C004DF808EDFFF7EAFF34BF012000205DF85E
:10649C0008FB00BF4DF808EDFFF7E0FF94BF0120AB
:1064AC0000205DF808FB00BF4DF808EDFFF7CEFFAC
:1064BC0094BF012000205DF808FB00BF4DF808EDEB
:1064CC00FFF7C4FF34BF012000205DF808FB00BFBC
:1064DC004A0011D212F5001211D20DD56FF4787357
:1064EC00B3EB62520ED44FEAC12343F0004343EAAC
:1064FC00505323FA02F070474FF00000704750EAF7
:10650C00013002D14FF0FF3070474FF00000704760
:10651C0053B94AB9002908BF00281CBF4FF0FF31FE
:10652C004FF0FF3000F0A2B9ADF1080C6DE904CECC
:10653C0000F02AF8DDF804E0DDE9022304B070472E
:10654C00D0B500220E4B06460F46FFF727FDFFF78E
:10655C00BFFF0446FFF7ACFC00220A4BFFF71EFD01
:10656C0002460B4630463946FFF764FBFFF7B0FF97
:10657C002346002242EA000210461946D0BD00BF55
:10658C000000F03D0000F0412DE9F0478C460E462E
:10659C000446089D002B50D18A4217466CD9B2FA9A
:1065AC0082FEBEF1000F0BD0CEF1200420FA04F4D1
:1065BC0001FA0EF644EA060C02FA0EF700FA0EF493
:1065CC004FEA1749220CBCFBF9F01FFA87F809FBBC
:1065DC0010C642EA064600FB08F3B34209D9F61985
:1065EC0000F1FF3280F02281B34240F21F81023869
:1065FC003E44F61AA2B2B6FBF9F309FB136642EA63
:10660C00064403FB08F8A04509D9E41903F1FF324D
:10661C0080F00A81A04540F20781023B3C44C8EB64
:10662C00040443EA00400021002D62D024FA0EF449
:10663C0000232C606B60BDE8F0878B4207D9002DDE
:10664C0055D0002185E841000846BDE8F087B3FA33
:10665C0083F1002940F09080B34202D3824200F2D1
:10666C00F880841A66EB03060120B446002D40D056
:10667C0085E81010BDE8F08712B90127B7FBF2F7D7
:10668C00B7FA87FEBEF1000F35D1F31B4FEA17485E
:10669C001FFA87FC0121B3FBF8F0220C08FB103623
:1066AC0042EA06460CFB00F3B34207D9F61900F197
:1066BC00FF3202D2B34200F2CE801046F61AA2B2DA
:1066CC00B6FBF8F308FB136642EA06440CFB03FC2A
:1066DC00A44507D9E41903F1FF3202D2A44500F214
:1066EC00B5801346CCEB040443EA00409CE72946F2
:1066FC002846BDE8F087CEF1200106FA0EF307FA22
:10670C000EF720FA01F94FEA1748CE4049EA03097F
:10671C00B6FBF8FA4FEA194408FB1A661FFA87FC15
:10672C0044EA06430AFB0CF29A4200FA0EF40AD928
:10673C00DB190AF1FF3180F087809A4240F28480A5
:10674C00AAF1020A3B449B1A1FFA89F9B3FBF8F130
:10675C0008FB113349EA034301FB0CF69E4207D9AF
:10676C00DB1901F1FF326BD29E4269D902393B44ED
:10677C009B1B41EA0A418EE7C1F1200E22FA0EF46E
:10678C008B40234320FA0EF706FA01F44FEA134C20
:10679C0026FA0EF63C43B6FBFCF9270C0CFB1966EB
:1067AC001FFA83F847EA064609FB08F7B74202FAD4
:1067BC0001F200FA01FA08D9F61809F1FF3041D2BA
:1067CC00B7423FD9A9F102091E44F61BA0B2B6FB91
:1067DC00FCF40CFB146640EA064704FB08F8B845C9
:1067EC0007D9FF1804F1FF3028D2B84526D9023C4E
:1067FC001F4444EA0940C8EB0707A0FB02894F4538
:10680C0044464E4614D329D065B3BAEB040367EB68
:10681C00060707FA0EFECB40CF404EEA030385E88D
:10682C0088000021BDE8F0871346F8E61046E0E644
:10683C00B8EB020469EB03060138E5E70446D8E738
:10684C00114695E78146C0E78A467CE7023B3C440B
:10685C0048E708460AE702383E442FE7C245E7D32B
:10686C003E46D1E72946BDE8F08700BF704700BF20
:10687C0010B5054C13462CB10A4601460220AFF365
:10688C00008010BD204610BD0000000010B5431E56
:10689C000A44914204D011F8014B03F8014FF8E778
:1068AC0010BD02440346934202D003F8011BFAE7E1
:1068BC007047000038B5124B1C68A36B0546D3B962
:1068CC001820FDF75BFE43F20E33A06303804AF6FB
:1068DC00CD33438041F2342383804EF26D63C38009
:1068EC004DF6EC630381052343810B238381012245
:1068FC000023C0E90423A36B00221D615A6138BD3B
:10690C00C4E30320024B0146186800F003B800BF33
:10691C00C4E3032070B5064608460C4600F00DF89B
:10692C00451C29463046FDF751FE064618B12A464D
:10693C002146FFF7ABFF304670BD034613F8012B21
:10694C00002AFBD1181A0138704700001D400D00B9
:10695C0059400D0085400D0089400D0000000000DD
:10696C00414443313231435F4D51390069326364E4
:10697C0065766963650050504D00436172626F6EBD
:10698C00204D6F6E6F7869646520436F6E63656E22
:10699C0074726174696F6E203A2000434F20636FEC
:1069AC006E63203D2025302E3266200A0000000048
:1069BC00000000000000000021460D002B460D00D9
:1069CC0035460D003F460D0049460D0055460D005D
:1069DC0061460D006D460D0075460D007F460D009D
:1069EC0089460D000000000000000000C7470D00A4
:1069FC00BD470D00B3470D0069470D00A7470D00BB
:106A0C009B470D008F470D0087470D007D470D00FC
:106A1C0073470D0089460D000000000000000000C7
:106A2C0043480D0039480D002F480D0025480D0036
:106A3C0019480D000D480D0001480D00F9470D00D7
:106A4C00EF470D00E5470D0089460D0000000000E2
:106A5C000000000089490D00D3490D00AB490D0021
:106A6C008B490D00B3490D00BB490D00C3490D0006
:106A7C00CB490D000000000000000000A14A0D00F1
:106A8C00F14A0D00FF4A0D00AD530D00DD4A0D001B
:106A9C00A34A0D00B94A0D00EB4A0D00CF4A0D0078
:106AAC009D4A0D000000000000000000BD4B0D00D1
:106ABC00AD4B0D00AF4B0D000000000000000000BE
:106ACC00914C0D00974C0D00ED4C0D00A54C0D009C
:106ADC00934C0D005A00252B3033643A2530327517
:106AEC000025592D256D2D25645425483A254D3A00
:106AFC002553257A0061736374696D650062617555
:106B0C00640053657269616C0053657269616C3124
:106B1C00007479706500706172616D00636D640062
:106B2C00696400686E64007374726D0066696C74DD
:106B3C00006C766C0061646448616E646C65720014
:106B4C0072656D6F766548616E646C657200656E1A
:106B5C00756D48616E646C657273004A534F4E5389
:106B6C00747265616D4C6F6748616E646C65720020
:106B7C0061707000253031307520005D2000256477
:106B8C00002C200028293A2000205B00636F6465EC
:106B9C00203D200025690064657461696C73203D9B
:106BAC0020000D0A0066006C6E00666E00636F6458
:106BBC00650064657461696C006E6F6E650074725B
:106BCC0061636500696E666F007761726E00657255
:106BDC00726F720070616E696300616C6C00000012
:106BEC00000000000000000005550D0055550D007B
:106BFC0063550D00AD530D0019550D003B550D009F
:106C0C0027550D004F550D0007550D000B550D0068
:106C1C00000000000000000023570D0019570D0064
:106C2C000F570D0005570D00F9560D00ED560D00D0
:106C3C00E1560D00D9560D00CF560D00C5560D006E
:106C4C0089460D000000000000000000000000005C
:106C5C000000000000000000000000000000000028
:106C6C000000000000000000000000000000000018
:106C7C000000000000000000000000000000000008
:106C8C0000000000000000000000000000000000F8
:106C9C0000000000000000000000000000000000E8
:106CAC0000000000000000004300000001420D0045
:106CBC0055470D00D1470D0011490D006D530D00C6
:106CCC0089530D009D530D00DD540D0091560D00A0
:106CDC002D570D00A9590D002D5A0D00F15A0D001C
:046CEC00B55B0D0087
:086CF000A4F8FF7F0100000081
:046CF8000000000098
:106CFC00016B0D0000000000546C0D00746C0D0055
:106D0C00946C0D000000000000000000000000006A
:106D1C0000000000B46C0D0000000000000000003A
:106D2C000000000000000000000000000000000057
:106D3C000000000000000000000000000000000047
:106D4C000000000000000000000000000000000037
:086D5C000000000064E30320C5
:106D6400FFFFFFFF00000102030405060708090AEC
:106D74000B0C0D0E0F101112131415161718191AE7
:086D84001B1C1D1E1F2028002E
:046D8C0078563412EF
:04000003D000401CCD
:00000001FF
