:02000002D0002C
:1040000000400D00B8650D00000006000C00050121
:084010000401DE0500000000C0
:0440180048610D00EE
:1040200009480A49884208B505D0094A824202D0A7
:10403000121A02F045F80748074A0021121A02F046
:104040004AF8014808BD00BF48E3032024650D007D
:10405000B4E30320B4E30320F0E7032070B500F0DD
:10406000A9FE074C074BE41AA40800251E46A542EA
:1040700004D056F8253098470135F8E770BD00BFE9
:1040800020650D00E8640D0000F017B808B500F0D9
:104090005BF8BDE8084000F04FBE00F0EDBA00F05C
:1040A000EBBA0078B0FA80F0400970470123037042
:1040B00070470368C9B29B68184708B501F078F8E3
:1040C00000F0D0FC00F076FD4FF4165100F066FDD4
:1040D00001F06EF8182100F000FD01F069F82021D0
:1040E000FFF7E7FF01F064F82721FFF7E2FF01F097
:1040F0005FF800F0F9FC01F05BF8182100F0EDFC2E
:1041000001F056F82321FFF7D4FF01F051F8002108
:10411000FFF7CFFF01F04CF800F0E6FC4FF496708B
:10412000BDE8084000F0E7BD37B5044610EE100AC0
:104130000D4601F063FC2A46CDE90001002120462E
:1041400000F0DFFE03B030BD2DE9F74F6E4D28249F
:1041500001F02EF8182100F0C0FC01F029F82146EA
:10416000FFF7A7FF01F024F800F0BEFC01F020F8F3
:104170000122182100F0AAFC01F01AF803681B695B
:104180009847012807D101F013F803685B69984745
:104190002B1903F8280C4FF49670013400F0ABFD96
:1041A0002E2CD5D1584B594C59781A78D878584F6D
:1041B000584E594D02EB0122B2F5004F5749A8BFA6
:1041C000A2F580320A609A7802EB0022B2F5004F25
:1041D000A8BFA2F5803222605A791B79086803EBE8
:1041E0000223B3F5004FA8BFA3F580333B6001F075
:1041F000F3FB43A3D3E9002301F07EFD01F002FFAE
:10420000804630602068464C01F0E6FB3CA3D3E9D1
:10421000002301F071FD01F0F5FE82462860386848
:1042200001F0DAFB36A3D3E9002301F065FD01F0CC
:10423000E9FE07462060404601F0E0FB804650461C
:10424000894601F0DBFB824638468B4601F0D6FBFF
:104250004246CDE900014B464046494601F022FC6A
:104260005246804689465B465046594601F01AFC44
:1042700002460B464046494601F062FADDE900235A
:10428000804689461046194601F00CFC0B46024652
:104290004946404601F054FA41EC100B01F018F980
:1042A00051EC100B01F0AEFE1E4F386000F082FCA6
:1042B0001D4A002100F025FE00F07CFC96ED000A6E
:1042C0001A49FFF731FF00F075FC95ED000A184917
:1042D000FFF72AFF00F06EFC94ED000A1549FFF786
:1042E00023FF00F067FC97ED000A1349FFF71CFF5E
:1042F000FA2003B0BDE8F04F00F0FDBCAFF3008042
:10430000000000000082B440C0E30320C8E30320A3
:10431000D0E30320BCE30320CCE30320B8E3032075
:10432000D4E30320D8E303205C610D0084610D0019
:10433000A4610D00C4610D00E4610D0000F000B93E
:1043400008B5024B1B681B68019308BD4C020300B3
:1043500008B5024B1B685B68019308BD4C02030063
:1043600008B5024B1B681B69019308BD4C02030092
:1043700008B5024B1B685B69019308BD4C02030042
:1043800008B5024B1B689B69019308BD4C020300F2
:1043900008B5024B1B68DB69019308BD4C020300A2
:1043A00008B5024B1B681B6A019308BD4C02030051
:1043B00008B5024B1B68DB68019308BD28020300A7
:1043C00008B5024B1B689B69019308BD28020300D6
:1043D00008B5024B1B68DB69019308BD2802030086
:1043E00008B5024B1B681B6A019308BD2802030035
:1043F00008B5024B1B685B6A019308BD28020300E5
:1044000008B5024B1B689B6A019308BD2802030094
:1044100008B5024B1B68DB6A019308BD2802030044
:1044200008B5024B1B681B6B019308BD28020300F3
:1044300008B5024B1B681B6C019308BD28020300E2
:1044400008B5024B1B681B6D019308BD28020300D1
:1044500008B5024B1B681B68019308BD3C020300B2
:1044600008B5024B1B68DB68019308BD3C020300E2
:1044700008B5024B1B681B69019308BD3C02030091
:1044800008B5024B1B685B69019308BD3C02030041
:1044900008B5024B1B689B69019308BD3C020300F1
:1044A00008B5024B1B68DB69019308BD3C020300A1
:1044B00008B5024B1B689B6A019308BD3C020300D0
:1044C00008B5024B1B685B69019308BD64020300D9
:1044D00008B5024B1B689B68019308BD48020300A6
:1044E00008B5024B1B681B69019308BD4802030015
:1044F00008B5024B1B685B69019308BD48020300C5
:1045000008B5024B1B685B6C019308BD48020300B1
:1045100008B5024B1B689B6C019308BD4802030061
:1045200008B5024B1B685B68019308BD18020300C5
:1045300008B5024B1B685B69019308BD18020300B4
:1045400008B5024B1B681B68019308BD2C020300D1
:1045500008B5024B1B689B68019308BD6802030005
:1045600008B5024B1B68DB68019308BD68020300B5
:1045700008B5024B1B68DB6B019308BD44020300C6
:1045800008B5024B1B685B68019308BD400203003D
:1045900008B5024B1B689B68019308BD40020300ED
:1045A00008B5024B1B68DB68019308BD400203009D
:1045B00008B5024B1B681B69019308BD400203004C
:1045C00008B5024B1B685B69019308BD40020300FC
:1045D00008B5024B1B689B69019308BD40020300AC
:1045E00008B5024B1B68DB69019308BD400203005C
:1045F00008B5024B1B681B6A019308BD400203000B
:1046000008B5024B1B681B6B019308BD40020300F9
:1046100008B5024B1B685B6B019308BD40020300A9
:1046200008B5024B1B685B68019308BD20020300BC
:1046300008B5024B1B685B69019308BD20020300AB
:1046400008B5034B1B68D3F88830019308BD000000
:104650002002030008B5034B1B68D3F89430019384
:1046600008BD00002002030008B5024B1B681B6850
:10467000019308BD1C02030008B5024B1B685B6870
:10468000019308BD1C02030008B5024B1B685B6A5E
:10469000019308BD1C02030008B5024B1B68DB6BCD
:1046A000019308BD1C02030000231A464068FFF76F
:1046B00067BF002202214068FFF772BF0022114647
:1046C0004068FFF765BF002211464068FFF770BFE2
:1046D00000231A4619464068FFF772BF00231A46A6
:1046E00019464068FFF774BF002281F0010140685D
:1046F000FFF776BF00224068FFF782BF0022114615
:104700004068FFF785BF002211464068FFF770BF81
:104710002DE9F043002495B016460D46074600F0FB
:10472000A9FA214620220CA8009401F0D4FC4023D1
:104730000C9321466B460CAA3046FFF711FF044646
:10474000002844D1024601216868FFF731FF0221A9
:10475000804622466868FFF72BFF009E814621466F
:10476000002E34D0002932D17368022B02D00A2BDC
:1047700009D02AE0B8F1000F27D07169384604311A
:1047800000F0A5FA20E0B9F1000F1ED074691122E3
:1047900001A801F0A0FC06238DF8143001AD04F14E
:1047A00008031834186859682A4603C20833A3421C
:1047B0001546F7D101A906A807AD00F069FA0FCD9B
:1047C0003C1D0FC42B6823700121F669C8E70098CF
:1047D000FFF7BEFE384615B0BDE8F083024B034A32
:1047E0001A6000225A607047DCE3032008620D0063
:1047F000002211464068FFF7DBBE002211464068E8
:10480000FFF7F6BE002211464068FFF701BF002205
:104810004068FFF7F5BE002281F001014068FFF714
:10482000DFBE00231A4619464068FFF7D1BE0023B9
:104830001A4619464068FFF7C3BE00221146406879
:10484000FFF7A6BE002202214068FFF7A9BE0023A1
:104850001A464068FFF794BE024B04225A60024A8F
:104860001A607047E4E303203C620D000022114609
:104870004068FFF7BDBE002211464068FFF7C8BE82
:1048800000224068FFF7BCBE002281F001014068B1
:10489000FFF7A6BE00231A4601214068FFF798BE25
:1048A00000231A4619464068FFF78ABE00221146C7
:1048B0004068FFF77DBE002211464068FFF768BEE2
:1048C000002202214068FFF76BBE00231A464068B1
:1048D000FFF756BE38B5054688B104684CB1A368E9
:1048E0001BB103222146204698471021204600F0A4
:1048F00093FC28461421BDE8384000F08DBC38BD3B
:1049000010B103685B681847704710B50368044628
:10491000BBB15868FFF7DCFD78B923685A7C12B93F
:104920005868FFF7DDFD23685868FFF7E1FD206850
:104930000023236028B1FFF7CDFF206808B1FFF7FF
:10494000C9FF204610BD38B50446D0F8C40108B1EF
:10495000FFF7A5FBD4F8C00108B1FFF7D9FDD4F8E3
:10496000BC5135B12846FFF7D0FF0421284600F09E
:1049700053FC206808B1FFF7C3FF204638BD000094
:1049800010B5044B044640F8083BFFF7DCFF204617
:1049900010BD00BF70620D0038B50E4C0E4B236089
:1049A0000025022304F5E4706360A560C4F8C451D7
:1049B000C4F8C851FFF7A4FD084BC4F8CC5184F8E3
:1049C000D05123602046064A0649BDE8384000F031
:1049D00015BC00BFECE3032008620D0070620D00FF
:1049E000B4E3032081490D007047F8B5064615462B
:1049F0000C468F18BC4206D0336814F8011B9B6824
:104A000030469847F6E72846F8BD0022007CFFF7BD
:104A1000E7BC0021007CFFF7EBBC0021007CFFF726
:104A2000EFBC0021007CFFF7F3BC0021007CFFF706
:104A3000F7BC10B51421044600F0EEFB204610BD73
:104A400010B50446002363604FF47A73A360044BEF
:104A50002174084623601146FFF7EAFC204610BD8A
:104A6000A4620D0000231A461946007CFFF7A0BC83
:104A700070B50C4686B0142506462A46002101A8CA
:104A800001F029FB23788DF8083063680393E3680D
:104A900004930022237A307CADF8045001A90593D9
:104AA000FFF7CEFC06B070BD1FB500338DF80010C7
:104AB0004FF06401039118BF0123694601928DF8FC
:104AC0000830FFF7D5FF05B05DF804FB0123FFF7C1
:104AD000EBBF0022007CFFF773BCC9B2FFF7F9BF40
:104AE0000022007CFFF774BC0121FFF7F9BF41747D
:104AF0007047704708B50021007CFFF741FC30EAA1
:104B0000200028BF4FF0FF3008BD08B50121007C10
:104B1000FFF736FC30EA200028BF4FF0FF3008BD19
:104B200008B5007CFFF724FC20EAE07008BD08B55A
:104B3000007CFFF715FC20EAE07008BD007CFFF761
:104B40002FBC10B51421044600F066FB204610BDB2
:104B500038B50446007C0D46FFF70AFC002801DC4E
:104B6000607C28B12946207CFFF712FC20EAE07027
:104B700038BD000010B50446002363604FF47A731B
:104B8000A360054B2360012308462174637411461A
:104B9000FFF7D6FB204610BDCC620D000022007C42
:104BA000FFF7D6BB10B514220446002101F093FA9A
:104BB000204610BD30B50E4D87B001A8FFF7F2FFBB
:104BC000296811F0010410D12846FFF76AFA60B194
:104BD00001AA21460748FFF7CDFF2846FFF766FAEE
:104BE000054A0649034800F009FB024807B030BDFA
:104BF000C0E50320C4E50320B4E30320F34A0D001D
:104C0000704710B51821044600F006FB204610BD81
:104C1000F0B5037D062B8DB00E4600F104074FF072
:104C2000000402D000F1080518E00CAD394605F883
:104C3000304D2F232A460A20FFF742FC284601F078
:104C40007BFA33680246DB682946304698470FE016
:104C500024B12E21304600F025F9044415F8011D39
:104C60000A22304600F02DF9BD420444F0D120461E
:104C70000DB0F0BD10B5054B0446112240F8043BC1
:104C8000002101F028FA204610BD00BFFC620D0093
:104C90000346074A10B543F8042B01F1100251F8FE
:104CA000044B43F8044B9142F9D10A781A7010BDB5
:104CB000FC620D0010B59DF8084044EA032343EA66
:104CC000024242EA016104234160037510BD37B519
:104CD0000D788B784A78C97800912946FFF7EAFF6A
:104CE00003B030BD10B58368044613B103220146FA
:104CF0009847204610BD0021FFF79ABC08B50C4B21
:104D000033B1FFF757FF03681B699847002809DC98
:104D1000084B63B100F0A4F903681B6998470028A9
:104D200003DC08BDAFF30080F2E7AFF3008008BDFD
:104D3000000000000000000008B5FFF7DFFFFFF7EC
:104D4000F7FB014B186008BD48E703200248034AFF
:104D50000349121A01F0B4B900F4032004F403204B
:104D600020650D0007B5002300931A466FF0770108
:104D7000FFF770FC03B05DF804FB000007B5438843
:104D80000A2B08D0502B09D1094B1B683BB103B04B
:104D90005DF804EB1847FFF7E5FF06E000230093FA
:104DA0001A466FF07701FFF755FC03B05DF804FB7E
:104DB000D8E5032038B5104C104D2368AB42104B9A
:104DC0000CBF012200221A7002D0FFF7BFFF25603E
:104DD000FFF7A6FB044601F087F90A4B13B1204602
:104DE000AFF3008000210748FFF7C2FB002106480F
:104DF000BDE83840FFF724BC00F403201E1C279AAE
:104E0000DCE50320000000007D4D0D0010B50446D8
:104E1000FFF768FF204610BD0348044A04490023F9
:104E2000836000F0EBB900BFE0E50320B4E30320AA
:104E30000D4E0D00024B1A68024B1A60704700BFFE
:104E400048E30320F0E50320014B024A1A60704753
:104E5000F4E50320A4630D00F8B506460D468F184F
:104E60000024BD420CD0336815F8011B9B68304606
:104E70009847002801DB0444F3E7002C08BF0446F0
:104E80002046F8BD70B505460C46084649B101F00C
:104E900053F92B68024621462846DB68BDE870407E
:104EA000184770BD03689B68184738B50D21054643
:104EB000FFF7F8FF0A2104462846FFF7F3FF2044D6
:104EC00038BD30B58BB00B4600218DF82410012A77
:104ED00098BF0A220DF12304B3FBF2F505FB123350
:104EE00003F0FF03092B94BF30333733DBB2214685
:104EF00004F801392B46002DEED1FFF7C3FF0BB0AC
:104F000030BD0CB42DE9F04387B000AF07F1380491
:104F1000054654F8049B3C600E4623464A4614213D
:104F2000381DFFF7B1FB132805D8391D2846FFF7B8
:104F3000A9FF044613E000F1080323F00703E84645
:104F4000ADEB030D411C23464A4668463C60FFF723
:104F50009BFB69462846FFF795FF0446C5461EB1F0
:104F60002846FFF7A2FF044420461C37BD46BDE893
:104F7000F04302B0704710B50446006808B1FFF76F
:104F8000C7FA204610BD000010B5064C002320468D
:104F90002360FFF7B5FA2046034A0449BDE81040F4
:104FA00000F02CB9F8E50320B4E30320774F0D009F
:104FB00070474174704708B5007CFFF779FA20EA22
:104FC000E07008BD08B5007CFFF752FA20EAE070F7
:104FD00008BD08B5007CFFF75BFA30EA200028BF67
:104FE0004FF0FF3008BD08B5007CFFF749FA30EA02
:104FF000200028BF4FF0FF3008BD007CFFF750BAFB
:1050000010B51421044600F007F9204610BD70B514
:10501000457C04460E4625B9007CFFF749FA002876
:1050200005DD3146207CBDE87040FFF719BA2846FF
:1050300070BD000010B504460846114600226260AB
:105040004FF47A72A260054A2260012220746274D1
:105050001A46FFF7FDF9204610BD00BF1C640D0085
:1050600038B50C4D296811F0010411D12846FFF71D
:1050700018F868B1084A094B09482146FFF7DAFFDA
:105080002846FFF713F8074A0749054800F0B6F825
:10509000034838BD94E6032098E6032010E6032079
:1050A000FCE50320B4E30320B14F0D0010B5044626
:1050B000006818B1FFF7E0FA0023236010BD10B5B7
:1050C0000446FFF7F3FF204610BD000010B5094C61
:1050D00000204FF6FF732060A080A07120816381C3
:1050E000FFF79EFA2046044A0449BDE8104000F04C
:1050F00085B800BF1CE70320B4E30320BF500D00B8
:10510000002211464068FFF773BA0022114640683A
:10511000FFF77EBA00224068FFF772BA002281F0E2
:1051200001014068FFF75CBA00231A46194640683F
:10513000FFF74EBA00231A4619464068FFF740BAF7
:10514000002211464068FFF733BA0022114640683A
:10515000FFF71EBA002202214068FFF721BA0023A0
:105160001A464068FFF70CBA024B03225A60024A03
:105170001A60704728E703204C640D0070B50446A0
:1051800014252A46094E002100F0A5FF2580202580
:105190003146A5602561284600F040F83146606040
:1051A000284600F03BF8E060204670BD78640D00B2
:1051B00030B50E4D296811F0010487B013D128468F
:1051C000FEF76FFF78B101A8FFF7D8FF01AA2146CB
:1051D0000748FFF735FC2846FEF768FF054A0649F1
:1051E000034800F00BF8024807B030BD30E7032059
:1051F00034E70320B4E30320E9490D000B460146E0
:10520000184600F04FBF0000024B1868BFF35F8FD5
:10521000704700BF4CE70320FEF73FBF00F000B827
:1052200010B5002814BF044601242046FFF71CFADD
:1052300020B9FFF7E9FF08B18047F6E710BD00008D
:10524000184B1A68D1075CBF01221A60164B1A6806
:10525000D2075CBF01221A60144B1A68D0075CBFEA
:1052600001221A60124B1A68D1075CBF01221A6032
:10527000104B1A68D2075CBF01221A600E4B1A68E5
:10528000D0075CBF01221A600C4B1A68D1075CBFC3
:1052900001221A600A4B1A68D2075CBF01221A6009
:1052A000704700BF6CE7032068E7032064E7032032
:1052B00060E703205CE7032058E7032054E703205E
:1052C00050E70320244B1A68D0075CBF01221A6004
:1052D000224B1A68D1075CBF01221A60204B1A6862
:1052E000D2075CBF01221A601E4B1A68D0075CBF50
:1052F00001221A601C4B1A68D1075CBF01221A6098
:105300001A4B1A68D2075CBF01221A60184B1A6840
:10531000D0075CBF01221A60164B1A68D1075CBF28
:1053200001221A60144B1A68D2075CBF01221A606E
:10533000124B1A68D0075CBF01221A60104B1A6822
:10534000D1075CBF01221A600E4B1A68D2075CBFFE
:1053500001221A60704700BF9CE7032098E70320F2
:1053600094E7032090E703208CE7032088E70320DD
:1053700084E7032080E703207CE7032078E703200D
:1053800074E7032070E70320244B1A68D0075CBF42
:1053900001221A60224B1A68D1075CBF01221A60F1
:1053A000204B1A68D2075CBF01221A601E4B1A6894
:1053B000D0075CBF01221A601C4B1A68D1075CBF82
:1053C00001221A601A4B1A68D2075CBF01221A60C8
:1053D000184B1A68D0075CBF01221A60164B1A6876
:1053E000D1075CBF01221A60144B1A68D2075CBF58
:1053F00001221A60124B1A68D0075CBF01221A60A2
:10540000104B1A68D1075CBF01221A600E4B1A6854
:10541000D2075CBF01221A60704700BFCCE70320AF
:10542000C8E70320C4E70320C0E70320BCE703204C
:10543000B8E70320B4E70320B0E70320ACE703207C
:10544000A8E70320A4E70320A0E70320184B1A686D
:10545000D1075CBF01221A60164B1A68D2075CBFE5
:1054600001221A60144B1A68D0075CBF01221A602F
:10547000124B1A68D1075CBF01221A60104B1A68E0
:10548000D2075CBF01221A600E4B1A68D0075CBFBE
:1054900001221A600C4B1A68D1075CBF01221A6006
:1054A0000A4B1A68D2075CBF01221A60704700BF1E
:1054B000ECE70320E8E70320E4E70320E0E703202C
:1054C000DCE70320D8E70320D4E70320D0E703205C
:1054D0002DE9F0432DED028B8BB055EC104B00F015
:1054E00057F8294BB0EE408AF0EE608A93F90060DD
:1054F000731C12D022462B462046294600F06CFD34
:10550000074650B94FF000084FF0000920462946E1
:1055100042464B4600F038FD40B9B0EE480AF0EE86
:10552000680A0BB0BDEC028BBDE8F083174B0897FF
:105530000122CDE90445CDE902458DE80C00B6B164
:1055400042464B464046494600F0D6FB022ECDE986
:1055500006010ED1FFF7A0F821230360089B73B961
:105560009DED060B0BB0BDEC028BBDE8F083CDE9E1
:105570000689684600F0DCF80028EFD1EAE7FFF77B
:105580008BF8089B0360EBE74CE303207C640D0081
:105590002DE9F041654955EC104B0E462940B142CA
:1055A00000F09780002D2B4610EE102A74DD2F1589
:1055B0007FD0A7F2FF37C3F31303F90743F4801337
:1055C00065D403EBD27100260B447F105200B6461F
:1055D00016204FF400110EEB01049C424FEAD275E5
:1055E0004FEA420203DC1B1B04EB010E0E440138A0
:1055F00005EB43034FEA5101EDD1844620244FF0DF
:10560000004109E020D003EBD275013C4FEA510183
:105610002B444FEA420220D09E4501EB0C05F1DA03
:10562000002D05EB010C09DBF0469542CEEB0303A0
:1056300000D9013B521B0844C646E4E7BCF1000F09
:10564000F2DB0EF10108F0E795421ED8002D05EBC4
:10565000010C50DB98460023ECE7134304D0421CB6
:105660004DD000F00103184440087110F30701F118
:105670007F5101F5001148BF40F0004001EB075396
:10568000024643EC102BBDE8F0817346BBE75B009C
:1056900003EBD273520094E725F00041214328D058
:1056A000ADBB2F46D30A153F5205002BFAD0DD02C1
:1056B00028D4002100E001465B00DC0201F101007A
:1056C000F9D5C0F1200422FA04F423437F1A824062
:1056D0006FE710EE102A2B4610EE100A294600F054
:1056E000E1F922462B4600F02BF841EC100BBDE807
:1056F000F081BDE8F081BCF1000FA2DAAAE7013623
:105700002046B2E720244FF0FF310020DBE710EE07
:10571000102A2B462046294600F010F802460B4678
:1057200000F0EAFA41EC100BBDE8F0810000F07FD8
:105730000020704781F0004102E000BF83F0004389
:1057400030B54FEA41044FEA430594EA050F08BF1C
:1057500090EA020F1FBF54EA000C55EA020C7FEAE0
:10576000645C7FEA655C00F0E2804FEA5454D4EB5D
:105770005555B8BF6D420CDD2C4480EA020281EA27
:10578000030382EA000083EA010180EA020281EA5F
:105790000303362D88BF30BD11F0004F4FEA0131B1
:1057A0004FF4801C4CEA113102D0404261EB4101C0
:1057B00013F0004F4FEA03334CEA133302D0524246
:1057C00063EB430394EA050F00F0A780A4F1010402
:1057D000D5F1200E0DDB02FA0EFC22FA05F280183C
:1057E00041F1000103FA0EF2801843FA05F3594122
:1057F0000EE0A5F120050EF1200E012A03FA0EFCA1
:1058000028BF4CF0020C43FA05F3C01851EBE371CA
:1058100001F0004507D54FF0000EDCF1000C7EEBE7
:1058200000006EEB0101B1F5801F1BD3B1F5001F25
:105830000CD349085FEA30004FEA3C0C04F1010444
:105840004FEA445212F5800F80F09A80BCF1004F6D
:1058500008BF5FEA500C50F1000041EB045141EAEF
:10586000050130BD5FEA4C0C404141EB010111F4F0
:10587000801FA4F10104E9D191F0000F04BF01469B
:105880000020B1FA81F308BF2033A3F10B03B3F179
:1058900020020CDA0C3208DD02F1140CC2F10C0209
:1058A00001FA0CF021FA02F10CE002F11402D8BF67
:1058B000C2F1200C01FA02F120FA0CFCDCBF41EA33
:1058C0000C019040E41AA2BF01EB0451294330BD02
:1058D0006FEA04041F3C1CDA0C340EDC04F11404DF
:1058E000C4F1200220FA04F001FA02F340EA0300B6
:1058F00021FA04F345EA030130BDC4F10C04C4F1FC
:10590000200220FA02F001FA04F340EA03002946DB
:1059100030BD21FA04F0294630BD94F0000F83F425
:10592000801306BF81F480110134013D4EE77FEA08
:10593000645C18BF7FEA655C29D094EA050F08BF54
:1059400090EA020F05D054EA000C04BF1946104635
:1059500030BD91EA030F1EBF0021002030BD5FEA79
:10596000545C05D14000494128BF41F0004130BDA1
:1059700014F580043CBF01F5801130BD01F00045F5
:1059800045F0FE4141F470014FF0000030BD7FEA68
:10599000645C1ABF194610467FEA655C1CBF0B4663
:1059A000024650EA013406BF52EA033591EA030F7A
:1059B00041F4002130BD00BF90F0000F04BF002172
:1059C000704730B54FF4806404F132044FF00005A5
:1059D0004FF0000150E700BF90F0000F04BF00211E
:1059E000704730B54FF4806404F1320410F0004584
:1059F00048BF40424FF000013EE700BF42004FEA7F
:105A0000E2014FEA31014FEA02701FBF12F07F43FB
:105A100093F07F4F81F06051704792F0000F14BFF8
:105A200093F07F4F704730B54FF4607401F000453C
:105A300021F0004120E700BF50EA010208BF704793
:105A400030B54FF000050AE050EA010208BF704788
:105A500030B511F0004502D5404261EB41014FF4F1
:105A6000806404F132045FEA915C3FF4DCAE4FF0F5
:105A700003025FEADC0C18BF03325FEADC0C18BFDC
:105A8000033202EBDC02C2F1200300FA03FC20FA2D
:105A900002F001FA03FE40EA0E0021FA02F114447A
:105AA000C1E600BF70B54FF0FF0C4CF4E06C1CEA8F
:105AB00011541DBF1CEA135594EA0C0F95EA0C0F04
:105AC00000F0DEF82C4481EA030621EA4C5123EA77
:105AD0004C5350EA013518BF52EA033541F48011A6
:105AE00043F4801338D0A0FB02CE4FF00005E1FB59
:105AF00002E506F00042E0FB03E54FF00006E1FBA3
:105B000003569CF0000F18BF4EF0010EA4F1FF04E5
:105B1000B6F5007F64F5407404D25FEA4E0E6D4125
:105B200046EB060642EAC62141EA55514FEAC52036
:105B300040EA5E504FEACE2EB4F1FD0C88BFBCF5B2
:105B4000E06F1ED8BEF1004F08BF5FEA500E50F163
:105B5000000041EB045170BD06F0004646EA010129
:105B600040EA020081EA0301B4EB5C04C2BFD4EB5B
:105B70000C0541EA045170BD41F480114FF0000E54
:105B8000013C00F3AB8014F1360FDEBF002001F0C2
:105B9000004170BDC4F10004203C35DA0C341BDC3C
:105BA00004F11404C4F1200500FA05F320FA04F00E
:105BB00001FA05F240EA020001F0004221F0004142
:105BC00010EBD37021FA04F642EB06015EEA430EB5
:105BD00008BF20EAD37070BDC4F10C04C4F12005E5
:105BE00000FA04F320FA05F001FA04F240EA020098
:105BF00001F0004110EBD37041F100015EEA430E69
:105C000008BF20EAD37070BDC4F1200500FA05F288
:105C10004EEA020E20FA04F301FA05F243EA020307
:105C200021FA04F001F0004121FA04F220EA020016
:105C300000EBD3705EEA430E08BF20EAD37070BD5C
:105C400094F0000F0FD101F00046400041EB01013C
:105C500011F4801F08BF013CF7D041EA060195F01E
:105C6000000F18BF704703F00046520043EB0303D8
:105C700013F4801F08BF013DF7D043EA06037047C5
:105C800094EA0C0F0CEA135518BF95EA0C0F0CD0D0
:105C900050EA410618BF52EA4306D1D181EA030116
:105CA00001F000414FF0000070BD50EA410606BF10
:105CB0001046194652EA430619D094EA0C0F02D155
:105CC00050EA013613D195EA0C0F05D152EA03369A
:105CD0001CBF104619460AD181EA030101F00041B8
:105CE00041F0FE4141F470014FF0000070BD41F001
:105CF000FE4141F4780170BD70B54FF0FF0C4CF4DB
:105D0000E06C1CEA11541DBF1CEA135594EA0C0FF9
:105D100095EA0C0F00F0A7F8A4EB050481EA030E46
:105D200052EA03354FEA013100F088804FEA03332D
:105D30004FF0805545EA131343EA12634FEA0222FB
:105D400045EA111545EA10654FEA00260EF00041BC
:105D50009D4208BF964244F1FD0404F5407402D20E
:105D60005B084FEA3202B61A65EB03055B084FEA9F
:105D700032024FF480104FF4002CB6EB020E75EB9C
:105D8000030E22BFB61A754640EA0C005B084FEAC4
:105D90003202B6EB020E75EB030E22BFB61A754641
:105DA00040EA5C005B084FEA3202B6EB020E75EB8C
:105DB000030E22BFB61A754640EA9C005B084FEA04
:105DC0003202B6EB020E75EB030E22BFB61A754611
:105DD00040EADC0055EA060E18D04FEA051545EA00
:105DE00016754FEA06164FEAC30343EA52734FEAA9
:105DF000C2025FEA1C1CC0D111F4801F0BD141EA22
:105E000000014FF000004FF0004CB6E711F4801F86
:105E100004BF01430020B4F1FD0C88BFBCF5E06F66
:105E20003FF6AFAEB5EB030C04BFB6EB020C5FEA76
:105E3000500C50F1000041EB045170BD0EF0004ECB
:105E40004EEA113114EB5C04C2BFD4EB0C0541EAFD
:105E5000045170BD41F480114FF0000E013C90E6FA
:105E600045EA060E8DE60CEA135594EA0C0F08BFBE
:105E700095EA0C0F3FF43BAF94EA0C0F0AD150EABD
:105E800001347FF434AF95EA0C0F7FF425AF104650
:105E900019462CE795EA0C0F06D152EA03353FF478
:105EA000FDAE1046194622E750EA410618BF52EAF5
:105EB00043067FF4C5AE50EA41047FF40DAF52EAC9
:105EC00043057FF4EBAE12E74FF0FF3C06E000BF66
:105ED0004FF0010C02E000BF4FF0010C4DF804CD73
:105EE0004FEA410C7FEA6C5C4FEA430C18BF7FEA33
:105EF0006C5C1BD001B050EA410C0CBF52EA430C61
:105F000091EA030F02BF90EA020F0020704710F1E0
:105F1000000F91EA030F58BF994208BF90422CBF6F
:105F2000D8176FEAE37040F0010070474FEA410C68
:105F30007FEA6C5C02D150EA013C07D14FEA430C86
:105F40007FEA6C5CD6D152EA033CD3D05DF8040BF7
:105F5000704700BF8446104662468C461946634629
:105F600000E000BF01B5FFF7B7FF002848BF10F100
:105F7000000F01BD4DF808EDFFF7F4FF0CBF012045
:105F800000205DF808FB00BF4DF808EDFFF7EAFFC1
:105F900034BF012000205DF808FB00BF4DF808ED7C
:105FA000FFF7E0FF94BF012000205DF808FB00BF71
:105FB0004DF808EDFFF7CEFF94BF012000205DF8FB
:105FC00008FB00BF4DF808EDFFF7C4FF34BF012008
:105FD00000205DF808FB00BF4FEA410C7FEA6C5CD3
:105FE00002D150EA013C0AD14FEA430C7FEA6C5CD3
:105FF00002D152EA033C02D14FF0000070474FF04B
:10600000010070474FEA4102B2F1E04324BFB3F50B
:10601000001CDCF1FE5C0DD901F0004C4FEAC0021F
:106020004CEA5070B2F1004F40EB830008BF20F003
:106030000100704711F0804F21D113F13872BCBFBD
:1060400001F00040704741F480114FEA5252C2F112
:106050001802C2F1200C10FA0CF320FA02F018BF5B
:1060600040F001004FEAC1234FEAD32303FA0CFCAE
:1060700040EA0C0023FA02F34FEA4303CCE77FEA3D
:10608000625307D150EA01331EBF4FF0FE4040F487
:106090004000704701F0004040F0FE4040F4000036
:1060A000704700BF10B5054C13462CB10A46014697
:1060B0000220AFF3008010BD204610BD000000009C
:1060C00010B5431E0A44914204D011F8014B03F865
:1060D000014FF8E710BD02440346934202D003F893
:1060E000011BFAE77047000038B5124B1C68A36B20
:1060F0000546D3B91820FEF7B7FA43F20E33A06372
:1061000003804AF6CD33438041F2342383804EF23C
:106110006D63C3804DF6EC630381052343810B233C
:10612000838101220023C0E90423A36B00221D61A7
:106130005A6138BDB0E30320034613F8012B002A4F
:10614000FBD1181A0138704721400D005D400D0049
:1061500089400D008D400D00000000002D2D2D2DDB
:106160002D2D2D2D2D2D2D416363656C6572617470
:10617000696F6E2D2D2D2D2D2D2D2D2D2D2D2D2D90
:106180002D2D0A00416363656C65726174696F6EE1
:1061900020696E20582D417869733A2025302E32BF
:1061A00066200A00416363656C65726174696F6E95
:1061B00020696E20592D417869733A2025302E329E
:1061C00066200A00416363656C65726174696F6E75
:1061D00020696E205A2D417869733A2025302E327D
:1061E00066200A00546F74616C20416363656C65BE
:1061F000726174696F6E3A2025302E3266200A0073
:106200000000000000000000A9460D00B3460D008C
:10621000BD460D00C7460D00D1460D00DD460D0000
:10622000E9460D00F5460D00FD460D0007470D003F
:1062300011470D0000000000000000004F480D0055
:1062400045480D003B480D00F1470D002F480D005B
:1062500023480D0017480D000F480D0005480D009C
:10626000FB470D0011470D0000000000000000007A
:10627000CB480D00C1480D00B7480D00AD480D00DA
:10628000A1480D0095480D0089480D0081480D007A
:1062900077480D006D480D0011470D00000000000B
:1062A00000000000E9490D00334A0D000B4A0D00C3
:1062B000EB490D00134A0D001B4A0D00234A0D0047
:1062C0002B4A0D000000000000000000F34A0D0002
:1062D000434B0D00514B0D00594E0D002F4B0D003F
:1062E000F54A0D000B4B0D003D4B0D00214B0D00F1
:1062F000EF4A0D000000000000000000114C0D00EE
:10630000014C0D00034C0D005A00252B3033643A2C
:10631000253032750025592D256D2D2564542548CD
:106320003A254D3A2553257A0061736374696D658A
:1063300000626175640053657269616C0053657237
:1063400069616C31007479706500706172616D0013
:10635000636D6400696400686E64007374726D003C
:1063600066696C74006C766C0061646448616E648C
:106370006C65720072656D6F766548616E646C6500
:106380007200656E756D48616E646C657273004A6B
:10639000534F4E53747265616D4C6F6748616E6404
:1063A0006C65720061707000253031307520005DC1
:1063B00020002564002C200028293A2000205B00C2
:1063C000636F6465203D2000256900646574616920
:1063D0006C73203D20000D0A0066006C6E00666E36
:1063E00000636F64650064657461696C006E6F6E54
:1063F0006500747261636500696E666F0077617233
:106400006E006572726F720070616E696300616C1C
:106410006C0000000000000000000000B14F0D0003
:1064200001500D000F500D00594E0D00C54F0D00CD
:10643000E74F0D00D34F0D00FB4F0D00B34F0D0084
:10644000B74F0D0000000000000000005F510D007C
:1064500055510D004B510D0041510D0035510D00AE
:1064600029510D001D510D0015510D000B510D004E
:1064700001510D0011470D0000000000737172748E
:10648000000000000000000000000000000000000C
:1064900000000000000000000000000000000000FC
:1064A00000000000000000000000000000000000EC
:1064B00000000000000000000000000000000000DC
:1064C00000000000000000000000000000000000CC
:1064D00000000000000000000000000000000000BC
:1064E00000000000430000003D430D00DD470D00AB
:1064F00059480D0099490D00194E0D00354E0D00FB
:10650000494E0D00894F0D00CD500D0069510D0011
:1065100041520D00C5520D0089530D004D540D0020
:046520000000000077
:1065240029630D00010000000000000084640D00D8
:10653400A4640D00C4640D0000000000000000000D
:106544000000000000000000E4640D0000000000F2
:106554000000000000000000000000000000000037
:106564000000000000000000000000000000000027
:106574000000000000000000000000000000000017
:0C658400000000000000000050E30320B5
:10659000FFFFFFFF00000102030405060708090AC8
:1065A0000B0C0D0E0F101112131415161718191AC3
:0865B0001B1C1D1E1F2028000A
:0465B80078563412CB
:04000003D0004020C9
:00000001FF
