:02000002D0002C
:1040000000400D00545D0D00000006000C0005018D
:084010000401E80500000000B6
:04401800D8580D0067
:10401C0009480A49884208B505D0094A824202D0AB
:10402C00121A01F00FFC0748074A0021121A01F07E
:10403C0014FC014808BD00BF50E30320C45C0D0014
:10404C00B8E30320B8E30320F0E7032070B500F0D9
:10405C00C3FC074C074BE41AA40800251E46A542D6
:10406C0004D056F8253098470135F8E770BD00BFED
:10407C00B85C0D00805C0D0000F06EB808B500F067
:10408C0093F8BDE8084000F069BC00F0E9BA00F014
:10409C00E7BA0078B0FA80F040097047012303704A
:1040AC0070470368C9B29B681847000008B500F058
:1040BC0093FD284900F09DFB01F06EF8392100F0CA
:1040CC00A8FE01F069F88021FFF7EBFF01F064F81E
:1040DC000F21FFF7E6FF01F05FF800F0A1FE01F001
:1040EC005BF8392100F095FE01F056F88121FFF7BD
:1040FC00D8FF01F051F80021FFF7D3FF01F04CF885
:10410C0000F08EFE01F048F8392100F082FE01F03B
:10411C0043F88321FFF7C5FF01F03EF8FF21FFF7BD
:10412C00C0FF01F039F800F07BFE01F035F83921C1
:10413C0000F06FFE01F030F88F21FFF7B2FF01F0B5
:10414C002BF80021FFF7ADFF01F026F8BDE8084081
:10415C0000F066BEEC580D0008B501F01DF800F03B
:10416C001DFE00F039FD4FF4165100F029FD4FF4FF
:10417C00FA7000F0B5FBFFF799FF4FF47A70BDE8C9
:10418C00084000F0ADBB37B5044610EE100A0D46E2
:10419C0001F0F6FA2A46CDE900010021204600F094
:1041AC0052FB03B030BD00002DE9F84300F0F4FFE2
:1041BC00392100F02EFE00F0EFFF9421FFF771FF84
:1041CC0000F0EAFF00F02CFE00F0E6FF0922392196
:1041DC0000F018FE00F0E0FF0368474C1B6998479D
:1041EC00092835D100F0D8FF03685B699847207027
:1041FC0000F0D2FF03685B699847607000F0CCFF59
:10420C0003685B699847A07000F0C6FF03685B69A0
:10421C009847E07000F0C0FF03685B699847207115
:10422C0000F0BAFF03685B699847607100F0B4FF57
:10423C0003685B699847A07100F0AEFF03685B6987
:10424C009847E07100F0A8FF03685B6998472072FB
:10425C0023882A4EDFF8C480DFF8C490284F294DFC
:10426C0007EE903A6388F8EEE77AC6ED007A07EE2F
:10427C00903AA388F8EEE77AC8ED007A07EE903A08
:10428C00E388F8EEE77AC9ED007A07EE903A237AE4
:10429C00F8EEE77AC7ED007A07EE903AF8EE677A17
:1042AC00C5ED007A00F098FC99ED000A1649FFF76D
:1042BC006AFF00F091FC98ED000A1449FFF763FFC8
:1042CC0000F08AFC97ED000A1149FFF75CFF00F043
:1042DC0083FC96ED000A0F49FFF755FF00F07CFCBC
:1042EC0095ED000A0C49FFF74EFF41F28830BDE80E
:1042FC00F84300F0F5BA00BFC8E30320C0E3032085
:10430C00D8E30320D4E3032001590D0021590D00FB
:10431C003F590D005E590D007B590D00BCE3032085
:10432C00C4E3032000F010B808B5024B1B689B686F
:10433C00019308BD6802030008B5024B1B68DB68DB
:10434C00019308BD6802030008B5024B1B681B688B
:10435C00019308BD2C02030008B5024B1B685B6877
:10436C00019308BD1802030008B5024B1B685B697A
:10437C00019308BD1802030008B5024B1B689B682B
:10438C00019308BD4802030008B5024B1B681B696A
:10439C00019308BD4802030008B5024B1B685B691A
:1043AC00019308BD4802030008B5024B1B685B6C07
:1043BC00019308BD4802030008B5024B1B689B6CB7
:1043CC00019308BD4802030008B5024B1B685B69EA
:1043DC00019308BD6402030008B5024B1B681B68FF
:1043EC00019308BD3C02030008B5024B1B68DB6857
:1043FC00019308BD3C02030008B5024B1B681B6906
:10440C00019308BD3C02030008B5024B1B685B69B5
:10441C00019308BD3C02030008B5024B1B689B6965
:10442C00019308BD3C02030008B5024B1B68DB6915
:10443C00019308BD3C02030008B5024B1B689B6A44
:10444C00019308BD3C02030008B5024B1B68DB68F6
:10445C00019308BD2802030008B5024B1B689B6939
:10446C00019308BD2802030008B5024B1B68DB69E9
:10447C00019308BD2802030008B5024B1B681B6A98
:10448C00019308BD2802030008B5024B1B685B6A48
:10449C00019308BD2802030008B5024B1B689B6AF8
:1044AC00019308BD2802030008B5024B1B68DB6AA8
:1044BC00019308BD2802030008B5024B1B681B6B57
:1044CC00019308BD2802030008B5024B1B681B6C46
:1044DC00019308BD2802030008B5024B1B681B6D35
:1044EC00019308BD2802030008B5024B1B681B682A
:1044FC00019308BD4C02030008B5024B1B685B68B6
:10450C00019308BD4C02030008B5024B1B681B69E4
:10451C00019308BD4C02030008B5024B1B685B6994
:10452C00019308BD4C02030008B5024B1B689B6944
:10453C00019308BD4C02030008B5024B1B68DB69F4
:10454C00019308BD4C02030008B5024B1B681B6AA3
:10455C00019308BD4C02030008B5024B1B685B6855
:10456C00019308BD2002030008B5024B1B685B6970
:10457C00019308BD2002030008B5034B1B68D3F858
:10458C008830019308BD00002002030008B5034BDE
:10459C001B68D3F89430019308BD0000200203007F
:1045AC0008B5024B1B685B68019308BD4002030011
:1045BC0008B5024B1B689B68019308BD40020300C1
:1045CC0008B5024B1B68DB68019308BD4002030071
:1045DC0008B5024B1B681B69019308BD4002030020
:1045EC0008B5024B1B685B69019308BD40020300D0
:1045FC0008B5024B1B689B69019308BD4002030080
:10460C0008B5024B1B68DB69019308BD400203002F
:10461C0008B5024B1B681B6A019308BD40020300DE
:10462C0008B5024B1B681B6B019308BD40020300CD
:10463C0008B5024B1B685B6B019308BD400203007D
:10464C0008B5024B1B68DB6B019308BD44020300E9
:10465C0008B5024B1B681B68019308BD1C020300C4
:10466C0008B5024B1B685B68019308BD1C02030074
:10467C0008B5024B1B685B6A019308BD1C02030062
:10468C00002211464068FFF7C3BF00221146406864
:10469C00FFF7CEBF00224068FFF7C2BF002281F0B7
:1046AC0001014068FFF7ACBF00231A461946406869
:1046BC00FFF79EBF00231A4619464068FFF790BFCC
:1046CC00002211464068FFF783BF00221146406864
:1046DC00FFF76EBF002202214068FFF771BF002375
:1046EC001A464068FFF75CBF024B03225A60024A2D
:1046FC001A607047DCE30320A8590D0010B504467E
:10470C00006818B1FFF7ACFF0023236010BD10B593
:10471C000446FFF7F3FF204610BD000010B5094C0E
:10472C0000204FF6FF732060A080A0712081638170
:10473C00FFF712FF2046044A0449BDE8104000F080
:10474C0051BD00BFE4E30320B8E303201B470D0079
:10475C0010B50446006808B1FFF72EFE204610BDC8
:10476C0010B5064C002320462360FFF71DFE2046A3
:10477C00034A0449BDE8104000F034BDF0E30320C7
:10478C00B8E303205D470D00F8B506460D468F18BB
:10479C000024BD420CD0336815F8011B9B683046D1
:1047AC009847002801DB0444F3E7002C08BF0446BB
:1047BC002046F8BD70B505460C46084649B101F0D7
:1047CC007DF82B68024621462846DB68BDE8704020
:1047DC00184770BD03689B68184738B50D2105460E
:1047EC00FFF7F8FF0A2104462846FFF7F3FF2044A1
:1047FC0038BD38B50546FFF7DDFF04462846FFF700
:10480C00ECFF204438BD30B58BB00B4600218DF841
:10481C002410012A98BF0A220DF12304B3FBF2F5F0
:10482C0005FB123303F0FF03092B94BF30333733EE
:10483C00DBB2214604F801392B46002DEED1FFF7EF
:10484C00B9FF0BB030BD0CB42DE9F04387B000AF0D
:10485C0007F13804054654F8049B3C600E46234689
:10486C004A461421381DFFF703FF132805D8391DBC
:10487C002846FFF79FFF044613E000F1080323F0DE
:10488C000703E846ADEB030D411C23464A46684638
:10489C003C60FFF7EDFE69462846FFF78BFF0446A8
:1048AC00C5461EB12846FFF798FF044420461C3726
:1048BC00BD46BDE8F04302B070470000014B024A10
:1048CC001A607047F4E30320475A0D00024B1A6834
:1048DC00024B1A60704700BF50E30320F8E303203B
:1048EC000021FFF741BE10B58368044613B10322C3
:1048FC0001469847204610BD10B50446FFF7F3FF5C
:10490C00204610BD0348044A04490023836000F08C
:10491C0069BC00BFFCE30320B8E3032005490D008C
:10492C0008B50C4B33B100F057F903681B69984775
:10493C00002809DC084B63B100F0CCF903681B6953
:10494C009847002803DC08BDAFF30080F2E7AFF313
:10495C00008008BD000000000000000008B5FFF753
:10496C00DFFFFFF701FD014B186008BD30E70320A6
:10497C000248034A0349121A00F064BF00F40320F2
:10498C0004F40320C05C0D0007B5002300931A4605
:10499C006FF07701FFF7FAFD03B05DF804FB000040
:1049AC0007B543880A2B08D0502B09D1094B1B683B
:1049BC003BB103B05DF804EB1847FFF7E5FF06E0E9
:1049CC00002300931A466FF07701FFF7DFFD03B069
:1049DC005DF804FB0CE4032038B5104C104D236833
:1049EC00AB42104B0CBF012200221A7002D0FFF711
:1049FC00BFFF2560FFF7B0FC044600F037FF0A4B01
:104A0C0013B12046AFF3008000210748FFF718FED2
:104A1C0000210648BDE83840FFF7AEBD00F4032086
:104A2C001E1C279A10E4032000000000AD490D0065
:104A3C00704710B51821044600F0E2FB204610BD6B
:104A4C00F0B5037D062B8DB00E4600F104074FF038
:104A5C00000402D000F1080518E00CAD394605F849
:104A6C00304D2F232A460A20FFF7AEFC284600F0D3
:104A7C0025FF33680246DB682946304698470FE02D
:104A8C0024B12E213046FFF7A5FE044415F8011D74
:104A9C000A223046FFF7B7FEBD420444F0D120464F
:104AAC000DB0F0BD10B5054B0446112240F8043B87
:104ABC00002100F0D2FE204610BD00BFE85A0D00C8
:104ACC000346074A10B543F8042B01F1100251F8C4
:104ADC00044B43F8044B9142F9D10A781A7010BD7B
:104AEC00E85A0D0010B59DF8084044EA032343EA48
:104AFC00024242EA016104234160037510BD37B5DF
:104B0C000D788B784A78C97800912946FFF7EAFF2F
:104B1C0003B030BD41747047704708B50021007C6C
:104B2C00FFF702FD30EA200028BF4FF0FF3008BD30
:104B3C0008B50121007CFFF7F7FC30EA200028BF04
:104B4C004FF0FF3008BD08B5007CFFF7E5FC20EA0C
:104B5C00E07008BD08B5007CFFF7D6FC20EAE070D9
:104B6C0008BD007CFFF7F0BC10B51421044600F022
:104B7C0047FB204610BD38B50446007C0D46FFF7B8
:104B8C00CBFC002801DC607C28B12946207CFFF797
:104B9C00D3FC20EAE07038BD10B5044600236360F6
:104BAC004FF47A73A360054B2360012308462174EC
:104BBC0063741146FFF798FC204610BDFC5A0D009B
:104BCC000022007CFFF798BC10B51422044600218B
:104BDC0000F043FE204610BD30B50E4D87B001A845
:104BEC00FFF7F2FF296811F0010410D12846FFF7F6
:104BFC0050FA60B101AA21460748FFF7CDFF2846BD
:104C0C00FFF74CFA054A0649034800F0EBFA024854
:104C1C0007B030BD14E4032018E40320B8E30320EC
:104C2C00254B0D0070474174704708B5007CFFF7A9
:104C3C0003FC20EAE07008BD08B5007CFFF7DCFB44
:104C4C0020EAE07008BD08B5007CFFF7E5FB30EA10
:104C5C00200028BF4FF0FF3008BD08B5007CFFF7DF
:104C6C00D3FB30EA200028BF4FF0FF3008BD007C9A
:104C7C00FFF7DABB10B51421044600F0C1FA204648
:104C8C0010BD70B5457C04460E4625B9007CFFF777
:104C9C00D3FB002805DD3146207CBDE87040FFF7D2
:104CAC00A3BB284670BD000010B50446084611464B
:104CBC00002262604FF47A72A260054A22600122DF
:104CCC00207462741A46FFF787FB204610BD00BFA4
:104CDC002C5B0D0038B50C4D296811F0010411D175
:104CEC002846FFF7D6F968B1084A094B094821460E
:104CFC00FFF7DAFF2846FFF7D1F9074A07490548BD
:104D0C0000F070FA034838BDC4E40320C8E4032063
:104D1C0040E403202CE40320B8E30320314C0D00C5
:104D2C007047F8B5064615460C468F18BC4206D09F
:104D3C00336814F8011B9B6830469847F6E7284601
:104D4C00F8BD0022007CFFF797BB0021007CFFF729
:104D5C009BBB0021007CFFF79FBB0021007CFFF771
:104D6C00A3BB0021007CFFF7A7BB10B514210446A0
:104D7C0000F046FA204610BD10B5044600236360CF
:104D8C004FF47A73A360044B2174084623601146D8
:104D9C00FFF79AFB204610BD5C5B0D0000231A4602
:104DAC001946007CFFF750BB70B50C4686B0142535
:104DBC0006462A46002101A800F04FFD23788DF805
:104DCC00083063680393E36804930022237A307CF1
:104DDC00ADF8045001A90593FFF77EFB06B070BD3A
:104DEC001FB500338DF800104FF06401039118BF0C
:104DFC000123694601928DF80830FFF7D5FF05B005
:104E0C005DF804FB0123FFF7EBBF0022007CFFF7EA
:104E1C0023BBC9B2FFF7F9BF0022007CFFF724BB0C
:104E2C000121FFF7F9BF002211464068FFF7F0BBE4
:104E3C00002211464068FFF7FBBB00224068FFF7D9
:104E4C00EFBB002281F001014068FFF7D9BB0023C2
:104E5C001A4601214068FFF7CBBB00231A461946BE
:104E6C004068FFF7BDBB002211464068FFF7B0BB9E
:104E7C00002211464068FFF79BBB002202214068CC
:104E8C00FFF79EBB00231A464068FFF789BB38B575
:104E9C00054688B104684CB1A3681BB103222146B6
:104EAC00204698471021204600F0AAF928461421E4
:104EBC00BDE8384000F0A4B938BD10B103685B6898
:104ECC001847704710B503680446BBB15868FFF724
:104EDC0053FA78B923685A7C12B95868FFF754FA18
:104EEC0023685868FFF758FA20680023236028B11C
:104EFC00FFF7CDFF206808B1FFF7C9FF204610BDB2
:104F0C0038B50446D0F8C40108B1FFF7C0F8D4F89E
:104F1C00C00108B1FFF750FAD4F8BC5135B128469E
:104F2C00FFF7D0FF0421284600F06AF9206808B189
:104F3C00FFF7C3FF204638BD10B5044B044640F8BC
:104F4C00083BFFF7DDFF204610BD00BF845B0D0062
:104F5C0038B50E4C0E4B23600025022304F5E4708B
:104F6C006360A560C4F8C451C4F8C851FFF71CFABB
:104F7C00084BC4F8CC5184F8D05123602046064A23
:104F8C000649BDE8384000F02DB900BF4CE50320C0
:104F9C00EC5B0D00845B0D00B8E30320454F0D0066
:104FAC00002211464068FFF713BB002211464068EF
:104FBC00FFF72EBB002211464068FFF739BB0022D9
:104FCC004068FFF72DBB002281F001014068FFF71C
:104FDC0017BB00231A4619464068FFF709BB00238C
:104FEC001A4619464068FFF7FBBA00221146406882
:104FFC00FFF7DEBA002202214068FFF7E1BA002376
:10500C001A464068FFF7CCBA024B04225A60024A97
:10501C001A60704720E70320B85B0D0000231A4686
:10502C004068FFF7BDBA002202214068FFF7C8BAFA
:10503C00002211464068FFF7BBBA002211464068B7
:10504C00FFF7C6BA00231A4619464068FFF7C8BADC
:10505C0000231A4619464068FFF7CABA002281F0AD
:10506C0001014068FFF7CCBA00224068FFF7D8BABC
:10507C00002211464068FFF7DBBA00221146406857
:10508C00FFF7C6BA2DE9F043002495B016460D463D
:10509C000746FFF707FD214620220CA8009400F0DC
:1050AC00DCFB40230C9321466B460CAA3046FFF7E1
:1050BC0043F90446002844D1024601216868FFF7F1
:1050CC0087FA0221804622466868FFF781FA009E23
:1050DC0081462146002E34D0002932D17368022B30
:1050EC0002D00A2B09D02AE0B8F1000F27D0716941
:1050FC0038460431FFF703FD20E0B9F1000F1ED054
:10510C007469112201A800F0A8FB06238DF8143055
:10511C0001AD04F108031834186859682A4603C213
:10512C000833A3421546F7D101A906A807ADFFF72E
:10513C00C7FC0FCD3C1D0FC42B6823700121F669F1
:10514C00C8E70098FFF7F0F8384615B0BDE8F083D3
:10515C00024B034A1A6000225A60704728E703206A
:10516C00EC5B0D0070B5044614252A46094E00214F
:10517C0000F073FB258020253146A560256128466B
:10518C0000F040F831466060284600F03BF8E060E3
:10519C00204670BD185C0D0030B50E4D296811F01D
:1051AC00010487B013D12846FEF773FF78B101A82C
:1051BC00FFF7D8FF01AA21460748FFF7DDFD284677
:1051CC00FEF76CFF054A0649034800F00BF802484D
:1051DC0007B030BD34E7032038E70320B8E30320E1
:1051EC002D4D0D000B460146184600F01DBB00006E
:1051FC00024B1868BFF35F8F704700BF4CE703206A
:10520C00FEF743BF00F000B810B5002814BF0446E9
:10521C0001242046FFF71CFA20B9FFF7E9FF08B17B
:10522C008047F6E710BD0000184B1A68D1075CBF29
:10523C0001221A60164B1A68D2075CBF01221A6051
:10524C00144B1A68D0075CBF01221A60124B1A6803
:10525C00D1075CBF01221A60104B1A68D2075CBFE1
:10526C0001221A600E4B1A68D0075CBF01221A602B
:10527C000C4B1A68D1075CBF01221A600A4B1A68E2
:10528C00D2075CBF01221A60704700BF6CE7032095
:10529C0068E7032064E7032060E703205CE7032052
:1052AC0058E7032054E7032050E70320244B1A68E7
:1052BC00D0075CBF01221A60224B1A68D1075CBF71
:1052CC0001221A60204B1A68D2075CBF01221A60B7
:1052DC001E4B1A68D0075CBF01221A601C4B1A685F
:1052EC00D1075CBF01221A601A4B1A68D2075CBF47
:1052FC0001221A60184B1A68D0075CBF01221A6091
:10530C00164B1A68D1075CBF01221A60144B1A683D
:10531C00D2075CBF01221A60124B1A68D0075CBF1F
:10532C0001221A60104B1A68D1075CBF01221A6067
:10533C000E4B1A68D2075CBF01221A60704700BF7F
:10534C009CE7032098E7032094E7032090E70320D1
:10535C008CE7032088E7032084E7032080E7032001
:10536C007CE7032078E7032074E7032070E7032031
:10537C00244B1A68D0075CBF01221A60224B1A68B2
:10538C00D1075CBF01221A60204B1A68D2075CBFA0
:10539C0001221A601E4B1A68D0075CBF01221A60EA
:1053AC001C4B1A68D1075CBF01221A601A4B1A6891
:1053BC00D2075CBF01221A60184B1A68D0075CBF79
:1053CC0001221A60164B1A68D1075CBF01221A60C1
:1053DC00144B1A68D2075CBF01221A60124B1A6870
:1053EC00D0075CBF01221A60104B1A68D1075CBF52
:1053FC0001221A600E4B1A68D2075CBF01221A6098
:10540C00704700BFCCE70320C8E70320C4E70320A4
:10541C00C0E70320BCE70320B8E70320B4E7032070
:10542C00B0E70320ACE70320A8E70320A4E70320A0
:10543C00A0E70320184B1A68D1075CBF01221A6041
:10544C00164B1A68D2075CBF01221A60144B1A68FB
:10545C00D0075CBF01221A60124B1A68D1075CBFDF
:10546C0001221A60104B1A68D2075CBF01221A6025
:10547C000E4B1A68D0075CBF01221A600C4B1A68DD
:10548C00D1075CBF01221A600A4B1A68D2075CBFB5
:10549C0001221A60704700BFECE70320E8E7032005
:1054AC00E4E70320E0E70320DCE70320D8E7032050
:1054BC00D4E70320D0E7032081F0004102E000BFD5
:1054CC0083F0004330B54FEA41044FEA430594EAB8
:1054DC00050F08BF90EA020F1FBF54EA000C55EAF3
:1054EC00020C7FEA645C7FEA655C00F0E2804FEAC4
:1054FC005454D4EB5555B8BF6D420CDD2C4480EAA6
:10550C00020281EA030382EA000083EA010180EAD5
:10551C00020281EA0303362D88BF30BD11F0004F23
:10552C004FEA01314FF4801C4CEA113102D0404259
:10553C0061EB410113F0004F4FEA03334CEA133394
:10554C0002D0524263EB430394EA050F00F0A780AC
:10555C00A4F10104D5F1200E0DDB02FA0EFC22FAA7
:10556C0005F2801841F1000103FA0EF2801843FA9B
:10557C0005F359410EE0A5F120050EF1200E012A8C
:10558C0003FA0EFC28BF4CF0020C43FA05F3C018CA
:10559C0051EBE37101F0004507D54FF0000EDCF143
:1055AC00000C7EEB00006EEB0101B1F5801F1BD3EC
:1055BC00B1F5001F0CD349085FEA30004FEA3C0CF0
:1055CC0004F101044FEA445212F5800F80F09A80E6
:1055DC00BCF1004F08BF5FEA500C50F1000041EBEA
:1055EC00045141EA050130BD5FEA4C0C404141EBEE
:1055FC00010111F4801FA4F10104E9D191F0000F15
:10560C0004BF01460020B1FA81F308BF2033A3F197
:10561C000B03B3F120020CDA0C3208DD02F1140C8E
:10562C00C2F10C0201FA0CF021FA02F10CE002F1C9
:10563C001402D8BFC2F1200C01FA02F120FA0CFCC2
:10564C00DCBF41EA0C019040E41AA2BF01EB04510B
:10565C00294330BD6FEA04041F3C1CDA0C340EDC09
:10566C0004F11404C4F1200220FA04F001FA02F34C
:10567C0040EA030021FA04F345EA030130BDC4F10A
:10568C000C04C4F1200220FA02F001FA04F340EAFF
:10569C000300294630BD21FA04F0294630BD94F0B0
:1056AC00000F83F4801306BF81F480110134013D97
:1056BC004EE77FEA645C18BF7FEA655C29D094EA08
:1056CC00050F08BF90EA020F05D054EA000C04BF86
:1056DC001946104630BD91EA030F1EBF0021002071
:1056EC0030BD5FEA545C05D14000494128BF41F010
:1056FC00004130BD14F580043CBF01F5801130BD74
:10570C0001F0004545F0FE4141F470014FF00000FE
:10571C0030BD7FEA645C1ABF194610467FEA655CAF
:10572C001CBF0B46024650EA013406BF52EA033551
:10573C0091EA030F41F4002130BD00BF90F0000F3F
:10574C0004BF0021704730B54FF4806404F132047B
:10575C004FF000054FF0000150E700BF90F0000F34
:10576C0004BF0021704730B54FF4806404F132045B
:10577C0010F0004548BF40424FF000013EE700BF2B
:10578C0042004FEAE2014FEA31014FEA02701FBFBB
:10579C0012F07F4393F07F4F81F06051704792F08D
:1057AC00000F14BF93F07F4F704730B54FF4607407
:1057BC0001F0004521F0004120E700BF50EA010252
:1057CC0008BF704730B54FF000050AE050EA0102FF
:1057DC0008BF704730B511F0004502D5404261EB6F
:1057EC0041014FF4806404F132045FEA915C3FF4B0
:1057FC00DCAE4FF003025FEADC0C18BF03325FEA49
:10580C00DC0C18BF033202EBDC02C2F1200300FAFD
:10581C0003FC20FA02F001FA03FE40EA0E0021FA22
:10582C0002F11444C1E600BF10B5054C13462CB16F
:10583C000A4601460220AFF3008010BD204610BD81
:10584C000000000010B5431E0A44914204D011F828
:10585C00014B03F8014FF8E710BD02440346934295
:10586C0002D003F8011BFAE77047000038B5124B61
:10587C001C68A36B0546D3B91820FEF7E9FE43F26A
:10588C000E33A06303804AF6CD33438041F23423B8
:10589C0083804EF26D63C3804DF6EC630381052368
:1058AC0043810B23838101220023C0E90423A36BD2
:1058BC0000221D615A6138BDB4E30320034613F87E
:1058CC00012B002AFBD1181A013870471D400D001E
:1058DC0059400D0085400D0089400D00000000006E
:1058EC00496E697469616C697A696E6720544D47B9
:1058FC003339393300477265656E20436F6C6F72B4
:10590C00204C756D696E616E6365203A2025302ED2
:10591C003266200A0052656420436F6C6F72204C13
:10592C00756D696E616E6365203A2025302E326686
:10593C00200A00426C756520436F6C6F72204C75A9
:10594C006D696E616E6365203A2025302E326620BB
:10595C000A00496E667261726564204C756D696EE1
:10596C00616E6365203A2025302E3266200A005085
:10597C00726F78696D697479206F66207468652020
:10598C00646576696365203A2025302E3266200ADC
:10599C00200000000000000000000000EB460D009D
:1059AC00E1460D00D7460D00CD460D00C1460D0059
:1059BC00B5460D00A9460D00A1460D0097460D00F9
:1059CC008D460D0091500D00626175640053657237
:1059DC0069616C0053657269616C31007479706532
:1059EC0000706172616D00636D6400696400686EC3
:1059FC0064007374726D0066696C74006C766C0074
:105A0C0061646448616E646C65720072656D6F767A
:105A1C006548616E646C657200656E756D48616E8B
:105A2C00646C657273004A534F4E53747265616DAA
:105A3C004C6F6748616E646C657200617070002514
:105A4C003031307520005D20002564002C200028AA
:105A5C00293A2000205B00636F6465203D200025FF
:105A6C00690064657461696C73203D20000D0A0047
:105A7C0066006C6E00666E00636F6465006465742E
:105A8C0061696C006E6F6E650074726163650069AC
:105A9C006E666F007761726E006572726F72007065
:105AAC00616E696300616C6C005A00252B303364A5
:105ABC003A253032750025592D256D2D2564542538
:105ACC00483A254D3A2553257A0061736374696D04
:105ADC006500000000000000000000004D4A0D00B1
:105AEC003D4A0D003F4A0D00000000000000000080
:105AFC00254B0D00754B0D00834B0D0095470D008C
:105B0C00614B0D00274B0D003D4B0D006F4B0D00F5
:105B1C00534B0D00214B0D00000000000000000055
:105B2C00314C0D00814C0D008F4C0D0095470D0034
:105B3C00454C0D00674C0D00534C0D007B4C0D007B
:105B4C00334C0D00374C0D0000000000000000002D
:105B5C002D4D0D00774D0D004F4D0D002F4D0D00AF
:105B6C00574D0D005F4D0D00674D0D006F4D0D0035
:105B7C000000000000000000914E0D00874E0D004B
:105B8C007D4E0D00734E0D00674E0D005B4E0D00EB
:105B9C004F4E0D00474E0D003D4E0D00334E0D0087
:105BAC0091500D0000000000000000000B500D0093
:105BBC0001500D00F74F0D00AD4F0D00EB4F0D00D8
:105BCC00DF4F0D00D34F0D00CB4F0D00C14F0D001B
:105BDC00B74F0D0091500D000000000000000000B8
:105BEC0029500D0033500D003D500D0047500D0055
:105BFC0051500D005D500D0069500D0075500D0099
:105C0C007D500D0087500D0091500D0000000000DC
:105C1C000000000000000000000000000000000078
:105C2C000000000000000000000000000000000068
:105C3C000000000000000000000000000000000058
:105C4C000000000000000000000000000000000048
:105C5C000000000000000000000000000000000038
:105C6C000000000000000000000000000000000028
:105C7C004300000031430D00F5460D0029470D008F
:105C8C006D470D00C9480D00D9480D0011490D0094
:105C9C005D4F0D0015500D005D510D0035520D007E
:105CAC00B9520D007D530D0041540D000000000051
:045CBC0000000000E4
:045CC00000000000E0
:105CC400D65A0D00000000001C5C0D003C5C0D0069
:105CD4005C5C0D00000000000000000000000000FB
:105CE400000000007C5C0D000000000000000000CB
:105CF40000000000000000000000000000000000A0
:105D0400000000000000000000000000000000008F
:105D1400000000000000000000000000000000007F
:085D24000000000054E303201D
:105D2C00FFFFFFFF00000102030405060708090A34
:105D3C000B0C0D0E0F101112131415161718191A2F
:085D4C001B1C1D1E1F20280076
:045D54007856341237
:04000003D000401CCD
:00000001FF
