:02000002D0002C
:1040000000400D00D4530D00000006000C00050117
:084010000401DE0500000000C0
:0440180034500D0013
:10401C0009480A49884208B505D0094A824202D0AB
:10402C00121A00F0BDFF0748074A0021121A00F0CF
:10403C00C2FF014808BD00BF80E3032044530D00BC
:10404C00E8E30320E8E30320F0E7032070B500F079
:10405C0009FB074C074BE41AA40800251E46A54291
:10406C0004D056F8253098470135F8E770BD00BFED
:10407C0034530D00FC520D0000F01CB808B500F0D4
:10408C0093FABDE8084000F0AFBA00F097B900F021
:10409C0095B90078B0FA80F040097047012303709D
:1040AC00704710B50446006808B100F087F9204647
:1040BC0010BD000013B502A801220B4C00F8012D15
:1040CC0041F6C67100F0BEF800231A461946606826
:1040DC0000F02CF900231A461946606800F006F926
:1040EC0000F054F902B010BD3CE7032010B50A4CA7
:1040FC0000F028F800232360A380A3712381022001
:10410C004FF6FF73638100F0D5F82046034A04494B
:10411C00BDE8104000F0E6BDECE30320E8E303202B
:10412C00AF400D0008B5024B1B689B68019308BD9E
:10413C006802030008B5024B1B68DB68019308BDDD
:10414C006802030008B5024B1B681B68019308BD8D
:10415C002C02030008B5024B1B685B68019308BD79
:10416C001802030008B5024B1B685B69019308BD7C
:10417C001802030008B5024B1B689B68019308BD2D
:10418C004802030008B5024B1B681B69019308BD6C
:10419C004802030008B5024B1B685B69019308BD1C
:1041AC004802030008B5024B1B685B6C019308BD09
:1041BC004802030008B5024B1B689B6C019308BDB9
:1041CC004802030008B5024B1B685B69019308BDEC
:1041DC006402030008B5024B1B681B68019308BD01
:1041EC003C02030008B5024B1B68DB68019308BD59
:1041FC003C02030008B5024B1B681B69019308BD08
:10420C003C02030008B5024B1B685B69019308BDB7
:10421C003C02030008B5024B1B689B69019308BD67
:10422C003C02030008B5024B1B68DB69019308BD17
:10423C003C02030008B5024B1B689B6A019308BD46
:10424C003C02030008B5024B1B685B68019308BD78
:10425C005802030008B5024B1B681B68019308BD8C
:10426C004C02030008B5024B1B681B69019308BD87
:10427C004C02030008B5024B1B685B69019308BD37
:10428C004C02030008B5024B1B689B69019308BDE7
:10429C004C02030008B5024B1B68DB69019308BD97
:1042AC004C02030008B5024B1B681B6A019308BD46
:1042BC004C02030008B5024B1B685B68019308BDF8
:1042CC002002030008B5034B1B68D3F88830019318
:1042DC0008BD00002002030008B5034B1B68D3F88F
:1042EC009430019308BD00002002030008B5024B76
:1042FC001B685B68019308BD4002030008B5024BC4
:10430C001B689B68019308BD4002030008B5024B73
:10431C001B68DB68019308BD4002030008B5024B23
:10432C001B681B69019308BD4002030008B5024BD2
:10433C001B685B69019308BD4002030008B5024B82
:10434C001B689B69019308BD4002030008B5024B32
:10435C001B68DB69019308BD4002030008B5024BE2
:10436C001B681B6A019308BD4002030008B5024B91
:10437C001B681B6B019308BD4002030008B5024B80
:10438C001B685B6B019308BD4002030008B5024B30
:10439C001B68DB68019308BD4402030008B5024B9F
:1043AC001B68DB6B019308BD4402030008B5024B8C
:1043BC001B681B68019308BD1C02030008B5024B67
:1043CC001B685B68019308BD1C02030000221146A8
:1043DC004068FFF7C3BF002211464068FFF7CEBF0D
:1043EC0000224068FFF7C2BF002281F00101406843
:1043FC00FFF7ACBF00231A4619464068FFF79EBF73
:10440C0000231A4619464068FFF790BF0022114658
:10441C004068FFF783BF002211464068FFF76EBF6C
:10442C00002202214068FFF771BF00231A46406842
:10443C00FFF75CBF024B03225A60024A1A607047B6
:10444C00F8E3032050500D0010B5094C00204FF636
:10445C00FF732060A080A07120816381FFF72AFF89
:10446C002046044A0449BDE8104000F03BBC00BFA4
:10447C0000E40320E8E30320AF400D0010B5044630
:10448C00006808B1FFF796FE204610BD10B5064C2B
:10449C00002320462360FFF785FE2046034A04498B
:1044AC00BDE8104000F01EBC0CE40320E8E3032040
:1044BC0089440D00F8B506460D468F180024BD4200
:1044CC000CD0336815F8011B9B68304698470028C0
:1044DC0001DB0444F3E7002C08BF04462046F8BD7A
:1044EC0070B505460C46084649B100F095FD2B68A1
:1044FC00024621462846DB68BDE87040184770BD6F
:10450C0003689B68184730B58BB00B4600218DF8BB
:10451C002410012A98BF0A220DF12304B3FBF2F5F3
:10452C0005FB123303F0FF03092B94BF30333733F1
:10453C00DBB2214604F801392B46002DEED1FFF7F2
:10454C00CFFF0BB030BD0000014B024A1A60704720
:10455C0010E40320EF500D00024B1A68024B1A6056
:10456C00704700BF80E3032014E4032010B5836878
:10457C00044613B1032201469847204610BD10B5DE
:10458C000446FFF7F3FF204610BD00000348044A21
:10459C0004490023836000F0A5BB00BF18E403208E
:1045AC00E8E303208B450D007047000008B50C4B69
:1045BC0033B100F053F903681B699847002809DCF4
:1045CC00084B63B100F0C8F903681B6998470028D1
:1045DC0003DC08BDAFF30080F2E7AFF3008008BD49
:1045EC00000000000000000008B5FFF7DFFFFFF738
:1045FC00B9FD014B186008BD4CE703200248034A83
:10460C000349121A00F0CCBC00F4032004F403207C
:10461C0040530D0007B5002300931A466FF0770145
:10462C00FFF75AFE03B05DF804FB000007B54388A2
:10463C000A2B08D0502B09D1094B1B683BB103B096
:10464C005DF804EB1847FFF7E5FF06E00023009345
:10465C001A466FF07701FFF73FFE03B05DF804FBDD
:10466C0028E4032038B5104C104D2368AB42104B96
:10467C000CBF012200221A7002D0FFF7BFFF256089
:10468C00FFF768FD044600F09FFC0A4B13B120466F
:10469C00AFF3008000210748FFF780FE0021064899
:1046AC00BDE83840FFF70EBE00F403201E1C279A0D
:1046BC002CE403200000000039460D00704710B5B3
:1046CC001821044600F013FB204610BDF0B5037D05
:1046DC00062B8DB00E4600F104074FF0000402D0FB
:1046EC0000F1080518E00CAD394605F8304D2F23C4
:1046FC002A460A20FFF766FD284600F08DFC336839
:10470C000246DB682946304698470FE024B12E213B
:10471C003046FFF7F5FE044415F8011D0A22304619
:10472C00FFF7F1FEBD420444F0D120460DB0F0BDC0
:10473C0010B5054B0446112240F8043B002100F053
:10474C003AFC204610BD00BF90510D000346074AAD
:10475C0010B543F8042B01F1100251F8044B43F847
:10476C00044B9142F9D10A781A7010BD90510D008A
:10477C0010B59DF8084044EA032343EA024242EA9A
:10478C00016104234160037510BD37B50D788B783A
:10479C004A78C97800912946FFF7EAFF03B030BD8B
:1047AC0041747047704708B50021007CFFF76AFD23
:1047BC0030EA200028BF4FF0FF3008BD08B50121BA
:1047CC00007CFFF75FFD30EA200028BF4FF0FF3080
:1047DC0008BD08B5007CFFF74DFD20EAE07008BD70
:1047EC0008B5007CFFF73EFD20EAE07008BD007CB8
:1047FC00FFF758BD10B51421044600F078FA204696
:10480C0010BD38B50446007C0D46FFF733FD00287B
:10481C0001DC607C28B12946207CFFF73BFD20EAB7
:10482C00E07038BD10B50446002363604FF47A7312
:10483C00A360054B23600123084621746374114661
:10484C00FFF708FD204610BDA4510D0010B5142231
:10485C000446002100F0AFFB204610BD30B50E4DD4
:10486C0087B001A8FFF7F2FF296811F0010410D1FD
:10487C002846FFF70EFC60B101AA21460748FFF756
:10488C00D1FF2846FFF70AFC054A0649034800F009
:10489C0029FA024807B030BD30E4032034E4032089
:1048AC00E8E30320B1470D0070474174704708B529
:1048BC00007CFFF7BFFC20EAE07008BD08B5007C67
:1048CC00FFF798FC20EAE07008BD08B5007CFFF704
:1048DC00A1FC30EA200028BF4FF0FF3008BD08B51E
:1048EC00007CFFF78FFC30EA200028BF4FF0FF3030
:1048FC0008BD007CFFF796BC10B51421044600F0EF
:10490C00F6F9204610BD70B5457C04460E4625B917
:10491C00007CFFF78FFC002805DD3146207CBDE8CC
:10492C007040FFF75FBC284670BD000010B5044610
:10493C0008461146002262604FF47A72A260054A62
:10494C0022600122207462741A46FFF743FC204651
:10495C0010BD00BFD4510D0038B50C4D296811F0B5
:10496C00010411D12846FFF794FB68B1084A094BA2
:10497C0009482146FFF7DAFF2846FFF78FFB074A65
:10498C000749054800F0AEF9034838BDE0E40320C0
:10499C00E4E403205CE4032048E40320E8E3032080
:1049AC00B5480D00002211464068FFF7D7BC002225
:1049BC0011464068FFF7E2BC00224068FFF7D6BC06
:1049CC00002281F001014068FFF7C0BC00231A46A9
:1049DC0001214068FFF7B2BC00231A461946406813
:1049EC00FFF7A4BC002211464068FFF797BC0022D9
:1049FC0011464068FFF782BC002202214068FFF795
:104A0C0085BC00231A464068FFF770BC38B50546D4
:104A1C0088B104684CB1A3681BB10322214620461F
:104A2C0098471021204600F062F928461421BDE871
:104A3C00384000F05CB938BD10B103685B681847AA
:104A4C00704710B503680446BBB15868FFF792FB7A
:104A5C0078B923685A7C12B95868FFF793FB23681E
:104A6C005868FFF797FB20680023236028B1FFF7F5
:104A7C00CDFF206808B1FFF7C9FF204610BD38B53F
:104A8C000446D0F8C40108B1FFF701FBD4F8C0010B
:104A9C0008B1FFF78FFBD4F8BC5135B12846FFF7AE
:104AAC00D0FF0421284600F022F9206808B1FFF756
:104ABC00C3FF204638BD000010B5044B044640F837
:104ACC00083BFFF7DCFF204610BD00BF04520D0071
:104ADC0038B50E4C0E4B23600025022304F5E47010
:104AEC006360A560C4F8C451C4F8C851FFF75AFB01
:104AFC00084BC4F8CC5184F8D05123602046064AA8
:104B0C000649BDE8384000F0EDB800BF68E5032069
:104B1C006C520D0004520D00E8E30320C54A0D0051
:104B2C00002211464068FFF7F9BB0022114640688D
:104B3C00FFF714BC002211464068FFF71FBC00228F
:104B4C004068FFF713BC002281F001014068FFF7B9
:104B5C00FDBB00231A4619464068FFF7EFBB002344
:104B6C001A4619464068FFF7E1BB0022114640681F
:104B7C00FFF7C4BB002202214068FFF7C7BB00232C
:104B8C001A464068FFF7B2BB024B04225A60024A35
:104B9C001A6070473CE7032038520D0000231A4678
:104BAC004068FFF7A3BB002202214068FFF7AEBBB1
:104BBC00002211464068FFF7A1BB00221146406855
:104BCC00FFF7ACBB00231A4619464068FFF7AEBB93
:104BDC0000231A4619464068FFF7B0BB002281F04B
:104BEC0001014068FFF7B2BB00224068FFF7BEBB73
:104BFC00002211464068FFF7C1BB002211464068F5
:104C0C00FFF7ACBB2DE9F043002495B016460D46DA
:104C1C000746FFF78DFD214620220CA8009400F0DA
:104C2C00CAF940230C9321466B460CAA3046FFF779
:104C3C0081FA0446002844D1024601216868FFF736
:104C4C006DFB0221804622466868FFF767FB009ED9
:104C5C0081462146002E34D0002932D17368022BB4
:104C6C0002D00A2B09D02AE0B8F1000F27D07169C5
:104C7C0038460431FFF789FD20E0B9F1000F1ED052
:104C8C007469112201A800F096F906238DF81430EE
:104C9C0001AD04F108031834186859682A4603C298
:104CAC000833A3421546F7D101A906A807ADFFF7B3
:104CBC004DFD0FCD3C1D0FC42B6823700121F669EF
:104CCC00C8E70098FFF72EFA384615B0BDE8F08318
:104CDC00024B034A1A6000225A60704744E70320D3
:104CEC006C520D000B460146184600F04BB9FFF70D
:104CFC00CCB90000184B1A68D1075CBF01221A60AE
:104D0C00164B1A68D2075CBF01221A60144B1A6842
:104D1C00D0075CBF01221A60124B1A68D1075CBF26
:104D2C0001221A60104B1A68D2075CBF01221A606C
:104D3C000E4B1A68D0075CBF01221A600C4B1A6824
:104D4C00D1075CBF01221A600A4B1A68D2075CBFFC
:104D5C0001221A60704700BF6CE7032068E703204C
:104D6C0064E7032060E703205CE7032058E7032097
:104D7C0054E7032050E70320244B1A68D0075CBF8C
:104D8C0001221A60224B1A68D1075CBF01221A60FB
:104D9C00204B1A68D2075CBF01221A601E4B1A689E
:104DAC00D0075CBF01221A601C4B1A68D1075CBF8C
:104DBC0001221A601A4B1A68D2075CBF01221A60D2
:104DCC00184B1A68D0075CBF01221A60164B1A6880
:104DDC00D1075CBF01221A60144B1A68D2075CBF62
:104DEC0001221A60124B1A68D0075CBF01221A60AC
:104DFC00104B1A68D1075CBF01221A600E4B1A685F
:104E0C00D2075CBF01221A60704700BF9CE70320E9
:104E1C0098E7032094E7032090E703208CE7032016
:104E2C0088E7032084E7032080E703207CE7032046
:104E3C0078E7032074E7032070E70320244B1A68FB
:104E4C00D0075CBF01221A60224B1A68D1075CBFE5
:104E5C0001221A60204B1A68D2075CBF01221A602B
:104E6C001E4B1A68D0075CBF01221A601C4B1A68D3
:104E7C00D1075CBF01221A601A4B1A68D2075CBFBB
:104E8C0001221A60184B1A68D0075CBF01221A6005
:104E9C00164B1A68D1075CBF01221A60144B1A68B2
:104EAC00D2075CBF01221A60124B1A68D0075CBF94
:104EBC0001221A60104B1A68D1075CBF01221A60DC
:104ECC000E4B1A68D2075CBF01221A60704700BFF4
:104EDC00CCE70320C8E70320C4E70320C0E7032086
:104EEC00BCE70320B8E70320B4E70320B0E70320B6
:104EFC00ACE70320A8E70320A4E70320A0E70320E6
:104F0C00184B1A68D1075CBF01221A60164B1A683D
:104F1C00D2075CBF01221A60144B1A68D0075CBF21
:104F2C0001221A60124B1A68D1075CBF01221A6069
:104F3C00104B1A68D2075CBF01221A600E4B1A681C
:104F4C00D0075CBF01221A600C4B1A68D1075CBFFA
:104F5C0001221A600A4B1A68D2075CBF01221A6040
:104F6C00704700BFECE70320E8E70320E4E70320E9
:104F7C00E0E70320DCE70320D8E70320D4E7032095
:104F8C00D0E7032010B5054C13462CB10A46014658
:104F9C000220AFF3008010BD204610BD00000000C1
:104FAC0010B5431E0A44914204D011F8014B03F88A
:104FBC00014FF8E710BD02440346934202D003F8B8
:104FCC00011BFAE77047000038B5124B1C68A36B45
:104FDC000546D3B91820FFF7E9F943F20E33A06365
:104FEC0003804AF6CD33438041F2342383804EF262
:104FFC006D63C3804DF6EC630381052343810B2362
:10500C00838101220023C0E90423A36B00221D61CC
:10501C005A6138BDE4E30320034613F8012B002A40
:10502C00FBD1181A013870471D400D0059400D0076
:10503C0085400D0089400D000000000000000000BC
:10504C000000000037440D002D440D0023440D00DA
:10505C0019440D000D440D0001440D00F5430D00E5
:10506C00ED430D00E3430D00D9430D00114C0D0031
:10507C00626175640053657269616C005365726995
:10508C00616C31007479706500706172616D0063E0
:10509C006D6400696400686E64007374726D006600
:1050AC00696C74006C766C0061646448616E646C4D
:1050BC0065720072656D6F766548616E646C6572C1
:1050CC0000656E756D48616E646C657273004A5351
:1050DC004F4E53747265616D4C6F6748616E646CB2
:1050EC0065720061707000253031307520005D20D4
:1050FC00002564002C200028293A2000205B006346
:10510C006F6465203D200025690064657461696CDD
:10511C0073203D20000D0A0066006C6E00666E0068
:10512C00636F64650064657461696C006E6F6E65B5
:10513C0000747261636500696E666F007761726EF0
:10514C00006572726F720070616E696300616C6CE5
:10515C00005A00252B3033643A253032750025591E
:10516C002D256D2D25645425483A254D3A2553257A
:10517C007A0061736374696D6500000000000000C3
:10518C0000000000D9460D00C9460D00CB460D00AD
:10519C000000000000000000B1470D0001480D00A8
:1051AC000F480D00C1440D00ED470D00B3470D0035
:1051BC00C9470D00FB470D00DF470D00AD470D0043
:1051CC000000000000000000B5480D0005490D006E
:1051DC0013490D00C1440D00C9480D00EB480D00EA
:1051EC00D7480D00FF480D00B7480D00BB480D0017
:1051FC0000000000000000000F4A0D00054A0D00E1
:10520C00FB490D00F1490D00E5490D00D9490D0090
:10521C00CD490D00C5490D00BB490D00B1490D002C
:10522C00114C0D0000000000000000008B4B0D0025
:10523C00814B0D00774B0D002D4B0D006B4B0D0072
:10524C005F4B0D00534B0D004B4B0D00414B0D00B4
:10525C00374B0D00114C0D00000000000000000049
:10526C00A94B0D00B34B0D00BD4B0D00C74B0D00F2
:10527C00D14B0D00DD4B0D00E94B0D00F54B0D0036
:10528C00FD4B0D00074C0D00114C0D0000000000F3
:10529C000000000000000000000000000000000002
:1052AC0000000000000000000000000000000000F2
:1052BC0000000000000000000000000000000000E2
:1052CC0000000000000000000000000000000000D2
:1052DC0000000000000000000000000000000000C2
:1052EC00000000000000000000000000430000006F
:1052FC00F9400D0041440D0055440D0099440D003A
:10530C0055450D0065450D0099450D00DD4A0D0014
:10531C00954B0D00DD4C0D00014D0D00854D0D0024
:10532C00494E0D000D4F0D00000000000000000064
:04533C00000000006D
:045340000000000069
:105344007E510D000000000098520D00B8520D006F
:10535400D8520D0000000000000000000000000012
:1053640000000000F8520D000000000000000000E2
:105374000000000000000000000000000000000029
:105384000000000000000000000000000000000019
:105394000000000000000000000000000000000009
:0853A4000000000084E3032077
:1053AC00FFFFFFFF00000102030405060708090ABE
:1053BC000B0C0D0E0F101112131415161718191AB9
:0853CC001B1C1D1E1F20280000
:0453D40078563412C1
:04000003D000401CCD
:00000001FF
