:02000002D0002C
:1040000000400D00C4530D00000006000C00050127
:084010000401DE0500000000C0
:0440180030500D0017
:10401C0009480A49884208B505D0094A824202D0AB
:10402C00121A00F0BBFF0748074A0021121A00F0D1
:10403C00C0FF014808BD00BF80E3032034530D00CE
:10404C00E8E30320E8E30320F0E7032070B500F079
:10405C00B9FC074C074BE41AA40800251E46A542E0
:10406C0004D056F8253098470135F8E770BD00BFED
:10407C0030530D00F8520D0000F01CB808B500F0DC
:10408C0044FCBDE8084000F05FBC00F097B900F0BC
:10409C0095B90078B0FA80F040097047012303709D
:1040AC00704710B50446006808B100F087F9204647
:1040BC0010BD000013B502A801220B4C00F8012D15
:1040CC0041F6C67100F05EF800231A461946606886
:1040DC0000F020F900231A461946606800F0FAF83F
:1040EC0000F0E8F802B010BD00E4032010B50A4C53
:1040FC0000F0C8F800232360A380A3712381022061
:10410C004FF6FF73638100F035F92046034A0449EA
:10411C00BDE8104000F0E4BDECE30320E8E303202D
:10412C00AF400D0008B5024B1B681B68019308BD1E
:10413C004C02030008B5024B1B681B69019308BDB8
:10414C004C02030008B5024B1B685B69019308BD68
:10415C004C02030008B5024B1B689B69019308BD18
:10416C004C02030008B5024B1B68DB69019308BDC8
:10417C004C02030008B5024B1B681B6A019308BD77
:10418C004C02030008B5024B1B685B68019308BD29
:10419C005802030008B5024B1B681B68019308BD4D
:1041AC003C02030008B5024B1B68DB68019308BD99
:1041BC003C02030008B5024B1B681B69019308BD48
:1041CC003C02030008B5024B1B685B69019308BDF8
:1041DC003C02030008B5024B1B689B69019308BDA8
:1041EC003C02030008B5024B1B68DB69019308BD58
:1041FC003C02030008B5024B1B689B6A019308BD87
:10420C003C02030008B5024B1B685B69019308BDB7
:10421C006402030008B5024B1B689B68019308BD40
:10422C004802030008B5024B1B681B69019308BDCB
:10423C004802030008B5024B1B685B69019308BD7B
:10424C004802030008B5024B1B685B6C019308BD68
:10425C004802030008B5024B1B689B6C019308BD18
:10426C004802030008B5024B1B685B68019308BD4C
:10427C001802030008B5024B1B685B69019308BD6B
:10428C001802030008B5024B1B681B68019308BD9C
:10429C002C02030008B5024B1B689B68019308BDF8
:1042AC006802030008B5024B1B68DB68019308BD6C
:1042BC006802030008B5024B1B68DB68019308BD5C
:1042CC004402030008B5024B1B68DB6B019308BD6D
:1042DC004402030008B5024B1B685B68019308BDE0
:1042EC004002030008B5024B1B689B68019308BD94
:1042FC004002030008B5024B1B68DB68019308BD44
:10430C004002030008B5024B1B681B69019308BDF2
:10431C004002030008B5024B1B685B69019308BDA2
:10432C004002030008B5024B1B689B69019308BD52
:10433C004002030008B5024B1B68DB69019308BD02
:10434C004002030008B5024B1B681B6A019308BDB1
:10435C004002030008B5024B1B681B6B019308BDA0
:10436C004002030008B5024B1B685B6B019308BD50
:10437C004002030008B5024B1B685B68019308BD43
:10438C002002030008B5034B1B68D3F88830019357
:10439C0008BD00002002030008B5034B1B68D3F8CE
:1043AC009430019308BD00002002030008B5024BB5
:1043BC001B681B68019308BD1C02030008B5024B67
:1043CC001B685B68019308BD1C02030000231A469E
:1043DC004068FFF77FBF002202214068FFF78ABFC9
:1043EC00002211464068FFF77DBF0022114640684D
:1043FC00FFF788BF00231A4619464068FFF78ABFAB
:10440C0000231A4619464068FFF78CBF002281F042
:10441C0001014068FFF78EBF00224068FFF79ABF8A
:10442C00002211464068FFF79DBF002211464068EC
:10443C00FFF788BF2DE9F043002495B016460D46D2
:10444C00074600F021FA214620220CA8009400F027
:10445C00B0FD40230C9321466B460CAA3046FFF767
:10446C0021FF0446002844D1024601216868FFF769
:10447C0049FF0221804622466868FFF743FF009EF1
:10448C0081462146002E34D0002932D17368022B8C
:10449C0002D00A2B09D02AE0B8F1000F27D071699D
:1044AC003846043100F01DFA20E0B9F1000F1ED09F
:1044BC007469112201A800F07CFD06238DF81430DC
:1044CC0001AD04F108031834186859682A4603C270
:1044DC000833A3421546F7D101A906A807AD00F091
:1044EC00E1F90FCD3C1D0FC42B6823700121F66937
:1044FC00C8E70098FFF7CEFE384615B0BDE8F0834C
:10450C00024B034A1A6000225A607047F8E30320FA
:10451C004C500D00002211464068FFF7F3BE0022FC
:10452C0011464068FFF70EBF002211464068FFF7A6
:10453C0019BF00224068FFF70DBF002281F0010176
:10454C004068FFF7F7BE00231A4619464068FFF78C
:10455C00E9BE00231A4619464068FFF7DBBE00226D
:10456C0011464068FFF7BEBE002202214068FFF7EB
:10457C00C1BE00231A464068FFF7ACBE024B0422B2
:10458C005A60024A1A60704700E4032080500D0004
:10459C00002211464068FFF7D5BE00221146406844
:1045AC00FFF7E0BE00224068FFF7D4BE002281F086
:1045BC0001014068FFF7BEBE00231A460121406886
:1045CC00FFF7B0BE00231A4619464068FFF7A2BE9B
:1045DC00002211464068FFF795BE00221146406844
:1045EC00FFF780BE002202214068FFF783BE002344
:1045FC001A464068FFF76EBE38B5054688B10468A8
:10460C004CB1A3681BB103222146204698471021C8
:10461C00204600F06AFB28461421BDE8384000F023
:10462C0064BB38BD10B103685B681847704710B5A0
:10463C0003680446BBB15868FFF7ECFD78B92368F2
:10464C005A7C12B95868FFF7EDFD23685868FFF7DC
:10465C00F1FD20680023236028B1FFF7CDFF20680F
:10466C0008B1FFF7C9FF204610BD38B50446D0F895
:10467C00C40108B1FFF70BFDD4F8C00108B1FFF776
:10468C00E9FDD4F8BC5135B12846FFF7D0FF042121
:10469C00284600F02AFB206808B1FFF7C3FF20462C
:1046AC0038BD000010B5044B044640F8083BFFF73A
:1046BC00DCFF204610BD00BFB4500D0038B50E4CC9
:1046CC000E4B23600025022304F5E4706360A560A3
:1046DC00C4F8C451C4F8C851FFF7B4FD084BC4F872
:1046EC00CC5184F8D05123602046064A0649BDE8D7
:1046FC00384000F0F5BA00BF08E403204C500D0020
:10470C00B4500D00E8E30320B1460D00417470472E
:10471C00704708B50021007CFFF71CFD30EA200033
:10472C0028BF4FF0FF3008BD08B50121007CFFF712
:10473C0011FD30EA200028BF4FF0FF3008BD08B54E
:10474C00007CFFF7FFFC20EAE07008BD08B5007C98
:10475C00FFF7F0FC20EAE07008BD007CFFF70ABD13
:10476C0010B51421044600F0C0FA204610BD38B52F
:10477C000446007C0D46FFF7E5FC002801DC607C5C
:10478C0028B12946207CFFF7EDFC20EAE07038BD0B
:10479C0010B50446002363604FF47A73A360054B95
:1047AC00236001230846217463741146FFF7BAFC99
:1047BC00204610BDE8500D0010B51422044600210F
:1047CC0000F0F7FB204610BD30B50E4D87B001A8A8
:1047DC00FFF7F2FF296811F0010410D12846FFF70A
:1047EC0058FC60B101AA21460748FFF7D1FF2846C3
:1047FC00FFF754FC054A0649034800F071FA0248D9
:10480C0007B030BDDCE50320E0E50320E8E303203E
:10481C001D470D00704710B51821044600F065FACD
:10482C00204610BDF0B5037D062B8DB00E4600F171
:10483C0004074FF0000402D000F1080518E00CAD9D
:10484C00394605F8304D2F232A460A20FFF7DAFCAB
:10485C00284600F0DFFB33680246DB682946304609
:10486C0098470FE024B12E21304600F023F9044480
:10487C0015F8011D0A22304600F01FF9BD42044410
:10488C00F0D120460DB0F0BD10B5054B04461122F9
:10489C0040F8043B002100F08CFB204610BD00BF0B
:1048AC0018510D000346074A10B543F8042B01F1CB
:1048BC00100251F8044B43F8044B9142F9D10A7899
:1048CC001A7010BD18510D0010B59DF8084044EA3F
:1048DC00032343EA024242EA016104234160037567
:1048EC0010BD37B50D788B784A78C9780091294678
:1048FC00FFF7EAFF03B030BD10B58368044613B16F
:10490C00032201469847204610BD704708B50C4B52
:10491C0033B1FFF759FF03681B699847002809DC7E
:10492C00084B63B100F05EF903681B6998470028D7
:10493C0003DC08BDAFF30080F2E7AFF3008008BDE5
:10494C00000000000000000008B5FFF7DFFFFFF7D4
:10495C0091FC014B186008BD4CE703200248034A48
:10496C000349121A00F01ABB00F4032004F40320CC
:10497C0030530D0007B5002300931A466FF07701F2
:10498C00FFF70AFD03B05DF804FB000007B5438890
:10499C000A2B08D0502B09D1094B1B683BB103B033
:1049AC005DF804EB1847FFF7E5FF06E000230093E2
:1049BC001A466FF07701FFF7EFFC03B05DF804FBCC
:1049CC00F4E5032038B5104C104D2368AB42104B66
:1049DC000CBF012200221A7002D0FFF7BFFF256026
:1049EC00FFF740FC044600F0EDFA0A4B13B12046E9
:1049FC00AFF3008000210748FFF764FC0021064854
:104A0C00BDE83840FFF7BEBC00F403201E1C279AFB
:104A1C00F8E503200000000099490D0010B504468C
:104A2C00FFF76AFF204610BD0348044A04490023DF
:104A3C00836000F055B900BFFCE50320E8E30320D8
:104A4C00294A0D00024B1A68024B1A60704700BFCE
:104A5C0080E303200CE60320014B024A1A607047E6
:104A6C0010E60320C0510D00F8B506460D468F1810
:104A7C000024BD420CD0336815F8011B9B683046EE
:104A8C009847002801DB0444F3E7002C08BF0446D8
:104A9C002046F8BD70B505460C46084649B100F0F5
:104AAC00B9FA2B68024621462846DB68BDE87040FF
:104ABC00184770BD03689B68184730B58BB00B4620
:104ACC0000218DF82410012A98BF0A220DF123042D
:104ADC00B3FBF2F505FB123303F0FF03092B94BF74
:104AEC0030333733DBB2214604F801392B46002D25
:104AFC00EED1FFF7CFFF0BB030BD10B50446006808
:104B0C0008B1FFF7A7FB204610BD000010B5064CFE
:104B1C00002320462360FFF795FB2046034A0449F7
:104B2C00BDE8104000F0DCB814E60320E8E30320F5
:104B3C00074B0D0070474174704708B5007CFFF7B8
:104B4C0059FB20EAE07008BD08B5007CFFF732FB8A
:104B5C0020EAE07008BD08B5007CFFF73BFB30EAAB
:104B6C00200028BF4FF0FF3008BD08B5007CFFF7D0
:104B7C0029FB30EA200028BF4FF0FF3008BD007C35
:104B8C00FFF730BB10B51421044600F0AEF82046F8
:104B9C0010BD70B5457C04460E4625B9007CFFF768
:104BAC0029FB002805DD3146207CBDE87040FFF76D
:104BBC00F9BA284670BD000010B5044608461146E7
:104BCC00002262604FF47A72A260054A22600122D0
:104BDC00207462741A46FFF7DDFA204610BD00BF40
:104BEC0038520D0038B50C4D296811F0010411D163
:104BFC002846FFF74EFA68B1084A094B0948214686
:104C0C00FFF7DAFF2846FFF749FA074A0749054834
:104C1C0000F066F8034838BDB0E60320B4E6032084
:104C2C002CE6032018E60320E8E30320414B0D009B
:104C3C0010B5094C00204FF6FF732060A080A071C6
:104C4C0020816381FFF796FB2046044A0449BDE8A6
:104C5C00104000F045B800BF38E70320E8E303201C
:104C6C00AF400D00002211464068FFF76BBB0022DD
:104C7C0011464068FFF776BB00224068FFF76ABB1D
:104C8C00002281F001014068FFF754BB00231A4653
:104C9C0019464068FFF746BB00231A461946406880
:104CAC00FFF738BB002211464068FFF72BBB0022F0
:104CBC0011464068FFF716BB002202214068FFF73F
:104CCC0019BB00231A464068FFF704BB024B0322B2
:104CDC005A60024A1A60704744E7032068520D007C
:104CEC000B460146184600F04BB9FFF7CEB9000051
:104CFC00184B1A68D1075CBF01221A60164B1A6850
:104D0C00D2075CBF01221A60144B1A68D0075CBF33
:104D1C0001221A60124B1A68D1075CBF01221A607B
:104D2C00104B1A68D2075CBF01221A600E4B1A682E
:104D3C00D0075CBF01221A600C4B1A68D1075CBF0C
:104D4C0001221A600A4B1A68D2075CBF01221A6052
:104D5C00704700BF6CE7032068E7032064E703207B
:104D6C0060E703205CE7032058E7032054E70320A7
:104D7C0050E70320244B1A68D0075CBF01221A604D
:104D8C00224B1A68D1075CBF01221A60204B1A68AB
:104D9C00D2075CBF01221A601E4B1A68D0075CBF99
:104DAC0001221A601C4B1A68D1075CBF01221A60E1
:104DBC001A4B1A68D2075CBF01221A60184B1A688A
:104DCC00D0075CBF01221A60164B1A68D1075CBF72
:104DDC0001221A60144B1A68D2075CBF01221A60B8
:104DEC00124B1A68D0075CBF01221A60104B1A686C
:104DFC00D1075CBF01221A600E4B1A68D2075CBF48
:104E0C0001221A60704700BF9CE7032098E703203B
:104E1C0094E7032090E703208CE7032088E7032026
:104E2C0084E7032080E703207CE7032078E7032056
:104E3C0074E7032070E70320244B1A68D0075CBF8B
:104E4C0001221A60224B1A68D1075CBF01221A603A
:104E5C00204B1A68D2075CBF01221A601E4B1A68DD
:104E6C00D0075CBF01221A601C4B1A68D1075CBFCB
:104E7C0001221A601A4B1A68D2075CBF01221A6011
:104E8C00184B1A68D0075CBF01221A60164B1A68BF
:104E9C00D1075CBF01221A60144B1A68D2075CBFA1
:104EAC0001221A60124B1A68D0075CBF01221A60EB
:104EBC00104B1A68D1075CBF01221A600E4B1A689E
:104ECC00D2075CBF01221A60704700BFCCE70320F9
:104EDC00C8E70320C4E70320C0E70320BCE7032096
:104EEC00B8E70320B4E70320B0E70320ACE70320C6
:104EFC00A8E70320A4E70320A0E70320184B1A68B7
:104F0C00D1075CBF01221A60164B1A68D2075CBF2E
:104F1C0001221A60144B1A68D0075CBF01221A6078
:104F2C00124B1A68D1075CBF01221A60104B1A6829
:104F3C00D2075CBF01221A600E4B1A68D0075CBF07
:104F4C0001221A600C4B1A68D1075CBF01221A604F
:104F5C000A4B1A68D2075CBF01221A60704700BF67
:104F6C00ECE70320E8E70320E4E70320E0E7032075
:104F7C00DCE70320D8E70320D4E70320D0E70320A5
:104F8C0010B5054C13462CB10A4601460220AFF36E
:104F9C00008010BD204610BD0000000010B5431E5F
:104FAC000A44914204D011F8014B03F8014FF8E781
:104FBC0010BD02440346934202D003F8011BFAE7EA
:104FCC007047000038B5124B1C68A36B0546D3B96B
:104FDC001820FFF7EBF943F20E33A06303804AF677
:104FEC00CD33438041F2342383804EF26D63C38012
:104FFC004DF6EC630381052343810B23838101224E
:10500C000023C0E90423A36B00221D615A6138BD43
:10501C00E4E30320034613F8012B002AFBD1181AF2
:10502C00013870471D400D0059400D0085400D00A2
:10503C0089400D000000000000000000000000008E
:10504C00D9430D00E3430D00ED430D00F7430D0074
:10505C0001440D000D440D0019440D0025440D00B4
:10506C002D440D0037440D0041440D00000000009C
:10507C00000000007F450D0075450D006B450D00CF
:10508C0021450D005F450D0053450D0047450D00B2
:10509C003F450D0035450D002B450D0041440D00DD
:1050AC000000000000000000FB450D00F1450D0064
:1050BC00E7450D00DD450D00D1450D00C5450D0042
:1050CC00B9450D00B1450D00A7450D009D450D00DE
:1050DC0041440D0000000000000000001D470D00C1
:1050EC006D470D007B470D00754A0D0059470D00AB
:1050FC001F470D0035470D0067470D004B470D004E
:10510C0019470D00000000000000000031480D00A0
:10511C0021480D0023480D005A00252B3033643AEA
:10512C00253032750025592D256D2D2564542548C3
:10513C003A254D3A2553257A0061736374696D6580
:10514C0000626175640053657269616C005365722D
:10515C0069616C31007479706500706172616D0009
:10516C00636D6400696400686E64007374726D0032
:10517C0066696C74006C766C0061646448616E6482
:10518C006C65720072656D6F766548616E646C65F6
:10519C007200656E756D48616E646C657273004A61
:1051AC00534F4E53747265616D4C6F6748616E64FA
:1051BC006C65720061707000253031307520005DB7
:1051CC0020002564002C200028293A2000205B00B8
:1051DC00636F6465203D2000256900646574616916
:1051EC006C73203D20000D0A0066006C6E00666E2C
:1051FC0000636F64650064657461696C006E6F6E4A
:10520C006500747261636500696E666F0077617228
:10521C006E006572726F720070616E696300616C12
:10522C006C0000000000000000000000414B0D006D
:10523C00914B0D009F4B0D00754A0D00554B0D0009
:10524C00774B0D00634B0D008B4B0D00434B0D004A
:10525C00474B0D000000000000000000CF4C0D007B
:10526C00C54C0D00BB4C0D00B14C0D00A54C0D00F8
:10527C00994C0D008D4C0D00854C0D007B4C0D0098
:10528C00714C0D0041440D000000000000000000B6
:10529C000000000000000000000000000000000002
:1052AC0000000000000000000000000000000000F2
:1052BC0000000000000000000000000000000000E2
:1052CC0000000000000000000000000000000000D2
:1052DC0000000000000000000000000000000000C2
:1052EC00000000000000000043000000F9400D0029
:1052FC000D450D0089450D00C9460D00354A0D00C0
:10530C00514A0D00654A0D00194B0D003D4C0D0026
:10531C00D94C0D00FD4C0D00814D0D00454E0D007E
:04532C00094F0D0018
:045330000000000079
:1053340045510D000000000094520D00B4520D00C0
:10534400D4520D0000000000000000000000000026
:1053540000000000F4520D000000000000000000F6
:105364000000000000000000000000000000000039
:105374000000000000000000000000000000000029
:105384000000000000000000000000000000000019
:085394000000000084E3032087
:10539C00FFFFFFFF00000102030405060708090ACE
:1053AC000B0C0D0E0F101112131415161718191AC9
:0853BC001B1C1D1E1F20280010
:0453C40078563412D1
:04000003D000401CCD
:00000001FF
