:02000002D0002C
:1040000000400D00E45C0D00000006000C000501FE
:084010000401E80500000000B6
:04401800C0580D007F
:10401C0009480A49884208B505D0094A824202D0AB
:10402C00121A01F003FC0748074A0021121A01F08A
:10403C0008FC014808BD00BF3CE30320545C0D00A4
:10404C00A4E30320A4E30320F0E7032070B500F001
:10405C00B7FC074C074BE41AA40800251E46A542E2
:10406C0004D056F8253098470135F8E770BD00BFED
:10407C00505C0D00185C0D0000F0B8B808B500F0ED
:10408C0023F9BDE8084000F05DBC00F0E7BA00F091
:10409C00E5BA0078B0FA80F040097047012303704C
:1040AC0070470368C9B29B681847000038B50C46C6
:1040BC0001F066F82A2100F0A0FE01F061F89221CF
:1040CC00FFF7EFFF01F05CF86A21FFF7EAFF01F060
:1040DC0057F80121FFF7E5FF01F052F82146FFF7F1
:1040EC00E0FF01F04DF82146FFF7DBFF01F048F847
:1040FC000021FFF7D6FF01F043F80021FFF7D1FFB5
:10410C0001F03EF804F1FD012144C9B2FFF7C9FFEB
:10411C0001F036F800F078FE4FF4FA7000F0D4FBA2
:10412C0001F02EF803222A2100F060FE01F028F89D
:10413C0003685B699847054601F022F803685B69E0
:10414C009847044601F01CF803685B6998472D04F6
:10415C00240205F47F0504F47F442C43C0B20443CD
:10416C0007EE904AB8EEE70ADFED027A80EE270AF6
:10417C0038BD00BF00007A4408B501F001F82A21CF
:10418C0000F03BFE00F0FCFF9221FFF78AFF00F0ED
:10419C00F7FF6A21FFF785FF00F0F2FF0221FFF71E
:1041AC0080FF00F0EDFF0021FFF77BFF00F0E8FF40
:1041BC000021FFF776FF00F0E3FF0021FFF771FF0E
:1041CC0000F0DEFF0021FFF76CFF00F0D9FFFE21AD
:1041DC00FFF767FF00F0D4FFBDE8084000F014BE05
:1041EC0013460A46002100F022BB0000F8B500F08F
:1041FC00C7FF00F0C7FD00F0E3FC4FF4165100F0D0
:10420C00D3FCFFF7B9FF00F0BBFF06222A2100F018
:10421C00EDFD00F0B5FF0368244C1B699847062898
:10422C0023D100F0ADFF03685B699847207000F064
:10423C00A7FF03685B699847607000F0A1FF0368F3
:10424C005B699847A07000F09BFF03685B69984717
:10425C00E07000F095FF03685B699847207100F0EF
:10426C008FFF03685B6998476071114F2378114E7B
:10427C003B60114D63783360A3782B6000F0A0FC99
:10428C003A680E49FFF7ACFF00F09AFC32680C4913
:10429C00FFF7A6FF00F094FC2A680A49FFF7A0FF7D
:1042AC0041F28830BDE8F84000F00EBBB8E30320C3
:1042BC00B4E30320A8E30320B0E30320D4580D009B
:1042CC00E8580D00FA580D00F7B5114F114D0124A7
:1042DC003B689C421ADC21462A20FFF7E7FE85ED5D
:1042EC00000A00F06DFC22460B49FFF779FF00F045
:1042FC0067FC0646286801F037FA084ACDE9000148
:10430C000021304600F093FA0134E1E703B0F0BD30
:10431C00B0E30320ACE3032010590D001E590D002F
:10432C0000F010B808B5024B1B689B68019308BDE0
:10433C006802030008B5024B1B68DB68019308BDDB
:10434C006802030008B5024B1B681B68019308BD8B
:10435C002C02030008B5024B1B685B68019308BD77
:10436C001802030008B5024B1B685B69019308BD7A
:10437C001802030008B5024B1B689B68019308BD2B
:10438C004802030008B5024B1B681B69019308BD6A
:10439C004802030008B5024B1B685B69019308BD1A
:1043AC004802030008B5024B1B685B6C019308BD07
:1043BC004802030008B5024B1B689B6C019308BDB7
:1043CC004802030008B5024B1B685B69019308BDEA
:1043DC006402030008B5024B1B681B68019308BDFF
:1043EC003C02030008B5024B1B68DB68019308BD57
:1043FC003C02030008B5024B1B681B69019308BD06
:10440C003C02030008B5024B1B685B69019308BDB5
:10441C003C02030008B5024B1B689B69019308BD65
:10442C003C02030008B5024B1B68DB69019308BD15
:10443C003C02030008B5024B1B689B6A019308BD44
:10444C003C02030008B5024B1B68DB68019308BDF6
:10445C002802030008B5024B1B689B69019308BD39
:10446C002802030008B5024B1B68DB69019308BDE9
:10447C002802030008B5024B1B681B6A019308BD98
:10448C002802030008B5024B1B685B6A019308BD48
:10449C002802030008B5024B1B689B6A019308BDF8
:1044AC002802030008B5024B1B68DB6A019308BDA8
:1044BC002802030008B5024B1B681B6B019308BD57
:1044CC002802030008B5024B1B681B6C019308BD46
:1044DC002802030008B5024B1B681B6D019308BD35
:1044EC002802030008B5024B1B681B68019308BD2A
:1044FC004C02030008B5024B1B685B68019308BDB6
:10450C004C02030008B5024B1B681B69019308BDE4
:10451C004C02030008B5024B1B685B69019308BD94
:10452C004C02030008B5024B1B689B69019308BD44
:10453C004C02030008B5024B1B68DB69019308BDF4
:10454C004C02030008B5024B1B681B6A019308BDA3
:10455C004C02030008B5024B1B685B68019308BD55
:10456C002002030008B5024B1B685B69019308BD70
:10457C002002030008B5034B1B68D3F88830019365
:10458C0008BD00002002030008B5034B1B68D3F8DC
:10459C009430019308BD00002002030008B5024BC3
:1045AC001B685B68019308BD4002030008B5024B11
:1045BC001B689B68019308BD4002030008B5024BC1
:1045CC001B68DB68019308BD4002030008B5024B71
:1045DC001B681B69019308BD4002030008B5024B20
:1045EC001B685B69019308BD4002030008B5024BD0
:1045FC001B689B69019308BD4002030008B5024B80
:10460C001B68DB69019308BD4002030008B5024B2F
:10461C001B681B6A019308BD4002030008B5024BDE
:10462C001B681B6B019308BD4002030008B5024BCD
:10463C001B685B6B019308BD4002030008B5024B7D
:10464C001B68DB6B019308BD4402030008B5024BE9
:10465C001B681B68019308BD1C02030008B5024BC4
:10466C001B685B68019308BD1C02030008B5024B74
:10467C001B685B6A019308BD1C02030000221146F3
:10468C004068FFF7C3BF002211464068FFF7CEBF5A
:10469C0000224068FFF7C2BF002281F00101406890
:1046AC00FFF7ACBF00231A4619464068FFF79EBFC0
:1046BC0000231A4619464068FFF790BF00221146A6
:1046CC004068FFF783BF002211464068FFF76EBFBA
:1046DC00002202214068FFF771BF00231A46406890
:1046EC00FFF75CBF024B03225A60024A1A60704704
:1046FC00DCE3032040590D0010B50446006818B1E6
:10470C00FFF7ACFF0023236010BD10B50446FFF784
:10471C00F3FF204610BD000010B5094C00204FF6E9
:10472C00FF732060A080A07120816381FFF712FFCE
:10473C002046044A0449BDE8104000F047BD00BFC4
:10474C00E4E30320A4E3032017470D0010B504464F
:10475C00006808B1FFF72EFE204610BD10B5064CC0
:10476C00002320462360FFF71DFE2046034A044920
:10477C00BDE8104000F02ABDF0E30320A4E30320C1
:10478C0059470D00F8B506460D468F180024BD425A
:10479C000CD0336815F8011B9B68304698470028ED
:1047AC0001DB0444F3E7002C08BF04462046F8BDA7
:1047BC0070B505460C46084649B101F073F82B68F4
:1047CC00024621462846DB68BDE87040184770BD9C
:1047DC0003689B68184738B50D210546FFF7F8FFAD
:1047EC000A2104462846FFF7F3FF204438BD30B5B4
:1047FC008BB00B4600218DF82410012A98BF0A2299
:10480C000DF12304B3FBF2F505FB123303F0FF03A8
:10481C00092B94BF30333733DBB2214604F801390E
:10482C002B46002DEED1FFF7C3FF0BB030BD0CB4FF
:10483C002DE9F04387B000AF07F13804054654F872
:10484C00049B3C600E4623464A461421381DFFF754
:10485C000DFF132805D8391D2846FFF7A9FF04467C
:10486C0013E000F1080323F00703E846ADEB030D5A
:10487C00411C23464A4668463C60FFF7F7FE6946F2
:10488C002846FFF795FF0446C5461EB12846FFF79C
:10489C00A2FF044420461C37BD46BDE8F04302B0DD
:1048AC0070470000014B024A1A607047F4E3032082
:1048BC00DF590D00024B1A68024B1A60704700BF9B
:1048CC003CE30320F8E303200021FFF74BBE10B5B7
:1048DC008368044613B1032201469847204610BD55
:1048EC0010B50446FFF7F3FF204610BD0348044AF9
:1048FC0004490023836000F069BC00BFFCE3032083
:10490C00A4E30320ED480D0008B50C4B33B100F0C7
:10491C0057F903681B699847002809DC084B63B1F9
:10492C0000F0CCF903681B699847002803DC08BD2C
:10493C00AFF30080F2E7AFF3008008BD0000000089
:10494C000000000008B5FFF7DFFFFFF70BFD014B80
:10495C00186008BD30E703200248034A0349121AC5
:10496C0000F064BF00F4032004F40320505C0D003D
:10497C0007B5002300931A466FF07701FFF704FE8A
:10498C0003B05DF804FB000007B543880A2B08D080
:10499C00502B09D1094B1B683BB103B05DF804EBFC
:1049AC001847FFF7E5FF06E0002300931A466FF067
:1049BC007701FFF7E9FD03B05DF804FB0CE403207D
:1049CC0038B5104C104D2368AB42104B0CBF012274
:1049DC0000221A7002D0FFF7BFFF2560FFF7BAFC68
:1049EC00044600F037FF0A4B13B12046AFF30080AA
:1049FC0000210748FFF722FE00210648BDE8384099
:104A0C00FFF7B8BD00F403201E1C279A10E4032006
:104A1C000000000095490D00704710B518210446A0
:104A2C0000F0E2FB204610BDF0B5037D062B8DB0E7
:104A3C000E4600F104074FF0000402D000F1080507
:104A4C0018E00CAD394605F8304D2F232A460A20C4
:104A5C00FFF7B8FC284600F025FF33680246DB68F8
:104A6C002946304698470FE024B12E213046FFF7F7
:104A7C00AFFE044415F8011D0A223046FFF7B7FEBD
:104A8C00BD420444F0D120460DB0F0BD10B5054B2D
:104A9C000446112240F8043B002100F0D2FE2046CF
:104AAC0010BD00BF805A0D000346074A10B543F8ED
:104ABC00042B01F1100251F8044B43F8044B9142C2
:104ACC00F9D10A781A7010BD805A0D0010B59DF8F6
:104ADC00084044EA032343EA024242EA0161042308
:104AEC004160037510BD37B50D788B784A78C9785D
:104AFC0000912946FFF7EAFF03B030BD41747047BF
:104B0C00704708B50021007CFFF70CFD30EA20004F
:104B1C0028BF4FF0FF3008BD08B50121007CFFF71E
:104B2C0001FD30EA200028BF4FF0FF3008BD08B56A
:104B3C00007CFFF7EFFC20EAE07008BD08B5007CB4
:104B4C00FFF7E0FC20EAE07008BD007CFFF7FABC40
:104B5C0010B51421044600F047FB204610BD38B5B3
:104B6C000446007C0D46FFF7D5FC002801DC607C78
:104B7C0028B12946207CFFF7DDFC20EAE07038BD27
:104B8C0010B50446002363604FF47A73A360054BA1
:104B9C00236001230846217463741146FFF7A2FCBD
:104BAC00204610BD945A0D000022007CFFF7A2BCD9
:104BBC0010B514220446002100F043FE204610BD1F
:104BCC0030B50E4D87B001A8FFF7F2FF296811F040
:104BDC00010410D12846FFF75CFA60B101AA214606
:104BEC000748FFF7CDFF2846FFF758FA054A064954
:104BFC00034800F0EBFA024807B030BD14E4032080
:104C0C0018E40320A4E303200D4B0D0070474174FE
:104C1C00704708B5007CFFF70DFC20EAE07008BD7A
:104C2C0008B5007CFFF7E6FB20EAE07008BD08B58C
:104C3C00007CFFF7EFFB30EA200028BF4FF0FF307D
:104C4C0008BD08B5007CFFF7DDFB30EA200028BF6B
:104C5C004FF0FF3008BD007CFFF7E4BB10B514210A
:104C6C00044600F0C1FA204610BD70B5457C0446E0
:104C7C000E4625B9007CFFF7DDFB002805DD31462B
:104C8C00207CBDE87040FFF7ADBB284670BD00002E
:104C9C0010B5044608461146002262604FF47A7241
:104CAC00A260054A22600122207462741A46FFF742
:104CBC0091FB204610BD00BFC45A0D0038B50C4DF9
:104CCC00296811F0010411D12846FFF7E2F968B107
:104CDC00084A094B09482146FFF7DAFF2846FFF737
:104CEC00DDF9074A0749054800F070FA034838BD5A
:104CFC00C4E40320C8E4032040E403202CE4032094
:104D0C00A4E30320194C0D007047F8B50646154670
:104D1C000C468F18BC4206D0336814F8011B9B68F4
:104D2C0030469847F6E72846F8BD0022007CFFF78E
:104D3C00A1BB0021007CFFF7A5BB0021007CFFF785
:104D4C00A9BB0021007CFFF7ADBB0021007CFFF765
:104D5C00B1BB10B51421044600F046FA204610BD34
:104D6C0010B50446002363604FF47A73A360044BC0
:104D7C002174084623601146FFF7A4FB204610BDA2
:104D8C00F45A0D0000231A461946007CFFF75ABB53
:104D9C0070B50C4686B0142506462A46002101A89B
:104DAC0000F04FFD23788DF8083063680393E368B7
:104DBC0004930022237A307CADF8045001A90593AA
:104DCC00FFF788FB06B070BD1FB500338DF80010DF
:104DDC004FF06401039118BF0123694601928DF8CD
:104DEC000830FFF7D5FF05B05DF804FB0123FFF792
:104DFC00EBBF0022007CFFF72DBBC9B2FFF7F9BF58
:104E0C000022007CFFF72EBB0121FFF7F9BF002227
:104E1C0011464068FFF7FABB002211464068FFF7C5
:104E2C0005BC00224068FFF7F9BB002281F00101AC
:104E3C004068FFF7E3BB00231A4601214068FFF7E7
:104E4C00D5BB00231A4619464068FFF7C7BB0022A2
:104E5C0011464068FFF7BABB002211464068FFF7C5
:104E6C00A5BB002202214068FFF7A8BB00231A460D
:104E7C004068FFF793BB38B5054688B104684CB160
:104E8C00A3681BB1032221462046984710212046D7
:104E9C0000F0AAF928461421BDE8384000F0A4B966
:104EAC0038BD10B103685B681847704710B50368CC
:104EBC000446BBB15868FFF75DFA78B923685A7C91
:104ECC0012B95868FFF75EFA23685868FFF762FA60
:104EDC0020680023236028B1FFF7CDFF206808B1BC
:104EEC00FFF7C9FF204610BD38B50446D0F8C40101
:104EFC0008B1FFF7CCF8D4F8C00108B1FFF75AFAA3
:104F0C00D4F8BC5135B12846FFF7D0FF0421284610
:104F1C0000F06AF9206808B1FFF7C3FF204638BDDE
:104F2C0010B5044B044640F8083BFFF7DDFF204664
:104F3C0010BD00BF1C5B0D0038B50E4C0E4B236032
:104F4C000025022304F5E4706360A560C4F8C45125
:104F5C00C4F8C851FFF726FA084BC4F8CC5184F8B2
:104F6C00D05123602046064A0649BDE8384000F07F
:104F7C002DB900BF4CE50320845B0D001C5B0D00BC
:104F8C00A4E303202D4F0D00002211464068FFF7CB
:104F9C001DBB002211464068FFF738BB00221146AA
:104FAC004068FFF743BB00224068FFF737BB002285
:104FBC0081F001014068FFF721BB00231A46194616
:104FCC004068FFF713BB00231A4619464068FFF7E9
:104FDC0005BB002211464068FFF7E8BA0022022107
:104FEC004068FFF7EBBA00231A464068FFF7D6BAC1
:104FFC00024B04225A60024A1A60704720E70320D1
:10500C00505B0D0000231A464068FFF7C7BA002218
:10501C0002214068FFF7D2BA002211464068FFF720
:10502C00C5BA002211464068FFF7D0BA00231A46D1
:10503C0019464068FFF7D2BA00231A461946406851
:10504C00FFF7D4BA002281F001014068FFF7D6BA0D
:10505C0000224068FFF7E2BA002211464068FFF7D1
:10506C00E5BA002211464068FFF7D0BA2DE9F043AB
:10507C00002495B016460D460746FFF707FD21465E
:10508C0020220CA8009400F0DCFB40230C9321465A
:10509C006B460CAA3046FFF74DF90446002844D164
:1050AC00024601216868FFF791FA022180462246E8
:1050BC006868FFF78BFA009E81462146002E34D09B
:1050CC00002932D17368022B02D00A2B09D02AE0B6
:1050DC00B8F1000F27D0716938460431FFF703FD92
:1050EC0020E0B9F1000F1ED07469112201A800F064
:1050FC00A8FB06238DF8143001AD04F10803183415
:10510C00186859682A4603C20833A3421546F7D1DA
:10511C0001A906A807ADFFF7C7FC0FCD3C1D0FC4B6
:10512C002B6823700121F669C8E70098FFF7FAF89D
:10513C00384615B0BDE8F083024B034A1A600022D2
:10514C005A60704728E70320845B0D0070B5044655
:10515C0014252A46094E002100F073FB25802025DA
:10516C003146A5602561284600F040F83146606064
:10517C00284600F03BF8E060204670BDB05B0D00A7
:10518C0030B50E4D296811F0010487B013D12846B3
:10519C00FEF77FFF78B101A8FFF7D8FF01AA2146DF
:1051AC000748FFF7DDFD2846FEF778FF054A06495C
:1051BC00034800F00BF8024807B030BD34E7032079
:1051CC0038E70320A4E30320154D0D000B460146E0
:1051DC00184600F01DBB0000024B1868BFF35F8F30
:1051EC00704700BF4CE70320FEF74FBF00F000B83C
:1051FC0010B5002814BF044601242046FFF726FAF8
:10520C0020B9FFF7E9FF08B18047F6E710BD0000B1
:10521C00184B1A68D1075CBF01221A60164B1A682A
:10522C00D2075CBF01221A60144B1A68D0075CBF0E
:10523C0001221A60124B1A68D1075CBF01221A6056
:10524C00104B1A68D2075CBF01221A600E4B1A6809
:10525C00D0075CBF01221A600C4B1A68D1075CBFE7
:10526C0001221A600A4B1A68D2075CBF01221A602D
:10527C00704700BF6CE7032068E7032064E7032056
:10528C0060E703205CE7032058E7032054E7032082
:10529C0050E70320244B1A68D0075CBF01221A6028
:1052AC00224B1A68D1075CBF01221A60204B1A6886
:1052BC00D2075CBF01221A601E4B1A68D0075CBF74
:1052CC0001221A601C4B1A68D1075CBF01221A60BC
:1052DC001A4B1A68D2075CBF01221A60184B1A6865
:1052EC00D0075CBF01221A60164B1A68D1075CBF4D
:1052FC0001221A60144B1A68D2075CBF01221A6093
:10530C00124B1A68D0075CBF01221A60104B1A6846
:10531C00D1075CBF01221A600E4B1A68D2075CBF22
:10532C0001221A60704700BF9CE7032098E7032016
:10533C0094E7032090E703208CE7032088E7032001
:10534C0084E7032080E703207CE7032078E7032031
:10535C0074E7032070E70320244B1A68D0075CBF66
:10536C0001221A60224B1A68D1075CBF01221A6015
:10537C00204B1A68D2075CBF01221A601E4B1A68B8
:10538C00D0075CBF01221A601C4B1A68D1075CBFA6
:10539C0001221A601A4B1A68D2075CBF01221A60EC
:1053AC00184B1A68D0075CBF01221A60164B1A689A
:1053BC00D1075CBF01221A60144B1A68D2075CBF7C
:1053CC0001221A60124B1A68D0075CBF01221A60C6
:1053DC00104B1A68D1075CBF01221A600E4B1A6879
:1053EC00D2075CBF01221A60704700BFCCE70320D4
:1053FC00C8E70320C4E70320C0E70320BCE7032071
:10540C00B8E70320B4E70320B0E70320ACE70320A0
:10541C00A8E70320A4E70320A0E70320184B1A6891
:10542C00D1075CBF01221A60164B1A68D2075CBF09
:10543C0001221A60144B1A68D0075CBF01221A6053
:10544C00124B1A68D1075CBF01221A60104B1A6804
:10545C00D2075CBF01221A600E4B1A68D0075CBFE2
:10546C0001221A600C4B1A68D1075CBF01221A602A
:10547C000A4B1A68D2075CBF01221A60704700BF42
:10548C00ECE70320E8E70320E4E70320E0E7032050
:10549C00DCE70320D8E70320D4E70320D0E7032080
:1054AC0081F0004102E000BF83F0004330B54FEAC9
:1054BC0041044FEA430594EA050F08BF90EA020F36
:1054CC001FBF54EA000C55EA020C7FEA645C7FEAC9
:1054DC00655C00F0E2804FEA5454D4EB5555B8BFEC
:1054EC006D420CDD2C4480EA020281EA030382EA5D
:1054FC00000083EA010180EA020281EA0303362DEF
:10550C0088BF30BD11F0004F4FEA01314FF4801CC1
:10551C004CEA113102D0404261EB410113F0004FD3
:10552C004FEA03334CEA133302D0524263EB43038A
:10553C0094EA050F00F0A780A4F10104D5F1200E28
:10554C000DDB02FA0EFC22FA05F2801841F1000183
:10555C0003FA0EF2801843FA05F359410EE0A5F157
:10556C0020050EF1200E012A03FA0EFC28BF4CF088
:10557C00020C43FA05F3C01851EBE37101F000453E
:10558C0007D54FF0000EDCF1000C7EEB00006EEB4B
:10559C000101B1F5801F1BD3B1F5001F0CD34908D5
:1055AC005FEA30004FEA3C0C04F101044FEA44522C
:1055BC0012F5800F80F09A80BCF1004F08BF5FEAB3
:1055CC00500C50F1000041EB045141EA050130BD93
:1055DC005FEA4C0C404141EB010111F4801FA4F136
:1055EC000104E9D191F0000F04BF01460020B1FA8B
:1055FC0081F308BF2033A3F10B03B3F120020CDAC3
:10560C000C3208DD02F1140CC2F10C0201FA0CF0A0
:10561C0021FA02F10CE002F11402D8BFC2F1200C05
:10562C0001FA02F120FA0CFCDCBF41EA0C019040BB
:10563C00E41AA2BF01EB0451294330BD6FEA040404
:10564C001F3C1CDA0C340EDC04F11404C4F12002EF
:10565C0020FA04F001FA02F340EA030021FA04F301
:10566C0045EA030130BDC4F10C04C4F1200220FA58
:10567C0002F001FA04F340EA0300294630BD21FA96
:10568C0004F0294630BD94F0000F83F4801306BF5C
:10569C0081F480110134013D4EE77FEA645C18BF50
:1056AC007FEA655C29D094EA050F08BF90EA020FE7
:1056BC0005D054EA000C04BF1946104630BD91EADF
:1056CC00030F1EBF0021002030BD5FEA545C05D1E2
:1056DC004000494128BF41F0004130BD14F5800421
:1056EC003CBF01F5801130BD01F0004545F0FE4195
:1056FC0041F470014FF0000030BD7FEA645C1ABFCA
:10570C00194610467FEA655C1CBF0B46024650EA00
:10571C00013406BF52EA033591EA030F41F400212C
:10572C0030BD00BF90F0000F04BF0021704730B5B2
:10573C004FF4806404F132044FF000054FF0000187
:10574C0050E700BF90F0000F04BF0021704730B548
:10575C004FF4806404F1320410F0004548BF40421D
:10576C004FF000013EE700BF42004FEAE2014FEA72
:10577C0031014FEA02701FBF12F07F4393F07F4F4D
:10578C0081F06051704792F0000F14BF93F07F4F7F
:10579C00704730B54FF4607401F0004521F00041C2
:1057AC0020E700BF50EA010208BF704730B54FF048
:1057BC0000050AE050EA010208BF704730B511F04D
:1057CC00004502D5404261EB41014FF4806404F185
:1057DC0032045FEA915C3FF4DCAE4FF003025FEA07
:1057EC00DC0C18BF03325FEADC0C18BF033202EB8F
:1057FC00DC02C2F1200300FA03FC20FA02F001FAE9
:10580C0003FE40EA0E0021FA02F11444C1E600BF87
:10581C0010B5054C13462CB10A4601460220AFF3D5
:10582C00008010BD204610BD0000000010B5431EC6
:10583C000A44914204D011F8014B03F8014FF8E7E8
:10584C0010BD02440346934202D003F8011BFAE751
:10585C007047000038B5124B1C68A36B0546D3B9D2
:10586C001820FEF7F3FE43F20E33A06303804AF6D2
:10587C00CD33438041F2342383804EF26D63C38079
:10588C004DF6EC630381052343810B2383810122B5
:10589C000023C0E90423A36B00221D615A6138BDAB
:1058AC00A0E30320034613F8012B002AFBD1181A9E
:1058BC00013870471D400D0059400D0085400D000A
:1058CC0089400D000000000054797065206F66203F
:1058DC0053656E736F72202569200A004D61782024
:1058EC0043757272656E743A202569200A004E6FFA
:1058FC002E206F66204368616E6E656C733A2025AE
:10590C0069200A004368616E6E656C3A2025692037
:10591C000A0043757272656E742056616C75653A37
:10592C002025302E3266200A000000000000000006
:10593C0000000000E7460D00DD460D00D3460D00CB
:10594C00C9460D00BD460D00B1460D00A5460D0023
:10595C009D460D0093460D0089460D0079500D00B3
:10596C00626175640053657269616C00536572699C
:10597C00616C31007479706500706172616D0063E7
:10598C006D6400696400686E64007374726D006607
:10599C00696C74006C766C0061646448616E646C54
:1059AC0065720072656D6F766548616E646C6572C8
:1059BC0000656E756D48616E646C657273004A5358
:1059CC004F4E53747265616D4C6F6748616E646CB9
:1059DC0065720061707000253031307520005D20DB
:1059EC00002564002C200028293A2000205B00634D
:1059FC006F6465203D200025690064657461696CE5
:105A0C0073203D20000D0A0066006C6E00666E006F
:105A1C00636F64650064657461696C006E6F6E65BC
:105A2C0000747261636500696E666F007761726EF7
:105A3C00006572726F720070616E696300616C6CEC
:105A4C00005A00252B3033643A2530327500255925
:105A5C002D256D2D25645425483A254D3A25532581
:105A6C007A0061736374696D6500000000000000CA
:105A7C0000000000354A0D00254A0D00274A0D0094
:105A8C0000000000000000000D4B0D005D4B0D00F0
:105A9C006B4B0D0091470D00494B0D000F4B0D004A
:105AAC00254B0D00574B0D003B4B0D00094B0D00CA
:105ABC000000000000000000194C0D00694C0D00A6
:105ACC00774C0D0091470D002D4C0D004F4C0D00E7
:105ADC003B4C0D00634C0D001B4C0D001F4C0D007E
:105AEC000000000000000000154D0D005F4D0D0082
:105AFC00374D0D00174D0D003F4D0D00474D0D005E
:105B0C004F4D0D00574D0D0000000000000000002F
:105B1C00794E0D006F4E0D00654E0D005B4E0D0065
:105B2C004F4E0D00434E0D00374E0D002F4E0D0005
:105B3C00254E0D001B4E0D0079500D00000000008D
:105B4C0000000000F34F0D00E94F0D00DF4F0D007A
:105B5C00954F0D00D34F0D00C74F0D00BB4F0D00DF
:105B6C00B34F0D00A94F0D009F4F0D0079500D0044
:105B7C00000000000000000011500D001B500D0033
:105B8C0025500D002F500D0039500D0045500D00C3
:105B9C0051500D005D500D0065500D006F500D0003
:105BAC0079500D0000000000000000000000000013
:105BBC0000000000000000000000000000000000D9
:105BCC0000000000000000000000000000000000C9
:105BDC0000000000000000000000000000000000B9
:105BEC0000000000000000000000000000000000A9
:105BFC000000000000000000000000000000000099
:105C0C000000000000000000430000002D430D00C8
:105C1C00F1460D0025470D0069470D00B1480D00F8
:105C2C00C1480D00F9480D00454F0D00FD4F0D000A
:105C3C0045510D001D520D00A1520D0065530D0074
:045C4C0029540D00CA
:045C50000000000050
:105C54006E5A0D0000000000B45B0D00D45B0D0013
:105C6400F45B0D00000000000000000000000000D4
:105C740000000000145C0D000000000000000000A3
:105C84000000000000000000000000000000000010
:105C94000000000000000000000000000000000000
:105CA40000000000000000000000000000000000F0
:085CB4000000000040E30320A2
:105CBC00FFFFFFFF00000102030405060708090AA5
:105CCC000B0C0D0E0F101112131415161718191AA0
:085CDC001B1C1D1E1F202800E7
:045CE40078563412A8
:04000003D000401CCD
:00000001FF
