:02000002D0002C
:1040000000400D0084570D00000006000C00050163
:084010000401E80500000000B6
:044018002C530D0018
:10401C0009480A49884208B505D0094A824202D0AB
:10402C00121A01F039F90748074A0021121A01F057
:10403C003EF9014808BD00BF70E30320F4560D00A3
:10404C00D8E30320D8E30320F0E7032070B500F099
:10405C00D3FB074C074BE41AA40800251E46A542C7
:10406C0004D056F8253098470135F8E770BD00BFED
:10407C00E8560D0098560D0000F014B808B500F085
:10408C002BF8BDE8084000F079BB00F037BA00F01F
:10409C0035BA0078B0FA80F04009704701230370FC
:1040AC007047000008B500F059FF00F08DFD00F0DE
:1040BC00A9FC4FF4165100F093FC00F0A3FC00F0A7
:1040CC0096FC0028F9D000F09DFC0249BDE80840A0
:1040DC0000F0D9BA40530D0070B500F093FC2B4999
:1040EC0000F0D1FA4FF47A7000F00AFB012400259D
:1040FC0000F034FFE1B200F06DFD00F02FFF00F096
:10410C0071FDC0B900F07EFC214900F0A9FA0F2C1A
:10411C0004D800F077FC1F4900F0A2FA00F072FC02
:10412C001022214600F0B9FA00F06CFC1A4900F09C
:10413C00AAFA013517E0042815D100F063FC1749E1
:10414C0000F08EFA0F2C04D800F05CFC114900F042
:10415C0087FA00F057FC10220646214600F09DFA23
:10416C00304600F084FA01347F2CC1D11DB900F027
:10417C0049FC0B4902E000F045FC0A4900F083FAC7
:10418C0041F28830BDE8704000F0BABA4D530D00D2
:10419C0059530D0078530D007A530D007E530D00CA
:1041AC0099530D00AF530D0000F01CB800F01AB875
:1041BC0000F018B800F016B800F014B800F012B8FF
:1041CC0000F010B808B5024B1B689B68019308BD42
:1041DC006802030008B5024B1B68DB68019308BD3D
:1041EC006802030008B5024B1B681B68019308BDED
:1041FC002C02030008B5024B1B685B68019308BDD9
:10420C001802030008B5024B1B685B69019308BDDB
:10421C001802030008B5024B1B689B68019308BD8C
:10422C004802030008B5024B1B681B69019308BDCB
:10423C004802030008B5024B1B685B69019308BD7B
:10424C004802030008B5024B1B685B6C019308BD68
:10425C004802030008B5024B1B689B6C019308BD18
:10426C004802030008B5024B1B685B69019308BD4B
:10427C006402030008B5024B1B681B68019308BD60
:10428C003C02030008B5024B1B68DB68019308BDB8
:10429C003C02030008B5024B1B681B69019308BD67
:1042AC003C02030008B5024B1B685B69019308BD17
:1042BC003C02030008B5024B1B689B69019308BDC7
:1042CC003C02030008B5024B1B68DB69019308BD77
:1042DC003C02030008B5024B1B689B6A019308BDA6
:1042EC003C02030008B5024B1B68DB68019308BD58
:1042FC002802030008B5024B1B689B69019308BD9B
:10430C002802030008B5024B1B68DB69019308BD4A
:10431C002802030008B5024B1B681B6A019308BDF9
:10432C002802030008B5024B1B685B6A019308BDA9
:10433C002802030008B5024B1B689B6A019308BD59
:10434C002802030008B5024B1B68DB6A019308BD09
:10435C002802030008B5024B1B681B6B019308BDB8
:10436C002802030008B5024B1B681B6C019308BDA7
:10437C002802030008B5024B1B681B68019308BD9B
:10438C004C02030008B5024B1B685B68019308BD27
:10439C004C02030008B5024B1B681B69019308BD56
:1043AC004C02030008B5024B1B685B69019308BD06
:1043BC004C02030008B5024B1B689B69019308BDB6
:1043CC004C02030008B5024B1B68DB69019308BD66
:1043DC004C02030008B5024B1B681B6A019308BD15
:1043EC004C02030008B5024B1B685B6A019308BDC5
:1043FC004C02030008B5024B1B685B68019308BDB7
:10440C002002030008B5024B1B685B69019308BDD1
:10441C002002030008B5034B1B68D3F888300193C6
:10442C0008BD00002002030008B5034B1B68D3F83D
:10443C009430019308BD00002002030008B5024B24
:10444C001B685B68019308BD4002030008B5024B72
:10445C001B689B68019308BD4002030008B5024B22
:10446C001B68DB68019308BD4002030008B5024BD2
:10447C001B681B69019308BD4002030008B5024B81
:10448C001B685B69019308BD4002030008B5024B31
:10449C001B689B69019308BD4002030008B5024BE1
:1044AC001B68DB69019308BD4002030008B5024B91
:1044BC001B681B6A019308BD4002030008B5024B40
:1044CC001B681B6B019308BD4002030008B5024B2F
:1044DC001B685B6B019308BD4002030008B5024BDF
:1044EC001B68DB6B019308BD4402030008B5024B4B
:1044FC001B681B68019308BD1C02030008B5024B26
:10450C001B685B68019308BD1C0203000022114666
:10451C004068FFF7CBBF002211464068FFF7D6BFBB
:10452C0000224068FFF7CABF002281F001014068F9
:10453C00FFF7B4BF00231A4619464068FFF7A6BF21
:10454C0000231A4619464068FFF798BF002211460F
:10455C004068FFF78BBF002211464068FFF776BF1B
:10456C00002202214068FFF779BF00231A464068F9
:10457C00FFF764BF024B03225A60024A1A6070476D
:10458C00DCE30320C0530D0010B50446006818B1DD
:10459C00FFF7B4FF0023236010BD10B50446FFF7EE
:1045AC00F3FF204610BD000010B5094C00204FF65B
:1045BC00FF732060A080A07120816381FFF71AFF38
:1045CC002046044A0449BDE8104000F0EDBC00BF91
:1045DC00E4E30320D8E30320A7450D0010B50446FF
:1045EC00006808B1FFF736FE204610BD10B5064C2A
:1045FC00002320462360FFF725FE2046034A04498A
:10460C00BDE8104000F0D0BCF0E30320D8E3032059
:10461C00E9450D00F8B506460D468F180024BD423D
:10462C000CD0336815F8011B9B683046984700285E
:10463C0001DB0444F3E7002C08BF04462046F8BD18
:10464C0070B505460C46084649B100F061FE2B6872
:10465C00024621462846DB68BDE87040184770BD0D
:10466C0008B5FFF7EDFF08BD03689B68184738B520
:10467C000D210546FFF7F8FF0A2104462846FFF7EF
:10468C00F3FF204438BD38B50546FFF7D9FF044683
:10469C002846FFF7ECFF204438BD30B58BB00B46F5
:1046AC0000218DF82410012A98BF0A220DF1230451
:1046BC00B3FBF2F505FB123303F0FF03092B94BF98
:1046CC0030333733DBB2214604F801392B46002D49
:1046DC00EED1FFF7B5FF0BB030BD0000014B024A25
:1046EC001A607047F4E303205F540D00024B1A6804
:1046FC00024B1A60704700BF70E30320F8E30320FD
:10470C000021FFF77FBE10B58368044613B1032266
:10471C0001469847204610BD10B50446FFF7F3FF3D
:10472C00204610BD0348044A04490023836000F06E
:10473C003BBC00BFFCE30320D8E3032025470D005E
:10474C0008B50C4B33B100F05DF903681B69984751
:10475C00002809DC084B63B100F0D2F903681B692F
:10476C009847002803DC08BDAFF30080F2E7AFF3F5
:10477C00008008BD000000000000000008B5FFF735
:10478C00DFFFFFF73FFD014B186008BD30E703204A
:10479C000248034A0349121A00F07EBD00F40320BC
:1047AC0004F40320F0560D0007B5002300931A46BD
:1047BC006FF07701FFF738FE03B05DF804FB0000E3
:1047CC0007B543880A2B08D0502B09D1094B1B681D
:1047DC003BB103B05DF804EB1847FFF7E5FF06E0CB
:1047EC00002300931A466FF07701FFF71DFE03B00C
:1047FC005DF804FB0CE4032038B5104C104D236815
:10480C00AB42104B0CBF012200221A7002D0FFF7F2
:10481C00BFFF2560FFF7EEFC044600F051FD0A4B8C
:10482C0013B12046AFF3008000210748FFF756FE76
:10483C0000210648BDE83840FFF7ECBD00F403202A
:10484C001E1C279A10E4032000000000CD470D0029
:10485C00704710B51821044600F0B4FB204610BD7B
:10486C00F0B5037D062B8DB00E4600F104074FF01A
:10487C00000402D000F1080518E00CAD394605F82B
:10488C00304D2F232A460A20FFF7ECFC284600F077
:10489C003FFD33680246DB682946304698470FE0F7
:1048AC0024B12E213046FFF7DFFE044415F8011D1C
:1048BC000A223046FFF7F1FEBD420444F0D12046F7
:1048CC000DB0F0BD10B5054B0446112240F8043B69
:1048DC00002100F0ECFC204610BD00BF00550D007F
:1048EC000346074A10B543F8042B01F1100251F8A6
:1048FC00044B43F8044B9142F9D10A781A7010BD5D
:10490C0000550D0010B59DF8084044EA032343EA16
:10491C00024242EA016104234160037510BD37B5C0
:10492C000D788B784A78C97800912946FFF7EAFF11
:10493C0003B030BD41747047704708B50021007C4E
:10494C00FFF738FD30EA200028BF4FF0FF3008BDDC
:10495C0008B50121007CFFF72DFD30EA200028BFAF
:10496C004FF0FF3008BD08B5007CFFF71BFD20EAB7
:10497C00E07008BD08B5007CFFF70CFD20EAE07084
:10498C0008BD007CFFF726BD10B51421044600F0CD
:10499C0019FB204610BD38B50446007C0D46FFF7C8
:1049AC0001FD002801DC607C28B12946207CFFF742
:1049BC0009FD20EAE07038BD10B5044600236360A1
:1049CC004FF47A73A360054B2360012308462174CE
:1049DC0063741146FFF7CEFC204610BD14550D0034
:1049EC000022007CFFF7CEBC007CFFF7FBBCFFF77E
:1049FC00FBBF10B514220446002100F058FC2046E1
:104A0C0010BD000030B50E4D87B001A8FFF7F1FFC7
:104A1C00296811F0010410D12846FFF73AFB60B168
:104A2C0001AA21460748FFF7C7FF2846FFF736FBC8
:104A3C00054A0649034800F0B7FA024807B030BDF2
:104A4C0014E4032018E40320D8E3032045490D00A7
:104A5C0070474174704708B5007CFFF73BFC20EAB7
:104A6C00E07008BD08B5007CFFF714FC20EAE0708C
:104A7C0008BD08B5007CFFF71DFC30EA200028BFFC
:104A8C004FF0FF3008BD08B5007CFFF70BFC30EA97
:104A9C00200028BF4FF0FF3008BD007CFFF712BC90
:104AAC0010B51421044600F08DFA204610BD70B5E7
:104ABC00457C04460E4625B9007CFFF70BFC00280C
:104ACC0005DD3146207CBDE87040FFF7DBBB284696
:104ADC0070BD000010B50446084611460022626005
:104AEC004FF47A72A260054A22600122207462742B
:104AFC001A46FFF7BFFB204610BD00BF44550D0002
:104B0C0038B50C4D296811F0010411D12846FFF776
:104B1C00C0FA68B1084A094B09482146FFF7DAFF89
:104B2C002846FFF7BBFA074A0749054800F03CFA4C
:104B3C00034838BDC4E40320C8E4032040E4032048
:104B4C002CE40320D8E303205D4A0D007047F8B530
:104B5C00064615460C468F18BC4206D0336814F82E
:104B6C00011B9B6830469847F6E72846F8BD0022A3
:104B7C00007CFFF7CFBB0021007CFFF7D3BB0021EB
:104B8C00007CFFF7D7BB0021007CFFF7DBBB0021CB
:104B9C00007CFFF7DFBB10B51421044600F012FABD
:104BAC00204610BD10B50446002363604FF47A73A1
:104BBC00A360044B2174084623601146FFF7D2FB17
:104BCC00204610BD74550D0000231A461946007C72
:104BDC00FFF788BB0022007CFFF78CBB0022007C17
:104BEC00FFF790BB0121FFF7F9BF00221146406887
:104BFC00FFF75CBC002211464068FFF767BC00223F
:104C0C004068FFF75BBC002281F001014068FFF7B0
:104C1C0045BC00231A4601214068FFF737BC00232E
:104C2C001A4619464068FFF729BC00221146406815
:104C3C00FFF71CBC002211464068FFF707BC00229E
:104C4C0002214068FFF70ABC00231A464068FFF7B0
:104C5C00F5BB38B5054688B104684CB1A3681BB1E7
:104C6C0003222146204698471021204600F0AAF93D
:104C7C0028461421BDE8384000F0A4B938BD10B165
:104C8C0003685B681847704710B503680446BBB1EE
:104C9C005868FFF7BFFA78B923685A7C12B958687C
:104CAC00FFF7C0FA23685868FFF7C4FA206800239E
:104CBC00236028B1FFF7CDFF206808B1FFF7C9FFCB
:104CCC00204610BD38B50446D0F8C40108B1FFF732
:104CDC00DEF9D4F8C00108B1FFF7BCFAD4F8BC5126
:104CEC0035B12846FFF7D0FF0421284600F06AF9B9
:104CFC00206808B1FFF7C3FF204638BD10B5044B40
:104D0C00044640F8083BFFF7DDFF204610BD00BF0E
:104D1C009C550D0038B50E4C0E4B2360002502231C
:104D2C0004F5E4706360A560C4F8C451C4F8C851BC
:104D3C00FFF788FA084BC4F8CC5184F8D0512360A3
:104D4C002046064A0649BDE8384000F02DB900BFA0
:104D5C004CE5032004560D009C550D00D8E30320B0
:104D6C00094D0D00002211464068FFF77FBB002261
:104D7C0011464068FFF79ABB002211464068FFF7C6
:104D8C00A5BB00224068FFF799BB002281F001010E
:104D9C004068FFF783BB00231A4619464068FFF7AB
:104DAC0075BB00231A4619464068FFF767BB002203
:104DBC0011464068FFF74ABB002202214068FFF70A
:104DCC004DBB00231A464068FFF738BB024B042248
:104DDC005A60024A1A60704720E70320D0550D0034
:104DEC0000231A464068FFF729BB002202214068C5
:104DFC00FFF734BB002211464068FFF727BB0022A7
:104E0C0011464068FFF732BB00231A46194640682A
:104E1C00FFF734BB00231A4619464068FFF736BB30
:104E2C00002281F001014068FFF738BB0022406886
:104E3C00FFF744BB002211464068FFF747BB002236
:104E4C0011464068FFF732BB2DE9F043002495B0C2
:104E5C0016460D460746FFF735FD214620220CA8C5
:104E6C00009400F024FA40230C9321466B460CAAC4
:104E7C003046FFF7AFF90446002844D10246012121
:104E8C006868FFF7F3FA0221804622466868FFF74C
:104E9C00EDFA009E81462146002E34D0002932D1F5
:104EAC007368022B02D00A2B09D02AE0B8F1000F4C
:104EBC0027D0716938460431FFF731FD20E0B9F194
:104ECC00000F1ED07469112201A800F0F0F906231E
:104EDC008DF8143001AD04F10803183418685968C2
:104EEC002A4603C20833A3421546F7D101A906A8E6
:104EFC0007ADFFF7F5FC0FCD3C1D0FC42B682370DD
:104F0C000121F669C8E70098FFF75CF9384615B03F
:104F1C00BDE8F083024B034A1A6000225A607047C6
:104F2C0028E7032004560D0070B5044614252A46C4
:104F3C00094E002100F0BBF9258020253146A560E3
:104F4C002561284600F040F831466060284600F0A4
:104F5C003BF8E060204670BD30560D0030B50E4D6C
:104F6C00296811F0010487B013D12846FFF791F896
:104F7C0078B101A8FFF7D8FF01AA21460748FFF72F
:104F8C0011FE2846FFF78AF8054A0649034800F047
:104F9C000BF8024807B030BD34E7032038E7032094
:104FAC00D8E30320594B0D000B460146184600F080
:104FBC0065B90000024B1868BFF35F8F704700BFE4
:104FCC004CE70320FFF761B800F000B810B50028DB
:104FDC0014BF044601242046FFF788FA20B9FFF7D6
:104FEC00E9FF08B18047F6E710BD0000184B1A68BE
:104FFC00D1075CBF01221A60164B1A68D2075CBF3E
:10500C0001221A60144B1A68D0075CBF01221A6087
:10501C00124B1A68D1075CBF01221A60104B1A6838
:10502C00D2075CBF01221A600E4B1A68D0075CBF16
:10503C0001221A600C4B1A68D1075CBF01221A605E
:10504C000A4B1A68D2075CBF01221A60704700BF76
:10505C006CE7032068E7032064E7032060E7032084
:10506C005CE7032058E7032054E7032050E70320B4
:10507C00244B1A68D0075CBF01221A60224B1A68B5
:10508C00D1075CBF01221A60204B1A68D2075CBFA3
:10509C0001221A601E4B1A68D0075CBF01221A60ED
:1050AC001C4B1A68D1075CBF01221A601A4B1A6894
:1050BC00D2075CBF01221A60184B1A68D0075CBF7C
:1050CC0001221A60164B1A68D1075CBF01221A60C4
:1050DC00144B1A68D2075CBF01221A60124B1A6873
:1050EC00D0075CBF01221A60104B1A68D1075CBF55
:1050FC0001221A600E4B1A68D2075CBF01221A609B
:10510C00704700BF9CE7032098E7032094E7032037
:10511C0090E703208CE7032088E7032084E7032033
:10512C0080E703207CE7032078E7032074E7032063
:10513C0070E70320244B1A68D0075CBF01221A6069
:10514C00224B1A68D1075CBF01221A60204B1A68E7
:10515C00D2075CBF01221A601E4B1A68D0075CBFD5
:10516C0001221A601C4B1A68D1075CBF01221A601D
:10517C001A4B1A68D2075CBF01221A60184B1A68C6
:10518C00D0075CBF01221A60164B1A68D1075CBFAE
:10519C0001221A60144B1A68D2075CBF01221A60F4
:1051AC00124B1A68D0075CBF01221A60104B1A68A8
:1051BC00D1075CBF01221A600E4B1A68D2075CBF84
:1051CC0001221A60704700BFCCE70320C8E7032018
:1051DC00C4E70320C0E70320BCE70320B8E70320A3
:1051EC00B4E70320B0E70320ACE70320A8E70320D3
:1051FC00A4E70320A0E70320184B1A68D1075CBF73
:10520C0001221A60164B1A68D2075CBF01221A6081
:10521C00144B1A68D0075CBF01221A60124B1A6833
:10522C00D1075CBF01221A60104B1A68D2075CBF11
:10523C0001221A600E4B1A68D0075CBF01221A605B
:10524C000C4B1A68D1075CBF01221A600A4B1A6812
:10525C00D2075CBF01221A60704700BFECE7032045
:10526C00E8E70320E4E70320E0E70320DCE7032082
:10527C00D8E70320D4E70320D0E7032010B5054C72
:10528C0013462CB10A4601460220AFF3008010BD34
:10529C00204610BD0000000010B5431E0A44914288
:1052AC0004D011F8014B03F8014FF8E710BD02448C
:1052BC000346934202D003F8011BFAE77047000043
:1052CC0038B5124B1C68A36B0546D3B91820FFF7F1
:1052DC000DF943F20E33A06303804AF6CD334380BD
:1052EC0041F2342383804EF26D63C3804DF6EC6340
:1052FC000381052343810B23838101220023C0E911
:10530C000423A36B00221D615A6138BDD4E3032032
:10531C00034613F8012B002AFBD1181A01387047E9
:10532C001D400D0059400D0085400D0089400D00B9
:10533C00000000000A493243205363616E6E6572AF
:10534C00005363616E6E696E672E2E2E00493243D8
:10535C002064657669636520666F756E6420617480
:10536C0020616464726573732030780030002020F3
:10537C002100556E6B6E6F77206572726F722061B3
:10538C00742061646472657373203078004E6F20F2
:10539C00493243206465766963657320666F756E68
:1053AC00640A00646F6E650A0000000000000000D3
:1053BC000000000077450D006D450D0063450D00A4
:1053CC0059450D004D450D0041450D0035450D006D
:1053DC002D450D0023450D0019450D00554E0D00B2
:1053EC00626175640053657269616C005365726922
:1053FC00616C31007479706500706172616D00636D
:10540C006D6400696400686E64007374726D00668C
:10541C00696C74006C766C0061646448616E646CD9
:10542C0065720072656D6F766548616E646C65724D
:10543C0000656E756D48616E646C657273004A53DD
:10544C004F4E53747265616D4C6F6748616E646C3E
:10545C0065720061707000253031307520005D2060
:10546C00002564002C200028293A2000205B0063D2
:10547C006F6465203D200025690064657461696C6A
:10548C0073203D20000D0A0066006C6E00666E00F5
:10549C00636F64650064657461696C006E6F6E6542
:1054AC0000747261636500696E666F007761726E7D
:1054BC00006572726F720070616E696300616C6C72
:1054CC00005A00252B3033643A25303275002559AB
:1054DC002D256D2D25645425483A254D3A25532507
:1054EC007A0061736374696D650000000000000050
:1054FC00000000006D480D005D480D005F480D0078
:10550C00000000000000000045490D0095490D0009
:10551C00A3490D0021460D0081490D0047490D009E
:10552C005D490D008F490D0073490D0041490D0077
:10553C0000000000000000005D4A0D00AD4A0D00A7
:10554C00BB4A0D0021460D00714A0D00934A0D0017
:10555C007F4A0D00A74A0D005F4A0D00634A0D00FB
:10556C000000000000000000594B0D00A34B0D0083
:10557C007B4B0D005B4B0D00834B0D008B4B0D00DB
:10558C00934B0D009B4B0D00000000000000000031
:10559C00554C0D004B4C0D00414C0D00374C0D0083
:1055AC002B4C0D001F4C0D00134C0D000B4C0D0023
:1055BC00014C0D00F74B0D00554E0D000000000086
:1055CC0000000000CF4D0D00C54D0D00BB4D0D0072
:1055DC00714D0D00AF4D0D00A34D0D00974D0D00FD
:1055EC008F4D0D00854D0D007B4D0D00554E0D0062
:1055FC000000000000000000ED4D0D00F74D0D0007
:10560C00014E0D000B4E0D00154E0D00214E0D00E0
:10561C002D4E0D00394E0D00414E0D004B4E0D0020
:10562C00554E0D00000000000000000000000000BE
:10563C00000000000000000000000000000000005E
:10564C00000000000000000000000000000000004E
:10565C00000000000000000000000000000000003E
:10566C00000000000000000000000000000000002E
:10567C00000000000000000000000000000000001E
:10568C00000000000000000043000000B5410D00C8
:10569C00B9410D00BD410D00C1410D00C5410D00CA
:1056AC00C9410D00CD410D0081450D00B5450D00E2
:1056BC00F9450D00E9460D00F9460D0031470D0086
:1056CC00214D0D00D94D0D00214F0D00F94F0D004E
:1056DC007D500D0041510D0005520D0000000000E1
:0456EC0000000000BA
:0456F00000000000B6
:1056F400EE540D000000000034560D0054560D0009
:1057040074560D00000000000000000000000000BE
:105714000000000094560D0000000000000000008E
:105724000000000000000000000000000000000075
:105734000000000000000000000000000000000065
:105744000000000000000000000000000000000055
:085754000000000074E30320D3
:10575C00FFFFFFFF00000102030405060708090A0A
:10576C000B0C0D0E0F101112131415161718191A05
:08577C001B1C1D1E1F2028004C
:04578400785634120D
:04000003D000401CCD
:00000001FF
